{
  "_format": "hh-sol-artifact-1",
  "contractName": "ChainAnexToken",
  "sourceName": "contracts/ChainAnexToken.sol",
  "abi": [
    {
      "inputs": [
        {
          "internalType": "address",
          "name": "owner",
          "type": "address"
        },
        {
          "internalType": "string",
          "name": "name",
          "type": "string"
        },
        {
          "internalType": "string",
          "name": "symbol",
          "type": "string"
        },
        {
          "internalType": "uint256",
          "name": "supply",
          "type": "uint256"
        }
      ],
      "stateMutability": "nonpayable",
      "type": "constructor"
    },
    {
      "anonymous": false,
      "inputs": [
        {
          "indexed": true,
          "internalType": "address",
          "name": "owner",
          "type": "address"
        },
        {
          "indexed": true,
          "internalType": "address",
          "name": "spender",
          "type": "address"
        },
        {
          "indexed": false,
          "internalType": "uint256",
          "name": "value",
          "type": "uint256"
        }
      ],
      "name": "Approval",
      "type": "event"
    },
    {
      "anonymous": false,
      "inputs": [
        {
          "indexed": true,
          "internalType": "address",
          "name": "_from",
          "type": "address"
        },
        {
          "indexed": true,
          "internalType": "address",
          "name": "_to",
          "type": "address"
        }
      ],
      "name": "OwnershipTransferred",
      "type": "event"
    },
    {
      "anonymous": false,
      "inputs": [
        {
          "indexed": true,
          "internalType": "address",
          "name": "from",
          "type": "address"
        },
        {
          "indexed": true,
          "internalType": "address",
          "name": "to",
          "type": "address"
        },
        {
          "indexed": false,
          "internalType": "uint256",
          "name": "value",
          "type": "uint256"
        }
      ],
      "name": "Transfer",
      "type": "event"
    },
    {
      "anonymous": false,
      "inputs": [
        {
          "indexed": true,
          "internalType": "address",
          "name": "from",
          "type": "address"
        },
        {
          "indexed": true,
          "internalType": "address",
          "name": "to",
          "type": "address"
        },
        {
          "indexed": false,
          "internalType": "uint256",
          "name": "value",
          "type": "uint256"
        }
      ],
      "name": "TransferLock",
      "type": "event"
    },
    {
      "inputs": [],
      "name": "_newOwner",
      "outputs": [
        {
          "internalType": "address",
          "name": "",
          "type": "address"
        }
      ],
      "stateMutability": "view",
      "type": "function"
    },
    {
      "inputs": [],
      "name": "_owner",
      "outputs": [
        {
          "internalType": "address",
          "name": "",
          "type": "address"
        }
      ],
      "stateMutability": "view",
      "type": "function"
    },
    {
      "inputs": [],
      "name": "acceptOwnership",
      "outputs": [],
      "stateMutability": "nonpayable",
      "type": "function"
    },
    {
      "inputs": [
        {
          "internalType": "address",
          "name": "owner",
          "type": "address"
        },
        {
          "internalType": "address",
          "name": "spender",
          "type": "address"
        }
      ],
      "name": "allowance",
      "outputs": [
        {
          "internalType": "uint256",
          "name": "",
          "type": "uint256"
        }
      ],
      "stateMutability": "view",
      "type": "function"
    },
    {
      "inputs": [
        {
          "internalType": "address",
          "name": "spender",
          "type": "address"
        },
        {
          "internalType": "uint256",
          "name": "amount",
          "type": "uint256"
        }
      ],
      "name": "approve",
      "outputs": [
        {
          "internalType": "bool",
          "name": "",
          "type": "bool"
        }
      ],
      "stateMutability": "nonpayable",
      "type": "function"
    },
    {
      "inputs": [
        {
          "internalType": "address",
          "name": "account",
          "type": "address"
        }
      ],
      "name": "balanceOf",
      "outputs": [
        {
          "internalType": "uint256",
          "name": "",
          "type": "uint256"
        }
      ],
      "stateMutability": "view",
      "type": "function"
    },
    {
      "inputs": [
        {
          "internalType": "address",
          "name": "account",
          "type": "address"
        },
        {
          "internalType": "uint256",
          "name": "amount",
          "type": "uint256"
        }
      ],
      "name": "burn",
      "outputs": [],
      "stateMutability": "nonpayable",
      "type": "function"
    },
    {
      "inputs": [],
      "name": "decimals",
      "outputs": [
        {
          "internalType": "uint8",
          "name": "",
          "type": "uint8"
        }
      ],
      "stateMutability": "view",
      "type": "function"
    },
    {
      "inputs": [
        {
          "internalType": "address",
          "name": "to",
          "type": "address"
        },
        {
          "internalType": "uint256",
          "name": "tokens",
          "type": "uint256"
        },
        {
          "internalType": "uint256",
          "name": "lockingPeriod",
          "type": "uint256"
        }
      ],
      "name": "distributeTokens",
      "outputs": [
        {
          "internalType": "bool",
          "name": "success",
          "type": "bool"
        }
      ],
      "stateMutability": "nonpayable",
      "type": "function"
    },
    {
      "inputs": [],
      "name": "name",
      "outputs": [
        {
          "internalType": "string",
          "name": "",
          "type": "string"
        }
      ],
      "stateMutability": "view",
      "type": "function"
    },
    {
      "inputs": [],
      "name": "symbol",
      "outputs": [
        {
          "internalType": "string",
          "name": "",
          "type": "string"
        }
      ],
      "stateMutability": "view",
      "type": "function"
    },
    {
      "inputs": [],
      "name": "totalSupply",
      "outputs": [
        {
          "internalType": "uint256",
          "name": "",
          "type": "uint256"
        }
      ],
      "stateMutability": "view",
      "type": "function"
    },
    {
      "inputs": [
        {
          "internalType": "address",
          "name": "recipient",
          "type": "address"
        },
        {
          "internalType": "uint256",
          "name": "amount",
          "type": "uint256"
        }
      ],
      "name": "transfer",
      "outputs": [
        {
          "internalType": "bool",
          "name": "",
          "type": "bool"
        }
      ],
      "stateMutability": "nonpayable",
      "type": "function"
    },
    {
      "inputs": [
        {
          "internalType": "address",
          "name": "sender",
          "type": "address"
        },
        {
          "internalType": "address",
          "name": "recipient",
          "type": "address"
        },
        {
          "internalType": "uint256",
          "name": "amount",
          "type": "uint256"
        }
      ],
      "name": "transferFrom",
      "outputs": [
        {
          "internalType": "bool",
          "name": "",
          "type": "bool"
        }
      ],
      "stateMutability": "nonpayable",
      "type": "function"
    },
    {
      "inputs": [
        {
          "internalType": "address",
          "name": "token",
          "type": "address"
        },
        {
          "internalType": "address",
          "name": "recipient",
          "type": "address"
        }
      ],
      "name": "transferOtherCurrencies",
      "outputs": [],
      "stateMutability": "nonpayable",
      "type": "function"
    },
    {
      "inputs": [
        {
          "internalType": "address",
          "name": "newOwner",
          "type": "address"
        }
      ],
      "name": "transferOwnership",
      "outputs": [],
      "stateMutability": "nonpayable",
      "type": "function"
    },
    {
      "inputs": [
        {
          "internalType": "address",
          "name": "account",
          "type": "address"
        }
      ],
      "name": "unLockedBalanceOf",
      "outputs": [
        {
          "internalType": "uint256",
          "name": "",
          "type": "uint256"
        }
      ],
      "stateMutability": "view",
      "type": "function"
    }
  ],
  "bytecode": "0x60806040523480156200001157600080fd5b5060405162001cb238038062001cb2833981810160405260808110156200003757600080fd5b8151602083018051604051929492938301929190846401000000008211156200005f57600080fd5b9083019060208201858111156200007557600080fd5b82516401000000008111828201881017156200009057600080fd5b82525081516020918201929091019080838360005b83811015620000bf578181015183820152602001620000a5565b50505050905090810190601f168015620000ed5780820380516001836020036101000a031916815260200191505b50604052602001805160405193929190846401000000008211156200011157600080fd5b9083019060208201858111156200012757600080fd5b82516401000000008111828201881017156200014257600080fd5b82525081516020918201929091019080838360005b838110156200017157818101518382015260200162000157565b50505050905090810190601f1680156200019f5780820380516001836020036101000a031916815260200191505b506040526020908101518551909350620001c092506007918601906200027a565b508151620001d69060089060208501906200027a565b506009805460ff19166012179055670de0b6b3a764000081026006819055600080546001600160a01b038088166001600160a01b03199092169190911780835581168252600260209081526040808420859055835483168452600382528084208590558354815195865290519216937fddf252ad1be2c89b69c2b068fc378daa952ba7f163c4a11628f55a4df523b3ef929081900390910190a35050505062000316565b828054600181600116156101000203166002900490600052602060002090601f016020900481019282601f10620002bd57805160ff1916838001178555620002ed565b82800160010185558215620002ed579182015b82811115620002ed578251825591602001919060010190620002d0565b50620002fb929150620002ff565b5090565b5b80821115620002fb576000815560010162000300565b61198c80620003266000396000f3fe608060405234801561001057600080fd5b506004361061010b5760003560e01c806379ba5097116100a2578063b2bdfa7b11610071578063b2bdfa7b1461031f578063b74908fe14610343578063cc254bdd1461034b578063dd62ed3e1461037d578063f2fde38b146103ab5761010b565b806379ba5097146102b757806395d89b41146102bf5780639dc29fac146102c7578063a9059cbb146102f35761010b565b806324a14c24116100de57806324a14c241461021d578063313ce567146102435780634e10ee081461026157806370a08231146102915761010b565b806306fdde0314610110578063095ea7b31461018d57806318160ddd146101cd57806323b872dd146101e7575b600080fd5b6101186103d1565b6040805160208082528351818301528351919283929083019185019080838360005b8381101561015257818101518382015260200161013a565b50505050905090810190601f16801561017f5780820380516001836020036101000a031916815260200191505b509250505060405180910390f35b6101b9600480360360408110156101a357600080fd5b506001600160a01b038135169060200135610467565b604080519115158252519081900360200190f35b6101d561053d565b60408051918252519081900360200190f35b6101b9600480360360608110156101fd57600080fd5b506001600160a01b03813581169160208101359091169060400135610543565b6101d56004803603602081101561023357600080fd5b50356001600160a01b03166106e5565b61024b610700565b6040805160ff9092168252519081900360200190f35b61028f6004803603604081101561027757600080fd5b506001600160a01b0381358116916020013516610709565b005b6101d5600480360360208110156102a757600080fd5b50356001600160a01b031661086a565b61028f610885565b610118610942565b61028f600480360360408110156102dd57600080fd5b506001600160a01b0381351690602001356109a3565b6101b96004803603604081101561030957600080fd5b506001600160a01b038135169060200135610d32565b610327610d4f565b604080516001600160a01b039092168252519081900360200190f35b610327610d5e565b6101b96004803603606081101561036157600080fd5b506001600160a01b038135169060208101359060400135610d6d565b6101d56004803603604081101561039357600080fd5b506001600160a01b0381358116916020013516610e0a565b61028f600480360360208110156103c157600080fd5b50356001600160a01b0316610e35565b60078054604080516020601f600260001961010060018816150201909516949094049384018190048102820181019092528281526060939092909183018282801561045d5780601f106104325761010080835404028352916020019161045d565b820191906000526020600020905b81548152906001019060200180831161044057829003601f168201915b5050505050905090565b60006001600160a01b0383166104ae5760405162461bcd60e51b815260040180806020018281038252602b81526020018061182b602b913960400191505060405180910390fd5b81600460006104bb610eb0565b6001600160a01b03908116825260208083019390935260409182016000908120918816808252919093529120919091556104f3610eb0565b6001600160a01b03167f8c5be1e5ebec7d5bd14f71427d1e84f3dd0314c0f7b2291e5b200ac8c7c3b925846040518082815260200191505060405180910390a35060015b92915050565b60065490565b6000610550848484610eb4565b6001600160a01b038416600090815260046020526040812090610571610eb0565b6001600160a01b03166001600160a01b03168152602001908152602001600020548211156105d05760405162461bcd60e51b815260040180806020018281038252603581526020018061188b6035913960400191505060405180910390fd5b6001600160a01b0384166000908152600460205260408120610617918491906105f7610eb0565b6001600160a01b031681526020810191909152604001600020549061110c565b6001600160a01b038516600090815260046020526040812090610638610eb0565b6001600160a01b0316815260208101919091526040016000205561065a610eb0565b6001600160a01b038581166000818152600460205260408120939092169290917f8c5be1e5ebec7d5bd14f71427d1e84f3dd0314c0f7b2291e5b200ac8c7c3b92591906106a5610eb0565b6001600160a01b03166001600160a01b03168152602001908152602001600020546040518082815260200191505060405180910390a35060019392505050565b6001600160a01b031660009081526003602052604090205490565b60095460ff1690565b6000546001600160a01b031661071d610eb0565b6001600160a01b0316146107625760405162461bcd60e51b81526004018080602001828103825260308152602001806117fb6030913960400191505060405180910390fd5b816001600160a01b031663a9059cbb82846001600160a01b03166370a08231306040518263ffffffff1660e01b815260040180826001600160a01b0316815260200191505060206040518083038186803b1580156107bf57600080fd5b505afa1580156107d3573d6000803e3d6000fd5b505050506040513d60208110156107e957600080fd5b5051604080516001600160e01b031960e086901b1681526001600160a01b03909316600484015260248301919091525160448083019260209291908290030181600087803b15801561083a57600080fd5b505af115801561084e573d6000803e3d6000fd5b505050506040513d602081101561086457600080fd5b50505050565b6001600160a01b031660009081526002602052604090205490565b6001546001600160a01b0316610899610eb0565b6001600160a01b0316146108de5760405162461bcd60e51b81526004018080602001828103825260498152602001806117806049913960600191505060405180910390fd5b600154600080546040516001600160a01b0393841693909116917f8be0079c531659141344cd1fd0a4f28419497f9722a3daafe3b4186f6b6457e091a360018054600080546001600160a01b03199081166001600160a01b03841617909155169055565b60088054604080516020601f600260001961010060018816150201909516949094049384018190048102820181019092528281526060939092909183018282801561045d5780601f106104325761010080835404028352916020019161045d565b6000546001600160a01b03166109b7610eb0565b6001600160a01b0316146109fc5760405162461bcd60e51b81526004018080602001828103825260308152602001806117fb6030913960400191505060405180910390fd5b6001600160a01b038216610a415760405162461bcd60e51b815260040180806020018281038252602a815260200180611756602a913960400191505060405180910390fd5b6001600160a01b0382166000908152600360209081526040808320546002909252909120541415610ac357610aa9816040518060600160405280602b815260200161192c602b91396001600160a01b0385166000908152600360205260409020549190611155565b6001600160a01b0383166000908152600360205260409020555b610b00816040518060600160405280602b815260200161192c602b91396001600160a01b0385166000908152600260205260409020549190611155565b6001600160a01b038316600090815260026020526040902055600654610b26908261110c565b6006556040805182815290516000916001600160a01b038516917fddf252ad1be2c89b69c2b068fc378daa952ba7f163c4a11628f55a4df523b3ef9181900360200190a3610b72610eb0565b6001600160a01b0316826001600160a01b031614610d2e576001600160a01b038216600090815260046020526040812090610bab610eb0565b6001600160a01b03166001600160a01b0316815260200190815260200160002054811115610c0a5760405162461bcd60e51b815260040180806020018281038252603581526020018061188b6035913960400191505060405180910390fd5b610c69816040518060600160405280602481526020016118e4602491396001600160a01b038516600090815260046020526040812090610c48610eb0565b6001600160a01b031681526020810191909152604001600020549190611155565b6001600160a01b038316600090815260046020526040812090610c8a610eb0565b6001600160a01b03168152602081019190915260400160002055610cac610eb0565b6001600160a01b038381166000818152600460205260408120939092169290917f8c5be1e5ebec7d5bd14f71427d1e84f3dd0314c0f7b2291e5b200ac8c7c3b9259190610cf7610eb0565b6001600160a01b03166001600160a01b03168152602001908152602001600020546040518082815260200191505060405180910390a35b5050565b6000610d46610d3f610eb0565b8484610eb4565b50600192915050565b6000546001600160a01b031681565b6001546001600160a01b031681565b600080546001600160a01b0316610d82610eb0565b6001600160a01b031614610dc75760405162461bcd60e51b81526004018080602001828103825260308152602001806117fb6030913960400191505060405180910390fd5b81610de357610dde610dd7610eb0565b8585610eb4565b610e00565b610df5610dee610eb0565b85856111ec565b610e0084848461140c565b5060019392505050565b6001600160a01b03918216600090815260046020908152604080832093909416825291909152205490565b6000546001600160a01b0316610e49610eb0565b6001600160a01b031614610e8e5760405162461bcd60e51b81526004018080602001828103825260308152602001806117fb6030913960400191505060405180910390fd5b600180546001600160a01b0319166001600160a01b0392909216919091179055565b3390565b6001600160a01b038216610ef95760405162461bcd60e51b81526004018080602001828103825260358152602001806118566035913960400191505060405180910390fd5b6001600160a01b038316610f3e5760405162461bcd60e51b81526004018080602001828103825260328152602001806117c96032913960400191505060405180910390fd5b6001600160a01b038316600090815260026020526040902054811115610f955760405162461bcd60e51b81526004018080602001828103825260248152602001806119086024913960400191505060405180910390fd5b6001600160a01b0382166000908152600260205260409020548181011015610fee5760405162461bcd60e51b81526004018080602001828103825260248152602001806118c06024913960400191505060405180910390fd5b610ff8838261147e565b506001600160a01b03831660009081526003602052604090205461101c908261110c565b6001600160a01b03808516600090815260036020526040808220939093559084168152205461104b908261150d565b6001600160a01b03808416600090815260036020908152604080832094909455918616815260029091522054611081908261110c565b6001600160a01b0380851660009081526002602052604080822093909355908416815220546110b0908261150d565b6001600160a01b0380841660008181526002602090815260409182902094909455805185815290519193928716927fddf252ad1be2c89b69c2b068fc378daa952ba7f163c4a11628f55a4df523b3ef92918290030190a3505050565b600061114e83836040518060400160405280601e81526020017f536166654d6174683a207375627472616374696f6e206f766572666c6f770000815250611155565b9392505050565b600081848411156111e45760405162461bcd60e51b81526004018080602001828103825283818151815260200191508051906020019080838360005b838110156111a9578181015183820152602001611191565b50505050905090810190601f1680156111d65780820380516001836020036101000a031916815260200191505b509250505060405180910390fd5b505050900390565b6001600160a01b0382166112315760405162461bcd60e51b81526004018080602001828103825260358152602001806118566035913960400191505060405180910390fd5b6001600160a01b0383166112765760405162461bcd60e51b81526004018080602001828103825260328152602001806117c96032913960400191505060405180910390fd5b6001600160a01b0383166000908152600260205260409020548111156112cd5760405162461bcd60e51b81526004018080602001828103825260248152602001806119086024913960400191505060405180910390fd5b6001600160a01b03821660009081526002602052604090205481810110156113265760405162461bcd60e51b81526004018080602001828103825260248152602001806118c06024913960400191505060405180910390fd5b6001600160a01b038316600090815260026020526040902054611349908261110c565b6001600160a01b038085166000908152600260205260408082209390935590841681522054611378908261150d565b6001600160a01b038084166000908152600260209081526040808320949094559186168152600390915220546113ae908261110c565b6001600160a01b0380851660008181526003602090815260409182902094909455805185815290519286169391927f13b24fb4ca6f38e0fd81f35a72078b563353704fd00b122c8fc2ae2ad9f8a90f929181900390910190a3505050565b6001600160a01b039290921660009081526005602090815260408083208151606081018352958652858301948552908501838152815460018082018455928552929093209451600390920290940190815591519282019290925590516002909101805460ff1916911515919091179055565b6001600160a01b03821660009081526003602052604081205482116114a557506001610537565b6114ae83611567565b506001600160a01b03831660009081526003602052604090205482116114d657506001610537565b60405162461bcd60e51b815260040180806020018281038252602c81526020018061172a602c913960400191505060405180910390fd5b60008282018381101561114e576040805162461bcd60e51b815260206004820152601b60248201527f536166654d6174683a206164646974696f6e206f766572666c6f770000000000604482015290519081900360640190fd5b6001600160a01b03811660009081526005602090815260408083208054825181850281018501909352808352606093859084015b828210156115ec5760008481526020908190206040805160608101825260038602909201805483526001808201548486015260029091015460ff16151591830191909152908352909201910161159b565b5050505090506000805b82518110156116e1574283828151811061160c57fe5b60200260200101516000015110801561163d575082818151811061162c57fe5b602090810291909101015160400151155b156116d95761166c83828151811061165157fe5b6020026020010151602001518361150d90919063ffffffff16565b9150600183828151811061167c57fe5b6020908102919091018101519115156040928301526001600160a01b0387166000908152600590915220805460019190839081106116b657fe5b60009182526020909120600390910201600201805460ff19169115159190911790555b6001016115f6565b506001600160a01b038416600090815260036020526040902054611705908261150d565b6001600160a01b03851660009081526003602052604090205550600191505091905056fe436861696e416e6578546f6b656e3a20496e73756666696369656e7420756e6c6f636b656420746f6b656e73436861696e416e6578546f6b656e3a206275726e2066726f6d20746865207a65726f2061646472657373436861696e416e6578546f6b656e3a20546f6b656e20436f6e7472616374204f776e65727368697020686173206e6f74206265656e2073657420666f72207468652061646472657373436861696e416e6578546f6b656e3a2043616e6e6f7420686176652073656e646572206173207a65726f2061646472657373436861696e416e6578546f6b656e3a204f6e6c79204f776e65722063616e20706572666f726d2074686973207461736b436861696e416e6578546f6b656e3a20617070726f766520746f20746865207a65726f2061646472657373436861696e416e6578546f6b656e3a2043616e6e6f74206861766520726563697069656e74206173207a65726f2061646472657373436861696e416e6578546f6b656e3a20436865636b20666f7220617070726f76656420746f6b656e20636f756e74206661696c6564436861696e416e6578546f6b656e3a2042616c616e636520636865636b206661696c656442455032303a206275726e20616d6f756e74206578636565647320616c6c6f77616e6365436861696e416e6578546f6b656e3a20496e73756666696369656e742042616c616e6365436861696e416e6578546f6b656e3a206275726e20616d6f756e7420657863656564732062616c616e6365a26469706673582212204d2405e5a507c8b9fe99c4b0bc37fb5e3e88868fee06d3ba2b6c44a873e7a4b664736f6c634300060c0033",
  "linkReferences": {},
  "deployedLinkReferences": {}
}