{
  "_format": "hh-sol-artifact-1",
  "contractName": "Owned",
  "sourceName": "contracts/ChainAnexToken.sol",
  "abi": [
    {
      "anonymous": false,
      "inputs": [
        {
          "indexed": true,
          "internalType": "address",
          "name": "_from",
          "type": "address"
        },
        {
          "indexed": true,
          "internalType": "address",
          "name": "_to",
          "type": "address"
        }
      ],
      "name": "OwnershipTransferred",
      "type": "event"
    },
    {
      "inputs": [],
      "name": "_newOwner",
      "outputs": [
        {
          "internalType": "address",
          "name": "",
          "type": "address"
        }
      ],
      "stateMutability": "view",
      "type": "function"
    },
    {
      "inputs": [],
      "name": "_owner",
      "outputs": [
        {
          "internalType": "address",
          "name": "",
          "type": "address"
        }
      ],
      "stateMutability": "view",
      "type": "function"
    },
    {
      "inputs": [],
      "name": "acceptOwnership",
      "outputs": [],
      "stateMutability": "nonpayable",
      "type": "function"
    },
    {
      "inputs": [
        {
          "internalType": "address",
          "name": "newOwner",
          "type": "address"
        }
      ],
      "name": "transferOwnership",
      "outputs": [],
      "stateMutability": "nonpayable",
      "type": "function"
    }
  ],
  "bytecode": "0x608060405234801561001057600080fd5b506102b6806100206000396000f3fe608060405234801561001057600080fd5b506004361061004c5760003560e01c806379ba509714610051578063b2bdfa7b1461005b578063b74908fe1461007f578063f2fde38b14610087575b600080fd5b6100596100ad565b005b61006361016a565b604080516001600160a01b039092168252519081900360200190f35b610063610179565b6100596004803603602081101561009d57600080fd5b50356001600160a01b0316610188565b6001546001600160a01b03166100c1610203565b6001600160a01b0316146101065760405162461bcd60e51b81526004018080602001828103825260498152602001806102086049913960600191505060405180910390fd5b600154600080546040516001600160a01b0393841693909116917f8be0079c531659141344cd1fd0a4f28419497f9722a3daafe3b4186f6b6457e091a360018054600080546001600160a01b03199081166001600160a01b03841617909155169055565b6000546001600160a01b031681565b6001546001600160a01b031681565b6000546001600160a01b031661019c610203565b6001600160a01b0316146101e15760405162461bcd60e51b81526004018080602001828103825260308152602001806102516030913960400191505060405180910390fd5b600180546001600160a01b0319166001600160a01b0392909216919091179055565b339056fe436861696e416e6578546f6b656e3a20546f6b656e20436f6e7472616374204f776e65727368697020686173206e6f74206265656e2073657420666f72207468652061646472657373436861696e416e6578546f6b656e3a204f6e6c79204f776e65722063616e20706572666f726d2074686973207461736ba2646970667358221220fd0c229d2b058d945c9ad1538ab4f91dbdfdd252503f682efd0e665887a8940864736f6c634300060c0033",
  "linkReferences": {},
  "deployedLinkReferences": {}
}