{
  "_format": "hh-sol-artifact-1",
  "contractName": "Proxy",
  "sourceName": "contracts/Proxy.sol",
  "abi": [
    {
      "stateMutability": "payable",
      "type": "fallback"
    },
    {
      "inputs": [],
      "name": "implementation",
      "outputs": [
        {
          "internalType": "address",
          "name": "",
          "type": "address"
        }
      ],
      "stateMutability": "view",
      "type": "function"
    },
    {
      "stateMutability": "payable",
      "type": "receive"
    }
  ],
  "bytecode": "0x6080604052600080546001600160a01b03191673a0d707c3fc25c4e0fe47dbfee888a558e7354fef17905534801561003657600080fd5b5060c4806100456000396000f3fe608060405260043610601f5760003560e01c80635c60da1b14603157602b565b36602b576029606b565b005b6029606b565b348015603c57600080fd5b50600054604f906001600160a01b031681565b6040516001600160a01b03909116815260200160405180910390f35b600080543682833781823684845af490503d82833e808015608a573d83f35b3d83fdfea2646970667358221220f28b51b6f23f2633cab8298616c57ea7f6599853d7b4378686635195888a602364736f6c63430008150033",
  "linkReferences": {},
  "deployedLinkReferences": {}
}