{"contracts/ChainAnexToken.sol":{"Owned":{"abi":[{"anonymous":false,"inputs":[{"indexed":true,"internalType":"address","name":"_from","type":"address"},{"indexed":true,"internalType":"address","name":"_to","type":"address"}],"name":"OwnershipTransferred","type":"event"},{"inputs":[],"name":"_newOwner","outputs":[{"internalType":"address","name":"","type":"address"}],"stateMutability":"view","type":"function"},{"inputs":[],"name":"_owner","outputs":[{"internalType":"address","name":"","type":"address"}],"stateMutability":"view","type":"function"},{"inputs":[],"name":"acceptOwnership","outputs":[],"stateMutability":"nonpayable","type":"function"},{"inputs":[{"internalType":"address","name":"newOwner","type":"address"}],"name":"transferOwnership","outputs":[],"stateMutability":"nonpayable","type":"function"}],"evm":{"bytecode":{"linkReferences":{},"object":"608060405234801561001057600080fd5b506102b6806100206000396000f3fe608060405234801561001057600080fd5b506004361061004c5760003560e01c806379ba509714610051578063b2bdfa7b1461005b578063b74908fe1461007f578063f2fde38b14610087575b600080fd5b6100596100ad565b005b61006361016a565b604080516001600160a01b039092168252519081900360200190f35b610063610179565b6100596004803603602081101561009d57600080fd5b50356001600160a01b0316610188565b6001546001600160a01b03166100c1610203565b6001600160a01b0316146101065760405162461bcd60e51b81526004018080602001828103825260498152602001806102086049913960600191505060405180910390fd5b600154600080546040516001600160a01b0393841693909116917f8be0079c531659141344cd1fd0a4f28419497f9722a3daafe3b4186f6b6457e091a360018054600080546001600160a01b03199081166001600160a01b03841617909155169055565b6000546001600160a01b031681565b6001546001600160a01b031681565b6000546001600160a01b031661019c610203565b6001600160a01b0316146101e15760405162461bcd60e51b81526004018080602001828103825260308152602001806102516030913960400191505060405180910390fd5b600180546001600160a01b0319166001600160a01b0392909216919091179055565b339056fe436861696e416e6578546f6b656e3a20546f6b656e20436f6e7472616374204f776e65727368697020686173206e6f74206265656e2073657420666f72207468652061646472657373436861696e416e6578546f6b656e3a204f6e6c79204f776e65722063616e20706572666f726d2074686973207461736ba2646970667358221220fd0c229d2b058d945c9ad1538ab4f91dbdfdd252503f682efd0e665887a8940864736f6c634300060c0033","opcodes":"PUSH1 0x80 PUSH1 0x40 MSTORE CALLVALUE DUP1 ISZERO PUSH2 0x10 JUMPI PUSH1 0x0 DUP1 REVERT JUMPDEST POP PUSH2 0x2B6 DUP1 PUSH2 0x20 PUSH1 0x0 CODECOPY PUSH1 0x0 RETURN INVALID PUSH1 0x80 PUSH1 0x40 MSTORE CALLVALUE DUP1 ISZERO PUSH2 0x10 JUMPI PUSH1 0x0 DUP1 REVERT JUMPDEST POP PUSH1 0x4 CALLDATASIZE LT PUSH2 0x4C JUMPI PUSH1 0x0 CALLDATALOAD PUSH1 0xE0 SHR DUP1 PUSH4 0x79BA5097 EQ PUSH2 0x51 JUMPI DUP1 PUSH4 0xB2BDFA7B EQ PUSH2 0x5B JUMPI DUP1 PUSH4 0xB74908FE EQ PUSH2 0x7F JUMPI DUP1 PUSH4 0xF2FDE38B EQ PUSH2 0x87 JUMPI JUMPDEST PUSH1 0x0 DUP1 REVERT JUMPDEST PUSH2 0x59 PUSH2 0xAD JUMP JUMPDEST STOP JUMPDEST PUSH2 0x63 PUSH2 0x16A JUMP JUMPDEST PUSH1 0x40 DUP1 MLOAD PUSH1 0x1 PUSH1 0x1 PUSH1 0xA0 SHL SUB SWAP1 SWAP3 AND DUP3 MSTORE MLOAD SWAP1 DUP2 SWAP1 SUB PUSH1 0x20 ADD SWAP1 RETURN JUMPDEST PUSH2 0x63 PUSH2 0x179 JUMP JUMPDEST PUSH2 0x59 PUSH1 0x4 DUP1 CALLDATASIZE SUB PUSH1 0x20 DUP2 LT ISZERO PUSH2 0x9D JUMPI PUSH1 0x0 DUP1 REVERT JUMPDEST POP CALLDATALOAD PUSH1 0x1 PUSH1 0x1 PUSH1 0xA0 SHL SUB AND PUSH2 0x188 JUMP JUMPDEST PUSH1 0x1 SLOAD PUSH1 0x1 PUSH1 0x1 PUSH1 0xA0 SHL SUB AND PUSH2 0xC1 PUSH2 0x203 JUMP JUMPDEST PUSH1 0x1 PUSH1 0x1 PUSH1 0xA0 SHL SUB AND EQ PUSH2 0x106 JUMPI PUSH1 0x40 MLOAD PUSH3 0x461BCD PUSH1 0xE5 SHL DUP2 MSTORE PUSH1 0x4 ADD DUP1 DUP1 PUSH1 0x20 ADD DUP3 DUP2 SUB DUP3 MSTORE PUSH1 0x49 DUP2 MSTORE PUSH1 0x20 ADD DUP1 PUSH2 0x208 PUSH1 0x49 SWAP2 CODECOPY PUSH1 0x60 ADD SWAP2 POP POP PUSH1 0x40 MLOAD DUP1 SWAP2 SUB SWAP1 REVERT JUMPDEST PUSH1 0x1 SLOAD PUSH1 0x0 DUP1 SLOAD PUSH1 0x40 MLOAD PUSH1 0x1 PUSH1 0x1 PUSH1 0xA0 SHL SUB SWAP4 DUP5 AND SWAP4 SWAP1 SWAP2 AND SWAP2 PUSH32 0x8BE0079C531659141344CD1FD0A4F28419497F9722A3DAAFE3B4186F6B6457E0 SWAP2 LOG3 PUSH1 0x1 DUP1 SLOAD PUSH1 0x0 DUP1 SLOAD PUSH1 0x1 PUSH1 0x1 PUSH1 0xA0 SHL SUB NOT SWAP1 DUP2 AND PUSH1 0x1 PUSH1 0x1 PUSH1 0xA0 SHL SUB DUP5 AND OR SWAP1 SWAP2 SSTORE AND SWAP1 SSTORE JUMP JUMPDEST PUSH1 0x0 SLOAD PUSH1 0x1 PUSH1 0x1 PUSH1 0xA0 SHL SUB AND DUP2 JUMP JUMPDEST PUSH1 0x1 SLOAD PUSH1 0x1 PUSH1 0x1 PUSH1 0xA0 SHL SUB AND DUP2 JUMP JUMPDEST PUSH1 0x0 SLOAD PUSH1 0x1 PUSH1 0x1 PUSH1 0xA0 SHL SUB AND PUSH2 0x19C PUSH2 0x203 JUMP JUMPDEST PUSH1 0x1 PUSH1 0x1 PUSH1 0xA0 SHL SUB AND EQ PUSH2 0x1E1 JUMPI PUSH1 0x40 MLOAD PUSH3 0x461BCD PUSH1 0xE5 SHL DUP2 MSTORE PUSH1 0x4 ADD DUP1 DUP1 PUSH1 0x20 ADD DUP3 DUP2 SUB DUP3 MSTORE PUSH1 0x30 DUP2 MSTORE PUSH1 0x20 ADD DUP1 PUSH2 0x251 PUSH1 0x30 SWAP2 CODECOPY PUSH1 0x40 ADD SWAP2 POP POP PUSH1 0x40 MLOAD DUP1 SWAP2 SUB SWAP1 REVERT JUMPDEST PUSH1 0x1 DUP1 SLOAD PUSH1 0x1 PUSH1 0x1 PUSH1 0xA0 SHL SUB NOT AND PUSH1 0x1 PUSH1 0x1 PUSH1 0xA0 SHL SUB SWAP3 SWAP1 SWAP3 AND SWAP2 SWAP1 SWAP2 OR SWAP1 SSTORE JUMP JUMPDEST CALLER SWAP1 JUMP INVALID NUMBER PUSH9 0x61696E416E6578546F PUSH12 0x656E3A20546F6B656E20436F PUSH15 0x7472616374204F776E657273686970 KECCAK256 PUSH9 0x6173206E6F74206265 PUSH6 0x6E2073657420 PUSH7 0x6F722074686520 PUSH2 0x6464 PUSH19 0x657373436861696E416E6578546F6B656E3A20 0x4F PUSH15 0x6C79204F776E65722063616E207065 PUSH19 0x666F726D2074686973207461736BA264697066 PUSH20 0x58221220FD0C229D2B058D945C9AD1538AB4F91D 0xBD REVERT 0xD2 MSTORE POP EXTCODEHASH PUSH9 0x2EFD0E665887A89408 PUSH5 0x736F6C6343 STOP MOD 0xC STOP CALLER "},"methodIdentifiers":{"_newOwner()":"b74908fe","_owner()":"b2bdfa7b","acceptOwnership()":"79ba5097","transferOwnership(address)":"f2fde38b"}},"storageLayout":{"storage":[{"astId":306,"contract":"contracts/ChainAnexToken.sol:Owned","label":"_owner","offset":0,"slot":"0","type":"t_address"},{"astId":308,"contract":"contracts/ChainAnexToken.sol:Owned","label":"_newOwner","offset":0,"slot":"1","type":"t_address"}],"types":{"t_address":{"encoding":"inplace","label":"address","numberOfBytes":"20"}}}}}}