{
  "contracts/Presale.sol": {
    "Presale": {
      "abi": [
        {
          "inputs": [
            {
              "internalType": "address",
              "name": "_saleToken",
              "type": "address"
            },
            {
              "internalType": "address",
              "name": "_usdtToken",
              "type": "address"
            },
            {
              "internalType": "address",
              "name": "_goldTokenAddress",
              "type": "address"
            },
            {
              "internalType": "uint256",
              "name": "_userWithdrawTime",
              "type": "uint256"
            }
          ],
          "stateMutability": "nonpayable",
          "type": "constructor"
        },
        {
          "anonymous": false,
          "inputs": [
            {
              "indexed": true,
              "internalType": "address",
              "name": "previousOwner",
              "type": "address"
            },
            {
              "indexed": true,
              "internalType": "address",
              "name": "newOwner",
              "type": "address"
            }
          ],
          "name": "OwnershipTransferred",
          "type": "event"
        },
        {
          "inputs": [
            {
              "internalType": "address",
              "name": "",
              "type": "address"
            }
          ],
          "name": "balances",
          "outputs": [
            {
              "internalType": "uint256",
              "name": "",
              "type": "uint256"
            }
          ],
          "stateMutability": "view",
          "type": "function"
        },
        {
          "inputs": [
            {
              "internalType": "address",
              "name": "parent",
              "type": "address"
            }
          ],
          "name": "bindReffer",
          "outputs": [],
          "stateMutability": "nonpayable",
          "type": "function"
        },
        {
          "inputs": [
            {
              "components": [
                {
                  "internalType": "uint256",
                  "name": "startTime",
                  "type": "uint256"
                },
                {
                  "internalType": "uint256",
                  "name": "endTime",
                  "type": "uint256"
                },
                {
                  "internalType": "uint256",
                  "name": "price",
                  "type": "uint256"
                }
              ],
              "internalType": "struct Presale.PresaleInfo",
              "name": "_presaleInfo",
              "type": "tuple"
            }
          ],
          "name": "createPreSale",
          "outputs": [],
          "stateMutability": "nonpayable",
          "type": "function"
        },
        {
          "inputs": [
            {
              "internalType": "address",
              "name": "",
              "type": "address"
            }
          ],
          "name": "firstIdo",
          "outputs": [
            {
              "internalType": "bool",
              "name": "",
              "type": "bool"
            }
          ],
          "stateMutability": "view",
          "type": "function"
        },
        {
          "inputs": [
            {
              "internalType": "address",
              "name": "owner",
              "type": "address"
            }
          ],
          "name": "getCanIdoAmount",
          "outputs": [
            {
              "internalType": "uint256",
              "name": "",
              "type": "uint256"
            }
          ],
          "stateMutability": "view",
          "type": "function"
        },
        {
          "inputs": [],
          "name": "goldTokenAddress",
          "outputs": [
            {
              "internalType": "address",
              "name": "",
              "type": "address"
            }
          ],
          "stateMutability": "view",
          "type": "function"
        },
        {
          "inputs": [],
          "name": "inviteMin",
          "outputs": [
            {
              "internalType": "uint256",
              "name": "",
              "type": "uint256"
            }
          ],
          "stateMutability": "view",
          "type": "function"
        },
        {
          "inputs": [],
          "name": "isCloseSale",
          "outputs": [
            {
              "internalType": "bool",
              "name": "",
              "type": "bool"
            }
          ],
          "stateMutability": "view",
          "type": "function"
        },
        {
          "inputs": [],
          "name": "maxSale",
          "outputs": [
            {
              "internalType": "uint256",
              "name": "",
              "type": "uint256"
            }
          ],
          "stateMutability": "view",
          "type": "function"
        },
        {
          "inputs": [],
          "name": "owner",
          "outputs": [
            {
              "internalType": "address",
              "name": "",
              "type": "address"
            }
          ],
          "stateMutability": "view",
          "type": "function"
        },
        {
          "inputs": [],
          "name": "perMaxBuyUsdt",
          "outputs": [
            {
              "internalType": "uint256",
              "name": "",
              "type": "uint256"
            }
          ],
          "stateMutability": "view",
          "type": "function"
        },
        {
          "inputs": [],
          "name": "presaleInfo",
          "outputs": [
            {
              "internalType": "uint256",
              "name": "startTime",
              "type": "uint256"
            },
            {
              "internalType": "uint256",
              "name": "endTime",
              "type": "uint256"
            },
            {
              "internalType": "uint256",
              "name": "price",
              "type": "uint256"
            }
          ],
          "stateMutability": "view",
          "type": "function"
        },
        {
          "inputs": [
            {
              "internalType": "address",
              "name": "",
              "type": "address"
            }
          ],
          "name": "refferNumber",
          "outputs": [
            {
              "internalType": "uint256",
              "name": "",
              "type": "uint256"
            }
          ],
          "stateMutability": "view",
          "type": "function"
        },
        {
          "inputs": [
            {
              "internalType": "address",
              "name": "",
              "type": "address"
            }
          ],
          "name": "reffers",
          "outputs": [
            {
              "internalType": "address",
              "name": "",
              "type": "address"
            }
          ],
          "stateMutability": "view",
          "type": "function"
        },
        {
          "inputs": [],
          "name": "renounceOwnership",
          "outputs": [],
          "stateMutability": "nonpayable",
          "type": "function"
        },
        {
          "inputs": [
            {
              "internalType": "address",
              "name": "",
              "type": "address"
            }
          ],
          "name": "rewardBalances",
          "outputs": [
            {
              "internalType": "uint256",
              "name": "",
              "type": "uint256"
            }
          ],
          "stateMutability": "view",
          "type": "function"
        },
        {
          "inputs": [
            {
              "internalType": "uint256",
              "name": "",
              "type": "uint256"
            }
          ],
          "name": "rewardLevel",
          "outputs": [
            {
              "internalType": "uint256",
              "name": "",
              "type": "uint256"
            }
          ],
          "stateMutability": "view",
          "type": "function"
        },
        {
          "inputs": [],
          "name": "sale",
          "outputs": [],
          "stateMutability": "nonpayable",
          "type": "function"
        },
        {
          "inputs": [],
          "name": "saleToken",
          "outputs": [
            {
              "internalType": "address",
              "name": "",
              "type": "address"
            }
          ],
          "stateMutability": "view",
          "type": "function"
        },
        {
          "inputs": [
            {
              "internalType": "uint256",
              "name": "_inviteMin",
              "type": "uint256"
            }
          ],
          "name": "setInviteMin",
          "outputs": [],
          "stateMutability": "nonpayable",
          "type": "function"
        },
        {
          "inputs": [
            {
              "internalType": "uint256",
              "name": "_perMaxBuyUsdt",
              "type": "uint256"
            }
          ],
          "name": "setPerMaxBuyUsdt",
          "outputs": [],
          "stateMutability": "nonpayable",
          "type": "function"
        },
        {
          "inputs": [
            {
              "internalType": "uint256",
              "name": "_userWithdrawTime",
              "type": "uint256"
            }
          ],
          "name": "setUserWithdrawTime",
          "outputs": [],
          "stateMutability": "nonpayable",
          "type": "function"
        },
        {
          "inputs": [
            {
              "internalType": "address",
              "name": "",
              "type": "address"
            }
          ],
          "name": "teamRefferNumber",
          "outputs": [
            {
              "internalType": "uint256",
              "name": "",
              "type": "uint256"
            }
          ],
          "stateMutability": "view",
          "type": "function"
        },
        {
          "inputs": [
            {
              "internalType": "address",
              "name": "addr",
              "type": "address"
            }
          ],
          "name": "teamWithdraw",
          "outputs": [],
          "stateMutability": "nonpayable",
          "type": "function"
        },
        {
          "inputs": [],
          "name": "totalIdoUSDT",
          "outputs": [
            {
              "internalType": "uint256",
              "name": "",
              "type": "uint256"
            }
          ],
          "stateMutability": "view",
          "type": "function"
        },
        {
          "inputs": [],
          "name": "totalIdoUser",
          "outputs": [
            {
              "internalType": "uint256",
              "name": "",
              "type": "uint256"
            }
          ],
          "stateMutability": "view",
          "type": "function"
        },
        {
          "inputs": [],
          "name": "totalSale",
          "outputs": [
            {
              "internalType": "uint256",
              "name": "",
              "type": "uint256"
            }
          ],
          "stateMutability": "view",
          "type": "function"
        },
        {
          "inputs": [
            {
              "internalType": "address",
              "name": "newOwner",
              "type": "address"
            }
          ],
          "name": "transferOwnership",
          "outputs": [],
          "stateMutability": "nonpayable",
          "type": "function"
        },
        {
          "inputs": [],
          "name": "usdtToken",
          "outputs": [
            {
              "internalType": "address",
              "name": "",
              "type": "address"
            }
          ],
          "stateMutability": "view",
          "type": "function"
        },
        {
          "inputs": [
            {
              "internalType": "address",
              "name": "userAddress",
              "type": "address"
            }
          ],
          "name": "userBalance",
          "outputs": [
            {
              "internalType": "uint256",
              "name": "",
              "type": "uint256"
            }
          ],
          "stateMutability": "view",
          "type": "function"
        },
        {
          "inputs": [
            {
              "internalType": "address",
              "name": "",
              "type": "address"
            }
          ],
          "name": "userBuyTotalUsdt",
          "outputs": [
            {
              "internalType": "uint256",
              "name": "",
              "type": "uint256"
            }
          ],
          "stateMutability": "view",
          "type": "function"
        },
        {
          "inputs": [
            {
              "internalType": "address",
              "name": "userAddress",
              "type": "address"
            }
          ],
          "name": "userRewardBalance",
          "outputs": [
            {
              "internalType": "uint256",
              "name": "",
              "type": "uint256"
            }
          ],
          "stateMutability": "view",
          "type": "function"
        },
        {
          "inputs": [],
          "name": "userWithdraw",
          "outputs": [],
          "stateMutability": "nonpayable",
          "type": "function"
        },
        {
          "inputs": [],
          "name": "userWithdrawTime",
          "outputs": [
            {
              "internalType": "uint256",
              "name": "",
              "type": "uint256"
            }
          ],
          "stateMutability": "view",
          "type": "function"
        }
      ],
      "evm": {
        "bytecode": {
          "linkReferences": {},
          "object": "67016345785d8a000060035560056012556910f0cf064dd5920000006013556101c060405261012c608090815260c860a052606460c052603260e081905261010052601e61012081905261014052601461016081905261018052600a6101a08190526200006f9160159162000158565b503480156200007d57600080fd5b506040516200140538038062001405833981016040819052620000a091620001e2565b620000ab3362000108565b60018055600580546001600160a01b039586166001600160a01b0319918216179091556006805494861694821694909417909355600780549290941691831691909117909255600291909155600480549091163317905562000234565b600080546001600160a01b038381166001600160a01b0319831681178455604051919092169283917f8be0079c531659141344cd1fd0a4f28419497f9722a3daafe3b4186f6b6457e09190a35050565b8280548282559060005260206000209081019282156200019c579160200282015b828111156200019c578251829061ffff1690559160200191906001019062000179565b50620001aa929150620001ae565b5090565b5b80821115620001aa5760008155600101620001af565b80516001600160a01b0381168114620001dd57600080fd5b919050565b60008060008060808587031215620001f957600080fd5b6200020485620001c5565b93506200021460208601620001c5565b92506200022460408601620001c5565b6060959095015193969295505050565b6111c180620002446000396000f3fe608060405234801561001057600080fd5b50600436106102065760003560e01c80637a693c181161011a578063ba6ab555116100ad578063ea4ce2391161007c578063ea4ce239146104cb578063eb7d7a9e146104d4578063f1c1d412146104dd578063f2fde38b146104e6578063ffc42782146104f957600080fd5b8063ba6ab5551461046f578063bc16aac514610492578063d1a2ab37146104a5578063e985e367146104b857600080fd5b80639f96fcfe116100e95780639f96fcfe14610417578063a646f9ad14610437578063a86707111461043f578063a98ad46c1461045c57600080fd5b80637a693c18146103aa5780638787bb15146103bd5780638da5cb5b146103e657806393c8dc6d146103f757600080fd5b80633afda0851161019d5780636ad1fe021161016c5780636ad1fe02146103755780636b4f9b7e1461037d5780636b95dd5e146103865780636c3ccdcf1461038f578063715018a6146103a257600080fd5b80633afda085146103035780633c896052146103185780633e30046a1461032b5780634d2e791d1461033457600080fd5b80632d926091116101d95780632d9260911461029a5780632edf0869146102ba57806331678c38146102e75780633914735f146102f057600080fd5b80630103c92b1461020b5780630845e71b1461024757806327e235e31461025a5780632ac909401461027a575b600080fd5b61023461021936600461104c565b6001600160a01b031660009081526008602052604090205490565b6040519081526020015b60405180910390f35b61023461025536600461104c565b61050c565b61023461026836600461104c565b60086020526000908152604090205481565b61023461028836600461104c565b600c6020526000908152604090205481565b6102346102a836600461104c565b60096020526000908152604090205481565b6016546017546018546102cc92919083565b6040805193845260208401929092529082015260600161023e565b61023460025481565b6102346102fe366004611075565b61056a565b610316610311366004611075565b61058b565b005b61031661032636600461104c565b610598565b61023460135481565b61035d61034236600461104c565b600b602052600090815260409020546001600160a01b031681565b6040516001600160a01b03909116815260200161023e565b6103166106a3565b61023460125481565b61023460035481565b61031661039d36600461108e565b610c80565b610316610ca3565b6103166103b8366004611075565b610cb7565b6102346103cb36600461104c565b6001600160a01b03166000908152600a602052604090205490565b6000546001600160a01b031661035d565b61023461040536600461104c565b600a6020526000908152604090205481565b61023461042536600461104c565b600d6020526000908152604090205481565b610316610cc4565b60145461044c9060ff1681565b604051901515815260200161023e565b60065461035d906001600160a01b031681565b61044c61047d36600461104c565b600e6020526000908152604090205460ff1681565b6103166104a036600461104c565b610e2c565b6103166104b3366004611075565b610f1c565b60055461035d906001600160a01b031681565b61023460115481565b610234600f5481565b61023460105481565b6103166104f436600461104c565b610f29565b60075461035d906001600160a01b031681565b6001600160a01b038116600090815260096020908152604080832054601254600c9093529083205490911161055c5780600354600361054b91906110bc565b61055591906110d9565b9392505050565b8060035461055591906110d9565b6015818154811061057a57600080fd5b600091825260209091200154905081565b610593610fa2565b600255565b336000908152600b60205260409020546001600160a01b0316156105f55760405162461bcd60e51b815260206004820152600f60248201526e4861732062696e6420696e7669746560881b60448201526064015b60405180910390fd5b6004546001600160a01b038281169116148061062857506001600160a01b03811660009081526009602052604090205415155b6106745760405162461bcd60e51b815260206004820152601e60248201527f42696e642061646472657373206e6f7420697320612069646f2075736572000060448201526064016105ec565b336000908152600b6020526040902080546001600160a01b0319166001600160a01b0392909216919091179055565b6002600154036106f55760405162461bcd60e51b815260206004820152601f60248201527f5265656e7472616e637947756172643a207265656e7472616e742063616c6c0060448201526064016105ec565b600260015560145460ff161561073d5760405162461bcd60e51b815260206004820152600d60248201526c50726573616c6520636c6f736560981b60448201526064016105ec565b336000908152600b60205260409020546001600160a01b03166107a25760405162461bcd60e51b815260206004820152601760248201527f4e6f742062696e6420706172656e7420696e766974657200000000000000000060448201526064016105ec565b6016544210156107b157600080fd5b6017544211156107c057600080fd5b601254336000908152600c60205260409020541061083d57600380546107e5916110bc565b33600090815260096020526040902054106108385760405162461bcd60e51b815260206004820152601360248201527213dd995c881b585e08189d5e48185b5bdd5b9d606a1b60448201526064016105ec565b610893565b60035433600090815260096020526040902054106108935760405162461bcd60e51b815260206004820152601360248201527213dd995c881b585e08189d5e48185b5bdd5b9d606a1b60448201526064016105ec565b601854600354600091906108af90670de0b6b3a76400006110bc565b6108b991906110ec565b6006546003546040516323b872dd60e01b815233600482015230602482015260448101919091529192506001600160a01b0316906323b872dd906064016020604051808303816000875af1158015610915573d6000803e3d6000fd5b505050506040513d601f19601f82011682018060405250810190610939919061110e565b503360009081526008602052604081208054839290610959908490611130565b90915550506003543360009081526009602052604081208054909190610980908490611130565b9250508190555080601160008282546109999190611130565b9091555050600354600f80546000906109b3908490611130565b9091555050336000908152600b60205260408120546001600160a01b0316905b601554811015610af4576001600160a01b03821615610af457600061271060158381548110610a0457610a04611143565b906000526020600020015485610a1a91906110bc565b610a2491906110ec565b6001600160a01b0384166000908152600a6020526040812080549293508392909190610a51908490611130565b925050819055508060116000828254610a6a9190611130565b9091555050336000908152600e602052604090205460ff16158015610a8f5750600082115b15610ac3576001600160a01b0383166000908152600d60205260408120805460019290610abd908490611130565b90915550505b506001600160a01b039182166000908152600b60205260409020549091169080610aec81611159565b9150506109d3565b50336000908152600e602052604090205460ff16610c5f5760108054906000610b1c83611159565b9091555050336000908152600e60209081526040808320805460ff19166001179055600b9091529020546001600160a01b031690508015610bf3576001600160a01b0381166000908152600c60205260408120805460019290610b80908490611130565b90915550506007546040516340c10f1960e01b81526001600160a01b038381166004830152678ac7230489e800006024830152909116906340c10f1990604401600060405180830381600087803b158015610bda57600080fd5b505af1158015610bee573d6000803e3d6000fd5b505050505b6007546040516340c10f1960e01b8152336004820152678ac7230489e8000060248201526001600160a01b03909116906340c10f1990604401600060405180830381600087803b158015610c4657600080fd5b505af1158015610c5a573d6000803e3d6000fd5b505050505b50506013546011546014805460ff1916929091101591909117905560018055565b610c88610fa2565b8035601655602081013560175560400135601855565b505050565b610cab610fa2565b610cb56000610ffc565b565b610cbf610fa2565b601255565b600260015403610d165760405162461bcd60e51b815260206004820152601f60248201527f5265656e7472616e637947756172643a207265656e7472616e742063616c6c0060448201526064016105ec565b60026001819055544211610d2957600080fd5b336000908152600a60209081526040808320546008909252822054610d4e9190611130565b905060008111610d8f5760405162461bcd60e51b815260206004820152600c60248201526b062616c616e636520697320360a41b60448201526064016105ec565b336000818152600860209081526040808320839055600a90915280822091909155600554905163a9059cbb60e01b81526004810192909252602482018390526001600160a01b03169063a9059cbb906044016020604051808303816000875af1158015610e00573d6000803e3d6000fd5b505050506040513d601f19601f82011682018060405250810190610e24919061110e565b505060018055565b610e34610fa2565b6040516370a0823160e01b81523060048201526000906001600160a01b038316906370a0823190602401602060405180830381865afa158015610e7b573d6000803e3d6000fd5b505050506040513d601f19601f82011682018060405250810190610e9f9190611172565b6004805460405163a9059cbb60e01b81526001600160a01b0391821692810192909252602482018390529192509083169063a9059cbb906044016020604051808303816000875af1158015610ef8573d6000803e3d6000fd5b505050506040513d601f19601f82011682018060405250810190610c9e919061110e565b610f24610fa2565b600355565b610f31610fa2565b6001600160a01b038116610f965760405162461bcd60e51b815260206004820152602660248201527f4f776e61626c653a206e6577206f776e657220697320746865207a65726f206160448201526564647265737360d01b60648201526084016105ec565b610f9f81610ffc565b50565b6000546001600160a01b03163314610cb55760405162461bcd60e51b815260206004820181905260248201527f4f776e61626c653a2063616c6c6572206973206e6f7420746865206f776e657260448201526064016105ec565b600080546001600160a01b038381166001600160a01b0319831681178455604051919092169283917f8be0079c531659141344cd1fd0a4f28419497f9722a3daafe3b4186f6b6457e09190a35050565b60006020828403121561105e57600080fd5b81356001600160a01b038116811461055557600080fd5b60006020828403121561108757600080fd5b5035919050565b6000606082840312156110a057600080fd5b50919050565b634e487b7160e01b600052601160045260246000fd5b80820281158282048414176110d3576110d36110a6565b92915050565b818103818111156110d3576110d36110a6565b60008261110957634e487b7160e01b600052601260045260246000fd5b500490565b60006020828403121561112057600080fd5b8151801515811461055557600080fd5b808201808211156110d3576110d36110a6565b634e487b7160e01b600052603260045260246000fd5b60006001820161116b5761116b6110a6565b5060010190565b60006020828403121561118457600080fd5b505191905056fea2646970667358221220835705b2456addb0e8b620ccd9a9b67edbdb5b9918c1994f0ba46e4e13179bab64736f6c63430008150033",
          "opcodes": "PUSH8 0x16345785D8A0000 PUSH1 0x3 SSTORE PUSH1 0x5 PUSH1 0x12 SSTORE PUSH10 0x10F0CF064DD592000000 PUSH1 0x13 SSTORE PUSH2 0x1C0 PUSH1 0x40 MSTORE PUSH2 0x12C PUSH1 0x80 SWAP1 DUP2 MSTORE PUSH1 0xC8 PUSH1 0xA0 MSTORE PUSH1 0x64 PUSH1 0xC0 MSTORE PUSH1 0x32 PUSH1 0xE0 DUP2 SWAP1 MSTORE PUSH2 0x100 MSTORE PUSH1 0x1E PUSH2 0x120 DUP2 SWAP1 MSTORE PUSH2 0x140 MSTORE PUSH1 0x14 PUSH2 0x160 DUP2 SWAP1 MSTORE PUSH2 0x180 MSTORE PUSH1 0xA PUSH2 0x1A0 DUP2 SWAP1 MSTORE PUSH3 0x6F SWAP2 PUSH1 0x15 SWAP2 PUSH3 0x158 JUMP JUMPDEST POP CALLVALUE DUP1 ISZERO PUSH3 0x7D JUMPI PUSH1 0x0 DUP1 REVERT JUMPDEST POP PUSH1 0x40 MLOAD PUSH3 0x1405 CODESIZE SUB DUP1 PUSH3 0x1405 DUP4 CODECOPY DUP2 ADD PUSH1 0x40 DUP2 SWAP1 MSTORE PUSH3 0xA0 SWAP2 PUSH3 0x1E2 JUMP JUMPDEST PUSH3 0xAB CALLER PUSH3 0x108 JUMP JUMPDEST PUSH1 0x1 DUP1 SSTORE PUSH1 0x5 DUP1 SLOAD PUSH1 0x1 PUSH1 0x1 PUSH1 0xA0 SHL SUB SWAP6 DUP7 AND PUSH1 0x1 PUSH1 0x1 PUSH1 0xA0 SHL SUB NOT SWAP2 DUP3 AND OR SWAP1 SWAP2 SSTORE PUSH1 0x6 DUP1 SLOAD SWAP5 DUP7 AND SWAP5 DUP3 AND SWAP5 SWAP1 SWAP5 OR SWAP1 SWAP4 SSTORE PUSH1 0x7 DUP1 SLOAD SWAP3 SWAP1 SWAP5 AND SWAP2 DUP4 AND SWAP2 SWAP1 SWAP2 OR SWAP1 SWAP3 SSTORE PUSH1 0x2 SWAP2 SWAP1 SWAP2 SSTORE PUSH1 0x4 DUP1 SLOAD SWAP1 SWAP2 AND CALLER OR SWAP1 SSTORE PUSH3 0x234 JUMP JUMPDEST PUSH1 0x0 DUP1 SLOAD PUSH1 0x1 PUSH1 0x1 PUSH1 0xA0 SHL SUB DUP4 DUP2 AND PUSH1 0x1 PUSH1 0x1 PUSH1 0xA0 SHL SUB NOT DUP4 AND DUP2 OR DUP5 SSTORE PUSH1 0x40 MLOAD SWAP2 SWAP1 SWAP3 AND SWAP3 DUP4 SWAP2 PUSH32 0x8BE0079C531659141344CD1FD0A4F28419497F9722A3DAAFE3B4186F6B6457E0 SWAP2 SWAP1 LOG3 POP POP JUMP JUMPDEST DUP3 DUP1 SLOAD DUP3 DUP3 SSTORE SWAP1 PUSH1 0x0 MSTORE PUSH1 0x20 PUSH1 0x0 KECCAK256 SWAP1 DUP2 ADD SWAP3 DUP3 ISZERO PUSH3 0x19C JUMPI SWAP2 PUSH1 0x20 MUL DUP3 ADD JUMPDEST DUP3 DUP2 GT ISZERO PUSH3 0x19C JUMPI DUP3 MLOAD DUP3 SWAP1 PUSH2 0xFFFF AND SWAP1 SSTORE SWAP2 PUSH1 0x20 ADD SWAP2 SWAP1 PUSH1 0x1 ADD SWAP1 PUSH3 0x179 JUMP JUMPDEST POP PUSH3 0x1AA SWAP3 SWAP2 POP PUSH3 0x1AE JUMP JUMPDEST POP SWAP1 JUMP JUMPDEST JUMPDEST DUP1 DUP3 GT ISZERO PUSH3 0x1AA JUMPI PUSH1 0x0 DUP2 SSTORE PUSH1 0x1 ADD PUSH3 0x1AF JUMP JUMPDEST DUP1 MLOAD PUSH1 0x1 PUSH1 0x1 PUSH1 0xA0 SHL SUB DUP2 AND DUP2 EQ PUSH3 0x1DD JUMPI PUSH1 0x0 DUP1 REVERT JUMPDEST SWAP2 SWAP1 POP JUMP JUMPDEST PUSH1 0x0 DUP1 PUSH1 0x0 DUP1 PUSH1 0x80 DUP6 DUP8 SUB SLT ISZERO PUSH3 0x1F9 JUMPI PUSH1 0x0 DUP1 REVERT JUMPDEST PUSH3 0x204 DUP6 PUSH3 0x1C5 JUMP JUMPDEST SWAP4 POP PUSH3 0x214 PUSH1 0x20 DUP7 ADD PUSH3 0x1C5 JUMP JUMPDEST SWAP3 POP PUSH3 0x224 PUSH1 0x40 DUP7 ADD PUSH3 0x1C5 JUMP JUMPDEST PUSH1 0x60 SWAP6 SWAP1 SWAP6 ADD MLOAD SWAP4 SWAP7 SWAP3 SWAP6 POP POP POP JUMP JUMPDEST PUSH2 0x11C1 DUP1 PUSH3 0x244 PUSH1 0x0 CODECOPY PUSH1 0x0 RETURN INVALID PUSH1 0x80 PUSH1 0x40 MSTORE CALLVALUE DUP1 ISZERO PUSH2 0x10 JUMPI PUSH1 0x0 DUP1 REVERT JUMPDEST POP PUSH1 0x4 CALLDATASIZE LT PUSH2 0x206 JUMPI PUSH1 0x0 CALLDATALOAD PUSH1 0xE0 SHR DUP1 PUSH4 0x7A693C18 GT PUSH2 0x11A JUMPI DUP1 PUSH4 0xBA6AB555 GT PUSH2 0xAD JUMPI DUP1 PUSH4 0xEA4CE239 GT PUSH2 0x7C JUMPI DUP1 PUSH4 0xEA4CE239 EQ PUSH2 0x4CB JUMPI DUP1 PUSH4 0xEB7D7A9E EQ PUSH2 0x4D4 JUMPI DUP1 PUSH4 0xF1C1D412 EQ PUSH2 0x4DD JUMPI DUP1 PUSH4 0xF2FDE38B EQ PUSH2 0x4E6 JUMPI DUP1 PUSH4 0xFFC42782 EQ PUSH2 0x4F9 JUMPI PUSH1 0x0 DUP1 REVERT JUMPDEST DUP1 PUSH4 0xBA6AB555 EQ PUSH2 0x46F JUMPI DUP1 PUSH4 0xBC16AAC5 EQ PUSH2 0x492 JUMPI DUP1 PUSH4 0xD1A2AB37 EQ PUSH2 0x4A5 JUMPI DUP1 PUSH4 0xE985E367 EQ PUSH2 0x4B8 JUMPI PUSH1 0x0 DUP1 REVERT JUMPDEST DUP1 PUSH4 0x9F96FCFE GT PUSH2 0xE9 JUMPI DUP1 PUSH4 0x9F96FCFE EQ PUSH2 0x417 JUMPI DUP1 PUSH4 0xA646F9AD EQ PUSH2 0x437 JUMPI DUP1 PUSH4 0xA8670711 EQ PUSH2 0x43F JUMPI DUP1 PUSH4 0xA98AD46C EQ PUSH2 0x45C JUMPI PUSH1 0x0 DUP1 REVERT JUMPDEST DUP1 PUSH4 0x7A693C18 EQ PUSH2 0x3AA JUMPI DUP1 PUSH4 0x8787BB15 EQ PUSH2 0x3BD JUMPI DUP1 PUSH4 0x8DA5CB5B EQ PUSH2 0x3E6 JUMPI DUP1 PUSH4 0x93C8DC6D EQ PUSH2 0x3F7 JUMPI PUSH1 0x0 DUP1 REVERT JUMPDEST DUP1 PUSH4 0x3AFDA085 GT PUSH2 0x19D JUMPI DUP1 PUSH4 0x6AD1FE02 GT PUSH2 0x16C JUMPI DUP1 PUSH4 0x6AD1FE02 EQ PUSH2 0x375 JUMPI DUP1 PUSH4 0x6B4F9B7E EQ PUSH2 0x37D JUMPI DUP1 PUSH4 0x6B95DD5E EQ PUSH2 0x386 JUMPI DUP1 PUSH4 0x6C3CCDCF EQ PUSH2 0x38F JUMPI DUP1 PUSH4 0x715018A6 EQ PUSH2 0x3A2 JUMPI PUSH1 0x0 DUP1 REVERT JUMPDEST DUP1 PUSH4 0x3AFDA085 EQ PUSH2 0x303 JUMPI DUP1 PUSH4 0x3C896052 EQ PUSH2 0x318 JUMPI DUP1 PUSH4 0x3E30046A EQ PUSH2 0x32B JUMPI DUP1 PUSH4 0x4D2E791D EQ PUSH2 0x334 JUMPI PUSH1 0x0 DUP1 REVERT JUMPDEST DUP1 PUSH4 0x2D926091 GT PUSH2 0x1D9 JUMPI DUP1 PUSH4 0x2D926091 EQ PUSH2 0x29A JUMPI DUP1 PUSH4 0x2EDF0869 EQ PUSH2 0x2BA JUMPI DUP1 PUSH4 0x31678C38 EQ PUSH2 0x2E7 JUMPI DUP1 PUSH4 0x3914735F EQ PUSH2 0x2F0 JUMPI PUSH1 0x0 DUP1 REVERT JUMPDEST DUP1 PUSH4 0x103C92B EQ PUSH2 0x20B JUMPI DUP1 PUSH4 0x845E71B EQ PUSH2 0x247 JUMPI DUP1 PUSH4 0x27E235E3 EQ PUSH2 0x25A JUMPI DUP1 PUSH4 0x2AC90940 EQ PUSH2 0x27A JUMPI JUMPDEST PUSH1 0x0 DUP1 REVERT JUMPDEST PUSH2 0x234 PUSH2 0x219 CALLDATASIZE PUSH1 0x4 PUSH2 0x104C JUMP JUMPDEST PUSH1 0x1 PUSH1 0x1 PUSH1 0xA0 SHL SUB AND PUSH1 0x0 SWAP1 DUP2 MSTORE PUSH1 0x8 PUSH1 0x20 MSTORE PUSH1 0x40 SWAP1 KECCAK256 SLOAD SWAP1 JUMP JUMPDEST PUSH1 0x40 MLOAD SWAP1 DUP2 MSTORE PUSH1 0x20 ADD JUMPDEST PUSH1 0x40 MLOAD DUP1 SWAP2 SUB SWAP1 RETURN JUMPDEST PUSH2 0x234 PUSH2 0x255 CALLDATASIZE PUSH1 0x4 PUSH2 0x104C JUMP JUMPDEST PUSH2 0x50C JUMP JUMPDEST PUSH2 0x234 PUSH2 0x268 CALLDATASIZE PUSH1 0x4 PUSH2 0x104C JUMP JUMPDEST PUSH1 0x8 PUSH1 0x20 MSTORE PUSH1 0x0 SWAP1 DUP2 MSTORE PUSH1 0x40 SWAP1 KECCAK256 SLOAD DUP2 JUMP JUMPDEST PUSH2 0x234 PUSH2 0x288 CALLDATASIZE PUSH1 0x4 PUSH2 0x104C JUMP JUMPDEST PUSH1 0xC PUSH1 0x20 MSTORE PUSH1 0x0 SWAP1 DUP2 MSTORE PUSH1 0x40 SWAP1 KECCAK256 SLOAD DUP2 JUMP JUMPDEST PUSH2 0x234 PUSH2 0x2A8 CALLDATASIZE PUSH1 0x4 PUSH2 0x104C JUMP JUMPDEST PUSH1 0x9 PUSH1 0x20 MSTORE PUSH1 0x0 SWAP1 DUP2 MSTORE PUSH1 0x40 SWAP1 KECCAK256 SLOAD DUP2 JUMP JUMPDEST PUSH1 0x16 SLOAD PUSH1 0x17 SLOAD PUSH1 0x18 SLOAD PUSH2 0x2CC SWAP3 SWAP2 SWAP1 DUP4 JUMP JUMPDEST PUSH1 0x40 DUP1 MLOAD SWAP4 DUP5 MSTORE PUSH1 0x20 DUP5 ADD SWAP3 SWAP1 SWAP3 MSTORE SWAP1 DUP3 ADD MSTORE PUSH1 0x60 ADD PUSH2 0x23E JUMP JUMPDEST PUSH2 0x234 PUSH1 0x2 SLOAD DUP2 JUMP JUMPDEST PUSH2 0x234 PUSH2 0x2FE CALLDATASIZE PUSH1 0x4 PUSH2 0x1075 JUMP JUMPDEST PUSH2 0x56A JUMP JUMPDEST PUSH2 0x316 PUSH2 0x311 CALLDATASIZE PUSH1 0x4 PUSH2 0x1075 JUMP JUMPDEST PUSH2 0x58B JUMP JUMPDEST STOP JUMPDEST PUSH2 0x316 PUSH2 0x326 CALLDATASIZE PUSH1 0x4 PUSH2 0x104C JUMP JUMPDEST PUSH2 0x598 JUMP JUMPDEST PUSH2 0x234 PUSH1 0x13 SLOAD DUP2 JUMP JUMPDEST PUSH2 0x35D PUSH2 0x342 CALLDATASIZE PUSH1 0x4 PUSH2 0x104C JUMP JUMPDEST PUSH1 0xB PUSH1 0x20 MSTORE PUSH1 0x0 SWAP1 DUP2 MSTORE PUSH1 0x40 SWAP1 KECCAK256 SLOAD PUSH1 0x1 PUSH1 0x1 PUSH1 0xA0 SHL SUB AND DUP2 JUMP JUMPDEST PUSH1 0x40 MLOAD PUSH1 0x1 PUSH1 0x1 PUSH1 0xA0 SHL SUB SWAP1 SWAP2 AND DUP2 MSTORE PUSH1 0x20 ADD PUSH2 0x23E JUMP JUMPDEST PUSH2 0x316 PUSH2 0x6A3 JUMP JUMPDEST PUSH2 0x234 PUSH1 0x12 SLOAD DUP2 JUMP JUMPDEST PUSH2 0x234 PUSH1 0x3 SLOAD DUP2 JUMP JUMPDEST PUSH2 0x316 PUSH2 0x39D CALLDATASIZE PUSH1 0x4 PUSH2 0x108E JUMP JUMPDEST PUSH2 0xC80 JUMP JUMPDEST PUSH2 0x316 PUSH2 0xCA3 JUMP JUMPDEST PUSH2 0x316 PUSH2 0x3B8 CALLDATASIZE PUSH1 0x4 PUSH2 0x1075 JUMP JUMPDEST PUSH2 0xCB7 JUMP JUMPDEST PUSH2 0x234 PUSH2 0x3CB CALLDATASIZE PUSH1 0x4 PUSH2 0x104C JUMP JUMPDEST PUSH1 0x1 PUSH1 0x1 PUSH1 0xA0 SHL SUB AND PUSH1 0x0 SWAP1 DUP2 MSTORE PUSH1 0xA PUSH1 0x20 MSTORE PUSH1 0x40 SWAP1 KECCAK256 SLOAD SWAP1 JUMP JUMPDEST PUSH1 0x0 SLOAD PUSH1 0x1 PUSH1 0x1 PUSH1 0xA0 SHL SUB AND PUSH2 0x35D JUMP JUMPDEST PUSH2 0x234 PUSH2 0x405 CALLDATASIZE PUSH1 0x4 PUSH2 0x104C JUMP JUMPDEST PUSH1 0xA PUSH1 0x20 MSTORE PUSH1 0x0 SWAP1 DUP2 MSTORE PUSH1 0x40 SWAP1 KECCAK256 SLOAD DUP2 JUMP JUMPDEST PUSH2 0x234 PUSH2 0x425 CALLDATASIZE PUSH1 0x4 PUSH2 0x104C JUMP JUMPDEST PUSH1 0xD PUSH1 0x20 MSTORE PUSH1 0x0 SWAP1 DUP2 MSTORE PUSH1 0x40 SWAP1 KECCAK256 SLOAD DUP2 JUMP JUMPDEST PUSH2 0x316 PUSH2 0xCC4 JUMP JUMPDEST PUSH1 0x14 SLOAD PUSH2 0x44C SWAP1 PUSH1 0xFF AND DUP2 JUMP JUMPDEST PUSH1 0x40 MLOAD SWAP1 ISZERO ISZERO DUP2 MSTORE PUSH1 0x20 ADD PUSH2 0x23E JUMP JUMPDEST PUSH1 0x6 SLOAD PUSH2 0x35D SWAP1 PUSH1 0x1 PUSH1 0x1 PUSH1 0xA0 SHL SUB AND DUP2 JUMP JUMPDEST PUSH2 0x44C PUSH2 0x47D CALLDATASIZE PUSH1 0x4 PUSH2 0x104C JUMP JUMPDEST PUSH1 0xE PUSH1 0x20 MSTORE PUSH1 0x0 SWAP1 DUP2 MSTORE PUSH1 0x40 SWAP1 KECCAK256 SLOAD PUSH1 0xFF AND DUP2 JUMP JUMPDEST PUSH2 0x316 PUSH2 0x4A0 CALLDATASIZE PUSH1 0x4 PUSH2 0x104C JUMP JUMPDEST PUSH2 0xE2C JUMP JUMPDEST PUSH2 0x316 PUSH2 0x4B3 CALLDATASIZE PUSH1 0x4 PUSH2 0x1075 JUMP JUMPDEST PUSH2 0xF1C JUMP JUMPDEST PUSH1 0x5 SLOAD PUSH2 0x35D SWAP1 PUSH1 0x1 PUSH1 0x1 PUSH1 0xA0 SHL SUB AND DUP2 JUMP JUMPDEST PUSH2 0x234 PUSH1 0x11 SLOAD DUP2 JUMP JUMPDEST PUSH2 0x234 PUSH1 0xF SLOAD DUP2 JUMP JUMPDEST PUSH2 0x234 PUSH1 0x10 SLOAD DUP2 JUMP JUMPDEST PUSH2 0x316 PUSH2 0x4F4 CALLDATASIZE PUSH1 0x4 PUSH2 0x104C JUMP JUMPDEST PUSH2 0xF29 JUMP JUMPDEST PUSH1 0x7 SLOAD PUSH2 0x35D SWAP1 PUSH1 0x1 PUSH1 0x1 PUSH1 0xA0 SHL SUB AND DUP2 JUMP JUMPDEST PUSH1 0x1 PUSH1 0x1 PUSH1 0xA0 SHL SUB DUP2 AND PUSH1 0x0 SWAP1 DUP2 MSTORE PUSH1 0x9 PUSH1 0x20 SWAP1 DUP2 MSTORE PUSH1 0x40 DUP1 DUP4 KECCAK256 SLOAD PUSH1 0x12 SLOAD PUSH1 0xC SWAP1 SWAP4 MSTORE SWAP1 DUP4 KECCAK256 SLOAD SWAP1 SWAP2 GT PUSH2 0x55C JUMPI DUP1 PUSH1 0x3 SLOAD PUSH1 0x3 PUSH2 0x54B SWAP2 SWAP1 PUSH2 0x10BC JUMP JUMPDEST PUSH2 0x555 SWAP2 SWAP1 PUSH2 0x10D9 JUMP JUMPDEST SWAP4 SWAP3 POP POP POP JUMP JUMPDEST DUP1 PUSH1 0x3 SLOAD PUSH2 0x555 SWAP2 SWAP1 PUSH2 0x10D9 JUMP JUMPDEST PUSH1 0x15 DUP2 DUP2 SLOAD DUP2 LT PUSH2 0x57A JUMPI PUSH1 0x0 DUP1 REVERT JUMPDEST PUSH1 0x0 SWAP2 DUP3 MSTORE PUSH1 0x20 SWAP1 SWAP2 KECCAK256 ADD SLOAD SWAP1 POP DUP2 JUMP JUMPDEST PUSH2 0x593 PUSH2 0xFA2 JUMP JUMPDEST PUSH1 0x2 SSTORE JUMP JUMPDEST CALLER PUSH1 0x0 SWAP1 DUP2 MSTORE PUSH1 0xB PUSH1 0x20 MSTORE PUSH1 0x40 SWAP1 KECCAK256 SLOAD PUSH1 0x1 PUSH1 0x1 PUSH1 0xA0 SHL SUB AND ISZERO PUSH2 0x5F5 JUMPI PUSH1 0x40 MLOAD PUSH3 0x461BCD PUSH1 0xE5 SHL DUP2 MSTORE PUSH1 0x20 PUSH1 0x4 DUP3 ADD MSTORE PUSH1 0xF PUSH1 0x24 DUP3 ADD MSTORE PUSH15 0x4861732062696E6420696E76697465 PUSH1 0x88 SHL PUSH1 0x44 DUP3 ADD MSTORE PUSH1 0x64 ADD JUMPDEST PUSH1 0x40 MLOAD DUP1 SWAP2 SUB SWAP1 REVERT JUMPDEST PUSH1 0x4 SLOAD PUSH1 0x1 PUSH1 0x1 PUSH1 0xA0 SHL SUB DUP3 DUP2 AND SWAP2 AND EQ DUP1 PUSH2 0x628 JUMPI POP PUSH1 0x1 PUSH1 0x1 PUSH1 0xA0 SHL SUB DUP2 AND PUSH1 0x0 SWAP1 DUP2 MSTORE PUSH1 0x9 PUSH1 0x20 MSTORE PUSH1 0x40 SWAP1 KECCAK256 SLOAD ISZERO ISZERO JUMPDEST PUSH2 0x674 JUMPI PUSH1 0x40 MLOAD PUSH3 0x461BCD PUSH1 0xE5 SHL DUP2 MSTORE PUSH1 0x20 PUSH1 0x4 DUP3 ADD MSTORE PUSH1 0x1E PUSH1 0x24 DUP3 ADD MSTORE PUSH32 0x42696E642061646472657373206E6F7420697320612069646F20757365720000 PUSH1 0x44 DUP3 ADD MSTORE PUSH1 0x64 ADD PUSH2 0x5EC JUMP JUMPDEST CALLER PUSH1 0x0 SWAP1 DUP2 MSTORE PUSH1 0xB PUSH1 0x20 MSTORE PUSH1 0x40 SWAP1 KECCAK256 DUP1 SLOAD PUSH1 0x1 PUSH1 0x1 PUSH1 0xA0 SHL SUB NOT AND PUSH1 0x1 PUSH1 0x1 PUSH1 0xA0 SHL SUB SWAP3 SWAP1 SWAP3 AND SWAP2 SWAP1 SWAP2 OR SWAP1 SSTORE JUMP JUMPDEST PUSH1 0x2 PUSH1 0x1 SLOAD SUB PUSH2 0x6F5 JUMPI PUSH1 0x40 MLOAD PUSH3 0x461BCD PUSH1 0xE5 SHL DUP2 MSTORE PUSH1 0x20 PUSH1 0x4 DUP3 ADD MSTORE PUSH1 0x1F PUSH1 0x24 DUP3 ADD MSTORE PUSH32 0x5265656E7472616E637947756172643A207265656E7472616E742063616C6C00 PUSH1 0x44 DUP3 ADD MSTORE PUSH1 0x64 ADD PUSH2 0x5EC JUMP JUMPDEST PUSH1 0x2 PUSH1 0x1 SSTORE PUSH1 0x14 SLOAD PUSH1 0xFF AND ISZERO PUSH2 0x73D JUMPI PUSH1 0x40 MLOAD PUSH3 0x461BCD PUSH1 0xE5 SHL DUP2 MSTORE PUSH1 0x20 PUSH1 0x4 DUP3 ADD MSTORE PUSH1 0xD PUSH1 0x24 DUP3 ADD MSTORE PUSH13 0x50726573616C6520636C6F7365 PUSH1 0x98 SHL PUSH1 0x44 DUP3 ADD MSTORE PUSH1 0x64 ADD PUSH2 0x5EC JUMP JUMPDEST CALLER PUSH1 0x0 SWAP1 DUP2 MSTORE PUSH1 0xB PUSH1 0x20 MSTORE PUSH1 0x40 SWAP1 KECCAK256 SLOAD PUSH1 0x1 PUSH1 0x1 PUSH1 0xA0 SHL SUB AND PUSH2 0x7A2 JUMPI PUSH1 0x40 MLOAD PUSH3 0x461BCD PUSH1 0xE5 SHL DUP2 MSTORE PUSH1 0x20 PUSH1 0x4 DUP3 ADD MSTORE PUSH1 0x17 PUSH1 0x24 DUP3 ADD MSTORE PUSH32 0x4E6F742062696E6420706172656E7420696E7669746572000000000000000000 PUSH1 0x44 DUP3 ADD MSTORE PUSH1 0x64 ADD PUSH2 0x5EC JUMP JUMPDEST PUSH1 0x16 SLOAD TIMESTAMP LT ISZERO PUSH2 0x7B1 JUMPI PUSH1 0x0 DUP1 REVERT JUMPDEST PUSH1 0x17 SLOAD TIMESTAMP GT ISZERO PUSH2 0x7C0 JUMPI PUSH1 0x0 DUP1 REVERT JUMPDEST PUSH1 0x12 SLOAD CALLER PUSH1 0x0 SWAP1 DUP2 MSTORE PUSH1 0xC PUSH1 0x20 MSTORE PUSH1 0x40 SWAP1 KECCAK256 SLOAD LT PUSH2 0x83D JUMPI PUSH1 0x3 DUP1 SLOAD PUSH2 0x7E5 SWAP2 PUSH2 0x10BC JUMP JUMPDEST CALLER PUSH1 0x0 SWAP1 DUP2 MSTORE PUSH1 0x9 PUSH1 0x20 MSTORE PUSH1 0x40 SWAP1 KECCAK256 SLOAD LT PUSH2 0x838 JUMPI PUSH1 0x40 MLOAD PUSH3 0x461BCD PUSH1 0xE5 SHL DUP2 MSTORE PUSH1 0x20 PUSH1 0x4 DUP3 ADD MSTORE PUSH1 0x13 PUSH1 0x24 DUP3 ADD MSTORE PUSH19 0x13DD995C881B585E08189D5E48185B5BDD5B9D PUSH1 0x6A SHL PUSH1 0x44 DUP3 ADD MSTORE PUSH1 0x64 ADD PUSH2 0x5EC JUMP JUMPDEST PUSH2 0x893 JUMP JUMPDEST PUSH1 0x3 SLOAD CALLER PUSH1 0x0 SWAP1 DUP2 MSTORE PUSH1 0x9 PUSH1 0x20 MSTORE PUSH1 0x40 SWAP1 KECCAK256 SLOAD LT PUSH2 0x893 JUMPI PUSH1 0x40 MLOAD PUSH3 0x461BCD PUSH1 0xE5 SHL DUP2 MSTORE PUSH1 0x20 PUSH1 0x4 DUP3 ADD MSTORE PUSH1 0x13 PUSH1 0x24 DUP3 ADD MSTORE PUSH19 0x13DD995C881B585E08189D5E48185B5BDD5B9D PUSH1 0x6A SHL PUSH1 0x44 DUP3 ADD MSTORE PUSH1 0x64 ADD PUSH2 0x5EC JUMP JUMPDEST PUSH1 0x18 SLOAD PUSH1 0x3 SLOAD PUSH1 0x0 SWAP2 SWAP1 PUSH2 0x8AF SWAP1 PUSH8 0xDE0B6B3A7640000 PUSH2 0x10BC JUMP JUMPDEST PUSH2 0x8B9 SWAP2 SWAP1 PUSH2 0x10EC JUMP JUMPDEST PUSH1 0x6 SLOAD PUSH1 0x3 SLOAD PUSH1 0x40 MLOAD PUSH4 0x23B872DD PUSH1 0xE0 SHL DUP2 MSTORE CALLER PUSH1 0x4 DUP3 ADD MSTORE ADDRESS PUSH1 0x24 DUP3 ADD MSTORE PUSH1 0x44 DUP2 ADD SWAP2 SWAP1 SWAP2 MSTORE SWAP2 SWAP3 POP PUSH1 0x1 PUSH1 0x1 PUSH1 0xA0 SHL SUB AND SWAP1 PUSH4 0x23B872DD SWAP1 PUSH1 0x64 ADD PUSH1 0x20 PUSH1 0x40 MLOAD DUP1 DUP4 SUB DUP2 PUSH1 0x0 DUP8 GAS CALL ISZERO DUP1 ISZERO PUSH2 0x915 JUMPI RETURNDATASIZE PUSH1 0x0 DUP1 RETURNDATACOPY RETURNDATASIZE PUSH1 0x0 REVERT JUMPDEST POP POP POP POP PUSH1 0x40 MLOAD RETURNDATASIZE PUSH1 0x1F NOT PUSH1 0x1F DUP3 ADD AND DUP3 ADD DUP1 PUSH1 0x40 MSTORE POP DUP2 ADD SWAP1 PUSH2 0x939 SWAP2 SWAP1 PUSH2 0x110E JUMP JUMPDEST POP CALLER PUSH1 0x0 SWAP1 DUP2 MSTORE PUSH1 0x8 PUSH1 0x20 MSTORE PUSH1 0x40 DUP2 KECCAK256 DUP1 SLOAD DUP4 SWAP3 SWAP1 PUSH2 0x959 SWAP1 DUP5 SWAP1 PUSH2 0x1130 JUMP JUMPDEST SWAP1 SWAP2 SSTORE POP POP PUSH1 0x3 SLOAD CALLER PUSH1 0x0 SWAP1 DUP2 MSTORE PUSH1 0x9 PUSH1 0x20 MSTORE PUSH1 0x40 DUP2 KECCAK256 DUP1 SLOAD SWAP1 SWAP2 SWAP1 PUSH2 0x980 SWAP1 DUP5 SWAP1 PUSH2 0x1130 JUMP JUMPDEST SWAP3 POP POP DUP2 SWAP1 SSTORE POP DUP1 PUSH1 0x11 PUSH1 0x0 DUP3 DUP3 SLOAD PUSH2 0x999 SWAP2 SWAP1 PUSH2 0x1130 JUMP JUMPDEST SWAP1 SWAP2 SSTORE POP POP PUSH1 0x3 SLOAD PUSH1 0xF DUP1 SLOAD PUSH1 0x0 SWAP1 PUSH2 0x9B3 SWAP1 DUP5 SWAP1 PUSH2 0x1130 JUMP JUMPDEST SWAP1 SWAP2 SSTORE POP POP CALLER PUSH1 0x0 SWAP1 DUP2 MSTORE PUSH1 0xB PUSH1 0x20 MSTORE PUSH1 0x40 DUP2 KECCAK256 SLOAD PUSH1 0x1 PUSH1 0x1 PUSH1 0xA0 SHL SUB AND SWAP1 JUMPDEST PUSH1 0x15 SLOAD DUP2 LT ISZERO PUSH2 0xAF4 JUMPI PUSH1 0x1 PUSH1 0x1 PUSH1 0xA0 SHL SUB DUP3 AND ISZERO PUSH2 0xAF4 JUMPI PUSH1 0x0 PUSH2 0x2710 PUSH1 0x15 DUP4 DUP2 SLOAD DUP2 LT PUSH2 0xA04 JUMPI PUSH2 0xA04 PUSH2 0x1143 JUMP JUMPDEST SWAP1 PUSH1 0x0 MSTORE PUSH1 0x20 PUSH1 0x0 KECCAK256 ADD SLOAD DUP6 PUSH2 0xA1A SWAP2 SWAP1 PUSH2 0x10BC JUMP JUMPDEST PUSH2 0xA24 SWAP2 SWAP1 PUSH2 0x10EC JUMP JUMPDEST PUSH1 0x1 PUSH1 0x1 PUSH1 0xA0 SHL SUB DUP5 AND PUSH1 0x0 SWAP1 DUP2 MSTORE PUSH1 0xA PUSH1 0x20 MSTORE PUSH1 0x40 DUP2 KECCAK256 DUP1 SLOAD SWAP3 SWAP4 POP DUP4 SWAP3 SWAP1 SWAP2 SWAP1 PUSH2 0xA51 SWAP1 DUP5 SWAP1 PUSH2 0x1130 JUMP JUMPDEST SWAP3 POP POP DUP2 SWAP1 SSTORE POP DUP1 PUSH1 0x11 PUSH1 0x0 DUP3 DUP3 SLOAD PUSH2 0xA6A SWAP2 SWAP1 PUSH2 0x1130 JUMP JUMPDEST SWAP1 SWAP2 SSTORE POP POP CALLER PUSH1 0x0 SWAP1 DUP2 MSTORE PUSH1 0xE PUSH1 0x20 MSTORE PUSH1 0x40 SWAP1 KECCAK256 SLOAD PUSH1 0xFF AND ISZERO DUP1 ISZERO PUSH2 0xA8F JUMPI POP PUSH1 0x0 DUP3 GT JUMPDEST ISZERO PUSH2 0xAC3 JUMPI PUSH1 0x1 PUSH1 0x1 PUSH1 0xA0 SHL SUB DUP4 AND PUSH1 0x0 SWAP1 DUP2 MSTORE PUSH1 0xD PUSH1 0x20 MSTORE PUSH1 0x40 DUP2 KECCAK256 DUP1 SLOAD PUSH1 0x1 SWAP3 SWAP1 PUSH2 0xABD SWAP1 DUP5 SWAP1 PUSH2 0x1130 JUMP JUMPDEST SWAP1 SWAP2 SSTORE POP POP JUMPDEST POP PUSH1 0x1 PUSH1 0x1 PUSH1 0xA0 SHL SUB SWAP2 DUP3 AND PUSH1 0x0 SWAP1 DUP2 MSTORE PUSH1 0xB PUSH1 0x20 MSTORE PUSH1 0x40 SWAP1 KECCAK256 SLOAD SWAP1 SWAP2 AND SWAP1 DUP1 PUSH2 0xAEC DUP2 PUSH2 0x1159 JUMP JUMPDEST SWAP2 POP POP PUSH2 0x9D3 JUMP JUMPDEST POP CALLER PUSH1 0x0 SWAP1 DUP2 MSTORE PUSH1 0xE PUSH1 0x20 MSTORE PUSH1 0x40 SWAP1 KECCAK256 SLOAD PUSH1 0xFF AND PUSH2 0xC5F JUMPI PUSH1 0x10 DUP1 SLOAD SWAP1 PUSH1 0x0 PUSH2 0xB1C DUP4 PUSH2 0x1159 JUMP JUMPDEST SWAP1 SWAP2 SSTORE POP POP CALLER PUSH1 0x0 SWAP1 DUP2 MSTORE PUSH1 0xE PUSH1 0x20 SWAP1 DUP2 MSTORE PUSH1 0x40 DUP1 DUP4 KECCAK256 DUP1 SLOAD PUSH1 0xFF NOT AND PUSH1 0x1 OR SWAP1 SSTORE PUSH1 0xB SWAP1 SWAP2 MSTORE SWAP1 KECCAK256 SLOAD PUSH1 0x1 PUSH1 0x1 PUSH1 0xA0 SHL SUB AND SWAP1 POP DUP1 ISZERO PUSH2 0xBF3 JUMPI PUSH1 0x1 PUSH1 0x1 PUSH1 0xA0 SHL SUB DUP2 AND PUSH1 0x0 SWAP1 DUP2 MSTORE PUSH1 0xC PUSH1 0x20 MSTORE PUSH1 0x40 DUP2 KECCAK256 DUP1 SLOAD PUSH1 0x1 SWAP3 SWAP1 PUSH2 0xB80 SWAP1 DUP5 SWAP1 PUSH2 0x1130 JUMP JUMPDEST SWAP1 SWAP2 SSTORE POP POP PUSH1 0x7 SLOAD PUSH1 0x40 MLOAD PUSH4 0x40C10F19 PUSH1 0xE0 SHL DUP2 MSTORE PUSH1 0x1 PUSH1 0x1 PUSH1 0xA0 SHL SUB DUP4 DUP2 AND PUSH1 0x4 DUP4 ADD MSTORE PUSH8 0x8AC7230489E80000 PUSH1 0x24 DUP4 ADD MSTORE SWAP1 SWAP2 AND SWAP1 PUSH4 0x40C10F19 SWAP1 PUSH1 0x44 ADD PUSH1 0x0 PUSH1 0x40 MLOAD DUP1 DUP4 SUB DUP2 PUSH1 0x0 DUP8 DUP1 EXTCODESIZE ISZERO DUP1 ISZERO PUSH2 0xBDA JUMPI PUSH1 0x0 DUP1 REVERT JUMPDEST POP GAS CALL ISZERO DUP1 ISZERO PUSH2 0xBEE JUMPI RETURNDATASIZE PUSH1 0x0 DUP1 RETURNDATACOPY RETURNDATASIZE PUSH1 0x0 REVERT JUMPDEST POP POP POP POP JUMPDEST PUSH1 0x7 SLOAD PUSH1 0x40 MLOAD PUSH4 0x40C10F19 PUSH1 0xE0 SHL DUP2 MSTORE CALLER PUSH1 0x4 DUP3 ADD MSTORE PUSH8 0x8AC7230489E80000 PUSH1 0x24 DUP3 ADD MSTORE PUSH1 0x1 PUSH1 0x1 PUSH1 0xA0 SHL SUB SWAP1 SWAP2 AND SWAP1 PUSH4 0x40C10F19 SWAP1 PUSH1 0x44 ADD PUSH1 0x0 PUSH1 0x40 MLOAD DUP1 DUP4 SUB DUP2 PUSH1 0x0 DUP8 DUP1 EXTCODESIZE ISZERO DUP1 ISZERO PUSH2 0xC46 JUMPI PUSH1 0x0 DUP1 REVERT JUMPDEST POP GAS CALL ISZERO DUP1 ISZERO PUSH2 0xC5A JUMPI RETURNDATASIZE PUSH1 0x0 DUP1 RETURNDATACOPY RETURNDATASIZE PUSH1 0x0 REVERT JUMPDEST POP POP POP POP JUMPDEST POP POP PUSH1 0x13 SLOAD PUSH1 0x11 SLOAD PUSH1 0x14 DUP1 SLOAD PUSH1 0xFF NOT AND SWAP3 SWAP1 SWAP2 LT ISZERO SWAP2 SWAP1 SWAP2 OR SWAP1 SSTORE PUSH1 0x1 DUP1 SSTORE JUMP JUMPDEST PUSH2 0xC88 PUSH2 0xFA2 JUMP JUMPDEST DUP1 CALLDATALOAD PUSH1 0x16 SSTORE PUSH1 0x20 DUP2 ADD CALLDATALOAD PUSH1 0x17 SSTORE PUSH1 0x40 ADD CALLDATALOAD PUSH1 0x18 SSTORE JUMP JUMPDEST POP POP POP JUMP JUMPDEST PUSH2 0xCAB PUSH2 0xFA2 JUMP JUMPDEST PUSH2 0xCB5 PUSH1 0x0 PUSH2 0xFFC JUMP JUMPDEST JUMP JUMPDEST PUSH2 0xCBF PUSH2 0xFA2 JUMP JUMPDEST PUSH1 0x12 SSTORE JUMP JUMPDEST PUSH1 0x2 PUSH1 0x1 SLOAD SUB PUSH2 0xD16 JUMPI PUSH1 0x40 MLOAD PUSH3 0x461BCD PUSH1 0xE5 SHL DUP2 MSTORE PUSH1 0x20 PUSH1 0x4 DUP3 ADD MSTORE PUSH1 0x1F PUSH1 0x24 DUP3 ADD MSTORE PUSH32 0x5265656E7472616E637947756172643A207265656E7472616E742063616C6C00 PUSH1 0x44 DUP3 ADD MSTORE PUSH1 0x64 ADD PUSH2 0x5EC JUMP JUMPDEST PUSH1 0x2 PUSH1 0x1 DUP2 SWAP1 SSTORE SLOAD TIMESTAMP GT PUSH2 0xD29 JUMPI PUSH1 0x0 DUP1 REVERT JUMPDEST CALLER PUSH1 0x0 SWAP1 DUP2 MSTORE PUSH1 0xA PUSH1 0x20 SWAP1 DUP2 MSTORE PUSH1 0x40 DUP1 DUP4 KECCAK256 SLOAD PUSH1 0x8 SWAP1 SWAP3 MSTORE DUP3 KECCAK256 SLOAD PUSH2 0xD4E SWAP2 SWAP1 PUSH2 0x1130 JUMP JUMPDEST SWAP1 POP PUSH1 0x0 DUP2 GT PUSH2 0xD8F JUMPI PUSH1 0x40 MLOAD PUSH3 0x461BCD PUSH1 0xE5 SHL DUP2 MSTORE PUSH1 0x20 PUSH1 0x4 DUP3 ADD MSTORE PUSH1 0xC PUSH1 0x24 DUP3 ADD MSTORE PUSH12 0x62616C616E6365206973203 PUSH1 0xA4 SHL PUSH1 0x44 DUP3 ADD MSTORE PUSH1 0x64 ADD PUSH2 0x5EC JUMP JUMPDEST CALLER PUSH1 0x0 DUP2 DUP2 MSTORE PUSH1 0x8 PUSH1 0x20 SWAP1 DUP2 MSTORE PUSH1 0x40 DUP1 DUP4 KECCAK256 DUP4 SWAP1 SSTORE PUSH1 0xA SWAP1 SWAP2 MSTORE DUP1 DUP3 KECCAK256 SWAP2 SWAP1 SWAP2 SSTORE PUSH1 0x5 SLOAD SWAP1 MLOAD PUSH4 0xA9059CBB PUSH1 0xE0 SHL DUP2 MSTORE PUSH1 0x4 DUP2 ADD SWAP3 SWAP1 SWAP3 MSTORE PUSH1 0x24 DUP3 ADD DUP4 SWAP1 MSTORE PUSH1 0x1 PUSH1 0x1 PUSH1 0xA0 SHL SUB AND SWAP1 PUSH4 0xA9059CBB SWAP1 PUSH1 0x44 ADD PUSH1 0x20 PUSH1 0x40 MLOAD DUP1 DUP4 SUB DUP2 PUSH1 0x0 DUP8 GAS CALL ISZERO DUP1 ISZERO PUSH2 0xE00 JUMPI RETURNDATASIZE PUSH1 0x0 DUP1 RETURNDATACOPY RETURNDATASIZE PUSH1 0x0 REVERT JUMPDEST POP POP POP POP PUSH1 0x40 MLOAD RETURNDATASIZE PUSH1 0x1F NOT PUSH1 0x1F DUP3 ADD AND DUP3 ADD DUP1 PUSH1 0x40 MSTORE POP DUP2 ADD SWAP1 PUSH2 0xE24 SWAP2 SWAP1 PUSH2 0x110E JUMP JUMPDEST POP POP PUSH1 0x1 DUP1 SSTORE JUMP JUMPDEST PUSH2 0xE34 PUSH2 0xFA2 JUMP JUMPDEST PUSH1 0x40 MLOAD PUSH4 0x70A08231 PUSH1 0xE0 SHL DUP2 MSTORE ADDRESS PUSH1 0x4 DUP3 ADD MSTORE PUSH1 0x0 SWAP1 PUSH1 0x1 PUSH1 0x1 PUSH1 0xA0 SHL SUB DUP4 AND SWAP1 PUSH4 0x70A08231 SWAP1 PUSH1 0x24 ADD PUSH1 0x20 PUSH1 0x40 MLOAD DUP1 DUP4 SUB DUP2 DUP7 GAS STATICCALL ISZERO DUP1 ISZERO PUSH2 0xE7B JUMPI RETURNDATASIZE PUSH1 0x0 DUP1 RETURNDATACOPY RETURNDATASIZE PUSH1 0x0 REVERT JUMPDEST POP POP POP POP PUSH1 0x40 MLOAD RETURNDATASIZE PUSH1 0x1F NOT PUSH1 0x1F DUP3 ADD AND DUP3 ADD DUP1 PUSH1 0x40 MSTORE POP DUP2 ADD SWAP1 PUSH2 0xE9F SWAP2 SWAP1 PUSH2 0x1172 JUMP JUMPDEST PUSH1 0x4 DUP1 SLOAD PUSH1 0x40 MLOAD PUSH4 0xA9059CBB PUSH1 0xE0 SHL DUP2 MSTORE PUSH1 0x1 PUSH1 0x1 PUSH1 0xA0 SHL SUB SWAP2 DUP3 AND SWAP3 DUP2 ADD SWAP3 SWAP1 SWAP3 MSTORE PUSH1 0x24 DUP3 ADD DUP4 SWAP1 MSTORE SWAP2 SWAP3 POP SWAP1 DUP4 AND SWAP1 PUSH4 0xA9059CBB SWAP1 PUSH1 0x44 ADD PUSH1 0x20 PUSH1 0x40 MLOAD DUP1 DUP4 SUB DUP2 PUSH1 0x0 DUP8 GAS CALL ISZERO DUP1 ISZERO PUSH2 0xEF8 JUMPI RETURNDATASIZE PUSH1 0x0 DUP1 RETURNDATACOPY RETURNDATASIZE PUSH1 0x0 REVERT JUMPDEST POP POP POP POP PUSH1 0x40 MLOAD RETURNDATASIZE PUSH1 0x1F NOT PUSH1 0x1F DUP3 ADD AND DUP3 ADD DUP1 PUSH1 0x40 MSTORE POP DUP2 ADD SWAP1 PUSH2 0xC9E SWAP2 SWAP1 PUSH2 0x110E JUMP JUMPDEST PUSH2 0xF24 PUSH2 0xFA2 JUMP JUMPDEST PUSH1 0x3 SSTORE JUMP JUMPDEST PUSH2 0xF31 PUSH2 0xFA2 JUMP JUMPDEST PUSH1 0x1 PUSH1 0x1 PUSH1 0xA0 SHL SUB DUP2 AND PUSH2 0xF96 JUMPI PUSH1 0x40 MLOAD PUSH3 0x461BCD PUSH1 0xE5 SHL DUP2 MSTORE PUSH1 0x20 PUSH1 0x4 DUP3 ADD MSTORE PUSH1 0x26 PUSH1 0x24 DUP3 ADD MSTORE PUSH32 0x4F776E61626C653A206E6577206F776E657220697320746865207A65726F2061 PUSH1 0x44 DUP3 ADD MSTORE PUSH6 0x646472657373 PUSH1 0xD0 SHL PUSH1 0x64 DUP3 ADD MSTORE PUSH1 0x84 ADD PUSH2 0x5EC JUMP JUMPDEST PUSH2 0xF9F DUP2 PUSH2 0xFFC JUMP JUMPDEST POP JUMP JUMPDEST PUSH1 0x0 SLOAD PUSH1 0x1 PUSH1 0x1 PUSH1 0xA0 SHL SUB AND CALLER EQ PUSH2 0xCB5 JUMPI PUSH1 0x40 MLOAD PUSH3 0x461BCD PUSH1 0xE5 SHL DUP2 MSTORE PUSH1 0x20 PUSH1 0x4 DUP3 ADD DUP2 SWAP1 MSTORE PUSH1 0x24 DUP3 ADD MSTORE PUSH32 0x4F776E61626C653A2063616C6C6572206973206E6F7420746865206F776E6572 PUSH1 0x44 DUP3 ADD MSTORE PUSH1 0x64 ADD PUSH2 0x5EC JUMP JUMPDEST PUSH1 0x0 DUP1 SLOAD PUSH1 0x1 PUSH1 0x1 PUSH1 0xA0 SHL SUB DUP4 DUP2 AND PUSH1 0x1 PUSH1 0x1 PUSH1 0xA0 SHL SUB NOT DUP4 AND DUP2 OR DUP5 SSTORE PUSH1 0x40 MLOAD SWAP2 SWAP1 SWAP3 AND SWAP3 DUP4 SWAP2 PUSH32 0x8BE0079C531659141344CD1FD0A4F28419497F9722A3DAAFE3B4186F6B6457E0 SWAP2 SWAP1 LOG3 POP POP JUMP JUMPDEST PUSH1 0x0 PUSH1 0x20 DUP3 DUP5 SUB SLT ISZERO PUSH2 0x105E JUMPI PUSH1 0x0 DUP1 REVERT JUMPDEST DUP2 CALLDATALOAD PUSH1 0x1 PUSH1 0x1 PUSH1 0xA0 SHL SUB DUP2 AND DUP2 EQ PUSH2 0x555 JUMPI PUSH1 0x0 DUP1 REVERT JUMPDEST PUSH1 0x0 PUSH1 0x20 DUP3 DUP5 SUB SLT ISZERO PUSH2 0x1087 JUMPI PUSH1 0x0 DUP1 REVERT JUMPDEST POP CALLDATALOAD SWAP2 SWAP1 POP JUMP JUMPDEST PUSH1 0x0 PUSH1 0x60 DUP3 DUP5 SUB SLT ISZERO PUSH2 0x10A0 JUMPI PUSH1 0x0 DUP1 REVERT JUMPDEST POP SWAP2 SWAP1 POP JUMP JUMPDEST PUSH4 0x4E487B71 PUSH1 0xE0 SHL PUSH1 0x0 MSTORE PUSH1 0x11 PUSH1 0x4 MSTORE PUSH1 0x24 PUSH1 0x0 REVERT JUMPDEST DUP1 DUP3 MUL DUP2 ISZERO DUP3 DUP3 DIV DUP5 EQ OR PUSH2 0x10D3 JUMPI PUSH2 0x10D3 PUSH2 0x10A6 JUMP JUMPDEST SWAP3 SWAP2 POP POP JUMP JUMPDEST DUP2 DUP2 SUB DUP2 DUP2 GT ISZERO PUSH2 0x10D3 JUMPI PUSH2 0x10D3 PUSH2 0x10A6 JUMP JUMPDEST PUSH1 0x0 DUP3 PUSH2 0x1109 JUMPI PUSH4 0x4E487B71 PUSH1 0xE0 SHL PUSH1 0x0 MSTORE PUSH1 0x12 PUSH1 0x4 MSTORE PUSH1 0x24 PUSH1 0x0 REVERT JUMPDEST POP DIV SWAP1 JUMP JUMPDEST PUSH1 0x0 PUSH1 0x20 DUP3 DUP5 SUB SLT ISZERO PUSH2 0x1120 JUMPI PUSH1 0x0 DUP1 REVERT JUMPDEST DUP2 MLOAD DUP1 ISZERO ISZERO DUP2 EQ PUSH2 0x555 JUMPI PUSH1 0x0 DUP1 REVERT JUMPDEST DUP1 DUP3 ADD DUP1 DUP3 GT ISZERO PUSH2 0x10D3 JUMPI PUSH2 0x10D3 PUSH2 0x10A6 JUMP JUMPDEST PUSH4 0x4E487B71 PUSH1 0xE0 SHL PUSH1 0x0 MSTORE PUSH1 0x32 PUSH1 0x4 MSTORE PUSH1 0x24 PUSH1 0x0 REVERT JUMPDEST PUSH1 0x0 PUSH1 0x1 DUP3 ADD PUSH2 0x116B JUMPI PUSH2 0x116B PUSH2 0x10A6 JUMP JUMPDEST POP PUSH1 0x1 ADD SWAP1 JUMP JUMPDEST PUSH1 0x0 PUSH1 0x20 DUP3 DUP5 SUB SLT ISZERO PUSH2 0x1184 JUMPI PUSH1 0x0 DUP1 REVERT JUMPDEST POP MLOAD SWAP2 SWAP1 POP JUMP INVALID LOG2 PUSH5 0x6970667358 0x22 SLT KECCAK256 DUP4 JUMPI SDIV 0xB2 GASLIMIT PUSH11 0xDDB0E8B620CCD9A9B67EDB 0xDB JUMPDEST SWAP10 XOR 0xC1 SWAP10 0x4F SIGNEXTEND LOG4 PUSH15 0x4E13179BAB64736F6C634300081500 CALLER "
        },
        "methodIdentifiers": {
          "balances(address)": "27e235e3",
          "bindReffer(address)": "3c896052",
          "createPreSale((uint256,uint256,uint256))": "6c3ccdcf",
          "firstIdo(address)": "ba6ab555",
          "getCanIdoAmount(address)": "0845e71b",
          "goldTokenAddress()": "ffc42782",
          "inviteMin()": "6b4f9b7e",
          "isCloseSale()": "a8670711",
          "maxSale()": "3e30046a",
          "owner()": "8da5cb5b",
          "perMaxBuyUsdt()": "6b95dd5e",
          "presaleInfo()": "2edf0869",
          "refferNumber(address)": "2ac90940",
          "reffers(address)": "4d2e791d",
          "renounceOwnership()": "715018a6",
          "rewardBalances(address)": "93c8dc6d",
          "rewardLevel(uint256)": "3914735f",
          "sale()": "6ad1fe02",
          "saleToken()": "e985e367",
          "setInviteMin(uint256)": "7a693c18",
          "setPerMaxBuyUsdt(uint256)": "d1a2ab37",
          "setUserWithdrawTime(uint256)": "3afda085",
          "teamRefferNumber(address)": "9f96fcfe",
          "teamWithdraw(address)": "bc16aac5",
          "totalIdoUSDT()": "eb7d7a9e",
          "totalIdoUser()": "f1c1d412",
          "totalSale()": "ea4ce239",
          "transferOwnership(address)": "f2fde38b",
          "usdtToken()": "a98ad46c",
          "userBalance(address)": "0103c92b",
          "userBuyTotalUsdt(address)": "2d926091",
          "userRewardBalance(address)": "8787bb15",
          "userWithdraw()": "a646f9ad",
          "userWithdrawTime()": "31678c38"
        }
      },
      "storageLayout": {
        "storage": [
          {
            "astId": 7,
            "contract": "contracts/Presale.sol:Presale",
            "label": "_owner",
            "offset": 0,
            "slot": "0",
            "type": "t_address"
          },
          {
            "astId": 123,
            "contract": "contracts/Presale.sol:Presale",
            "label": "_status",
            "offset": 0,
            "slot": "1",
            "type": "t_uint256"
          },
          {
            "astId": 2310,
            "contract": "contracts/Presale.sol:Presale",
            "label": "userWithdrawTime",
            "offset": 0,
            "slot": "2",
            "type": "t_uint256"
          },
          {
            "astId": 2317,
            "contract": "contracts/Presale.sol:Presale",
            "label": "perMaxBuyUsdt",
            "offset": 0,
            "slot": "3",
            "type": "t_uint256"
          },
          {
            "astId": 2319,
            "contract": "contracts/Presale.sol:Presale",
            "label": "teamAddress",
            "offset": 0,
            "slot": "4",
            "type": "t_address"
          },
          {
            "astId": 2321,
            "contract": "contracts/Presale.sol:Presale",
            "label": "saleToken",
            "offset": 0,
            "slot": "5",
            "type": "t_address"
          },
          {
            "astId": 2323,
            "contract": "contracts/Presale.sol:Presale",
            "label": "usdtToken",
            "offset": 0,
            "slot": "6",
            "type": "t_address"
          },
          {
            "astId": 2325,
            "contract": "contracts/Presale.sol:Presale",
            "label": "goldTokenAddress",
            "offset": 0,
            "slot": "7",
            "type": "t_address"
          },
          {
            "astId": 2329,
            "contract": "contracts/Presale.sol:Presale",
            "label": "balances",
            "offset": 0,
            "slot": "8",
            "type": "t_mapping(t_address,t_uint256)"
          },
          {
            "astId": 2333,
            "contract": "contracts/Presale.sol:Presale",
            "label": "userBuyTotalUsdt",
            "offset": 0,
            "slot": "9",
            "type": "t_mapping(t_address,t_uint256)"
          },
          {
            "astId": 2337,
            "contract": "contracts/Presale.sol:Presale",
            "label": "rewardBalances",
            "offset": 0,
            "slot": "10",
            "type": "t_mapping(t_address,t_uint256)"
          },
          {
            "astId": 2341,
            "contract": "contracts/Presale.sol:Presale",
            "label": "reffers",
            "offset": 0,
            "slot": "11",
            "type": "t_mapping(t_address,t_address)"
          },
          {
            "astId": 2345,
            "contract": "contracts/Presale.sol:Presale",
            "label": "refferNumber",
            "offset": 0,
            "slot": "12",
            "type": "t_mapping(t_address,t_uint256)"
          },
          {
            "astId": 2349,
            "contract": "contracts/Presale.sol:Presale",
            "label": "teamRefferNumber",
            "offset": 0,
            "slot": "13",
            "type": "t_mapping(t_address,t_uint256)"
          },
          {
            "astId": 2353,
            "contract": "contracts/Presale.sol:Presale",
            "label": "firstIdo",
            "offset": 0,
            "slot": "14",
            "type": "t_mapping(t_address,t_bool)"
          },
          {
            "astId": 2355,
            "contract": "contracts/Presale.sol:Presale",
            "label": "totalIdoUSDT",
            "offset": 0,
            "slot": "15",
            "type": "t_uint256"
          },
          {
            "astId": 2357,
            "contract": "contracts/Presale.sol:Presale",
            "label": "totalIdoUser",
            "offset": 0,
            "slot": "16",
            "type": "t_uint256"
          },
          {
            "astId": 2359,
            "contract": "contracts/Presale.sol:Presale",
            "label": "totalSale",
            "offset": 0,
            "slot": "17",
            "type": "t_uint256"
          },
          {
            "astId": 2362,
            "contract": "contracts/Presale.sol:Presale",
            "label": "inviteMin",
            "offset": 0,
            "slot": "18",
            "type": "t_uint256"
          },
          {
            "astId": 2369,
            "contract": "contracts/Presale.sol:Presale",
            "label": "maxSale",
            "offset": 0,
            "slot": "19",
            "type": "t_uint256"
          },
          {
            "astId": 2371,
            "contract": "contracts/Presale.sol:Presale",
            "label": "isCloseSale",
            "offset": 0,
            "slot": "20",
            "type": "t_bool"
          },
          {
            "astId": 2385,
            "contract": "contracts/Presale.sol:Presale",
            "label": "rewardLevel",
            "offset": 0,
            "slot": "21",
            "type": "t_array(t_uint256)dyn_storage"
          },
          {
            "astId": 2395,
            "contract": "contracts/Presale.sol:Presale",
            "label": "presaleInfo",
            "offset": 0,
            "slot": "22",
            "type": "t_struct(PresaleInfo)2392_storage"
          }
        ],
        "types": {
          "t_address": {
            "encoding": "inplace",
            "label": "address",
            "numberOfBytes": "20"
          },
          "t_array(t_uint256)dyn_storage": {
            "base": "t_uint256",
            "encoding": "dynamic_array",
            "label": "uint256[]",
            "numberOfBytes": "32"
          },
          "t_bool": {
            "encoding": "inplace",
            "label": "bool",
            "numberOfBytes": "1"
          },
          "t_mapping(t_address,t_address)": {
            "encoding": "mapping",
            "key": "t_address",
            "label": "mapping(address => address)",
            "numberOfBytes": "32",
            "value": "t_address"
          },
          "t_mapping(t_address,t_bool)": {
            "encoding": "mapping",
            "key": "t_address",
            "label": "mapping(address => bool)",
            "numberOfBytes": "32",
            "value": "t_bool"
          },
          "t_mapping(t_address,t_uint256)": {
            "encoding": "mapping",
            "key": "t_address",
            "label": "mapping(address => uint256)",
            "numberOfBytes": "32",
            "value": "t_uint256"
          },
          "t_struct(PresaleInfo)2392_storage": {
            "encoding": "inplace",
            "label": "struct Presale.PresaleInfo",
            "members": [
              {
                "astId": 2387,
                "contract": "contracts/Presale.sol:Presale",
                "label": "startTime",
                "offset": 0,
                "slot": "0",
                "type": "t_uint256"
              },
              {
                "astId": 2389,
                "contract": "contracts/Presale.sol:Presale",
                "label": "endTime",
                "offset": 0,
                "slot": "1",
                "type": "t_uint256"
              },
              {
                "astId": 2391,
                "contract": "contracts/Presale.sol:Presale",
                "label": "price",
                "offset": 0,
                "slot": "2",
                "type": "t_uint256"
              }
            ],
            "numberOfBytes": "96"
          },
          "t_uint256": {
            "encoding": "inplace",
            "label": "uint256",
            "numberOfBytes": "32"
          }
        }
      }
    }
  }
}