{"contracts/linkcode.sol":{"RecruitCoinTest":{"abi":[{"inputs":[],"stateMutability":"nonpayable","type":"constructor"},{"anonymous":false,"inputs":[{"indexed":true,"internalType":"address","name":"owner","type":"address"},{"indexed":true,"internalType":"address","name":"spender","type":"address"},{"indexed":false,"internalType":"uint256","name":"value","type":"uint256"}],"name":"Approval","type":"event"},{"anonymous":false,"inputs":[{"indexed":false,"internalType":"uint256","name":"amount","type":"uint256"}],"name":"Claimed","type":"event"},{"anonymous":false,"inputs":[{"indexed":false,"internalType":"address","name":"depositor","type":"address"},{"indexed":false,"internalType":"uint256","name":"paymentAmount","type":"uint256"},{"indexed":false,"internalType":"uint256","name":"purchasedTokens","type":"uint256"}],"name":"Deposits","type":"event"},{"anonymous":false,"inputs":[{"indexed":true,"internalType":"address","name":"previousOwner","type":"address"},{"indexed":true,"internalType":"address","name":"newOwner","type":"address"}],"name":"OwnershipTransferred","type":"event"},{"anonymous":false,"inputs":[{"indexed":true,"internalType":"address","name":"from","type":"address"},{"indexed":true,"internalType":"address","name":"to","type":"address"},{"indexed":false,"internalType":"uint256","name":"value","type":"uint256"}],"name":"Transfer","type":"event"},{"inputs":[{"internalType":"address","name":"owner","type":"address"},{"internalType":"address","name":"spender","type":"address"}],"name":"allowance","outputs":[{"internalType":"uint256","name":"","type":"uint256"}],"stateMutability":"view","type":"function"},{"inputs":[{"internalType":"address","name":"spender","type":"address"},{"internalType":"uint256","name":"amount","type":"uint256"}],"name":"approve","outputs":[{"internalType":"bool","name":"","type":"bool"}],"stateMutability":"nonpayable","type":"function"},{"inputs":[{"internalType":"address","name":"account","type":"address"}],"name":"balanceOf","outputs":[{"internalType":"uint256","name":"","type":"uint256"}],"stateMutability":"view","type":"function"},{"inputs":[{"internalType":"uint256","name":"","type":"uint256"}],"name":"bonus","outputs":[{"internalType":"uint256","name":"","type":"uint256"}],"stateMutability":"view","type":"function"},{"inputs":[{"internalType":"bytes32","name":"vestingScheduleId","type":"bytes32"},{"internalType":"uint256","name":"amount","type":"uint256"}],"name":"claim","outputs":[],"stateMutability":"nonpayable","type":"function"},{"inputs":[{"internalType":"address","name":"holder","type":"address"}],"name":"computeNextVestingScheduleIdForHolder","outputs":[{"internalType":"bytes32","name":"","type":"bytes32"}],"stateMutability":"view","type":"function"},{"inputs":[{"internalType":"address","name":"holder","type":"address"},{"internalType":"uint256","name":"index","type":"uint256"}],"name":"computeVestingScheduleIdForAddressAndIndex","outputs":[{"internalType":"bytes32","name":"","type":"bytes32"}],"stateMutability":"pure","type":"function"},{"inputs":[{"internalType":"uint256","name":"","type":"uint256"}],"name":"dates","outputs":[{"internalType":"uint256","name":"","type":"uint256"}],"stateMutability":"view","type":"function"},{"inputs":[],"name":"decimals","outputs":[{"internalType":"uint8","name":"","type":"uint8"}],"stateMutability":"view","type":"function"},{"inputs":[{"internalType":"address","name":"spender","type":"address"},{"internalType":"uint256","name":"subtractedValue","type":"uint256"}],"name":"decreaseAllowance","outputs":[{"internalType":"bool","name":"","type":"bool"}],"stateMutability":"nonpayable","type":"function"},{"inputs":[{"internalType":"uint256","name":"paymentAmount","type":"uint256"},{"internalType":"uint8","name":"pTIndex","type":"uint8"}],"name":"deposit","outputs":[],"stateMutability":"nonpayable","type":"function"},{"inputs":[{"internalType":"address[]","name":"_recipients","type":"address[]"},{"internalType":"uint256[]","name":"_amount","type":"uint256[]"}],"name":"earlyMint","outputs":[],"stateMutability":"nonpayable","type":"function"},{"inputs":[{"internalType":"bytes32","name":"vestingScheduleId","type":"bytes32"}],"name":"getVestingSchedule","outputs":[{"components":[{"internalType":"bool","name":"initialized","type":"bool"},{"internalType":"address","name":"beneficiary","type":"address"},{"internalType":"uint256","name":"cliff","type":"uint256"},{"internalType":"uint256","name":"start","type":"uint256"},{"internalType":"uint256","name":"duration","type":"uint256"},{"internalType":"uint256","name":"slicePeriodSeconds","type":"uint256"},{"internalType":"bool","name":"revocable","type":"bool"},{"internalType":"uint256","name":"amountTotal","type":"uint256"},{"internalType":"uint256","name":"released","type":"uint256"},{"internalType":"bool","name":"revoked","type":"bool"}],"internalType":"struct RecruitCoinTest.VestingSchedule","name":"","type":"tuple"}],"stateMutability":"view","type":"function"},{"inputs":[{"internalType":"address","name":"holder","type":"address"},{"internalType":"uint256","name":"index","type":"uint256"}],"name":"getVestingScheduleByAddressAndIndex","outputs":[{"components":[{"internalType":"bool","name":"initialized","type":"bool"},{"internalType":"address","name":"beneficiary","type":"address"},{"internalType":"uint256","name":"cliff","type":"uint256"},{"internalType":"uint256","name":"start","type":"uint256"},{"internalType":"uint256","name":"duration","type":"uint256"},{"internalType":"uint256","name":"slicePeriodSeconds","type":"uint256"},{"internalType":"bool","name":"revocable","type":"bool"},{"internalType":"uint256","name":"amountTotal","type":"uint256"},{"internalType":"uint256","name":"released","type":"uint256"},{"internalType":"bool","name":"revoked","type":"bool"}],"internalType":"struct RecruitCoinTest.VestingSchedule","name":"","type":"tuple"}],"stateMutability":"view","type":"function"},{"inputs":[{"internalType":"address","name":"spender","type":"address"},{"internalType":"uint256","name":"addedValue","type":"uint256"}],"name":"increaseAllowance","outputs":[{"internalType":"bool","name":"","type":"bool"}],"stateMutability":"nonpayable","type":"function"},{"inputs":[{"internalType":"address[]","name":"_recipients","type":"address[]"},{"internalType":"uint256[]","name":"_amount","type":"uint256[]"}],"name":"mint","outputs":[],"stateMutability":"nonpayable","type":"function"},{"inputs":[],"name":"name","outputs":[{"internalType":"string","name":"","type":"string"}],"stateMutability":"view","type":"function"},{"inputs":[],"name":"owner","outputs":[{"internalType":"address","name":"","type":"address"}],"stateMutability":"view","type":"function"},{"inputs":[{"internalType":"uint256","name":"","type":"uint256"}],"name":"paymentTokens","outputs":[{"internalType":"contract IERC20","name":"","type":"address"}],"stateMutability":"view","type":"function"},{"inputs":[{"internalType":"uint256","name":"","type":"uint256"}],"name":"prices","outputs":[{"internalType":"uint256","name":"","type":"uint256"}],"stateMutability":"view","type":"function"},{"inputs":[],"name":"renounceOwnership","outputs":[],"stateMutability":"nonpayable","type":"function"},{"inputs":[{"internalType":"bytes32","name":"vestingScheduleId","type":"bytes32"}],"name":"revoke","outputs":[],"stateMutability":"nonpayable","type":"function"},{"inputs":[{"internalType":"uint256[4]","name":"_bonus","type":"uint256[4]"}],"name":"setBonus","outputs":[],"stateMutability":"nonpayable","type":"function"},{"inputs":[{"internalType":"uint256[4]","name":"_dates","type":"uint256[4]"}],"name":"setDates","outputs":[],"stateMutability":"nonpayable","type":"function"},{"inputs":[{"internalType":"contract IERC20[]","name":"_paymentTokens","type":"address[]"}],"name":"setPaymentTokens","outputs":[],"stateMutability":"nonpayable","type":"function"},{"inputs":[{"internalType":"uint256[2]","name":"_prices","type":"uint256[2]"}],"name":"setPrices","outputs":[],"stateMutability":"nonpayable","type":"function"},{"inputs":[{"internalType":"uint256","name":"","type":"uint256"}],"name":"supplies","outputs":[{"internalType":"uint256","name":"","type":"uint256"}],"stateMutability":"view","type":"function"},{"inputs":[],"name":"symbol","outputs":[{"internalType":"string","name":"","type":"string"}],"stateMutability":"view","type":"function"},{"inputs":[],"name":"totalSupply","outputs":[{"internalType":"uint256","name":"","type":"uint256"}],"stateMutability":"view","type":"function"},{"inputs":[{"internalType":"address","name":"to","type":"address"},{"internalType":"uint256","name":"amount","type":"uint256"}],"name":"transfer","outputs":[{"internalType":"bool","name":"","type":"bool"}],"stateMutability":"nonpayable","type":"function"},{"inputs":[{"internalType":"address","name":"from","type":"address"},{"internalType":"address","name":"to","type":"address"},{"internalType":"uint256","name":"amount","type":"uint256"}],"name":"transferFrom","outputs":[{"internalType":"bool","name":"","type":"bool"}],"stateMutability":"nonpayable","type":"function"},{"inputs":[{"internalType":"address","name":"newOwner","type":"address"}],"name":"transferOwnership","outputs":[],"stateMutability":"nonpayable","type":"function"},{"inputs":[{"internalType":"uint8","name":"pTIndex","type":"uint8"},{"internalType":"uint256","name":"amount","type":"uint256"}],"name":"withdrawTokens","outputs":[],"stateMutability":"nonpayable","type":"function"}],"evm":{"bytecode":{"linkReferences":{},"object":"610180604052630ee6b28060809081526203d09060a052621312d060c05262bebc2060e05263017d7840610100526303b9aca0610120526308f0d18061014052600061016052620000549060089081620002c5565b5060408051808201909152670186cc6acd4b00008152664a9b638448800060208201526200008790601090600262000310565b506040518060800160405280620000a36200025660201b60201c565b8152602001620000c662278d00425b6200025a60201b620012291790919060201c565b8152602001620000da62278d0042620000b2565b8152602001620000ee624f1a0042620000b2565b9052620001009060129060046200034c565b5060408051608081018252600f8152600a602082015260079181019190915260056060820152620001369060169060046200037d565b503480156200014457600080fd5b50604080518082018252600c81526b2932b1b93ab4ba1021b7b4b760a11b602080830191825283518085019094526005845264149150d55560da1b9084015281519192916200019691600391620003b3565b508051620001ac906004906020840190620003b3565b505050620001c9620001c36200026f60201b60201c565b62000273565b60016006556040805160808101825273534399090da190a2e1cf868299a448907f1b2a27815273a11c8d9dc9b66e209ef60f0c8d969d3cd988782c6020820152738301f2213c0eed49a7e28ae4c3e91722919b8b479181019190915273f976a4dc07201f4e0f9fc8f85766344d7a93c45660608201526200024f9060079060046200042f565b5062000502565b4290565b60006200026882846200049e565b9392505050565b3390565b600580546001600160a01b038381166001600160a01b0319831681179093556040519116919082907f8be0079c531659141344cd1fd0a4f28419497f9722a3daafe3b4186f6b6457e090600090a35050565b8260088101928215620002fe579160200282015b82811115620002fe578251829063ffffffff16905591602001919060010190620002d9565b506200030c92915062000487565b5090565b8260028101928215620002fe579160200282015b82811115620002fe57825182906001600160401b031690559160200191906001019062000324565b8260048101928215620002fe579160200282015b82811115620002fe57825182559160200191906001019062000360565b8260048101928215620002fe579160200282015b82811115620002fe578251829060ff1690559160200191906001019062000391565b828054620003c190620004c5565b90600052602060002090601f016020900481019282620003e55760008555620002fe565b82601f106200040057805160ff1916838001178555620002fe565b82800160010185558215620002fe5791820182811115620002fe57825182559160200191906001019062000360565b828054828255906000526020600020908101928215620002fe579160200282015b82811115620002fe57825182546001600160a01b0319166001600160a01b0390911617825560209092019160019091019062000450565b5b808211156200030c576000815560010162000488565b60008219821115620004c057634e487b7160e01b600052601160045260246000fd5b500190565b600181811c90821680620004da57607f821691505b60208210811415620004fc57634e487b7160e01b600052602260045260246000fd5b50919050565b6124c080620005126000396000f3fe608060405234801561001057600080fd5b50600436106101fb5760003560e01c80638af104da1161011a578063b88dccac116100ad578063de6608411161007c578063de6608411461044b578063e467f7e01461045e578063f2fde38b14610471578063f51321d714610484578063f7c469f01461049757600080fd5b8063b88dccac146103ff578063bc31c1c114610412578063db7a1f5f14610425578063dd62ed3e1461043857600080fd5b8063a457c2d7116100e9578063a457c2d7146103b3578063a9059cbb146103c6578063ac9b8a89146103d9578063b75c7dc6146103ec57600080fd5b80638af104da146103535780638da5cb5b1461036657806395d89b411461038b5780639ef346b41461039357600080fd5b8063313ce5671161019257806363f449681161016157806363f44968146102fc578063654cfdff1461030f57806370a0823114610322578063715018a61461034b57600080fd5b8063313ce567146102b457806336afb788146102c357806339509351146102d65780635133ae24146102e957600080fd5b806323b872dd116101ce57806323b872dd1461026857806324749b591461027b57806326f1a1fd1461028e578063298a35e8146102a157600080fd5b806306fdde0314610200578063095ea7b31461021e5780631655aea31461024157806318160ddd14610256575b600080fd5b6102086104aa565b6040516102159190611fea565b60405180910390f35b61023161022c36600461205b565b61053c565b6040519015158152602001610215565b61025461024f366004612085565b610554565b005b6002545b604051908152602001610215565b6102316102763660046120a7565b61056d565b61025a6102893660046120e3565b610591565b61025a61029c3660046120e3565b6105a8565b6102546102af3660046120fc565b6105b8565b60405160128152602001610215565b6102546102d136600461212f565b6105cd565b6102316102e436600461205b565b610789565b61025a6102f73660046120e3565b6107ab565b61025461030a36600461214b565b6107bb565b61025461031d36600461216d565b610a1c565b61025a610330366004612199565b6001600160a01b031660009081526020819052604090205490565b610254610a27565b61025a61036136600461205b565b610a3b565b6005546001600160a01b03165b6040516001600160a01b039091168152602001610215565b610208610a82565b6103a66103a13660046120e3565b610a91565b60405161021591906121b4565b6102316103c136600461205b565b610b35565b6102316103d436600461205b565b610bb0565b6102546103e73660046120fc565b610bbe565b6102546103fa3660046120e3565b610bd3565b61025461040d36600461228b565b610dd9565b61025a6104203660046120e3565b610ded565b6102546104333660046122cd565b610dfd565b61025a610446366004612339565b610fda565b6103736104593660046120e3565b611005565b61025461046c3660046122cd565b61102f565b61025461047f366004612199565b61116a565b6103a661049236600461205b565b6111e3565b61025a6104a5366004612199565b6111ff565b6060600380546104b990612363565b80601f01602080910402602001604051908101604052809291908181526020018280546104e590612363565b80156105325780601f1061050757610100808354040283529160200191610532565b820191906000526020600020905b81548152906001019060200180831161051557829003601f168201915b5050505050905090565b60003361054a818585611235565b5060019392505050565b61055c611359565b6105696010826002611eb5565b5050565b60003361057b8582856113b3565b61058685858561142d565b506001949350505050565b601681600481106105a157600080fd5b0154905081565b600881600881106105a157600080fd5b6105c0611359565b6105696012826004611ef3565b6105d5611359565b8060078360ff16815481106105ec576105ec612398565b6000918252602090912001546040516370a0823160e01b81523060048201526001600160a01b03909116906370a082319060240160206040518083038186803b15801561063857600080fd5b505afa15801561064c573d6000803e3d6000fd5b505050506040513d601f19601f8201168201806040525081019061067091906123ae565b10156106ba5760405162461bcd60e51b8152602060048201526014602482015273494e53554646494349454e542042414c414e434560601b60448201526064015b60405180910390fd5b60078260ff16815481106106d0576106d0612398565b6000918252602090912001546001600160a01b03166323b872dd306106fd6005546001600160a01b031690565b6040516001600160e01b031960e085901b1681526001600160a01b0392831660048201529116602482015260448101849052606401602060405180830381600087803b15801561074c57600080fd5b505af1158015610760573d6000803e3d6000fd5b505050506040513d601f19601f8201168201806040525081019061078491906123c7565b505050565b60003361054a81858561079c8383610fda565b6107a691906123ff565b611235565b601281600481106105a157600080fd5b6107c36115d1565b6000828152601b6020526040902054829060ff16151560011461081b5760405162461bcd60e51b815260206004820152601060248201526f139bc815995cdd1a5b99c8199bdd5b9960821b60448201526064016106b1565b6000818152601b602052604090206008015460ff16156108725760405162461bcd60e51b815260206004820152601260248201527114995d9bdad9481b9bdd08185b1b1bddd95960721b60448201526064016106b1565b6000838152601b602052604090208054600554336001600160a01b0361010090930483168114929091161481806108a65750805b6108f25760405162461bcd60e51b815260206004820152601a60248201527f4f6e6c792062656e65666963696172792063616e20636c61696d00000000000060448201526064016106b1565b6040805161014081018252845460ff808216151583526001600160a01b03610100928390041660208401526001870154938301939093526002860154606083015260038601546080830152600486015460a083015260058601548316151560c0830152600686015460e0830152600786015490820152600885015490911615156101208201526000906109849061162b565b9050858110156109cc5760405162461bcd60e51b8152602060048201526013602482015272546f6b656e73206e6f74206176616c69626c6560681b60448201526064016106b1565b60078401546109db9087611229565b60078501558354601c546101009091046001600160a01b0316906109ff9088611714565b601c55610a0c8188611720565b5050505050506105696001600655565b6105693383836117df565b610a2f611359565b610a396000611b05565b565b6040516bffffffffffffffffffffffff19606084901b1660208201526034810182905260009060540160405160208183030381529060405280519060200120905092915050565b6060600480546104b990612363565b610a99611f20565b506000908152601b6020908152604091829020825161014081018452815460ff808216151583526001600160a01b036101009283900416948301949094526001830154948201949094526002820154606082015260038201546080820152600482015460a082015260058201548316151560c0820152600682015460e08201526007820154938101939093526008015416151561012082015290565b60003381610b438286610fda565b905083811015610ba35760405162461bcd60e51b815260206004820152602560248201527f45524332303a2064656372656173656420616c6c6f77616e63652062656c6f77604482015264207a65726f60d81b60648201526084016106b1565b6105868286868403611235565b60003361054a81858561142d565b610bc6611359565b6105696016826004611ef3565b610bdb611359565b6000818152601b6020526040902054819060ff161515600114610c335760405162461bcd60e51b815260206004820152601060248201526f139bc815995cdd1a5b99c8199bdd5b9960821b60448201526064016106b1565b6000818152601b602052604090206008015460ff1615610c8a5760405162461bcd60e51b815260206004820152601260248201527114995d9bdad9481b9bdd08185b1b1bddd95960721b60448201526064016106b1565b6000828152601b60205260409020600581015460ff161515600114610cf15760405162461bcd60e51b815260206004820152601860248201527f76657374696e67206973206e6f74207265766f6361626c65000000000000000060448201526064016106b1565b6040805161014081018252825460ff808216151583526001600160a01b03610100928390041660208401526001850154938301939093526002840154606083015260038401546080830152600484015460a083015260058401548316151560c0830152600684015460e083015260078401549082015260088301549091161515610120820152600090610d839061162b565b90508015610d9557610d9584826107bb565b6000610db28360070154846006015461171490919063ffffffff16565b601c54909150610dc29082611714565b601c555050600801805460ff191660011790555050565b610de1611359565b61078460078383611f82565b601081600281106105a157600080fd5b610e05611359565b60005b83811015610fd357600d54838383818110610e2557610e25612398565b905060200201351115610e705760405162461bcd60e51b815260206004820152601360248201527227ab22a9232627ab9020a62627a1a0aa24a7a760691b60448201526064016106b1565b6000858583818110610e8457610e84612398565b9050602002016020810190610e999190612199565b6001600160a01b03161415610ee35760405162461bcd60e51b815260206004820152601060248201526f105111149154d4c8149154555254915160821b60448201526064016106b1565b6000838383818110610ef757610ef7612398565b905060200201351115610f3e5760405162461bcd60e51b815260206004820152600f60248201526e105353d55395081491545552549151608a1b60448201526064016106b1565b610f76838383818110610f5357610f53612398565b905060200201356008600560088110610f6e57610f6e612398565b015490611714565b600d55610fc1858583818110610f8e57610f8e612398565b9050602002016020810190610fa39190612199565b848484818110610fb557610fb5612398565b90506020020135611720565b80610fcb81612417565b915050610e08565b5050505050565b6001600160a01b03918216600090815260016020908152604080832093909416825291909152205490565b6007818154811061101557600080fd5b6000918252602090912001546001600160a01b0316905081565b611037611359565b60005b83811015610fd357600085858381811061105657611056612398565b905060200201602081019061106b9190612199565b6001600160a01b031614156110b55760405162461bcd60e51b815260206004820152601060248201526f105111149154d4c8149154555254915160821b60448201526064016106b1565b60008383838181106110c9576110c9612398565b9050602002013511156111105760405162461bcd60e51b815260206004820152600f60248201526e105353d55395081491545552549151608a1b60448201526064016106b1565b61114083838381811061112557611125612398565b905060200201356008600660088110610f6e57610f6e612398565b600e55611158858583818110610f8e57610f8e612398565b8061116281612417565b91505061103a565b611172611359565b6001600160a01b0381166111d75760405162461bcd60e51b815260206004820152602660248201527f4f776e61626c653a206e6577206f776e657220697320746865207a65726f206160448201526564647265737360d01b60648201526084016106b1565b6111e081611b05565b50565b6111eb611f20565b6111f86103a18484610a3b565b9392505050565b6001600160a01b0381166000908152601d6020526040812054611223908390610a3b565b92915050565b60006111f882846123ff565b6001600160a01b0383166112975760405162461bcd60e51b8152602060048201526024808201527f45524332303a20617070726f76652066726f6d20746865207a65726f206164646044820152637265737360e01b60648201526084016106b1565b6001600160a01b0382166112f85760405162461bcd60e51b815260206004820152602260248201527f45524332303a20617070726f766520746f20746865207a65726f206164647265604482015261737360f01b60648201526084016106b1565b6001600160a01b0383811660008181526001602090815260408083209487168084529482529182902085905590518481527f8c5be1e5ebec7d5bd14f71427d1e84f3dd0314c0f7b2291e5b200ac8c7c3b925910160405180910390a3505050565b6005546001600160a01b03163314610a395760405162461bcd60e51b815260206004820181905260248201527f4f776e61626c653a2063616c6c6572206973206e6f7420746865206f776e657260448201526064016106b1565b60006113bf8484610fda565b90506000198114611427578181101561141a5760405162461bcd60e51b815260206004820152601d60248201527f45524332303a20696e73756666696369656e7420616c6c6f77616e636500000060448201526064016106b1565b6114278484848403611235565b50505050565b6001600160a01b0383166114915760405162461bcd60e51b815260206004820152602560248201527f45524332303a207472616e736665722066726f6d20746865207a65726f206164604482015264647265737360d81b60648201526084016106b1565b6001600160a01b0382166114f35760405162461bcd60e51b815260206004820152602360248201527f45524332303a207472616e7366657220746f20746865207a65726f206164647260448201526265737360e81b60648201526084016106b1565b6001600160a01b0383166000908152602081905260409020548181101561156b5760405162461bcd60e51b815260206004820152602660248201527f45524332303a207472616e7366657220616d6f756e7420657863656564732062604482015265616c616e636560d01b60648201526084016106b1565b6001600160a01b03848116600081815260208181526040808320878703905593871680835291849020805487019055925185815290927fddf252ad1be2c89b69c2b068fc378daa952ba7f163c4a11628f55a4df523b3ef910160405180910390a3611427565b600260065414156116245760405162461bcd60e51b815260206004820152601f60248201527f5265656e7472616e637947756172643a207265656e7472616e742063616c6c0060448201526064016106b1565b6002600655565b60408101516000904290811080611649575061012083015115156001145b156116575750600092915050565b6080830151606084015161166a91611229565b81106116845761010083015160e08401516111f891611714565b600061169d84606001518361171490919063ffffffff16565b60a085015190915060006116b18383611b57565b905060006116bf8284611b63565b905060006116e888608001516116e2848b60e00151611b6390919063ffffffff16565b90611b57565b90506117028861010001518261171490919063ffffffff16565b98975050505050505050565b50919050565b60006111f88284612432565b6001600160a01b0382166117765760405162461bcd60e51b815260206004820152601f60248201527f45524332303a206d696e7420746f20746865207a65726f20616464726573730060448201526064016106b1565b806002600082825461178891906123ff565b90915550506001600160a01b038216600081815260208181526040808320805486019055518481527fddf252ad1be2c89b69c2b068fc378daa952ba7f163c4a11628f55a4df523b3ef910160405180910390a35050565b60125460009042101580156117f5575060135442105b156118ac5761180b601060005b01548490611b57565b90508060086004015410156118565760405162461bcd60e51b81526020600482015260116024820152704f564552464c4f5720505552434841534560781b60448201526064016106b1565b6118638160086004610f6e565b600c5561187781600860075b015490611229565b600f55600061188c6301e13380425b90611229565b90506118a6858262278d006301e133806001600088611b6f565b50611a09565b60145442101580156118bf575060155442105b156119ca576118d060106000611802565b9050600061190a60646116e260166118f160016118eb611e95565b90611714565b6004811061190157611901612398565b01548590611b63565b90506119168282611229565b600b54101561195b5760405162461bcd60e51b81526020600482015260116024820152704f564552464c4f5720505552434841534560781b60448201526064016106b1565b6119688260086003610f6e565b600b55611978826008600761186f565b600f55600061198a62ed4e0042611886565b90506002611996611e95565b116119ab576119a86276a70042611886565b90505b6119c3868262278d006301e133806001600089611b6f565b5050611a09565b60405162461bcd60e51b815260206004820152601460248201527353414c45204953204e4f54204156414c49424c4560601b60448201526064016106b1565b60078260ff1681548110611a1f57611a1f612398565b6000918252602090912001546040516323b872dd60e01b81526001600160a01b03868116600483015230602483015260448201869052909116906323b872dd90606401602060405180830381600087803b158015611a7c57600080fd5b505af1158015611a90573d6000803e3d6000fd5b505050506040513d601f19601f82011682018060405250810190611ab491906123c7565b50604080516001600160a01b0386168152602081018590529081018290527fbff8b013f0c9459bd241c61149d0bb074ab29b460aacc13fd503bc7188c8bccd9060600160405180910390a150505050565b600580546001600160a01b038381166001600160a01b0319831681179093556040519116919082907f8be0079c531659141344cd1fd0a4f28419497f9722a3daafe3b4186f6b6457e090600090a35050565b60006111f88284612449565b60006111f8828461246b565b60008411611bae5760405162461bcd60e51b815260206004820152600c60248201526b06475726174696f6e203e20360a41b60448201526064016106b1565b60008111611beb5760405162461bcd60e51b815260206004820152600a6024820152690616d6f756e74203e20360b41b60448201526064016106b1565b6001831015611c3c5760405162461bcd60e51b815260206004820152601760248201527f536c696365506572696f645365636f6e6473203e3d203100000000000000000060448201526064016106b1565b604051630f7c469f60e41b81526001600160a01b0388166004820152600090309063f7c469f09060240160206040518083038186803b158015611c7e57600080fd5b505afa158015611c92573d6000803e3d6000fd5b505050506040513d601f19601f82011682018060405250810190611cb691906123ae565b90506000611cc48888611229565b90506040518061014001604052806001151581526020018a6001600160a01b0316815260200182815260200189815260200187815260200186815260200185151581526020018481526020016000815260200160001515815250601b600084815260200190815260200160002060008201518160000160006101000a81548160ff02191690831515021790555060208201518160000160016101000a8154816001600160a01b0302191690836001600160a01b0316021790555060408201518160010155606082015181600201556080820151816003015560a0820151816004015560c08201518160050160006101000a81548160ff02191690831515021790555060e0820151816006015561010082015181600701556101208201518160080160006101000a81548160ff021916908315150217905550905050611e1483601c5461122990919063ffffffff16565b601c55601a805460018181019092557f057c384a7d1c54f3a1b2e5e67b2617b8224fdfd1ea7234eea573a6ff665ff63e018390556001600160a01b038a166000908152601d602052604090205490611e6d908290611229565b6001600160a01b03909a166000908152601d6020526040902099909955505050505050505050565b6000611eb0600161188662093a806014546116e290426118eb565b905090565b8260028101928215611ee3579160200282015b82811115611ee3578235825591602001919060010190611ec8565b50611eef929150611fd5565b5090565b8260048101928215611ee35791602002820182811115611ee3578235825591602001919060010190611ec8565b60405180610140016040528060001515815260200160006001600160a01b031681526020016000815260200160008152602001600081526020016000815260200160001515815260200160008152602001600081526020016000151581525090565b828054828255906000526020600020908101928215611ee3579160200282015b82811115611ee35781546001600160a01b0319166001600160a01b03843516178255602090920191600190910190611fa2565b5b80821115611eef5760008155600101611fd6565b600060208083528351808285015260005b8181101561201757858101830151858201604001528201611ffb565b81811115612029576000604083870101525b50601f01601f1916929092016040019392505050565b80356001600160a01b038116811461205657600080fd5b919050565b6000806040838503121561206e57600080fd5b6120778361203f565b946020939093013593505050565b60006040828403121561209757600080fd5b8260408301111561170e57600080fd5b6000806000606084860312156120bc57600080fd5b6120c58461203f565b92506120d36020850161203f565b9150604084013590509250925092565b6000602082840312156120f557600080fd5b5035919050565b60006080828403121561210e57600080fd5b8260808301111561170e57600080fd5b803560ff8116811461205657600080fd5b6000806040838503121561214257600080fd5b6120778361211e565b6000806040838503121561215e57600080fd5b50508035926020909101359150565b6000806040838503121561218057600080fd5b823591506121906020840161211e565b90509250929050565b6000602082840312156121ab57600080fd5b6111f88261203f565b815115158152610140810160208301516121d960208401826001600160a01b03169052565b5060408301516040830152606083015160608301526080830151608083015260a083015160a083015260c083015161221560c084018215159052565b5060e083810151908301526101008084015190830152610120928301511515929091019190915290565b60008083601f84011261225157600080fd5b50813567ffffffffffffffff81111561226957600080fd5b6020830191508360208260051b850101111561228457600080fd5b9250929050565b6000806020838503121561229e57600080fd5b823567ffffffffffffffff8111156122b557600080fd5b6122c18582860161223f565b90969095509350505050565b600080600080604085870312156122e357600080fd5b843567ffffffffffffffff808211156122fb57600080fd5b6123078883890161223f565b9096509450602087013591508082111561232057600080fd5b5061232d8782880161223f565b95989497509550505050565b6000806040838503121561234c57600080fd5b6123558361203f565b91506121906020840161203f565b600181811c9082168061237757607f821691505b6020821081141561170e57634e487b7160e01b600052602260045260246000fd5b634e487b7160e01b600052603260045260246000fd5b6000602082840312156123c057600080fd5b5051919050565b6000602082840312156123d957600080fd5b815180151581146111f857600080fd5b634e487b7160e01b600052601160045260246000fd5b60008219821115612412576124126123e9565b500190565b600060001982141561242b5761242b6123e9565b5060010190565b600082821015612444576124446123e9565b500390565b60008261246657634e487b7160e01b600052601260045260246000fd5b500490565b6000816000190483118215151615612485576124856123e9565b50029056fea26469706673582212202479ff8c3000b94ff83a665ffa6daf61f966dcbb861c559f285cac6eb531deaf64736f6c63430008090033","opcodes":"PUSH2 0x180 PUSH1 0x40 MSTORE PUSH4 0xEE6B280 PUSH1 0x80 SWAP1 DUP2 MSTORE PUSH3 0x3D090 PUSH1 0xA0 MSTORE PUSH3 0x1312D0 PUSH1 0xC0 MSTORE PUSH3 0xBEBC20 PUSH1 0xE0 MSTORE PUSH4 0x17D7840 PUSH2 0x100 MSTORE PUSH4 0x3B9ACA0 PUSH2 0x120 MSTORE PUSH4 0x8F0D180 PUSH2 0x140 MSTORE PUSH1 0x0 PUSH2 0x160 MSTORE PUSH3 0x54 SWAP1 PUSH1 0x8 SWAP1 DUP2 PUSH3 0x2C5 JUMP JUMPDEST POP PUSH1 0x40 DUP1 MLOAD DUP1 DUP3 ADD SWAP1 SWAP2 MSTORE PUSH8 0x186CC6ACD4B0000 DUP2 MSTORE PUSH7 0x4A9B6384488000 PUSH1 0x20 DUP3 ADD MSTORE PUSH3 0x87 SWAP1 PUSH1 0x10 SWAP1 PUSH1 0x2 PUSH3 0x310 JUMP JUMPDEST POP PUSH1 0x40 MLOAD DUP1 PUSH1 0x80 ADD PUSH1 0x40 MSTORE DUP1 PUSH3 0xA3 PUSH3 0x256 PUSH1 0x20 SHL PUSH1 0x20 SHR JUMP JUMPDEST DUP2 MSTORE PUSH1 0x20 ADD PUSH3 0xC6 PUSH3 0x278D00 TIMESTAMP JUMPDEST PUSH3 0x25A PUSH1 0x20 SHL PUSH3 0x1229 OR SWAP1 SWAP2 SWAP1 PUSH1 0x20 SHR JUMP JUMPDEST DUP2 MSTORE PUSH1 0x20 ADD PUSH3 0xDA PUSH3 0x278D00 TIMESTAMP PUSH3 0xB2 JUMP JUMPDEST DUP2 MSTORE PUSH1 0x20 ADD PUSH3 0xEE PUSH3 0x4F1A00 TIMESTAMP PUSH3 0xB2 JUMP JUMPDEST SWAP1 MSTORE PUSH3 0x100 SWAP1 PUSH1 0x12 SWAP1 PUSH1 0x4 PUSH3 0x34C JUMP JUMPDEST POP PUSH1 0x40 DUP1 MLOAD PUSH1 0x80 DUP2 ADD DUP3 MSTORE PUSH1 0xF DUP2 MSTORE PUSH1 0xA PUSH1 0x20 DUP3 ADD MSTORE PUSH1 0x7 SWAP2 DUP2 ADD SWAP2 SWAP1 SWAP2 MSTORE PUSH1 0x5 PUSH1 0x60 DUP3 ADD MSTORE PUSH3 0x136 SWAP1 PUSH1 0x16 SWAP1 PUSH1 0x4 PUSH3 0x37D JUMP JUMPDEST POP CALLVALUE DUP1 ISZERO PUSH3 0x144 JUMPI PUSH1 0x0 DUP1 REVERT JUMPDEST POP PUSH1 0x40 DUP1 MLOAD DUP1 DUP3 ADD DUP3 MSTORE PUSH1 0xC DUP2 MSTORE PUSH12 0x2932B1B93AB4BA1021B7B4B7 PUSH1 0xA1 SHL PUSH1 0x20 DUP1 DUP4 ADD SWAP2 DUP3 MSTORE DUP4 MLOAD DUP1 DUP6 ADD SWAP1 SWAP5 MSTORE PUSH1 0x5 DUP5 MSTORE PUSH5 0x149150D555 PUSH1 0xDA SHL SWAP1 DUP5 ADD MSTORE DUP2 MLOAD SWAP2 SWAP3 SWAP2 PUSH3 0x196 SWAP2 PUSH1 0x3 SWAP2 PUSH3 0x3B3 JUMP JUMPDEST POP DUP1 MLOAD PUSH3 0x1AC SWAP1 PUSH1 0x4 SWAP1 PUSH1 0x20 DUP5 ADD SWAP1 PUSH3 0x3B3 JUMP JUMPDEST POP POP POP PUSH3 0x1C9 PUSH3 0x1C3 PUSH3 0x26F PUSH1 0x20 SHL PUSH1 0x20 SHR JUMP JUMPDEST PUSH3 0x273 JUMP JUMPDEST PUSH1 0x1 PUSH1 0x6 SSTORE PUSH1 0x40 DUP1 MLOAD PUSH1 0x80 DUP2 ADD DUP3 MSTORE PUSH20 0x534399090DA190A2E1CF868299A448907F1B2A27 DUP2 MSTORE PUSH20 0xA11C8D9DC9B66E209EF60F0C8D969D3CD988782C PUSH1 0x20 DUP3 ADD MSTORE PUSH20 0x8301F2213C0EED49A7E28AE4C3E91722919B8B47 SWAP2 DUP2 ADD SWAP2 SWAP1 SWAP2 MSTORE PUSH20 0xF976A4DC07201F4E0F9FC8F85766344D7A93C456 PUSH1 0x60 DUP3 ADD MSTORE PUSH3 0x24F SWAP1 PUSH1 0x7 SWAP1 PUSH1 0x4 PUSH3 0x42F JUMP JUMPDEST POP PUSH3 0x502 JUMP JUMPDEST TIMESTAMP SWAP1 JUMP JUMPDEST PUSH1 0x0 PUSH3 0x268 DUP3 DUP5 PUSH3 0x49E JUMP JUMPDEST SWAP4 SWAP3 POP POP POP JUMP JUMPDEST CALLER SWAP1 JUMP JUMPDEST PUSH1 0x5 DUP1 SLOAD PUSH1 0x1 PUSH1 0x1 PUSH1 0xA0 SHL SUB DUP4 DUP2 AND PUSH1 0x1 PUSH1 0x1 PUSH1 0xA0 SHL SUB NOT DUP4 AND DUP2 OR SWAP1 SWAP4 SSTORE PUSH1 0x40 MLOAD SWAP2 AND SWAP2 SWAP1 DUP3 SWAP1 PUSH32 0x8BE0079C531659141344CD1FD0A4F28419497F9722A3DAAFE3B4186F6B6457E0 SWAP1 PUSH1 0x0 SWAP1 LOG3 POP POP JUMP JUMPDEST DUP3 PUSH1 0x8 DUP2 ADD SWAP3 DUP3 ISZERO PUSH3 0x2FE JUMPI SWAP2 PUSH1 0x20 MUL DUP3 ADD JUMPDEST DUP3 DUP2 GT ISZERO PUSH3 0x2FE JUMPI DUP3 MLOAD DUP3 SWAP1 PUSH4 0xFFFFFFFF AND SWAP1 SSTORE SWAP2 PUSH1 0x20 ADD SWAP2 SWAP1 PUSH1 0x1 ADD SWAP1 PUSH3 0x2D9 JUMP JUMPDEST POP PUSH3 0x30C SWAP3 SWAP2 POP PUSH3 0x487 JUMP JUMPDEST POP SWAP1 JUMP JUMPDEST DUP3 PUSH1 0x2 DUP2 ADD SWAP3 DUP3 ISZERO PUSH3 0x2FE JUMPI SWAP2 PUSH1 0x20 MUL DUP3 ADD JUMPDEST DUP3 DUP2 GT ISZERO PUSH3 0x2FE JUMPI DUP3 MLOAD DUP3 SWAP1 PUSH1 0x1 PUSH1 0x1 PUSH1 0x40 SHL SUB AND SWAP1 SSTORE SWAP2 PUSH1 0x20 ADD SWAP2 SWAP1 PUSH1 0x1 ADD SWAP1 PUSH3 0x324 JUMP JUMPDEST DUP3 PUSH1 0x4 DUP2 ADD SWAP3 DUP3 ISZERO PUSH3 0x2FE JUMPI SWAP2 PUSH1 0x20 MUL DUP3 ADD JUMPDEST DUP3 DUP2 GT ISZERO PUSH3 0x2FE JUMPI DUP3 MLOAD DUP3 SSTORE SWAP2 PUSH1 0x20 ADD SWAP2 SWAP1 PUSH1 0x1 ADD SWAP1 PUSH3 0x360 JUMP JUMPDEST DUP3 PUSH1 0x4 DUP2 ADD SWAP3 DUP3 ISZERO PUSH3 0x2FE JUMPI SWAP2 PUSH1 0x20 MUL DUP3 ADD JUMPDEST DUP3 DUP2 GT ISZERO PUSH3 0x2FE JUMPI DUP3 MLOAD DUP3 SWAP1 PUSH1 0xFF AND SWAP1 SSTORE SWAP2 PUSH1 0x20 ADD SWAP2 SWAP1 PUSH1 0x1 ADD SWAP1 PUSH3 0x391 JUMP JUMPDEST DUP3 DUP1 SLOAD PUSH3 0x3C1 SWAP1 PUSH3 0x4C5 JUMP JUMPDEST SWAP1 PUSH1 0x0 MSTORE PUSH1 0x20 PUSH1 0x0 KECCAK256 SWAP1 PUSH1 0x1F ADD PUSH1 0x20 SWAP1 DIV DUP2 ADD SWAP3 DUP3 PUSH3 0x3E5 JUMPI PUSH1 0x0 DUP6 SSTORE PUSH3 0x2FE JUMP JUMPDEST DUP3 PUSH1 0x1F LT PUSH3 0x400 JUMPI DUP1 MLOAD PUSH1 0xFF NOT AND DUP4 DUP1 ADD OR DUP6 SSTORE PUSH3 0x2FE JUMP JUMPDEST DUP3 DUP1 ADD PUSH1 0x1 ADD DUP6 SSTORE DUP3 ISZERO PUSH3 0x2FE JUMPI SWAP2 DUP3 ADD DUP3 DUP2 GT ISZERO PUSH3 0x2FE JUMPI DUP3 MLOAD DUP3 SSTORE SWAP2 PUSH1 0x20 ADD SWAP2 SWAP1 PUSH1 0x1 ADD SWAP1 PUSH3 0x360 JUMP JUMPDEST DUP3 DUP1 SLOAD DUP3 DUP3 SSTORE SWAP1 PUSH1 0x0 MSTORE PUSH1 0x20 PUSH1 0x0 KECCAK256 SWAP1 DUP2 ADD SWAP3 DUP3 ISZERO PUSH3 0x2FE JUMPI SWAP2 PUSH1 0x20 MUL DUP3 ADD JUMPDEST DUP3 DUP2 GT ISZERO PUSH3 0x2FE JUMPI DUP3 MLOAD DUP3 SLOAD PUSH1 0x1 PUSH1 0x1 PUSH1 0xA0 SHL SUB NOT AND PUSH1 0x1 PUSH1 0x1 PUSH1 0xA0 SHL SUB SWAP1 SWAP2 AND OR DUP3 SSTORE PUSH1 0x20 SWAP1 SWAP3 ADD SWAP2 PUSH1 0x1 SWAP1 SWAP2 ADD SWAP1 PUSH3 0x450 JUMP JUMPDEST JUMPDEST DUP1 DUP3 GT ISZERO PUSH3 0x30C JUMPI PUSH1 0x0 DUP2 SSTORE PUSH1 0x1 ADD PUSH3 0x488 JUMP JUMPDEST PUSH1 0x0 DUP3 NOT DUP3 GT ISZERO PUSH3 0x4C0 JUMPI PUSH4 0x4E487B71 PUSH1 0xE0 SHL PUSH1 0x0 MSTORE PUSH1 0x11 PUSH1 0x4 MSTORE PUSH1 0x24 PUSH1 0x0 REVERT JUMPDEST POP ADD SWAP1 JUMP JUMPDEST PUSH1 0x1 DUP2 DUP2 SHR SWAP1 DUP3 AND DUP1 PUSH3 0x4DA JUMPI PUSH1 0x7F DUP3 AND SWAP2 POP JUMPDEST PUSH1 0x20 DUP3 LT DUP2 EQ ISZERO PUSH3 0x4FC JUMPI PUSH4 0x4E487B71 PUSH1 0xE0 SHL PUSH1 0x0 MSTORE PUSH1 0x22 PUSH1 0x4 MSTORE PUSH1 0x24 PUSH1 0x0 REVERT JUMPDEST POP SWAP2 SWAP1 POP JUMP JUMPDEST PUSH2 0x24C0 DUP1 PUSH3 0x512 PUSH1 0x0 CODECOPY PUSH1 0x0 RETURN INVALID PUSH1 0x80 PUSH1 0x40 MSTORE CALLVALUE DUP1 ISZERO PUSH2 0x10 JUMPI PUSH1 0x0 DUP1 REVERT JUMPDEST POP PUSH1 0x4 CALLDATASIZE LT PUSH2 0x1FB JUMPI PUSH1 0x0 CALLDATALOAD PUSH1 0xE0 SHR DUP1 PUSH4 0x8AF104DA GT PUSH2 0x11A JUMPI DUP1 PUSH4 0xB88DCCAC GT PUSH2 0xAD JUMPI DUP1 PUSH4 0xDE660841 GT PUSH2 0x7C JUMPI DUP1 PUSH4 0xDE660841 EQ PUSH2 0x44B JUMPI DUP1 PUSH4 0xE467F7E0 EQ PUSH2 0x45E JUMPI DUP1 PUSH4 0xF2FDE38B EQ PUSH2 0x471 JUMPI DUP1 PUSH4 0xF51321D7 EQ PUSH2 0x484 JUMPI DUP1 PUSH4 0xF7C469F0 EQ PUSH2 0x497 JUMPI PUSH1 0x0 DUP1 REVERT JUMPDEST DUP1 PUSH4 0xB88DCCAC EQ PUSH2 0x3FF JUMPI DUP1 PUSH4 0xBC31C1C1 EQ PUSH2 0x412 JUMPI DUP1 PUSH4 0xDB7A1F5F EQ PUSH2 0x425 JUMPI DUP1 PUSH4 0xDD62ED3E EQ PUSH2 0x438 JUMPI PUSH1 0x0 DUP1 REVERT JUMPDEST DUP1 PUSH4 0xA457C2D7 GT PUSH2 0xE9 JUMPI DUP1 PUSH4 0xA457C2D7 EQ PUSH2 0x3B3 JUMPI DUP1 PUSH4 0xA9059CBB EQ PUSH2 0x3C6 JUMPI DUP1 PUSH4 0xAC9B8A89 EQ PUSH2 0x3D9 JUMPI DUP1 PUSH4 0xB75C7DC6 EQ PUSH2 0x3EC JUMPI PUSH1 0x0 DUP1 REVERT JUMPDEST DUP1 PUSH4 0x8AF104DA EQ PUSH2 0x353 JUMPI DUP1 PUSH4 0x8DA5CB5B EQ PUSH2 0x366 JUMPI DUP1 PUSH4 0x95D89B41 EQ PUSH2 0x38B JUMPI DUP1 PUSH4 0x9EF346B4 EQ PUSH2 0x393 JUMPI PUSH1 0x0 DUP1 REVERT JUMPDEST DUP1 PUSH4 0x313CE567 GT PUSH2 0x192 JUMPI DUP1 PUSH4 0x63F44968 GT PUSH2 0x161 JUMPI DUP1 PUSH4 0x63F44968 EQ PUSH2 0x2FC JUMPI DUP1 PUSH4 0x654CFDFF EQ PUSH2 0x30F JUMPI DUP1 PUSH4 0x70A08231 EQ PUSH2 0x322 JUMPI DUP1 PUSH4 0x715018A6 EQ PUSH2 0x34B JUMPI PUSH1 0x0 DUP1 REVERT JUMPDEST DUP1 PUSH4 0x313CE567 EQ PUSH2 0x2B4 JUMPI DUP1 PUSH4 0x36AFB788 EQ PUSH2 0x2C3 JUMPI DUP1 PUSH4 0x39509351 EQ PUSH2 0x2D6 JUMPI DUP1 PUSH4 0x5133AE24 EQ PUSH2 0x2E9 JUMPI PUSH1 0x0 DUP1 REVERT JUMPDEST DUP1 PUSH4 0x23B872DD GT PUSH2 0x1CE JUMPI DUP1 PUSH4 0x23B872DD EQ PUSH2 0x268 JUMPI DUP1 PUSH4 0x24749B59 EQ PUSH2 0x27B JUMPI DUP1 PUSH4 0x26F1A1FD EQ PUSH2 0x28E JUMPI DUP1 PUSH4 0x298A35E8 EQ PUSH2 0x2A1 JUMPI PUSH1 0x0 DUP1 REVERT JUMPDEST DUP1 PUSH4 0x6FDDE03 EQ PUSH2 0x200 JUMPI DUP1 PUSH4 0x95EA7B3 EQ PUSH2 0x21E JUMPI DUP1 PUSH4 0x1655AEA3 EQ PUSH2 0x241 JUMPI DUP1 PUSH4 0x18160DDD EQ PUSH2 0x256 JUMPI JUMPDEST PUSH1 0x0 DUP1 REVERT JUMPDEST PUSH2 0x208 PUSH2 0x4AA JUMP JUMPDEST PUSH1 0x40 MLOAD PUSH2 0x215 SWAP2 SWAP1 PUSH2 0x1FEA JUMP JUMPDEST PUSH1 0x40 MLOAD DUP1 SWAP2 SUB SWAP1 RETURN JUMPDEST PUSH2 0x231 PUSH2 0x22C CALLDATASIZE PUSH1 0x4 PUSH2 0x205B JUMP JUMPDEST PUSH2 0x53C JUMP JUMPDEST PUSH1 0x40 MLOAD SWAP1 ISZERO ISZERO DUP2 MSTORE PUSH1 0x20 ADD PUSH2 0x215 JUMP JUMPDEST PUSH2 0x254 PUSH2 0x24F CALLDATASIZE PUSH1 0x4 PUSH2 0x2085 JUMP JUMPDEST PUSH2 0x554 JUMP JUMPDEST STOP JUMPDEST PUSH1 0x2 SLOAD JUMPDEST PUSH1 0x40 MLOAD SWAP1 DUP2 MSTORE PUSH1 0x20 ADD PUSH2 0x215 JUMP JUMPDEST PUSH2 0x231 PUSH2 0x276 CALLDATASIZE PUSH1 0x4 PUSH2 0x20A7 JUMP JUMPDEST PUSH2 0x56D JUMP JUMPDEST PUSH2 0x25A PUSH2 0x289 CALLDATASIZE PUSH1 0x4 PUSH2 0x20E3 JUMP JUMPDEST PUSH2 0x591 JUMP JUMPDEST PUSH2 0x25A PUSH2 0x29C CALLDATASIZE PUSH1 0x4 PUSH2 0x20E3 JUMP JUMPDEST PUSH2 0x5A8 JUMP JUMPDEST PUSH2 0x254 PUSH2 0x2AF CALLDATASIZE PUSH1 0x4 PUSH2 0x20FC JUMP JUMPDEST PUSH2 0x5B8 JUMP JUMPDEST PUSH1 0x40 MLOAD PUSH1 0x12 DUP2 MSTORE PUSH1 0x20 ADD PUSH2 0x215 JUMP JUMPDEST PUSH2 0x254 PUSH2 0x2D1 CALLDATASIZE PUSH1 0x4 PUSH2 0x212F JUMP JUMPDEST PUSH2 0x5CD JUMP JUMPDEST PUSH2 0x231 PUSH2 0x2E4 CALLDATASIZE PUSH1 0x4 PUSH2 0x205B JUMP JUMPDEST PUSH2 0x789 JUMP JUMPDEST PUSH2 0x25A PUSH2 0x2F7 CALLDATASIZE PUSH1 0x4 PUSH2 0x20E3 JUMP JUMPDEST PUSH2 0x7AB JUMP JUMPDEST PUSH2 0x254 PUSH2 0x30A CALLDATASIZE PUSH1 0x4 PUSH2 0x214B JUMP JUMPDEST PUSH2 0x7BB JUMP JUMPDEST PUSH2 0x254 PUSH2 0x31D CALLDATASIZE PUSH1 0x4 PUSH2 0x216D JUMP JUMPDEST PUSH2 0xA1C JUMP JUMPDEST PUSH2 0x25A PUSH2 0x330 CALLDATASIZE PUSH1 0x4 PUSH2 0x2199 JUMP JUMPDEST PUSH1 0x1 PUSH1 0x1 PUSH1 0xA0 SHL SUB AND PUSH1 0x0 SWAP1 DUP2 MSTORE PUSH1 0x20 DUP2 SWAP1 MSTORE PUSH1 0x40 SWAP1 KECCAK256 SLOAD SWAP1 JUMP JUMPDEST PUSH2 0x254 PUSH2 0xA27 JUMP JUMPDEST PUSH2 0x25A PUSH2 0x361 CALLDATASIZE PUSH1 0x4 PUSH2 0x205B JUMP JUMPDEST PUSH2 0xA3B JUMP JUMPDEST PUSH1 0x5 SLOAD PUSH1 0x1 PUSH1 0x1 PUSH1 0xA0 SHL SUB AND JUMPDEST PUSH1 0x40 MLOAD PUSH1 0x1 PUSH1 0x1 PUSH1 0xA0 SHL SUB SWAP1 SWAP2 AND DUP2 MSTORE PUSH1 0x20 ADD PUSH2 0x215 JUMP JUMPDEST PUSH2 0x208 PUSH2 0xA82 JUMP JUMPDEST PUSH2 0x3A6 PUSH2 0x3A1 CALLDATASIZE PUSH1 0x4 PUSH2 0x20E3 JUMP JUMPDEST PUSH2 0xA91 JUMP JUMPDEST PUSH1 0x40 MLOAD PUSH2 0x215 SWAP2 SWAP1 PUSH2 0x21B4 JUMP JUMPDEST PUSH2 0x231 PUSH2 0x3C1 CALLDATASIZE PUSH1 0x4 PUSH2 0x205B JUMP JUMPDEST PUSH2 0xB35 JUMP JUMPDEST PUSH2 0x231 PUSH2 0x3D4 CALLDATASIZE PUSH1 0x4 PUSH2 0x205B JUMP JUMPDEST PUSH2 0xBB0 JUMP JUMPDEST PUSH2 0x254 PUSH2 0x3E7 CALLDATASIZE PUSH1 0x4 PUSH2 0x20FC JUMP JUMPDEST PUSH2 0xBBE JUMP JUMPDEST PUSH2 0x254 PUSH2 0x3FA CALLDATASIZE PUSH1 0x4 PUSH2 0x20E3 JUMP JUMPDEST PUSH2 0xBD3 JUMP JUMPDEST PUSH2 0x254 PUSH2 0x40D CALLDATASIZE PUSH1 0x4 PUSH2 0x228B JUMP JUMPDEST PUSH2 0xDD9 JUMP JUMPDEST PUSH2 0x25A PUSH2 0x420 CALLDATASIZE PUSH1 0x4 PUSH2 0x20E3 JUMP JUMPDEST PUSH2 0xDED JUMP JUMPDEST PUSH2 0x254 PUSH2 0x433 CALLDATASIZE PUSH1 0x4 PUSH2 0x22CD JUMP JUMPDEST PUSH2 0xDFD JUMP JUMPDEST PUSH2 0x25A PUSH2 0x446 CALLDATASIZE PUSH1 0x4 PUSH2 0x2339 JUMP JUMPDEST PUSH2 0xFDA JUMP JUMPDEST PUSH2 0x373 PUSH2 0x459 CALLDATASIZE PUSH1 0x4 PUSH2 0x20E3 JUMP JUMPDEST PUSH2 0x1005 JUMP JUMPDEST PUSH2 0x254 PUSH2 0x46C CALLDATASIZE PUSH1 0x4 PUSH2 0x22CD JUMP JUMPDEST PUSH2 0x102F JUMP JUMPDEST PUSH2 0x254 PUSH2 0x47F CALLDATASIZE PUSH1 0x4 PUSH2 0x2199 JUMP JUMPDEST PUSH2 0x116A JUMP JUMPDEST PUSH2 0x3A6 PUSH2 0x492 CALLDATASIZE PUSH1 0x4 PUSH2 0x205B JUMP JUMPDEST PUSH2 0x11E3 JUMP JUMPDEST PUSH2 0x25A PUSH2 0x4A5 CALLDATASIZE PUSH1 0x4 PUSH2 0x2199 JUMP JUMPDEST PUSH2 0x11FF JUMP JUMPDEST PUSH1 0x60 PUSH1 0x3 DUP1 SLOAD PUSH2 0x4B9 SWAP1 PUSH2 0x2363 JUMP JUMPDEST DUP1 PUSH1 0x1F ADD PUSH1 0x20 DUP1 SWAP2 DIV MUL PUSH1 0x20 ADD PUSH1 0x40 MLOAD SWAP1 DUP2 ADD PUSH1 0x40 MSTORE DUP1 SWAP3 SWAP2 SWAP1 DUP2 DUP2 MSTORE PUSH1 0x20 ADD DUP3 DUP1 SLOAD PUSH2 0x4E5 SWAP1 PUSH2 0x2363 JUMP JUMPDEST DUP1 ISZERO PUSH2 0x532 JUMPI DUP1 PUSH1 0x1F LT PUSH2 0x507 JUMPI PUSH2 0x100 DUP1 DUP4 SLOAD DIV MUL DUP4 MSTORE SWAP2 PUSH1 0x20 ADD SWAP2 PUSH2 0x532 JUMP JUMPDEST DUP3 ADD SWAP2 SWAP1 PUSH1 0x0 MSTORE PUSH1 0x20 PUSH1 0x0 KECCAK256 SWAP1 JUMPDEST DUP2 SLOAD DUP2 MSTORE SWAP1 PUSH1 0x1 ADD SWAP1 PUSH1 0x20 ADD DUP1 DUP4 GT PUSH2 0x515 JUMPI DUP3 SWAP1 SUB PUSH1 0x1F AND DUP3 ADD SWAP2 JUMPDEST POP POP POP POP POP SWAP1 POP SWAP1 JUMP JUMPDEST PUSH1 0x0 CALLER PUSH2 0x54A DUP2 DUP6 DUP6 PUSH2 0x1235 JUMP JUMPDEST POP PUSH1 0x1 SWAP4 SWAP3 POP POP POP JUMP JUMPDEST PUSH2 0x55C PUSH2 0x1359 JUMP JUMPDEST PUSH2 0x569 PUSH1 0x10 DUP3 PUSH1 0x2 PUSH2 0x1EB5 JUMP JUMPDEST POP POP JUMP JUMPDEST PUSH1 0x0 CALLER PUSH2 0x57B DUP6 DUP3 DUP6 PUSH2 0x13B3 JUMP JUMPDEST PUSH2 0x586 DUP6 DUP6 DUP6 PUSH2 0x142D JUMP JUMPDEST POP PUSH1 0x1 SWAP5 SWAP4 POP POP POP POP JUMP JUMPDEST PUSH1 0x16 DUP2 PUSH1 0x4 DUP2 LT PUSH2 0x5A1 JUMPI PUSH1 0x0 DUP1 REVERT JUMPDEST ADD SLOAD SWAP1 POP DUP2 JUMP JUMPDEST PUSH1 0x8 DUP2 PUSH1 0x8 DUP2 LT PUSH2 0x5A1 JUMPI PUSH1 0x0 DUP1 REVERT JUMPDEST PUSH2 0x5C0 PUSH2 0x1359 JUMP JUMPDEST PUSH2 0x569 PUSH1 0x12 DUP3 PUSH1 0x4 PUSH2 0x1EF3 JUMP JUMPDEST PUSH2 0x5D5 PUSH2 0x1359 JUMP JUMPDEST DUP1 PUSH1 0x7 DUP4 PUSH1 0xFF AND DUP2 SLOAD DUP2 LT PUSH2 0x5EC JUMPI PUSH2 0x5EC PUSH2 0x2398 JUMP JUMPDEST PUSH1 0x0 SWAP2 DUP3 MSTORE PUSH1 0x20 SWAP1 SWAP2 KECCAK256 ADD SLOAD PUSH1 0x40 MLOAD PUSH4 0x70A08231 PUSH1 0xE0 SHL DUP2 MSTORE ADDRESS PUSH1 0x4 DUP3 ADD MSTORE PUSH1 0x1 PUSH1 0x1 PUSH1 0xA0 SHL SUB SWAP1 SWAP2 AND SWAP1 PUSH4 0x70A08231 SWAP1 PUSH1 0x24 ADD PUSH1 0x20 PUSH1 0x40 MLOAD DUP1 DUP4 SUB DUP2 DUP7 DUP1 EXTCODESIZE ISZERO DUP1 ISZERO PUSH2 0x638 JUMPI PUSH1 0x0 DUP1 REVERT JUMPDEST POP GAS STATICCALL ISZERO DUP1 ISZERO PUSH2 0x64C JUMPI RETURNDATASIZE PUSH1 0x0 DUP1 RETURNDATACOPY RETURNDATASIZE PUSH1 0x0 REVERT JUMPDEST POP POP POP POP PUSH1 0x40 MLOAD RETURNDATASIZE PUSH1 0x1F NOT PUSH1 0x1F DUP3 ADD AND DUP3 ADD DUP1 PUSH1 0x40 MSTORE POP DUP2 ADD SWAP1 PUSH2 0x670 SWAP2 SWAP1 PUSH2 0x23AE JUMP JUMPDEST LT ISZERO PUSH2 0x6BA JUMPI PUSH1 0x40 MLOAD PUSH3 0x461BCD PUSH1 0xE5 SHL DUP2 MSTORE PUSH1 0x20 PUSH1 0x4 DUP3 ADD MSTORE PUSH1 0x14 PUSH1 0x24 DUP3 ADD MSTORE PUSH20 0x494E53554646494349454E542042414C414E4345 PUSH1 0x60 SHL PUSH1 0x44 DUP3 ADD MSTORE PUSH1 0x64 ADD JUMPDEST PUSH1 0x40 MLOAD DUP1 SWAP2 SUB SWAP1 REVERT JUMPDEST PUSH1 0x7 DUP3 PUSH1 0xFF AND DUP2 SLOAD DUP2 LT PUSH2 0x6D0 JUMPI PUSH2 0x6D0 PUSH2 0x2398 JUMP JUMPDEST PUSH1 0x0 SWAP2 DUP3 MSTORE PUSH1 0x20 SWAP1 SWAP2 KECCAK256 ADD SLOAD PUSH1 0x1 PUSH1 0x1 PUSH1 0xA0 SHL SUB AND PUSH4 0x23B872DD ADDRESS PUSH2 0x6FD PUSH1 0x5 SLOAD PUSH1 0x1 PUSH1 0x1 PUSH1 0xA0 SHL SUB AND SWAP1 JUMP JUMPDEST PUSH1 0x40 MLOAD PUSH1 0x1 PUSH1 0x1 PUSH1 0xE0 SHL SUB NOT PUSH1 0xE0 DUP6 SWAP1 SHL AND DUP2 MSTORE PUSH1 0x1 PUSH1 0x1 PUSH1 0xA0 SHL SUB SWAP3 DUP4 AND PUSH1 0x4 DUP3 ADD MSTORE SWAP2 AND PUSH1 0x24 DUP3 ADD MSTORE PUSH1 0x44 DUP2 ADD DUP5 SWAP1 MSTORE PUSH1 0x64 ADD PUSH1 0x20 PUSH1 0x40 MLOAD DUP1 DUP4 SUB DUP2 PUSH1 0x0 DUP8 DUP1 EXTCODESIZE ISZERO DUP1 ISZERO PUSH2 0x74C JUMPI PUSH1 0x0 DUP1 REVERT JUMPDEST POP GAS CALL ISZERO DUP1 ISZERO PUSH2 0x760 JUMPI RETURNDATASIZE PUSH1 0x0 DUP1 RETURNDATACOPY RETURNDATASIZE PUSH1 0x0 REVERT JUMPDEST POP POP POP POP PUSH1 0x40 MLOAD RETURNDATASIZE PUSH1 0x1F NOT PUSH1 0x1F DUP3 ADD AND DUP3 ADD DUP1 PUSH1 0x40 MSTORE POP DUP2 ADD SWAP1 PUSH2 0x784 SWAP2 SWAP1 PUSH2 0x23C7 JUMP JUMPDEST POP POP POP JUMP JUMPDEST PUSH1 0x0 CALLER PUSH2 0x54A DUP2 DUP6 DUP6 PUSH2 0x79C DUP4 DUP4 PUSH2 0xFDA JUMP JUMPDEST PUSH2 0x7A6 SWAP2 SWAP1 PUSH2 0x23FF JUMP JUMPDEST PUSH2 0x1235 JUMP JUMPDEST PUSH1 0x12 DUP2 PUSH1 0x4 DUP2 LT PUSH2 0x5A1 JUMPI PUSH1 0x0 DUP1 REVERT JUMPDEST PUSH2 0x7C3 PUSH2 0x15D1 JUMP JUMPDEST PUSH1 0x0 DUP3 DUP2 MSTORE PUSH1 0x1B PUSH1 0x20 MSTORE PUSH1 0x40 SWAP1 KECCAK256 SLOAD DUP3 SWAP1 PUSH1 0xFF AND ISZERO ISZERO PUSH1 0x1 EQ PUSH2 0x81B JUMPI PUSH1 0x40 MLOAD PUSH3 0x461BCD PUSH1 0xE5 SHL DUP2 MSTORE PUSH1 0x20 PUSH1 0x4 DUP3 ADD MSTORE PUSH1 0x10 PUSH1 0x24 DUP3 ADD MSTORE PUSH16 0x139BC815995CDD1A5B99C8199BDD5B99 PUSH1 0x82 SHL PUSH1 0x44 DUP3 ADD MSTORE PUSH1 0x64 ADD PUSH2 0x6B1 JUMP JUMPDEST PUSH1 0x0 DUP2 DUP2 MSTORE PUSH1 0x1B PUSH1 0x20 MSTORE PUSH1 0x40 SWAP1 KECCAK256 PUSH1 0x8 ADD SLOAD PUSH1 0xFF AND ISZERO PUSH2 0x872 JUMPI PUSH1 0x40 MLOAD PUSH3 0x461BCD PUSH1 0xE5 SHL DUP2 MSTORE PUSH1 0x20 PUSH1 0x4 DUP3 ADD MSTORE PUSH1 0x12 PUSH1 0x24 DUP3 ADD MSTORE PUSH18 0x14995D9BDAD9481B9BDD08185B1B1BDDD959 PUSH1 0x72 SHL PUSH1 0x44 DUP3 ADD MSTORE PUSH1 0x64 ADD PUSH2 0x6B1 JUMP JUMPDEST PUSH1 0x0 DUP4 DUP2 MSTORE PUSH1 0x1B PUSH1 0x20 MSTORE PUSH1 0x40 SWAP1 KECCAK256 DUP1 SLOAD PUSH1 0x5 SLOAD CALLER PUSH1 0x1 PUSH1 0x1 PUSH1 0xA0 SHL SUB PUSH2 0x100 SWAP1 SWAP4 DIV DUP4 AND DUP2 EQ SWAP3 SWAP1 SWAP2 AND EQ DUP2 DUP1 PUSH2 0x8A6 JUMPI POP DUP1 JUMPDEST PUSH2 0x8F2 JUMPI PUSH1 0x40 MLOAD PUSH3 0x461BCD PUSH1 0xE5 SHL DUP2 MSTORE PUSH1 0x20 PUSH1 0x4 DUP3 ADD MSTORE PUSH1 0x1A PUSH1 0x24 DUP3 ADD MSTORE PUSH32 0x4F6E6C792062656E65666963696172792063616E20636C61696D000000000000 PUSH1 0x44 DUP3 ADD MSTORE PUSH1 0x64 ADD PUSH2 0x6B1 JUMP JUMPDEST PUSH1 0x40 DUP1 MLOAD PUSH2 0x140 DUP2 ADD DUP3 MSTORE DUP5 SLOAD PUSH1 0xFF DUP1 DUP3 AND ISZERO ISZERO DUP4 MSTORE PUSH1 0x1 PUSH1 0x1 PUSH1 0xA0 SHL SUB PUSH2 0x100 SWAP3 DUP4 SWAP1 DIV AND PUSH1 0x20 DUP5 ADD MSTORE PUSH1 0x1 DUP8 ADD SLOAD SWAP4 DUP4 ADD SWAP4 SWAP1 SWAP4 MSTORE PUSH1 0x2 DUP7 ADD SLOAD PUSH1 0x60 DUP4 ADD MSTORE PUSH1 0x3 DUP7 ADD SLOAD PUSH1 0x80 DUP4 ADD MSTORE PUSH1 0x4 DUP7 ADD SLOAD PUSH1 0xA0 DUP4 ADD MSTORE PUSH1 0x5 DUP7 ADD SLOAD DUP4 AND ISZERO ISZERO PUSH1 0xC0 DUP4 ADD MSTORE PUSH1 0x6 DUP7 ADD SLOAD PUSH1 0xE0 DUP4 ADD MSTORE PUSH1 0x7 DUP7 ADD SLOAD SWAP1 DUP3 ADD MSTORE PUSH1 0x8 DUP6 ADD SLOAD SWAP1 SWAP2 AND ISZERO ISZERO PUSH2 0x120 DUP3 ADD MSTORE PUSH1 0x0 SWAP1 PUSH2 0x984 SWAP1 PUSH2 0x162B JUMP JUMPDEST SWAP1 POP DUP6 DUP2 LT ISZERO PUSH2 0x9CC JUMPI PUSH1 0x40 MLOAD PUSH3 0x461BCD PUSH1 0xE5 SHL DUP2 MSTORE PUSH1 0x20 PUSH1 0x4 DUP3 ADD MSTORE PUSH1 0x13 PUSH1 0x24 DUP3 ADD MSTORE PUSH19 0x546F6B656E73206E6F74206176616C69626C65 PUSH1 0x68 SHL PUSH1 0x44 DUP3 ADD MSTORE PUSH1 0x64 ADD PUSH2 0x6B1 JUMP JUMPDEST PUSH1 0x7 DUP5 ADD SLOAD PUSH2 0x9DB SWAP1 DUP8 PUSH2 0x1229 JUMP JUMPDEST PUSH1 0x7 DUP6 ADD SSTORE DUP4 SLOAD PUSH1 0x1C SLOAD PUSH2 0x100 SWAP1 SWAP2 DIV PUSH1 0x1 PUSH1 0x1 PUSH1 0xA0 SHL SUB AND SWAP1 PUSH2 0x9FF SWAP1 DUP9 PUSH2 0x1714 JUMP JUMPDEST PUSH1 0x1C SSTORE PUSH2 0xA0C DUP2 DUP9 PUSH2 0x1720 JUMP JUMPDEST POP POP POP POP POP POP PUSH2 0x569 PUSH1 0x1 PUSH1 0x6 SSTORE JUMP JUMPDEST PUSH2 0x569 CALLER DUP4 DUP4 PUSH2 0x17DF JUMP JUMPDEST PUSH2 0xA2F PUSH2 0x1359 JUMP JUMPDEST PUSH2 0xA39 PUSH1 0x0 PUSH2 0x1B05 JUMP JUMPDEST JUMP JUMPDEST PUSH1 0x40 MLOAD PUSH12 0xFFFFFFFFFFFFFFFFFFFFFFFF NOT PUSH1 0x60 DUP5 SWAP1 SHL AND PUSH1 0x20 DUP3 ADD MSTORE PUSH1 0x34 DUP2 ADD DUP3 SWAP1 MSTORE PUSH1 0x0 SWAP1 PUSH1 0x54 ADD PUSH1 0x40 MLOAD PUSH1 0x20 DUP2 DUP4 SUB SUB DUP2 MSTORE SWAP1 PUSH1 0x40 MSTORE DUP1 MLOAD SWAP1 PUSH1 0x20 ADD KECCAK256 SWAP1 POP SWAP3 SWAP2 POP POP JUMP JUMPDEST PUSH1 0x60 PUSH1 0x4 DUP1 SLOAD PUSH2 0x4B9 SWAP1 PUSH2 0x2363 JUMP JUMPDEST PUSH2 0xA99 PUSH2 0x1F20 JUMP JUMPDEST POP PUSH1 0x0 SWAP1 DUP2 MSTORE PUSH1 0x1B PUSH1 0x20 SWAP1 DUP2 MSTORE PUSH1 0x40 SWAP2 DUP3 SWAP1 KECCAK256 DUP3 MLOAD PUSH2 0x140 DUP2 ADD DUP5 MSTORE DUP2 SLOAD PUSH1 0xFF DUP1 DUP3 AND ISZERO ISZERO DUP4 MSTORE PUSH1 0x1 PUSH1 0x1 PUSH1 0xA0 SHL SUB PUSH2 0x100 SWAP3 DUP4 SWAP1 DIV AND SWAP5 DUP4 ADD SWAP5 SWAP1 SWAP5 MSTORE PUSH1 0x1 DUP4 ADD SLOAD SWAP5 DUP3 ADD SWAP5 SWAP1 SWAP5 MSTORE PUSH1 0x2 DUP3 ADD SLOAD PUSH1 0x60 DUP3 ADD MSTORE PUSH1 0x3 DUP3 ADD SLOAD PUSH1 0x80 DUP3 ADD MSTORE PUSH1 0x4 DUP3 ADD SLOAD PUSH1 0xA0 DUP3 ADD MSTORE PUSH1 0x5 DUP3 ADD SLOAD DUP4 AND ISZERO ISZERO PUSH1 0xC0 DUP3 ADD MSTORE PUSH1 0x6 DUP3 ADD SLOAD PUSH1 0xE0 DUP3 ADD MSTORE PUSH1 0x7 DUP3 ADD SLOAD SWAP4 DUP2 ADD SWAP4 SWAP1 SWAP4 MSTORE PUSH1 0x8 ADD SLOAD AND ISZERO ISZERO PUSH2 0x120 DUP3 ADD MSTORE SWAP1 JUMP JUMPDEST PUSH1 0x0 CALLER DUP2 PUSH2 0xB43 DUP3 DUP7 PUSH2 0xFDA JUMP JUMPDEST SWAP1 POP DUP4 DUP2 LT ISZERO PUSH2 0xBA3 JUMPI PUSH1 0x40 MLOAD PUSH3 0x461BCD PUSH1 0xE5 SHL DUP2 MSTORE PUSH1 0x20 PUSH1 0x4 DUP3 ADD MSTORE PUSH1 0x25 PUSH1 0x24 DUP3 ADD MSTORE PUSH32 0x45524332303A2064656372656173656420616C6C6F77616E63652062656C6F77 PUSH1 0x44 DUP3 ADD MSTORE PUSH5 0x207A65726F PUSH1 0xD8 SHL PUSH1 0x64 DUP3 ADD MSTORE PUSH1 0x84 ADD PUSH2 0x6B1 JUMP JUMPDEST PUSH2 0x586 DUP3 DUP7 DUP7 DUP5 SUB PUSH2 0x1235 JUMP JUMPDEST PUSH1 0x0 CALLER PUSH2 0x54A DUP2 DUP6 DUP6 PUSH2 0x142D JUMP JUMPDEST PUSH2 0xBC6 PUSH2 0x1359 JUMP JUMPDEST PUSH2 0x569 PUSH1 0x16 DUP3 PUSH1 0x4 PUSH2 0x1EF3 JUMP JUMPDEST PUSH2 0xBDB PUSH2 0x1359 JUMP JUMPDEST PUSH1 0x0 DUP2 DUP2 MSTORE PUSH1 0x1B PUSH1 0x20 MSTORE PUSH1 0x40 SWAP1 KECCAK256 SLOAD DUP2 SWAP1 PUSH1 0xFF AND ISZERO ISZERO PUSH1 0x1 EQ PUSH2 0xC33 JUMPI PUSH1 0x40 MLOAD PUSH3 0x461BCD PUSH1 0xE5 SHL DUP2 MSTORE PUSH1 0x20 PUSH1 0x4 DUP3 ADD MSTORE PUSH1 0x10 PUSH1 0x24 DUP3 ADD MSTORE PUSH16 0x139BC815995CDD1A5B99C8199BDD5B99 PUSH1 0x82 SHL PUSH1 0x44 DUP3 ADD MSTORE PUSH1 0x64 ADD PUSH2 0x6B1 JUMP JUMPDEST PUSH1 0x0 DUP2 DUP2 MSTORE PUSH1 0x1B PUSH1 0x20 MSTORE PUSH1 0x40 SWAP1 KECCAK256 PUSH1 0x8 ADD SLOAD PUSH1 0xFF AND ISZERO PUSH2 0xC8A JUMPI PUSH1 0x40 MLOAD PUSH3 0x461BCD PUSH1 0xE5 SHL DUP2 MSTORE PUSH1 0x20 PUSH1 0x4 DUP3 ADD MSTORE PUSH1 0x12 PUSH1 0x24 DUP3 ADD MSTORE PUSH18 0x14995D9BDAD9481B9BDD08185B1B1BDDD959 PUSH1 0x72 SHL PUSH1 0x44 DUP3 ADD MSTORE PUSH1 0x64 ADD PUSH2 0x6B1 JUMP JUMPDEST PUSH1 0x0 DUP3 DUP2 MSTORE PUSH1 0x1B PUSH1 0x20 MSTORE PUSH1 0x40 SWAP1 KECCAK256 PUSH1 0x5 DUP2 ADD SLOAD PUSH1 0xFF AND ISZERO ISZERO PUSH1 0x1 EQ PUSH2 0xCF1 JUMPI PUSH1 0x40 MLOAD PUSH3 0x461BCD PUSH1 0xE5 SHL DUP2 MSTORE PUSH1 0x20 PUSH1 0x4 DUP3 ADD MSTORE PUSH1 0x18 PUSH1 0x24 DUP3 ADD MSTORE PUSH32 0x76657374696E67206973206E6F74207265766F6361626C650000000000000000 PUSH1 0x44 DUP3 ADD MSTORE PUSH1 0x64 ADD PUSH2 0x6B1 JUMP JUMPDEST PUSH1 0x40 DUP1 MLOAD PUSH2 0x140 DUP2 ADD DUP3 MSTORE DUP3 SLOAD PUSH1 0xFF DUP1 DUP3 AND ISZERO ISZERO DUP4 MSTORE PUSH1 0x1 PUSH1 0x1 PUSH1 0xA0 SHL SUB PUSH2 0x100 SWAP3 DUP4 SWAP1 DIV AND PUSH1 0x20 DUP5 ADD MSTORE PUSH1 0x1 DUP6 ADD SLOAD SWAP4 DUP4 ADD SWAP4 SWAP1 SWAP4 MSTORE PUSH1 0x2 DUP5 ADD SLOAD PUSH1 0x60 DUP4 ADD MSTORE PUSH1 0x3 DUP5 ADD SLOAD PUSH1 0x80 DUP4 ADD MSTORE PUSH1 0x4 DUP5 ADD SLOAD PUSH1 0xA0 DUP4 ADD MSTORE PUSH1 0x5 DUP5 ADD SLOAD DUP4 AND ISZERO ISZERO PUSH1 0xC0 DUP4 ADD MSTORE PUSH1 0x6 DUP5 ADD SLOAD PUSH1 0xE0 DUP4 ADD MSTORE PUSH1 0x7 DUP5 ADD SLOAD SWAP1 DUP3 ADD MSTORE PUSH1 0x8 DUP4 ADD SLOAD SWAP1 SWAP2 AND ISZERO ISZERO PUSH2 0x120 DUP3 ADD MSTORE PUSH1 0x0 SWAP1 PUSH2 0xD83 SWAP1 PUSH2 0x162B JUMP JUMPDEST SWAP1 POP DUP1 ISZERO PUSH2 0xD95 JUMPI PUSH2 0xD95 DUP5 DUP3 PUSH2 0x7BB JUMP JUMPDEST PUSH1 0x0 PUSH2 0xDB2 DUP4 PUSH1 0x7 ADD SLOAD DUP5 PUSH1 0x6 ADD SLOAD PUSH2 0x1714 SWAP1 SWAP2 SWAP1 PUSH4 0xFFFFFFFF AND JUMP JUMPDEST PUSH1 0x1C SLOAD SWAP1 SWAP2 POP PUSH2 0xDC2 SWAP1 DUP3 PUSH2 0x1714 JUMP JUMPDEST PUSH1 0x1C SSTORE POP POP PUSH1 0x8 ADD DUP1 SLOAD PUSH1 0xFF NOT AND PUSH1 0x1 OR SWAP1 SSTORE POP POP JUMP JUMPDEST PUSH2 0xDE1 PUSH2 0x1359 JUMP JUMPDEST PUSH2 0x784 PUSH1 0x7 DUP4 DUP4 PUSH2 0x1F82 JUMP JUMPDEST PUSH1 0x10 DUP2 PUSH1 0x2 DUP2 LT PUSH2 0x5A1 JUMPI PUSH1 0x0 DUP1 REVERT JUMPDEST PUSH2 0xE05 PUSH2 0x1359 JUMP JUMPDEST PUSH1 0x0 JUMPDEST DUP4 DUP2 LT ISZERO PUSH2 0xFD3 JUMPI PUSH1 0xD SLOAD DUP4 DUP4 DUP4 DUP2 DUP2 LT PUSH2 0xE25 JUMPI PUSH2 0xE25 PUSH2 0x2398 JUMP JUMPDEST SWAP1 POP PUSH1 0x20 MUL ADD CALLDATALOAD GT ISZERO PUSH2 0xE70 JUMPI PUSH1 0x40 MLOAD PUSH3 0x461BCD PUSH1 0xE5 SHL DUP2 MSTORE PUSH1 0x20 PUSH1 0x4 DUP3 ADD MSTORE PUSH1 0x13 PUSH1 0x24 DUP3 ADD MSTORE PUSH19 0x27AB22A9232627AB9020A62627A1A0AA24A7A7 PUSH1 0x69 SHL PUSH1 0x44 DUP3 ADD MSTORE PUSH1 0x64 ADD PUSH2 0x6B1 JUMP JUMPDEST PUSH1 0x0 DUP6 DUP6 DUP4 DUP2 DUP2 LT PUSH2 0xE84 JUMPI PUSH2 0xE84 PUSH2 0x2398 JUMP JUMPDEST SWAP1 POP PUSH1 0x20 MUL ADD PUSH1 0x20 DUP2 ADD SWAP1 PUSH2 0xE99 SWAP2 SWAP1 PUSH2 0x2199 JUMP JUMPDEST PUSH1 0x1 PUSH1 0x1 PUSH1 0xA0 SHL SUB AND EQ ISZERO PUSH2 0xEE3 JUMPI PUSH1 0x40 MLOAD PUSH3 0x461BCD PUSH1 0xE5 SHL DUP2 MSTORE PUSH1 0x20 PUSH1 0x4 DUP3 ADD MSTORE PUSH1 0x10 PUSH1 0x24 DUP3 ADD MSTORE PUSH16 0x105111149154D4C81491545552549151 PUSH1 0x82 SHL PUSH1 0x44 DUP3 ADD MSTORE PUSH1 0x64 ADD PUSH2 0x6B1 JUMP JUMPDEST PUSH1 0x0 DUP4 DUP4 DUP4 DUP2 DUP2 LT PUSH2 0xEF7 JUMPI PUSH2 0xEF7 PUSH2 0x2398 JUMP JUMPDEST SWAP1 POP PUSH1 0x20 MUL ADD CALLDATALOAD GT ISZERO PUSH2 0xF3E JUMPI PUSH1 0x40 MLOAD PUSH3 0x461BCD PUSH1 0xE5 SHL DUP2 MSTORE PUSH1 0x20 PUSH1 0x4 DUP3 ADD MSTORE PUSH1 0xF PUSH1 0x24 DUP3 ADD MSTORE PUSH15 0x105353D55395081491545552549151 PUSH1 0x8A SHL PUSH1 0x44 DUP3 ADD MSTORE PUSH1 0x64 ADD PUSH2 0x6B1 JUMP JUMPDEST PUSH2 0xF76 DUP4 DUP4 DUP4 DUP2 DUP2 LT PUSH2 0xF53 JUMPI PUSH2 0xF53 PUSH2 0x2398 JUMP JUMPDEST SWAP1 POP PUSH1 0x20 MUL ADD CALLDATALOAD PUSH1 0x8 PUSH1 0x5 PUSH1 0x8 DUP2 LT PUSH2 0xF6E JUMPI PUSH2 0xF6E PUSH2 0x2398 JUMP JUMPDEST ADD SLOAD SWAP1 PUSH2 0x1714 JUMP JUMPDEST PUSH1 0xD SSTORE PUSH2 0xFC1 DUP6 DUP6 DUP4 DUP2 DUP2 LT PUSH2 0xF8E JUMPI PUSH2 0xF8E PUSH2 0x2398 JUMP JUMPDEST SWAP1 POP PUSH1 0x20 MUL ADD PUSH1 0x20 DUP2 ADD SWAP1 PUSH2 0xFA3 SWAP2 SWAP1 PUSH2 0x2199 JUMP JUMPDEST DUP5 DUP5 DUP5 DUP2 DUP2 LT PUSH2 0xFB5 JUMPI PUSH2 0xFB5 PUSH2 0x2398 JUMP JUMPDEST SWAP1 POP PUSH1 0x20 MUL ADD CALLDATALOAD PUSH2 0x1720 JUMP JUMPDEST DUP1 PUSH2 0xFCB DUP2 PUSH2 0x2417 JUMP JUMPDEST SWAP2 POP POP PUSH2 0xE08 JUMP JUMPDEST POP POP POP POP POP JUMP JUMPDEST PUSH1 0x1 PUSH1 0x1 PUSH1 0xA0 SHL SUB SWAP2 DUP3 AND PUSH1 0x0 SWAP1 DUP2 MSTORE PUSH1 0x1 PUSH1 0x20 SWAP1 DUP2 MSTORE PUSH1 0x40 DUP1 DUP4 KECCAK256 SWAP4 SWAP1 SWAP5 AND DUP3 MSTORE SWAP2 SWAP1 SWAP2 MSTORE KECCAK256 SLOAD SWAP1 JUMP JUMPDEST PUSH1 0x7 DUP2 DUP2 SLOAD DUP2 LT PUSH2 0x1015 JUMPI PUSH1 0x0 DUP1 REVERT JUMPDEST PUSH1 0x0 SWAP2 DUP3 MSTORE PUSH1 0x20 SWAP1 SWAP2 KECCAK256 ADD SLOAD PUSH1 0x1 PUSH1 0x1 PUSH1 0xA0 SHL SUB AND SWAP1 POP DUP2 JUMP JUMPDEST PUSH2 0x1037 PUSH2 0x1359 JUMP JUMPDEST PUSH1 0x0 JUMPDEST DUP4 DUP2 LT ISZERO PUSH2 0xFD3 JUMPI PUSH1 0x0 DUP6 DUP6 DUP4 DUP2 DUP2 LT PUSH2 0x1056 JUMPI PUSH2 0x1056 PUSH2 0x2398 JUMP JUMPDEST SWAP1 POP PUSH1 0x20 MUL ADD PUSH1 0x20 DUP2 ADD SWAP1 PUSH2 0x106B SWAP2 SWAP1 PUSH2 0x2199 JUMP JUMPDEST PUSH1 0x1 PUSH1 0x1 PUSH1 0xA0 SHL SUB AND EQ ISZERO PUSH2 0x10B5 JUMPI PUSH1 0x40 MLOAD PUSH3 0x461BCD PUSH1 0xE5 SHL DUP2 MSTORE PUSH1 0x20 PUSH1 0x4 DUP3 ADD MSTORE PUSH1 0x10 PUSH1 0x24 DUP3 ADD MSTORE PUSH16 0x105111149154D4C81491545552549151 PUSH1 0x82 SHL PUSH1 0x44 DUP3 ADD MSTORE PUSH1 0x64 ADD PUSH2 0x6B1 JUMP JUMPDEST PUSH1 0x0 DUP4 DUP4 DUP4 DUP2 DUP2 LT PUSH2 0x10C9 JUMPI PUSH2 0x10C9 PUSH2 0x2398 JUMP JUMPDEST SWAP1 POP PUSH1 0x20 MUL ADD CALLDATALOAD GT ISZERO PUSH2 0x1110 JUMPI PUSH1 0x40 MLOAD PUSH3 0x461BCD PUSH1 0xE5 SHL DUP2 MSTORE PUSH1 0x20 PUSH1 0x4 DUP3 ADD MSTORE PUSH1 0xF PUSH1 0x24 DUP3 ADD MSTORE PUSH15 0x105353D55395081491545552549151 PUSH1 0x8A SHL PUSH1 0x44 DUP3 ADD MSTORE PUSH1 0x64 ADD PUSH2 0x6B1 JUMP JUMPDEST PUSH2 0x1140 DUP4 DUP4 DUP4 DUP2 DUP2 LT PUSH2 0x1125 JUMPI PUSH2 0x1125 PUSH2 0x2398 JUMP JUMPDEST SWAP1 POP PUSH1 0x20 MUL ADD CALLDATALOAD PUSH1 0x8 PUSH1 0x6 PUSH1 0x8 DUP2 LT PUSH2 0xF6E JUMPI PUSH2 0xF6E PUSH2 0x2398 JUMP JUMPDEST PUSH1 0xE SSTORE PUSH2 0x1158 DUP6 DUP6 DUP4 DUP2 DUP2 LT PUSH2 0xF8E JUMPI PUSH2 0xF8E PUSH2 0x2398 JUMP JUMPDEST DUP1 PUSH2 0x1162 DUP2 PUSH2 0x2417 JUMP JUMPDEST SWAP2 POP POP PUSH2 0x103A JUMP JUMPDEST PUSH2 0x1172 PUSH2 0x1359 JUMP JUMPDEST PUSH1 0x1 PUSH1 0x1 PUSH1 0xA0 SHL SUB DUP2 AND PUSH2 0x11D7 JUMPI PUSH1 0x40 MLOAD PUSH3 0x461BCD PUSH1 0xE5 SHL DUP2 MSTORE PUSH1 0x20 PUSH1 0x4 DUP3 ADD MSTORE PUSH1 0x26 PUSH1 0x24 DUP3 ADD MSTORE PUSH32 0x4F776E61626C653A206E6577206F776E657220697320746865207A65726F2061 PUSH1 0x44 DUP3 ADD MSTORE PUSH6 0x646472657373 PUSH1 0xD0 SHL PUSH1 0x64 DUP3 ADD MSTORE PUSH1 0x84 ADD PUSH2 0x6B1 JUMP JUMPDEST PUSH2 0x11E0 DUP2 PUSH2 0x1B05 JUMP JUMPDEST POP JUMP JUMPDEST PUSH2 0x11EB PUSH2 0x1F20 JUMP JUMPDEST PUSH2 0x11F8 PUSH2 0x3A1 DUP5 DUP5 PUSH2 0xA3B JUMP JUMPDEST SWAP4 SWAP3 POP POP POP JUMP JUMPDEST PUSH1 0x1 PUSH1 0x1 PUSH1 0xA0 SHL SUB DUP2 AND PUSH1 0x0 SWAP1 DUP2 MSTORE PUSH1 0x1D PUSH1 0x20 MSTORE PUSH1 0x40 DUP2 KECCAK256 SLOAD PUSH2 0x1223 SWAP1 DUP4 SWAP1 PUSH2 0xA3B JUMP JUMPDEST SWAP3 SWAP2 POP POP JUMP JUMPDEST PUSH1 0x0 PUSH2 0x11F8 DUP3 DUP5 PUSH2 0x23FF JUMP JUMPDEST PUSH1 0x1 PUSH1 0x1 PUSH1 0xA0 SHL SUB DUP4 AND PUSH2 0x1297 JUMPI PUSH1 0x40 MLOAD PUSH3 0x461BCD PUSH1 0xE5 SHL DUP2 MSTORE PUSH1 0x20 PUSH1 0x4 DUP3 ADD MSTORE PUSH1 0x24 DUP1 DUP3 ADD MSTORE PUSH32 0x45524332303A20617070726F76652066726F6D20746865207A65726F20616464 PUSH1 0x44 DUP3 ADD MSTORE PUSH4 0x72657373 PUSH1 0xE0 SHL PUSH1 0x64 DUP3 ADD MSTORE PUSH1 0x84 ADD PUSH2 0x6B1 JUMP JUMPDEST PUSH1 0x1 PUSH1 0x1 PUSH1 0xA0 SHL SUB DUP3 AND PUSH2 0x12F8 JUMPI PUSH1 0x40 MLOAD PUSH3 0x461BCD PUSH1 0xE5 SHL DUP2 MSTORE PUSH1 0x20 PUSH1 0x4 DUP3 ADD MSTORE PUSH1 0x22 PUSH1 0x24 DUP3 ADD MSTORE PUSH32 0x45524332303A20617070726F766520746F20746865207A65726F206164647265 PUSH1 0x44 DUP3 ADD MSTORE PUSH2 0x7373 PUSH1 0xF0 SHL PUSH1 0x64 DUP3 ADD MSTORE PUSH1 0x84 ADD PUSH2 0x6B1 JUMP JUMPDEST PUSH1 0x1 PUSH1 0x1 PUSH1 0xA0 SHL SUB DUP4 DUP2 AND PUSH1 0x0 DUP2 DUP2 MSTORE PUSH1 0x1 PUSH1 0x20 SWAP1 DUP2 MSTORE PUSH1 0x40 DUP1 DUP4 KECCAK256 SWAP5 DUP8 AND DUP1 DUP5 MSTORE SWAP5 DUP3 MSTORE SWAP2 DUP3 SWAP1 KECCAK256 DUP6 SWAP1 SSTORE SWAP1 MLOAD DUP5 DUP2 MSTORE PUSH32 0x8C5BE1E5EBEC7D5BD14F71427D1E84F3DD0314C0F7B2291E5B200AC8C7C3B925 SWAP2 ADD PUSH1 0x40 MLOAD DUP1 SWAP2 SUB SWAP1 LOG3 POP POP POP JUMP JUMPDEST PUSH1 0x5 SLOAD PUSH1 0x1 PUSH1 0x1 PUSH1 0xA0 SHL SUB AND CALLER EQ PUSH2 0xA39 JUMPI PUSH1 0x40 MLOAD PUSH3 0x461BCD PUSH1 0xE5 SHL DUP2 MSTORE PUSH1 0x20 PUSH1 0x4 DUP3 ADD DUP2 SWAP1 MSTORE PUSH1 0x24 DUP3 ADD MSTORE PUSH32 0x4F776E61626C653A2063616C6C6572206973206E6F7420746865206F776E6572 PUSH1 0x44 DUP3 ADD MSTORE PUSH1 0x64 ADD PUSH2 0x6B1 JUMP JUMPDEST PUSH1 0x0 PUSH2 0x13BF DUP5 DUP5 PUSH2 0xFDA JUMP JUMPDEST SWAP1 POP PUSH1 0x0 NOT DUP2 EQ PUSH2 0x1427 JUMPI DUP2 DUP2 LT ISZERO PUSH2 0x141A JUMPI PUSH1 0x40 MLOAD PUSH3 0x461BCD PUSH1 0xE5 SHL DUP2 MSTORE PUSH1 0x20 PUSH1 0x4 DUP3 ADD MSTORE PUSH1 0x1D PUSH1 0x24 DUP3 ADD MSTORE PUSH32 0x45524332303A20696E73756666696369656E7420616C6C6F77616E6365000000 PUSH1 0x44 DUP3 ADD MSTORE PUSH1 0x64 ADD PUSH2 0x6B1 JUMP JUMPDEST PUSH2 0x1427 DUP5 DUP5 DUP5 DUP5 SUB PUSH2 0x1235 JUMP JUMPDEST POP POP POP POP JUMP JUMPDEST PUSH1 0x1 PUSH1 0x1 PUSH1 0xA0 SHL SUB DUP4 AND PUSH2 0x1491 JUMPI PUSH1 0x40 MLOAD PUSH3 0x461BCD PUSH1 0xE5 SHL DUP2 MSTORE PUSH1 0x20 PUSH1 0x4 DUP3 ADD MSTORE PUSH1 0x25 PUSH1 0x24 DUP3 ADD MSTORE PUSH32 0x45524332303A207472616E736665722066726F6D20746865207A65726F206164 PUSH1 0x44 DUP3 ADD MSTORE PUSH5 0x6472657373 PUSH1 0xD8 SHL PUSH1 0x64 DUP3 ADD MSTORE PUSH1 0x84 ADD PUSH2 0x6B1 JUMP JUMPDEST PUSH1 0x1 PUSH1 0x1 PUSH1 0xA0 SHL SUB DUP3 AND PUSH2 0x14F3 JUMPI PUSH1 0x40 MLOAD PUSH3 0x461BCD PUSH1 0xE5 SHL DUP2 MSTORE PUSH1 0x20 PUSH1 0x4 DUP3 ADD MSTORE PUSH1 0x23 PUSH1 0x24 DUP3 ADD MSTORE PUSH32 0x45524332303A207472616E7366657220746F20746865207A65726F2061646472 PUSH1 0x44 DUP3 ADD MSTORE PUSH3 0x657373 PUSH1 0xE8 SHL PUSH1 0x64 DUP3 ADD MSTORE PUSH1 0x84 ADD PUSH2 0x6B1 JUMP JUMPDEST PUSH1 0x1 PUSH1 0x1 PUSH1 0xA0 SHL SUB DUP4 AND PUSH1 0x0 SWAP1 DUP2 MSTORE PUSH1 0x20 DUP2 SWAP1 MSTORE PUSH1 0x40 SWAP1 KECCAK256 SLOAD DUP2 DUP2 LT ISZERO PUSH2 0x156B JUMPI PUSH1 0x40 MLOAD PUSH3 0x461BCD PUSH1 0xE5 SHL DUP2 MSTORE PUSH1 0x20 PUSH1 0x4 DUP3 ADD MSTORE PUSH1 0x26 PUSH1 0x24 DUP3 ADD MSTORE PUSH32 0x45524332303A207472616E7366657220616D6F756E7420657863656564732062 PUSH1 0x44 DUP3 ADD MSTORE PUSH6 0x616C616E6365 PUSH1 0xD0 SHL PUSH1 0x64 DUP3 ADD MSTORE PUSH1 0x84 ADD PUSH2 0x6B1 JUMP JUMPDEST PUSH1 0x1 PUSH1 0x1 PUSH1 0xA0 SHL SUB DUP5 DUP2 AND PUSH1 0x0 DUP2 DUP2 MSTORE PUSH1 0x20 DUP2 DUP2 MSTORE PUSH1 0x40 DUP1 DUP4 KECCAK256 DUP8 DUP8 SUB SWAP1 SSTORE SWAP4 DUP8 AND DUP1 DUP4 MSTORE SWAP2 DUP5 SWAP1 KECCAK256 DUP1 SLOAD DUP8 ADD SWAP1 SSTORE SWAP3 MLOAD DUP6 DUP2 MSTORE SWAP1 SWAP3 PUSH32 0xDDF252AD1BE2C89B69C2B068FC378DAA952BA7F163C4A11628F55A4DF523B3EF SWAP2 ADD PUSH1 0x40 MLOAD DUP1 SWAP2 SUB SWAP1 LOG3 PUSH2 0x1427 JUMP JUMPDEST PUSH1 0x2 PUSH1 0x6 SLOAD EQ ISZERO PUSH2 0x1624 JUMPI PUSH1 0x40 MLOAD PUSH3 0x461BCD PUSH1 0xE5 SHL DUP2 MSTORE PUSH1 0x20 PUSH1 0x4 DUP3 ADD MSTORE PUSH1 0x1F PUSH1 0x24 DUP3 ADD MSTORE PUSH32 0x5265656E7472616E637947756172643A207265656E7472616E742063616C6C00 PUSH1 0x44 DUP3 ADD MSTORE PUSH1 0x64 ADD PUSH2 0x6B1 JUMP JUMPDEST PUSH1 0x2 PUSH1 0x6 SSTORE JUMP JUMPDEST PUSH1 0x40 DUP2 ADD MLOAD PUSH1 0x0 SWAP1 TIMESTAMP SWAP1 DUP2 LT DUP1 PUSH2 0x1649 JUMPI POP PUSH2 0x120 DUP4 ADD MLOAD ISZERO ISZERO PUSH1 0x1 EQ JUMPDEST ISZERO PUSH2 0x1657 JUMPI POP PUSH1 0x0 SWAP3 SWAP2 POP POP JUMP JUMPDEST PUSH1 0x80 DUP4 ADD MLOAD PUSH1 0x60 DUP5 ADD MLOAD PUSH2 0x166A SWAP2 PUSH2 0x1229 JUMP JUMPDEST DUP2 LT PUSH2 0x1684 JUMPI PUSH2 0x100 DUP4 ADD MLOAD PUSH1 0xE0 DUP5 ADD MLOAD PUSH2 0x11F8 SWAP2 PUSH2 0x1714 JUMP JUMPDEST PUSH1 0x0 PUSH2 0x169D DUP5 PUSH1 0x60 ADD MLOAD DUP4 PUSH2 0x1714 SWAP1 SWAP2 SWAP1 PUSH4 0xFFFFFFFF AND JUMP JUMPDEST PUSH1 0xA0 DUP6 ADD MLOAD SWAP1 SWAP2 POP PUSH1 0x0 PUSH2 0x16B1 DUP4 DUP4 PUSH2 0x1B57 JUMP JUMPDEST SWAP1 POP PUSH1 0x0 PUSH2 0x16BF DUP3 DUP5 PUSH2 0x1B63 JUMP JUMPDEST SWAP1 POP PUSH1 0x0 PUSH2 0x16E8 DUP9 PUSH1 0x80 ADD MLOAD PUSH2 0x16E2 DUP5 DUP12 PUSH1 0xE0 ADD MLOAD PUSH2 0x1B63 SWAP1 SWAP2 SWAP1 PUSH4 0xFFFFFFFF AND JUMP JUMPDEST SWAP1 PUSH2 0x1B57 JUMP JUMPDEST SWAP1 POP PUSH2 0x1702 DUP9 PUSH2 0x100 ADD MLOAD DUP3 PUSH2 0x1714 SWAP1 SWAP2 SWAP1 PUSH4 0xFFFFFFFF AND JUMP JUMPDEST SWAP9 SWAP8 POP POP POP POP POP POP POP POP JUMP JUMPDEST POP SWAP2 SWAP1 POP JUMP JUMPDEST PUSH1 0x0 PUSH2 0x11F8 DUP3 DUP5 PUSH2 0x2432 JUMP JUMPDEST PUSH1 0x1 PUSH1 0x1 PUSH1 0xA0 SHL SUB DUP3 AND PUSH2 0x1776 JUMPI PUSH1 0x40 MLOAD PUSH3 0x461BCD PUSH1 0xE5 SHL DUP2 MSTORE PUSH1 0x20 PUSH1 0x4 DUP3 ADD MSTORE PUSH1 0x1F PUSH1 0x24 DUP3 ADD MSTORE PUSH32 0x45524332303A206D696E7420746F20746865207A65726F206164647265737300 PUSH1 0x44 DUP3 ADD MSTORE PUSH1 0x64 ADD PUSH2 0x6B1 JUMP JUMPDEST DUP1 PUSH1 0x2 PUSH1 0x0 DUP3 DUP3 SLOAD PUSH2 0x1788 SWAP2 SWAP1 PUSH2 0x23FF JUMP JUMPDEST SWAP1 SWAP2 SSTORE POP POP PUSH1 0x1 PUSH1 0x1 PUSH1 0xA0 SHL SUB DUP3 AND PUSH1 0x0 DUP2 DUP2 MSTORE PUSH1 0x20 DUP2 DUP2 MSTORE PUSH1 0x40 DUP1 DUP4 KECCAK256 DUP1 SLOAD DUP7 ADD SWAP1 SSTORE MLOAD DUP5 DUP2 MSTORE PUSH32 0xDDF252AD1BE2C89B69C2B068FC378DAA952BA7F163C4A11628F55A4DF523B3EF SWAP2 ADD PUSH1 0x40 MLOAD DUP1 SWAP2 SUB SWAP1 LOG3 POP POP JUMP JUMPDEST PUSH1 0x12 SLOAD PUSH1 0x0 SWAP1 TIMESTAMP LT ISZERO DUP1 ISZERO PUSH2 0x17F5 JUMPI POP PUSH1 0x13 SLOAD TIMESTAMP LT JUMPDEST ISZERO PUSH2 0x18AC JUMPI PUSH2 0x180B PUSH1 0x10 PUSH1 0x0 JUMPDEST ADD SLOAD DUP5 SWAP1 PUSH2 0x1B57 JUMP JUMPDEST SWAP1 POP DUP1 PUSH1 0x8 PUSH1 0x4 ADD SLOAD LT ISZERO PUSH2 0x1856 JUMPI PUSH1 0x40 MLOAD PUSH3 0x461BCD PUSH1 0xE5 SHL DUP2 MSTORE PUSH1 0x20 PUSH1 0x4 DUP3 ADD MSTORE PUSH1 0x11 PUSH1 0x24 DUP3 ADD MSTORE PUSH17 0x4F564552464C4F57205055524348415345 PUSH1 0x78 SHL PUSH1 0x44 DUP3 ADD MSTORE PUSH1 0x64 ADD PUSH2 0x6B1 JUMP JUMPDEST PUSH2 0x1863 DUP2 PUSH1 0x8 PUSH1 0x4 PUSH2 0xF6E JUMP JUMPDEST PUSH1 0xC SSTORE PUSH2 0x1877 DUP2 PUSH1 0x8 PUSH1 0x7 JUMPDEST ADD SLOAD SWAP1 PUSH2 0x1229 JUMP JUMPDEST PUSH1 0xF SSTORE PUSH1 0x0 PUSH2 0x188C PUSH4 0x1E13380 TIMESTAMP JUMPDEST SWAP1 PUSH2 0x1229 JUMP JUMPDEST SWAP1 POP PUSH2 0x18A6 DUP6 DUP3 PUSH3 0x278D00 PUSH4 0x1E13380 PUSH1 0x1 PUSH1 0x0 DUP9 PUSH2 0x1B6F JUMP JUMPDEST POP PUSH2 0x1A09 JUMP JUMPDEST PUSH1 0x14 SLOAD TIMESTAMP LT ISZERO DUP1 ISZERO PUSH2 0x18BF JUMPI POP PUSH1 0x15 SLOAD TIMESTAMP LT JUMPDEST ISZERO PUSH2 0x19CA JUMPI PUSH2 0x18D0 PUSH1 0x10 PUSH1 0x0 PUSH2 0x1802 JUMP JUMPDEST SWAP1 POP PUSH1 0x0 PUSH2 0x190A PUSH1 0x64 PUSH2 0x16E2 PUSH1 0x16 PUSH2 0x18F1 PUSH1 0x1 PUSH2 0x18EB PUSH2 0x1E95 JUMP JUMPDEST SWAP1 PUSH2 0x1714 JUMP JUMPDEST PUSH1 0x4 DUP2 LT PUSH2 0x1901 JUMPI PUSH2 0x1901 PUSH2 0x2398 JUMP JUMPDEST ADD SLOAD DUP6 SWAP1 PUSH2 0x1B63 JUMP JUMPDEST SWAP1 POP PUSH2 0x1916 DUP3 DUP3 PUSH2 0x1229 JUMP JUMPDEST PUSH1 0xB SLOAD LT ISZERO PUSH2 0x195B JUMPI PUSH1 0x40 MLOAD PUSH3 0x461BCD PUSH1 0xE5 SHL DUP2 MSTORE PUSH1 0x20 PUSH1 0x4 DUP3 ADD MSTORE PUSH1 0x11 PUSH1 0x24 DUP3 ADD MSTORE PUSH17 0x4F564552464C4F57205055524348415345 PUSH1 0x78 SHL PUSH1 0x44 DUP3 ADD MSTORE PUSH1 0x64 ADD PUSH2 0x6B1 JUMP JUMPDEST PUSH2 0x1968 DUP3 PUSH1 0x8 PUSH1 0x3 PUSH2 0xF6E JUMP JUMPDEST PUSH1 0xB SSTORE PUSH2 0x1978 DUP3 PUSH1 0x8 PUSH1 0x7 PUSH2 0x186F JUMP JUMPDEST PUSH1 0xF SSTORE PUSH1 0x0 PUSH2 0x198A PUSH3 0xED4E00 TIMESTAMP PUSH2 0x1886 JUMP JUMPDEST SWAP1 POP PUSH1 0x2 PUSH2 0x1996 PUSH2 0x1E95 JUMP JUMPDEST GT PUSH2 0x19AB JUMPI PUSH2 0x19A8 PUSH3 0x76A700 TIMESTAMP PUSH2 0x1886 JUMP JUMPDEST SWAP1 POP JUMPDEST PUSH2 0x19C3 DUP7 DUP3 PUSH3 0x278D00 PUSH4 0x1E13380 PUSH1 0x1 PUSH1 0x0 DUP10 PUSH2 0x1B6F JUMP JUMPDEST POP POP PUSH2 0x1A09 JUMP JUMPDEST PUSH1 0x40 MLOAD PUSH3 0x461BCD PUSH1 0xE5 SHL DUP2 MSTORE PUSH1 0x20 PUSH1 0x4 DUP3 ADD MSTORE PUSH1 0x14 PUSH1 0x24 DUP3 ADD MSTORE PUSH20 0x53414C45204953204E4F54204156414C49424C45 PUSH1 0x60 SHL PUSH1 0x44 DUP3 ADD MSTORE PUSH1 0x64 ADD PUSH2 0x6B1 JUMP JUMPDEST PUSH1 0x7 DUP3 PUSH1 0xFF AND DUP2 SLOAD DUP2 LT PUSH2 0x1A1F JUMPI PUSH2 0x1A1F PUSH2 0x2398 JUMP JUMPDEST PUSH1 0x0 SWAP2 DUP3 MSTORE PUSH1 0x20 SWAP1 SWAP2 KECCAK256 ADD SLOAD PUSH1 0x40 MLOAD PUSH4 0x23B872DD PUSH1 0xE0 SHL DUP2 MSTORE PUSH1 0x1 PUSH1 0x1 PUSH1 0xA0 SHL SUB DUP7 DUP2 AND PUSH1 0x4 DUP4 ADD MSTORE ADDRESS PUSH1 0x24 DUP4 ADD MSTORE PUSH1 0x44 DUP3 ADD DUP7 SWAP1 MSTORE SWAP1 SWAP2 AND SWAP1 PUSH4 0x23B872DD SWAP1 PUSH1 0x64 ADD PUSH1 0x20 PUSH1 0x40 MLOAD DUP1 DUP4 SUB DUP2 PUSH1 0x0 DUP8 DUP1 EXTCODESIZE ISZERO DUP1 ISZERO PUSH2 0x1A7C JUMPI PUSH1 0x0 DUP1 REVERT JUMPDEST POP GAS CALL ISZERO DUP1 ISZERO PUSH2 0x1A90 JUMPI RETURNDATASIZE PUSH1 0x0 DUP1 RETURNDATACOPY RETURNDATASIZE PUSH1 0x0 REVERT JUMPDEST POP POP POP POP PUSH1 0x40 MLOAD RETURNDATASIZE PUSH1 0x1F NOT PUSH1 0x1F DUP3 ADD AND DUP3 ADD DUP1 PUSH1 0x40 MSTORE POP DUP2 ADD SWAP1 PUSH2 0x1AB4 SWAP2 SWAP1 PUSH2 0x23C7 JUMP JUMPDEST POP PUSH1 0x40 DUP1 MLOAD PUSH1 0x1 PUSH1 0x1 PUSH1 0xA0 SHL SUB DUP7 AND DUP2 MSTORE PUSH1 0x20 DUP2 ADD DUP6 SWAP1 MSTORE SWAP1 DUP2 ADD DUP3 SWAP1 MSTORE PUSH32 0xBFF8B013F0C9459BD241C61149D0BB074AB29B460AACC13FD503BC7188C8BCCD SWAP1 PUSH1 0x60 ADD PUSH1 0x40 MLOAD DUP1 SWAP2 SUB SWAP1 LOG1 POP POP POP POP JUMP JUMPDEST PUSH1 0x5 DUP1 SLOAD PUSH1 0x1 PUSH1 0x1 PUSH1 0xA0 SHL SUB DUP4 DUP2 AND PUSH1 0x1 PUSH1 0x1 PUSH1 0xA0 SHL SUB NOT DUP4 AND DUP2 OR SWAP1 SWAP4 SSTORE PUSH1 0x40 MLOAD SWAP2 AND SWAP2 SWAP1 DUP3 SWAP1 PUSH32 0x8BE0079C531659141344CD1FD0A4F28419497F9722A3DAAFE3B4186F6B6457E0 SWAP1 PUSH1 0x0 SWAP1 LOG3 POP POP JUMP JUMPDEST PUSH1 0x0 PUSH2 0x11F8 DUP3 DUP5 PUSH2 0x2449 JUMP JUMPDEST PUSH1 0x0 PUSH2 0x11F8 DUP3 DUP5 PUSH2 0x246B JUMP JUMPDEST PUSH1 0x0 DUP5 GT PUSH2 0x1BAE JUMPI PUSH1 0x40 MLOAD PUSH3 0x461BCD PUSH1 0xE5 SHL DUP2 MSTORE PUSH1 0x20 PUSH1 0x4 DUP3 ADD MSTORE PUSH1 0xC PUSH1 0x24 DUP3 ADD MSTORE PUSH12 0x6475726174696F6E203E203 PUSH1 0xA4 SHL PUSH1 0x44 DUP3 ADD MSTORE PUSH1 0x64 ADD PUSH2 0x6B1 JUMP JUMPDEST PUSH1 0x0 DUP2 GT PUSH2 0x1BEB JUMPI PUSH1 0x40 MLOAD PUSH3 0x461BCD PUSH1 0xE5 SHL DUP2 MSTORE PUSH1 0x20 PUSH1 0x4 DUP3 ADD MSTORE PUSH1 0xA PUSH1 0x24 DUP3 ADD MSTORE PUSH10 0x616D6F756E74203E203 PUSH1 0xB4 SHL PUSH1 0x44 DUP3 ADD MSTORE PUSH1 0x64 ADD PUSH2 0x6B1 JUMP JUMPDEST PUSH1 0x1 DUP4 LT ISZERO PUSH2 0x1C3C JUMPI PUSH1 0x40 MLOAD PUSH3 0x461BCD PUSH1 0xE5 SHL DUP2 MSTORE PUSH1 0x20 PUSH1 0x4 DUP3 ADD MSTORE PUSH1 0x17 PUSH1 0x24 DUP3 ADD MSTORE PUSH32 0x536C696365506572696F645365636F6E6473203E3D2031000000000000000000 PUSH1 0x44 DUP3 ADD MSTORE PUSH1 0x64 ADD PUSH2 0x6B1 JUMP JUMPDEST PUSH1 0x40 MLOAD PUSH4 0xF7C469F PUSH1 0xE4 SHL DUP2 MSTORE PUSH1 0x1 PUSH1 0x1 PUSH1 0xA0 SHL SUB DUP9 AND PUSH1 0x4 DUP3 ADD MSTORE PUSH1 0x0 SWAP1 ADDRESS SWAP1 PUSH4 0xF7C469F0 SWAP1 PUSH1 0x24 ADD PUSH1 0x20 PUSH1 0x40 MLOAD DUP1 DUP4 SUB DUP2 DUP7 DUP1 EXTCODESIZE ISZERO DUP1 ISZERO PUSH2 0x1C7E JUMPI PUSH1 0x0 DUP1 REVERT JUMPDEST POP GAS STATICCALL ISZERO DUP1 ISZERO PUSH2 0x1C92 JUMPI RETURNDATASIZE PUSH1 0x0 DUP1 RETURNDATACOPY RETURNDATASIZE PUSH1 0x0 REVERT JUMPDEST POP POP POP POP PUSH1 0x40 MLOAD RETURNDATASIZE PUSH1 0x1F NOT PUSH1 0x1F DUP3 ADD AND DUP3 ADD DUP1 PUSH1 0x40 MSTORE POP DUP2 ADD SWAP1 PUSH2 0x1CB6 SWAP2 SWAP1 PUSH2 0x23AE JUMP JUMPDEST SWAP1 POP PUSH1 0x0 PUSH2 0x1CC4 DUP9 DUP9 PUSH2 0x1229 JUMP JUMPDEST SWAP1 POP PUSH1 0x40 MLOAD DUP1 PUSH2 0x140 ADD PUSH1 0x40 MSTORE DUP1 PUSH1 0x1 ISZERO ISZERO DUP2 MSTORE PUSH1 0x20 ADD DUP11 PUSH1 0x1 PUSH1 0x1 PUSH1 0xA0 SHL SUB AND DUP2 MSTORE PUSH1 0x20 ADD DUP3 DUP2 MSTORE PUSH1 0x20 ADD DUP10 DUP2 MSTORE PUSH1 0x20 ADD DUP8 DUP2 MSTORE PUSH1 0x20 ADD DUP7 DUP2 MSTORE PUSH1 0x20 ADD DUP6 ISZERO ISZERO DUP2 MSTORE PUSH1 0x20 ADD DUP5 DUP2 MSTORE PUSH1 0x20 ADD PUSH1 0x0 DUP2 MSTORE PUSH1 0x20 ADD PUSH1 0x0 ISZERO ISZERO DUP2 MSTORE POP PUSH1 0x1B PUSH1 0x0 DUP5 DUP2 MSTORE PUSH1 0x20 ADD SWAP1 DUP2 MSTORE PUSH1 0x20 ADD PUSH1 0x0 KECCAK256 PUSH1 0x0 DUP3 ADD MLOAD DUP2 PUSH1 0x0 ADD PUSH1 0x0 PUSH2 0x100 EXP DUP2 SLOAD DUP2 PUSH1 0xFF MUL NOT AND SWAP1 DUP4 ISZERO ISZERO MUL OR SWAP1 SSTORE POP PUSH1 0x20 DUP3 ADD MLOAD DUP2 PUSH1 0x0 ADD PUSH1 0x1 PUSH2 0x100 EXP DUP2 SLOAD DUP2 PUSH1 0x1 PUSH1 0x1 PUSH1 0xA0 SHL SUB MUL NOT AND SWAP1 DUP4 PUSH1 0x1 PUSH1 0x1 PUSH1 0xA0 SHL SUB AND MUL OR SWAP1 SSTORE POP PUSH1 0x40 DUP3 ADD MLOAD DUP2 PUSH1 0x1 ADD SSTORE PUSH1 0x60 DUP3 ADD MLOAD DUP2 PUSH1 0x2 ADD SSTORE PUSH1 0x80 DUP3 ADD MLOAD DUP2 PUSH1 0x3 ADD SSTORE PUSH1 0xA0 DUP3 ADD MLOAD DUP2 PUSH1 0x4 ADD SSTORE PUSH1 0xC0 DUP3 ADD MLOAD DUP2 PUSH1 0x5 ADD PUSH1 0x0 PUSH2 0x100 EXP DUP2 SLOAD DUP2 PUSH1 0xFF MUL NOT AND SWAP1 DUP4 ISZERO ISZERO MUL OR SWAP1 SSTORE POP PUSH1 0xE0 DUP3 ADD MLOAD DUP2 PUSH1 0x6 ADD SSTORE PUSH2 0x100 DUP3 ADD MLOAD DUP2 PUSH1 0x7 ADD SSTORE PUSH2 0x120 DUP3 ADD MLOAD DUP2 PUSH1 0x8 ADD PUSH1 0x0 PUSH2 0x100 EXP DUP2 SLOAD DUP2 PUSH1 0xFF MUL NOT AND SWAP1 DUP4 ISZERO ISZERO MUL OR SWAP1 SSTORE POP SWAP1 POP POP PUSH2 0x1E14 DUP4 PUSH1 0x1C SLOAD PUSH2 0x1229 SWAP1 SWAP2 SWAP1 PUSH4 0xFFFFFFFF AND JUMP JUMPDEST PUSH1 0x1C SSTORE PUSH1 0x1A DUP1 SLOAD PUSH1 0x1 DUP2 DUP2 ADD SWAP1 SWAP3 SSTORE PUSH32 0x57C384A7D1C54F3A1B2E5E67B2617B8224FDFD1EA7234EEA573A6FF665FF63E ADD DUP4 SWAP1 SSTORE PUSH1 0x1 PUSH1 0x1 PUSH1 0xA0 SHL SUB DUP11 AND PUSH1 0x0 SWAP1 DUP2 MSTORE PUSH1 0x1D PUSH1 0x20 MSTORE PUSH1 0x40 SWAP1 KECCAK256 SLOAD SWAP1 PUSH2 0x1E6D SWAP1 DUP3 SWAP1 PUSH2 0x1229 JUMP JUMPDEST PUSH1 0x1 PUSH1 0x1 PUSH1 0xA0 SHL SUB SWAP1 SWAP11 AND PUSH1 0x0 SWAP1 DUP2 MSTORE PUSH1 0x1D PUSH1 0x20 MSTORE PUSH1 0x40 SWAP1 KECCAK256 SWAP10 SWAP1 SWAP10 SSTORE POP POP POP POP POP POP POP POP POP JUMP JUMPDEST PUSH1 0x0 PUSH2 0x1EB0 PUSH1 0x1 PUSH2 0x1886 PUSH3 0x93A80 PUSH1 0x14 SLOAD PUSH2 0x16E2 SWAP1 TIMESTAMP PUSH2 0x18EB JUMP JUMPDEST SWAP1 POP SWAP1 JUMP JUMPDEST DUP3 PUSH1 0x2 DUP2 ADD SWAP3 DUP3 ISZERO PUSH2 0x1EE3 JUMPI SWAP2 PUSH1 0x20 MUL DUP3 ADD JUMPDEST DUP3 DUP2 GT ISZERO PUSH2 0x1EE3 JUMPI DUP3 CALLDATALOAD DUP3 SSTORE SWAP2 PUSH1 0x20 ADD SWAP2 SWAP1 PUSH1 0x1 ADD SWAP1 PUSH2 0x1EC8 JUMP JUMPDEST POP PUSH2 0x1EEF SWAP3 SWAP2 POP PUSH2 0x1FD5 JUMP JUMPDEST POP SWAP1 JUMP JUMPDEST DUP3 PUSH1 0x4 DUP2 ADD SWAP3 DUP3 ISZERO PUSH2 0x1EE3 JUMPI SWAP2 PUSH1 0x20 MUL DUP3 ADD DUP3 DUP2 GT ISZERO PUSH2 0x1EE3 JUMPI DUP3 CALLDATALOAD DUP3 SSTORE SWAP2 PUSH1 0x20 ADD SWAP2 SWAP1 PUSH1 0x1 ADD SWAP1 PUSH2 0x1EC8 JUMP JUMPDEST PUSH1 0x40 MLOAD DUP1 PUSH2 0x140 ADD PUSH1 0x40 MSTORE DUP1 PUSH1 0x0 ISZERO ISZERO DUP2 MSTORE PUSH1 0x20 ADD PUSH1 0x0 PUSH1 0x1 PUSH1 0x1 PUSH1 0xA0 SHL SUB AND DUP2 MSTORE PUSH1 0x20 ADD PUSH1 0x0 DUP2 MSTORE PUSH1 0x20 ADD PUSH1 0x0 DUP2 MSTORE PUSH1 0x20 ADD PUSH1 0x0 DUP2 MSTORE PUSH1 0x20 ADD PUSH1 0x0 DUP2 MSTORE PUSH1 0x20 ADD PUSH1 0x0 ISZERO ISZERO DUP2 MSTORE PUSH1 0x20 ADD PUSH1 0x0 DUP2 MSTORE PUSH1 0x20 ADD PUSH1 0x0 DUP2 MSTORE PUSH1 0x20 ADD PUSH1 0x0 ISZERO ISZERO DUP2 MSTORE POP SWAP1 JUMP JUMPDEST DUP3 DUP1 SLOAD DUP3 DUP3 SSTORE SWAP1 PUSH1 0x0 MSTORE PUSH1 0x20 PUSH1 0x0 KECCAK256 SWAP1 DUP2 ADD SWAP3 DUP3 ISZERO PUSH2 0x1EE3 JUMPI SWAP2 PUSH1 0x20 MUL DUP3 ADD JUMPDEST DUP3 DUP2 GT ISZERO PUSH2 0x1EE3 JUMPI DUP2 SLOAD PUSH1 0x1 PUSH1 0x1 PUSH1 0xA0 SHL SUB NOT AND PUSH1 0x1 PUSH1 0x1 PUSH1 0xA0 SHL SUB DUP5 CALLDATALOAD AND OR DUP3 SSTORE PUSH1 0x20 SWAP1 SWAP3 ADD SWAP2 PUSH1 0x1 SWAP1 SWAP2 ADD SWAP1 PUSH2 0x1FA2 JUMP JUMPDEST JUMPDEST DUP1 DUP3 GT ISZERO PUSH2 0x1EEF JUMPI PUSH1 0x0 DUP2 SSTORE PUSH1 0x1 ADD PUSH2 0x1FD6 JUMP JUMPDEST PUSH1 0x0 PUSH1 0x20 DUP1 DUP4 MSTORE DUP4 MLOAD DUP1 DUP3 DUP6 ADD MSTORE PUSH1 0x0 JUMPDEST DUP2 DUP2 LT ISZERO PUSH2 0x2017 JUMPI DUP6 DUP2 ADD DUP4 ADD MLOAD DUP6 DUP3 ADD PUSH1 0x40 ADD MSTORE DUP3 ADD PUSH2 0x1FFB JUMP JUMPDEST DUP2 DUP2 GT ISZERO PUSH2 0x2029 JUMPI PUSH1 0x0 PUSH1 0x40 DUP4 DUP8 ADD ADD MSTORE JUMPDEST POP PUSH1 0x1F ADD PUSH1 0x1F NOT AND SWAP3 SWAP1 SWAP3 ADD PUSH1 0x40 ADD SWAP4 SWAP3 POP POP POP JUMP JUMPDEST DUP1 CALLDATALOAD PUSH1 0x1 PUSH1 0x1 PUSH1 0xA0 SHL SUB DUP2 AND DUP2 EQ PUSH2 0x2056 JUMPI PUSH1 0x0 DUP1 REVERT JUMPDEST SWAP2 SWAP1 POP JUMP JUMPDEST PUSH1 0x0 DUP1 PUSH1 0x40 DUP4 DUP6 SUB SLT ISZERO PUSH2 0x206E JUMPI PUSH1 0x0 DUP1 REVERT JUMPDEST PUSH2 0x2077 DUP4 PUSH2 0x203F JUMP JUMPDEST SWAP5 PUSH1 0x20 SWAP4 SWAP1 SWAP4 ADD CALLDATALOAD SWAP4 POP POP POP JUMP JUMPDEST PUSH1 0x0 PUSH1 0x40 DUP3 DUP5 SUB SLT ISZERO PUSH2 0x2097 JUMPI PUSH1 0x0 DUP1 REVERT JUMPDEST DUP3 PUSH1 0x40 DUP4 ADD GT ISZERO PUSH2 0x170E JUMPI PUSH1 0x0 DUP1 REVERT JUMPDEST PUSH1 0x0 DUP1 PUSH1 0x0 PUSH1 0x60 DUP5 DUP7 SUB SLT ISZERO PUSH2 0x20BC JUMPI PUSH1 0x0 DUP1 REVERT JUMPDEST PUSH2 0x20C5 DUP5 PUSH2 0x203F JUMP JUMPDEST SWAP3 POP PUSH2 0x20D3 PUSH1 0x20 DUP6 ADD PUSH2 0x203F JUMP JUMPDEST SWAP2 POP PUSH1 0x40 DUP5 ADD CALLDATALOAD SWAP1 POP SWAP3 POP SWAP3 POP SWAP3 JUMP JUMPDEST PUSH1 0x0 PUSH1 0x20 DUP3 DUP5 SUB SLT ISZERO PUSH2 0x20F5 JUMPI PUSH1 0x0 DUP1 REVERT JUMPDEST POP CALLDATALOAD SWAP2 SWAP1 POP JUMP JUMPDEST PUSH1 0x0 PUSH1 0x80 DUP3 DUP5 SUB SLT ISZERO PUSH2 0x210E JUMPI PUSH1 0x0 DUP1 REVERT JUMPDEST DUP3 PUSH1 0x80 DUP4 ADD GT ISZERO PUSH2 0x170E JUMPI PUSH1 0x0 DUP1 REVERT JUMPDEST DUP1 CALLDATALOAD PUSH1 0xFF DUP2 AND DUP2 EQ PUSH2 0x2056 JUMPI PUSH1 0x0 DUP1 REVERT JUMPDEST PUSH1 0x0 DUP1 PUSH1 0x40 DUP4 DUP6 SUB SLT ISZERO PUSH2 0x2142 JUMPI PUSH1 0x0 DUP1 REVERT JUMPDEST PUSH2 0x2077 DUP4 PUSH2 0x211E JUMP JUMPDEST PUSH1 0x0 DUP1 PUSH1 0x40 DUP4 DUP6 SUB SLT ISZERO PUSH2 0x215E JUMPI PUSH1 0x0 DUP1 REVERT JUMPDEST POP POP DUP1 CALLDATALOAD SWAP3 PUSH1 0x20 SWAP1 SWAP2 ADD CALLDATALOAD SWAP2 POP JUMP JUMPDEST PUSH1 0x0 DUP1 PUSH1 0x40 DUP4 DUP6 SUB SLT ISZERO PUSH2 0x2180 JUMPI PUSH1 0x0 DUP1 REVERT JUMPDEST DUP3 CALLDATALOAD SWAP2 POP PUSH2 0x2190 PUSH1 0x20 DUP5 ADD PUSH2 0x211E JUMP JUMPDEST SWAP1 POP SWAP3 POP SWAP3 SWAP1 POP JUMP JUMPDEST PUSH1 0x0 PUSH1 0x20 DUP3 DUP5 SUB SLT ISZERO PUSH2 0x21AB JUMPI PUSH1 0x0 DUP1 REVERT JUMPDEST PUSH2 0x11F8 DUP3 PUSH2 0x203F JUMP JUMPDEST DUP2 MLOAD ISZERO ISZERO DUP2 MSTORE PUSH2 0x140 DUP2 ADD PUSH1 0x20 DUP4 ADD MLOAD PUSH2 0x21D9 PUSH1 0x20 DUP5 ADD DUP3 PUSH1 0x1 PUSH1 0x1 PUSH1 0xA0 SHL SUB AND SWAP1 MSTORE JUMP JUMPDEST POP PUSH1 0x40 DUP4 ADD MLOAD PUSH1 0x40 DUP4 ADD MSTORE PUSH1 0x60 DUP4 ADD MLOAD PUSH1 0x60 DUP4 ADD MSTORE PUSH1 0x80 DUP4 ADD MLOAD PUSH1 0x80 DUP4 ADD MSTORE PUSH1 0xA0 DUP4 ADD MLOAD PUSH1 0xA0 DUP4 ADD MSTORE PUSH1 0xC0 DUP4 ADD MLOAD PUSH2 0x2215 PUSH1 0xC0 DUP5 ADD DUP3 ISZERO ISZERO SWAP1 MSTORE JUMP JUMPDEST POP PUSH1 0xE0 DUP4 DUP2 ADD MLOAD SWAP1 DUP4 ADD MSTORE PUSH2 0x100 DUP1 DUP5 ADD MLOAD SWAP1 DUP4 ADD MSTORE PUSH2 0x120 SWAP3 DUP4 ADD MLOAD ISZERO ISZERO SWAP3 SWAP1 SWAP2 ADD SWAP2 SWAP1 SWAP2 MSTORE SWAP1 JUMP JUMPDEST PUSH1 0x0 DUP1 DUP4 PUSH1 0x1F DUP5 ADD SLT PUSH2 0x2251 JUMPI PUSH1 0x0 DUP1 REVERT JUMPDEST POP DUP2 CALLDATALOAD PUSH8 0xFFFFFFFFFFFFFFFF DUP2 GT ISZERO PUSH2 0x2269 JUMPI PUSH1 0x0 DUP1 REVERT JUMPDEST PUSH1 0x20 DUP4 ADD SWAP2 POP DUP4 PUSH1 0x20 DUP3 PUSH1 0x5 SHL DUP6 ADD ADD GT ISZERO PUSH2 0x2284 JUMPI PUSH1 0x0 DUP1 REVERT JUMPDEST SWAP3 POP SWAP3 SWAP1 POP JUMP JUMPDEST PUSH1 0x0 DUP1 PUSH1 0x20 DUP4 DUP6 SUB SLT ISZERO PUSH2 0x229E JUMPI PUSH1 0x0 DUP1 REVERT JUMPDEST DUP3 CALLDATALOAD PUSH8 0xFFFFFFFFFFFFFFFF DUP2 GT ISZERO PUSH2 0x22B5 JUMPI PUSH1 0x0 DUP1 REVERT JUMPDEST PUSH2 0x22C1 DUP6 DUP3 DUP7 ADD PUSH2 0x223F JUMP JUMPDEST SWAP1 SWAP7 SWAP1 SWAP6 POP SWAP4 POP POP POP POP JUMP JUMPDEST PUSH1 0x0 DUP1 PUSH1 0x0 DUP1 PUSH1 0x40 DUP6 DUP8 SUB SLT ISZERO PUSH2 0x22E3 JUMPI PUSH1 0x0 DUP1 REVERT JUMPDEST DUP5 CALLDATALOAD PUSH8 0xFFFFFFFFFFFFFFFF DUP1 DUP3 GT ISZERO PUSH2 0x22FB JUMPI PUSH1 0x0 DUP1 REVERT JUMPDEST PUSH2 0x2307 DUP9 DUP4 DUP10 ADD PUSH2 0x223F JUMP JUMPDEST SWAP1 SWAP7 POP SWAP5 POP PUSH1 0x20 DUP8 ADD CALLDATALOAD SWAP2 POP DUP1 DUP3 GT ISZERO PUSH2 0x2320 JUMPI PUSH1 0x0 DUP1 REVERT JUMPDEST POP PUSH2 0x232D DUP8 DUP3 DUP9 ADD PUSH2 0x223F JUMP JUMPDEST SWAP6 SWAP9 SWAP5 SWAP8 POP SWAP6 POP POP POP POP JUMP JUMPDEST PUSH1 0x0 DUP1 PUSH1 0x40 DUP4 DUP6 SUB SLT ISZERO PUSH2 0x234C JUMPI PUSH1 0x0 DUP1 REVERT JUMPDEST PUSH2 0x2355 DUP4 PUSH2 0x203F JUMP JUMPDEST SWAP2 POP PUSH2 0x2190 PUSH1 0x20 DUP5 ADD PUSH2 0x203F JUMP JUMPDEST PUSH1 0x1 DUP2 DUP2 SHR SWAP1 DUP3 AND DUP1 PUSH2 0x2377 JUMPI PUSH1 0x7F DUP3 AND SWAP2 POP JUMPDEST PUSH1 0x20 DUP3 LT DUP2 EQ ISZERO PUSH2 0x170E JUMPI PUSH4 0x4E487B71 PUSH1 0xE0 SHL PUSH1 0x0 MSTORE PUSH1 0x22 PUSH1 0x4 MSTORE PUSH1 0x24 PUSH1 0x0 REVERT JUMPDEST PUSH4 0x4E487B71 PUSH1 0xE0 SHL PUSH1 0x0 MSTORE PUSH1 0x32 PUSH1 0x4 MSTORE PUSH1 0x24 PUSH1 0x0 REVERT JUMPDEST PUSH1 0x0 PUSH1 0x20 DUP3 DUP5 SUB SLT ISZERO PUSH2 0x23C0 JUMPI PUSH1 0x0 DUP1 REVERT JUMPDEST POP MLOAD SWAP2 SWAP1 POP JUMP JUMPDEST PUSH1 0x0 PUSH1 0x20 DUP3 DUP5 SUB SLT ISZERO PUSH2 0x23D9 JUMPI PUSH1 0x0 DUP1 REVERT JUMPDEST DUP2 MLOAD DUP1 ISZERO ISZERO DUP2 EQ PUSH2 0x11F8 JUMPI PUSH1 0x0 DUP1 REVERT JUMPDEST PUSH4 0x4E487B71 PUSH1 0xE0 SHL PUSH1 0x0 MSTORE PUSH1 0x11 PUSH1 0x4 MSTORE PUSH1 0x24 PUSH1 0x0 REVERT JUMPDEST PUSH1 0x0 DUP3 NOT DUP3 GT ISZERO PUSH2 0x2412 JUMPI PUSH2 0x2412 PUSH2 0x23E9 JUMP JUMPDEST POP ADD SWAP1 JUMP JUMPDEST PUSH1 0x0 PUSH1 0x0 NOT DUP3 EQ ISZERO PUSH2 0x242B JUMPI PUSH2 0x242B PUSH2 0x23E9 JUMP JUMPDEST POP PUSH1 0x1 ADD SWAP1 JUMP JUMPDEST PUSH1 0x0 DUP3 DUP3 LT ISZERO PUSH2 0x2444 JUMPI PUSH2 0x2444 PUSH2 0x23E9 JUMP JUMPDEST POP SUB SWAP1 JUMP JUMPDEST PUSH1 0x0 DUP3 PUSH2 0x2466 JUMPI PUSH4 0x4E487B71 PUSH1 0xE0 SHL PUSH1 0x0 MSTORE PUSH1 0x12 PUSH1 0x4 MSTORE PUSH1 0x24 PUSH1 0x0 REVERT JUMPDEST POP DIV SWAP1 JUMP JUMPDEST PUSH1 0x0 DUP2 PUSH1 0x0 NOT DIV DUP4 GT DUP3 ISZERO ISZERO AND ISZERO PUSH2 0x2485 JUMPI PUSH2 0x2485 PUSH2 0x23E9 JUMP JUMPDEST POP MUL SWAP1 JUMP INVALID LOG2 PUSH5 0x6970667358 0x22 SLT KECCAK256 0x24 PUSH26 0xFF8C3000B94FF83A665FFA6DAF61F966DCBB861C559F285CAC6E 0xB5 BALANCE 0xDE 0xAF PUSH5 0x736F6C6343 STOP ADDMOD MULMOD STOP CALLER "},"methodIdentifiers":{"allowance(address,address)":"dd62ed3e","approve(address,uint256)":"095ea7b3","balanceOf(address)":"70a08231","bonus(uint256)":"24749b59","claim(bytes32,uint256)":"63f44968","computeNextVestingScheduleIdForHolder(address)":"f7c469f0","computeVestingScheduleIdForAddressAndIndex(address,uint256)":"8af104da","dates(uint256)":"5133ae24","decimals()":"313ce567","decreaseAllowance(address,uint256)":"a457c2d7","deposit(uint256,uint8)":"654cfdff","earlyMint(address[],uint256[])":"db7a1f5f","getVestingSchedule(bytes32)":"9ef346b4","getVestingScheduleByAddressAndIndex(address,uint256)":"f51321d7","increaseAllowance(address,uint256)":"39509351","mint(address[],uint256[])":"e467f7e0","name()":"06fdde03","owner()":"8da5cb5b","paymentTokens(uint256)":"de660841","prices(uint256)":"bc31c1c1","renounceOwnership()":"715018a6","revoke(bytes32)":"b75c7dc6","setBonus(uint256[4])":"ac9b8a89","setDates(uint256[4])":"298a35e8","setPaymentTokens(address[])":"b88dccac","setPrices(uint256[2])":"1655aea3","supplies(uint256)":"26f1a1fd","symbol()":"95d89b41","totalSupply()":"18160ddd","transfer(address,uint256)":"a9059cbb","transferFrom(address,address,uint256)":"23b872dd","transferOwnership(address)":"f2fde38b","withdrawTokens(uint8,uint256)":"36afb788"}},"storageLayout":{"storage":[{"astId":193,"contract":"contracts/linkcode.sol:RecruitCoinTest","label":"_balances","offset":0,"slot":"0","type":"t_mapping(t_address,t_uint256)"},{"astId":199,"contract":"contracts/linkcode.sol:RecruitCoinTest","label":"_allowances","offset":0,"slot":"1","type":"t_mapping(t_address,t_mapping(t_address,t_uint256))"},{"astId":201,"contract":"contracts/linkcode.sol:RecruitCoinTest","label":"_totalSupply","offset":0,"slot":"2","type":"t_uint256"},{"astId":203,"contract":"contracts/linkcode.sol:RecruitCoinTest","label":"_name","offset":0,"slot":"3","type":"t_string_storage"},{"astId":205,"contract":"contracts/linkcode.sol:RecruitCoinTest","label":"_symbol","offset":0,"slot":"4","type":"t_string_storage"},{"astId":7,"contract":"contracts/linkcode.sol:RecruitCoinTest","label":"_owner","offset":0,"slot":"5","type":"t_address"},{"astId":123,"contract":"contracts/linkcode.sol:RecruitCoinTest","label":"_status","offset":0,"slot":"6","type":"t_uint256"},{"astId":2843,"contract":"contracts/linkcode.sol:RecruitCoinTest","label":"paymentTokens","offset":0,"slot":"7","type":"t_array(t_contract(IERC20)842)dyn_storage"},{"astId":2856,"contract":"contracts/linkcode.sol:RecruitCoinTest","label":"supplies","offset":0,"slot":"8","type":"t_array(t_uint256)8_storage"},{"astId":2863,"contract":"contracts/linkcode.sol:RecruitCoinTest","label":"prices","offset":0,"slot":"16","type":"t_array(t_uint256)2_storage"},{"astId":2885,"contract":"contracts/linkcode.sol:RecruitCoinTest","label":"dates","offset":0,"slot":"18","type":"t_array(t_uint256)4_storage"},{"astId":2894,"contract":"contracts/linkcode.sol:RecruitCoinTest","label":"bonus","offset":0,"slot":"22","type":"t_array(t_uint256)4_storage"},{"astId":2937,"contract":"contracts/linkcode.sol:RecruitCoinTest","label":"vestingSchedulesIds","offset":0,"slot":"26","type":"t_array(t_bytes32)dyn_storage"},{"astId":2942,"contract":"contracts/linkcode.sol:RecruitCoinTest","label":"vestingSchedules","offset":0,"slot":"27","type":"t_mapping(t_bytes32,t_struct(VestingSchedule)2934_storage)"},{"astId":2944,"contract":"contracts/linkcode.sol:RecruitCoinTest","label":"vestingSchedulesTotalAmount","offset":0,"slot":"28","type":"t_uint256"},{"astId":2948,"contract":"contracts/linkcode.sol:RecruitCoinTest","label":"holdersVestingCount","offset":0,"slot":"29","type":"t_mapping(t_address,t_uint256)"}],"types":{"t_address":{"encoding":"inplace","label":"address","numberOfBytes":"20"},"t_array(t_bytes32)dyn_storage":{"base":"t_bytes32","encoding":"dynamic_array","label":"bytes32[]","numberOfBytes":"32"},"t_array(t_contract(IERC20)842)dyn_storage":{"base":"t_contract(IERC20)842","encoding":"dynamic_array","label":"contract IERC20[]","numberOfBytes":"32"},"t_array(t_uint256)2_storage":{"base":"t_uint256","encoding":"inplace","label":"uint256[2]","numberOfBytes":"64"},"t_array(t_uint256)4_storage":{"base":"t_uint256","encoding":"inplace","label":"uint256[4]","numberOfBytes":"128"},"t_array(t_uint256)8_storage":{"base":"t_uint256","encoding":"inplace","label":"uint256[8]","numberOfBytes":"256"},"t_bool":{"encoding":"inplace","label":"bool","numberOfBytes":"1"},"t_bytes32":{"encoding":"inplace","label":"bytes32","numberOfBytes":"32"},"t_contract(IERC20)842":{"encoding":"inplace","label":"contract IERC20","numberOfBytes":"20"},"t_mapping(t_address,t_mapping(t_address,t_uint256))":{"encoding":"mapping","key":"t_address","label":"mapping(address => mapping(address => uint256))","numberOfBytes":"32","value":"t_mapping(t_address,t_uint256)"},"t_mapping(t_address,t_uint256)":{"encoding":"mapping","key":"t_address","label":"mapping(address => uint256)","numberOfBytes":"32","value":"t_uint256"},"t_mapping(t_bytes32,t_struct(VestingSchedule)2934_storage)":{"encoding":"mapping","key":"t_bytes32","label":"mapping(bytes32 => struct RecruitCoinTest.VestingSchedule)","numberOfBytes":"32","value":"t_struct(VestingSchedule)2934_storage"},"t_string_storage":{"encoding":"bytes","label":"string","numberOfBytes":"32"},"t_struct(VestingSchedule)2934_storage":{"encoding":"inplace","label":"struct RecruitCoinTest.VestingSchedule","members":[{"astId":2915,"contract":"contracts/linkcode.sol:RecruitCoinTest","label":"initialized","offset":0,"slot":"0","type":"t_bool"},{"astId":2917,"contract":"contracts/linkcode.sol:RecruitCoinTest","label":"beneficiary","offset":1,"slot":"0","type":"t_address"},{"astId":2919,"contract":"contracts/linkcode.sol:RecruitCoinTest","label":"cliff","offset":0,"slot":"1","type":"t_uint256"},{"astId":2921,"contract":"contracts/linkcode.sol:RecruitCoinTest","label":"start","offset":0,"slot":"2","type":"t_uint256"},{"astId":2923,"contract":"contracts/linkcode.sol:RecruitCoinTest","label":"duration","offset":0,"slot":"3","type":"t_uint256"},{"astId":2925,"contract":"contracts/linkcode.sol:RecruitCoinTest","label":"slicePeriodSeconds","offset":0,"slot":"4","type":"t_uint256"},{"astId":2927,"contract":"contracts/linkcode.sol:RecruitCoinTest","label":"revocable","offset":0,"slot":"5","type":"t_bool"},{"astId":2929,"contract":"contracts/linkcode.sol:RecruitCoinTest","label":"amountTotal","offset":0,"slot":"6","type":"t_uint256"},{"astId":2931,"contract":"contracts/linkcode.sol:RecruitCoinTest","label":"released","offset":0,"slot":"7","type":"t_uint256"},{"astId":2933,"contract":"contracts/linkcode.sol:RecruitCoinTest","label":"revoked","offset":0,"slot":"8","type":"t_bool"}],"numberOfBytes":"288"},"t_uint256":{"encoding":"inplace","label":"uint256","numberOfBytes":"32"}}}}}}