{"contracts/Utils.sol":{"Utils":{"abi":[{"inputs":[{"internalType":"uint256","name":"k","type":"uint256"},{"internalType":"uint256","name":"q","type":"uint256"},{"internalType":"uint256","name":"n","type":"uint256"},{"internalType":"uint256","name":"p","type":"uint256"}],"name":"calcReward","outputs":[{"internalType":"uint256","name":"","type":"uint256"}],"stateMutability":"pure","type":"function"},{"inputs":[{"internalType":"uint256","name":"currentBalance","type":"uint256"},{"internalType":"uint256","name":"currentBNBPool","type":"uint256"},{"internalType":"uint256","name":"totalSupply","type":"uint256"},{"internalType":"uint256","name":"rewardHardcap","type":"uint256"}],"name":"calculateBNBReward","outputs":[{"internalType":"uint256","name":"","type":"uint256"}],"stateMutability":"pure","type":"function"},{"inputs":[{"internalType":"uint256","name":"currentRecipientBalance","type":"uint256"},{"internalType":"uint256","name":"basedRewardCycleBlock","type":"uint256"},{"internalType":"uint256","name":"threshHoldTopUpRate","type":"uint256"},{"internalType":"uint256","name":"amount","type":"uint256"}],"name":"calculateTopUpClaim","outputs":[{"internalType":"uint256","name":"","type":"uint256"}],"stateMutability":"pure","type":"function"},{"inputs":[{"internalType":"uint256","name":"amount","type":"uint256"},{"internalType":"address","name":"routerAddress","type":"address"}],"name":"getAmountsout","outputs":[{"internalType":"uint256","name":"_amount","type":"uint256"}],"stateMutability":"view","type":"function"},{"inputs":[{"internalType":"uint256","name":"firstBuy","type":"uint256"}],"name":"getAntiFlipTaxNo","outputs":[{"internalType":"uint8","name":"taxNo","type":"uint8"}],"stateMutability":"view","type":"function"}],"evm":{"bytecode":{"linkReferences":{},"object":"61101c61003a600b82828239805160001a60731461002d57634e487b7160e01b600052600060045260246000fd5b30600052607381538281f3fe730000000000000000000000000000000000000000301460806040526004361061009d5760003560e01c80637b1c1776116100705780637b1c1776146101225780637e5bfbed146101425780638958b5a914610155578063c549d3ae14610168578063cf6c62ea1461018857600080fd5b806333065a3a146100a25780634432ba7f146100c857806356feb11b146100db5780636b0f4a74146100fd575b600080fd5b6100b56100b0366004610ad1565b6101a8565b6040519081526020015b60405180910390f35b6100b56100d6366004610ad1565b6101dc565b8180156100e757600080fd5b506100fb6100f6366004610b1b565b6102c7565b005b61011061010b366004610b47565b610411565b60405160ff90911681526020016100bf565b81801561012e57600080fd5b506100fb61013d366004610b60565b6104a7565b6100b5610150366004610ba1565b6105fc565b6100b5610163366004610ad1565b610779565b81801561017457600080fd5b506100fb610183366004610b60565b6107c6565b81801561019457600080fd5b506100fb6101a3366004610bd1565b61091a565b6000808285116101b857846101ba565b825b90506101d0846101ca83896109cf565b90610a5d565b9150505b949350505050565b600084836001838583106101f057856101f2565b865b955060015b8681116102b95781156102425761020e818a610d11565b83610219868d610d1d565b6102239190610d34565b61022d9190610d34565b6102379086610d56565b94506000915061027c565b61024c818a610d11565b83610257868d610d1d565b6102619190610d34565b61026b9190610d34565b6102759086610d69565b9450600191505b6102868189610d69565b6102909085610d1d565b935061029d816001610d56565b6102a79084610d1d565b92506102b281610d7c565b90506101f7565b509298975050505050505050565b60408051600280825260608201835284926000929190602083019080368337019050509050308160008151811061030057610300610dab565b60200260200101906001600160a01b031690816001600160a01b031681525050816001600160a01b031663ad5c46486040518163ffffffff1660e01b8152600401602060405180830381865afa15801561035e573d6000803e3d6000fd5b505050506040513d601f19601f820116820180604052508101906103829190610dc1565b8160018151811061039557610395610dab565b6001600160a01b03928316602091820292909201015260405163791ac94760e01b81529083169063791ac947906103d9908690600090869030904290600401610e22565b600060405180830381600087803b1580156103f357600080fd5b505af1158015610407573d6000803e3d6000fd5b5050505050505050565b6000620151806104218342610d69565b101561042f57506000919050565b62093a8061043d8342610d69565b101561044b57506001919050565b62278d006104598342610d69565b101561046757506002919050565b624f1a006104758342610d69565b101561048357506003919050565b6276a7006104918342610d69565b101561049f57506004919050565b506005919050565b60408051600280825260608201835285926000929190602083019080368337019050509050816001600160a01b031663ad5c46486040518163ffffffff1660e01b8152600401602060405180830381865afa15801561050a573d6000803e3d6000fd5b505050506040513d601f19601f8201168201806040525081019061052e9190610dc1565b8160008151811061054157610541610dab565b60200260200101906001600160a01b031690816001600160a01b031681525050308160018151811061057557610575610dab565b6001600160a01b0392831660209182029290920101528216635c11d79584600084886105a342610168610d56565b6040518663ffffffff1660e01b81526004016105c3959493929190610e22565b600060405180830381600087803b1580156105dd57600080fd5b505af11580156105f1573d6000803e3d6000fd5b505050505050505050565b604080516002808252606082018352600092849284929091602083019080368337019050509050816001600160a01b031663ad5c46486040518163ffffffff1660e01b8152600401602060405180830381865afa158015610661573d6000803e3d6000fd5b505050506040513d601f19601f820116820180604052508101906106859190610dc1565b8160008151811061069857610698610dab565b60200260200101906001600160a01b031690816001600160a01b03168152505030816001815181106106cc576106cc610dab565b6001600160a01b03928316602091820292909201015260405163d06ca61f60e01b815260009184169063d06ca61f9061070b9089908690600401610e5e565b600060405180830381865afa158015610728573d6000803e3d6000fd5b505050506040513d6000823e601f3d908101601f191682016040526107509190810190610e77565b90508060018151811061076557610765610dab565b602002602001015193505050505b92915050565b60008061078b866101ca8560646109cf565b90508381106107ba5760006107a560646101ca88856109cf565b90508581106107b15750845b91506101d49050565b50600095945050505050565b60408051600280825260608201835285926000929190602083019080368337019050509050816001600160a01b031663ad5c46486040518163ffffffff1660e01b8152600401602060405180830381865afa158015610829573d6000803e3d6000fd5b505050506040513d601f19601f8201168201806040525081019061084d9190610dc1565b8160008151811061086057610860610dab565b60200260200101906001600160a01b031690816001600160a01b031681525050308160018151811061089457610894610dab565b6001600160a01b039283166020918202929092010152821663b6f9de9584600084886108c242610168610d56565b6040518663ffffffff1660e01b81526004016108e19493929190610f35565b6000604051808303818588803b1580156108fa57600080fd5b505af115801561090e573d6000803e3d6000fd5b50505050505050505050565b836001600160a01b03811663f305d7198330866000808a61093d42610168610d56565b60405160e089901b6001600160e01b03191681526001600160a01b039687166004820152602481019590955260448501939093526064840191909152909216608482015260a481019190915260c40160606040518083038185885af11580156109aa573d6000803e3d6000fd5b50505050506040513d601f19601f820116820180604052508101906104079190610f6a565b6000826000036109e157506000610773565b60006109ed8385610d1d565b9050826109fa8583610d34565b14610a565760405162461bcd60e51b815260206004820152602160248201527f536166654d6174683a206d756c7469706c69636174696f6e206f766572666c6f6044820152607760f81b60648201526084015b60405180910390fd5b9392505050565b6000610a5683836040518060400160405280601a81526020017f536166654d6174683a206469766973696f6e206279207a65726f00000000000081525060008183610abb5760405162461bcd60e51b8152600401610a4d9190610f98565b506000610ac88486610d34565b95945050505050565b60008060008060808587031215610ae757600080fd5b5050823594602084013594506040840135936060013592509050565b6001600160a01b0381168114610b1857600080fd5b50565b60008060408385031215610b2e57600080fd5b8235610b3981610b03565b946020939093013593505050565b600060208284031215610b5957600080fd5b5035919050565b600080600060608486031215610b7557600080fd5b8335610b8081610b03565b92506020840135610b9081610b03565b929592945050506040919091013590565b60008060408385031215610bb457600080fd5b823591506020830135610bc681610b03565b809150509250929050565b60008060008060808587031215610be757600080fd5b8435610bf281610b03565b93506020850135610c0281610b03565b93969395505050506040820135916060013590565b634e487b7160e01b600052601160045260246000fd5b600181815b80851115610c68578160001904821115610c4e57610c4e610c17565b80851615610c5b57918102915b93841c9390800290610c32565b509250929050565b600082610c7f57506001610773565b81610c8c57506000610773565b8160018114610ca25760028114610cac57610cc8565b6001915050610773565b60ff841115610cbd57610cbd610c17565b50506001821b610773565b5060208310610133831016604e8410600b8410161715610ceb575081810a610773565b610cf58383610c2d565b8060001904821115610d0957610d09610c17565b029392505050565b6000610a568383610c70565b808202811582820484141761077357610773610c17565b600082610d5157634e487b7160e01b600052601260045260246000fd5b500490565b8082018082111561077357610773610c17565b8181038181111561077357610773610c17565b600060018201610d8e57610d8e610c17565b5060010190565b634e487b7160e01b600052604160045260246000fd5b634e487b7160e01b600052603260045260246000fd5b600060208284031215610dd357600080fd5b8151610a5681610b03565b600081518084526020808501945080840160005b83811015610e175781516001600160a01b031687529582019590820190600101610df2565b509495945050505050565b85815284602082015260a060408201526000610e4160a0830186610dde565b6001600160a01b0394909416606083015250608001529392505050565b8281526040602082015260006101d46040830184610dde565b60006020808385031215610e8a57600080fd5b825167ffffffffffffffff80821115610ea257600080fd5b818501915085601f830112610eb657600080fd5b815181811115610ec857610ec8610d95565b8060051b604051601f19603f83011681018181108582111715610eed57610eed610d95565b604052918252848201925083810185019188831115610f0b57600080fd5b938501935b82851015610f2957845184529385019392850192610f10565b98975050505050505050565b848152608060208201526000610f4e6080830186610dde565b6001600160a01b03949094166040830152506060015292915050565b600080600060608486031215610f7f57600080fd5b8351925060208401519150604084015190509250925092565b600060208083528351808285015260005b81811015610fc557858101830151858201604001528201610fa9565b506000604082860101526040601f19601f830116850101925050509291505056fea2646970667358221220baa0a5ea09966d24b57b57b01c25a0303874bfb771f1d56288eed0b1f7c8b3f764736f6c63430008150033","opcodes":"PUSH2 0x101C PUSH2 0x3A PUSH1 0xB DUP3 DUP3 DUP3 CODECOPY DUP1 MLOAD PUSH1 0x0 BYTE PUSH1 0x73 EQ PUSH2 0x2D JUMPI PUSH4 0x4E487B71 PUSH1 0xE0 SHL PUSH1 0x0 MSTORE PUSH1 0x0 PUSH1 0x4 MSTORE PUSH1 0x24 PUSH1 0x0 REVERT JUMPDEST ADDRESS PUSH1 0x0 MSTORE PUSH1 0x73 DUP2 MSTORE8 DUP3 DUP2 RETURN INVALID PUSH20 0x0 ADDRESS EQ PUSH1 0x80 PUSH1 0x40 MSTORE PUSH1 0x4 CALLDATASIZE LT PUSH2 0x9D JUMPI PUSH1 0x0 CALLDATALOAD PUSH1 0xE0 SHR DUP1 PUSH4 0x7B1C1776 GT PUSH2 0x70 JUMPI DUP1 PUSH4 0x7B1C1776 EQ PUSH2 0x122 JUMPI DUP1 PUSH4 0x7E5BFBED EQ PUSH2 0x142 JUMPI DUP1 PUSH4 0x8958B5A9 EQ PUSH2 0x155 JUMPI DUP1 PUSH4 0xC549D3AE EQ PUSH2 0x168 JUMPI DUP1 PUSH4 0xCF6C62EA EQ PUSH2 0x188 JUMPI PUSH1 0x0 DUP1 REVERT JUMPDEST DUP1 PUSH4 0x33065A3A EQ PUSH2 0xA2 JUMPI DUP1 PUSH4 0x4432BA7F EQ PUSH2 0xC8 JUMPI DUP1 PUSH4 0x56FEB11B EQ PUSH2 0xDB JUMPI DUP1 PUSH4 0x6B0F4A74 EQ PUSH2 0xFD JUMPI JUMPDEST PUSH1 0x0 DUP1 REVERT JUMPDEST PUSH2 0xB5 PUSH2 0xB0 CALLDATASIZE PUSH1 0x4 PUSH2 0xAD1 JUMP JUMPDEST PUSH2 0x1A8 JUMP JUMPDEST PUSH1 0x40 MLOAD SWAP1 DUP2 MSTORE PUSH1 0x20 ADD JUMPDEST PUSH1 0x40 MLOAD DUP1 SWAP2 SUB SWAP1 RETURN JUMPDEST PUSH2 0xB5 PUSH2 0xD6 CALLDATASIZE PUSH1 0x4 PUSH2 0xAD1 JUMP JUMPDEST PUSH2 0x1DC JUMP JUMPDEST DUP2 DUP1 ISZERO PUSH2 0xE7 JUMPI PUSH1 0x0 DUP1 REVERT JUMPDEST POP PUSH2 0xFB PUSH2 0xF6 CALLDATASIZE PUSH1 0x4 PUSH2 0xB1B JUMP JUMPDEST PUSH2 0x2C7 JUMP JUMPDEST STOP JUMPDEST PUSH2 0x110 PUSH2 0x10B CALLDATASIZE PUSH1 0x4 PUSH2 0xB47 JUMP JUMPDEST PUSH2 0x411 JUMP JUMPDEST PUSH1 0x40 MLOAD PUSH1 0xFF SWAP1 SWAP2 AND DUP2 MSTORE PUSH1 0x20 ADD PUSH2 0xBF JUMP JUMPDEST DUP2 DUP1 ISZERO PUSH2 0x12E JUMPI PUSH1 0x0 DUP1 REVERT JUMPDEST POP PUSH2 0xFB PUSH2 0x13D CALLDATASIZE PUSH1 0x4 PUSH2 0xB60 JUMP JUMPDEST PUSH2 0x4A7 JUMP JUMPDEST PUSH2 0xB5 PUSH2 0x150 CALLDATASIZE PUSH1 0x4 PUSH2 0xBA1 JUMP JUMPDEST PUSH2 0x5FC JUMP JUMPDEST PUSH2 0xB5 PUSH2 0x163 CALLDATASIZE PUSH1 0x4 PUSH2 0xAD1 JUMP JUMPDEST PUSH2 0x779 JUMP JUMPDEST DUP2 DUP1 ISZERO PUSH2 0x174 JUMPI PUSH1 0x0 DUP1 REVERT JUMPDEST POP PUSH2 0xFB PUSH2 0x183 CALLDATASIZE PUSH1 0x4 PUSH2 0xB60 JUMP JUMPDEST PUSH2 0x7C6 JUMP JUMPDEST DUP2 DUP1 ISZERO PUSH2 0x194 JUMPI PUSH1 0x0 DUP1 REVERT JUMPDEST POP PUSH2 0xFB PUSH2 0x1A3 CALLDATASIZE PUSH1 0x4 PUSH2 0xBD1 JUMP JUMPDEST PUSH2 0x91A JUMP JUMPDEST PUSH1 0x0 DUP1 DUP3 DUP6 GT PUSH2 0x1B8 JUMPI DUP5 PUSH2 0x1BA JUMP JUMPDEST DUP3 JUMPDEST SWAP1 POP PUSH2 0x1D0 DUP5 PUSH2 0x1CA DUP4 DUP10 PUSH2 0x9CF JUMP JUMPDEST SWAP1 PUSH2 0xA5D JUMP JUMPDEST SWAP2 POP POP JUMPDEST SWAP5 SWAP4 POP POP POP POP JUMP JUMPDEST PUSH1 0x0 DUP5 DUP4 PUSH1 0x1 DUP4 DUP6 DUP4 LT PUSH2 0x1F0 JUMPI DUP6 PUSH2 0x1F2 JUMP JUMPDEST DUP7 JUMPDEST SWAP6 POP PUSH1 0x1 JUMPDEST DUP7 DUP2 GT PUSH2 0x2B9 JUMPI DUP2 ISZERO PUSH2 0x242 JUMPI PUSH2 0x20E DUP2 DUP11 PUSH2 0xD11 JUMP JUMPDEST DUP4 PUSH2 0x219 DUP7 DUP14 PUSH2 0xD1D JUMP JUMPDEST PUSH2 0x223 SWAP2 SWAP1 PUSH2 0xD34 JUMP JUMPDEST PUSH2 0x22D SWAP2 SWAP1 PUSH2 0xD34 JUMP JUMPDEST PUSH2 0x237 SWAP1 DUP7 PUSH2 0xD56 JUMP JUMPDEST SWAP5 POP PUSH1 0x0 SWAP2 POP PUSH2 0x27C JUMP JUMPDEST PUSH2 0x24C DUP2 DUP11 PUSH2 0xD11 JUMP JUMPDEST DUP4 PUSH2 0x257 DUP7 DUP14 PUSH2 0xD1D JUMP JUMPDEST PUSH2 0x261 SWAP2 SWAP1 PUSH2 0xD34 JUMP JUMPDEST PUSH2 0x26B SWAP2 SWAP1 PUSH2 0xD34 JUMP JUMPDEST PUSH2 0x275 SWAP1 DUP7 PUSH2 0xD69 JUMP JUMPDEST SWAP5 POP PUSH1 0x1 SWAP2 POP JUMPDEST PUSH2 0x286 DUP2 DUP10 PUSH2 0xD69 JUMP JUMPDEST PUSH2 0x290 SWAP1 DUP6 PUSH2 0xD1D JUMP JUMPDEST SWAP4 POP PUSH2 0x29D DUP2 PUSH1 0x1 PUSH2 0xD56 JUMP JUMPDEST PUSH2 0x2A7 SWAP1 DUP5 PUSH2 0xD1D JUMP JUMPDEST SWAP3 POP PUSH2 0x2B2 DUP2 PUSH2 0xD7C JUMP JUMPDEST SWAP1 POP PUSH2 0x1F7 JUMP JUMPDEST POP SWAP3 SWAP9 SWAP8 POP POP POP POP POP POP POP POP JUMP JUMPDEST PUSH1 0x40 DUP1 MLOAD PUSH1 0x2 DUP1 DUP3 MSTORE PUSH1 0x60 DUP3 ADD DUP4 MSTORE DUP5 SWAP3 PUSH1 0x0 SWAP3 SWAP2 SWAP1 PUSH1 0x20 DUP4 ADD SWAP1 DUP1 CALLDATASIZE DUP4 CALLDATACOPY ADD SWAP1 POP POP SWAP1 POP ADDRESS DUP2 PUSH1 0x0 DUP2 MLOAD DUP2 LT PUSH2 0x300 JUMPI PUSH2 0x300 PUSH2 0xDAB JUMP JUMPDEST PUSH1 0x20 MUL PUSH1 0x20 ADD ADD SWAP1 PUSH1 0x1 PUSH1 0x1 PUSH1 0xA0 SHL SUB AND SWAP1 DUP2 PUSH1 0x1 PUSH1 0x1 PUSH1 0xA0 SHL SUB AND DUP2 MSTORE POP POP DUP2 PUSH1 0x1 PUSH1 0x1 PUSH1 0xA0 SHL SUB AND PUSH4 0xAD5C4648 PUSH1 0x40 MLOAD DUP2 PUSH4 0xFFFFFFFF AND PUSH1 0xE0 SHL DUP2 MSTORE PUSH1 0x4 ADD PUSH1 0x20 PUSH1 0x40 MLOAD DUP1 DUP4 SUB DUP2 DUP7 GAS STATICCALL ISZERO DUP1 ISZERO PUSH2 0x35E JUMPI RETURNDATASIZE PUSH1 0x0 DUP1 RETURNDATACOPY RETURNDATASIZE PUSH1 0x0 REVERT JUMPDEST POP POP POP POP PUSH1 0x40 MLOAD RETURNDATASIZE PUSH1 0x1F NOT PUSH1 0x1F DUP3 ADD AND DUP3 ADD DUP1 PUSH1 0x40 MSTORE POP DUP2 ADD SWAP1 PUSH2 0x382 SWAP2 SWAP1 PUSH2 0xDC1 JUMP JUMPDEST DUP2 PUSH1 0x1 DUP2 MLOAD DUP2 LT PUSH2 0x395 JUMPI PUSH2 0x395 PUSH2 0xDAB JUMP JUMPDEST PUSH1 0x1 PUSH1 0x1 PUSH1 0xA0 SHL SUB SWAP3 DUP4 AND PUSH1 0x20 SWAP2 DUP3 MUL SWAP3 SWAP1 SWAP3 ADD ADD MSTORE PUSH1 0x40 MLOAD PUSH4 0x791AC947 PUSH1 0xE0 SHL DUP2 MSTORE SWAP1 DUP4 AND SWAP1 PUSH4 0x791AC947 SWAP1 PUSH2 0x3D9 SWAP1 DUP7 SWAP1 PUSH1 0x0 SWAP1 DUP7 SWAP1 ADDRESS SWAP1 TIMESTAMP SWAP1 PUSH1 0x4 ADD PUSH2 0xE22 JUMP JUMPDEST PUSH1 0x0 PUSH1 0x40 MLOAD DUP1 DUP4 SUB DUP2 PUSH1 0x0 DUP8 DUP1 EXTCODESIZE ISZERO DUP1 ISZERO PUSH2 0x3F3 JUMPI PUSH1 0x0 DUP1 REVERT JUMPDEST POP GAS CALL ISZERO DUP1 ISZERO PUSH2 0x407 JUMPI RETURNDATASIZE PUSH1 0x0 DUP1 RETURNDATACOPY RETURNDATASIZE PUSH1 0x0 REVERT JUMPDEST POP POP POP POP POP POP POP POP JUMP JUMPDEST PUSH1 0x0 PUSH3 0x15180 PUSH2 0x421 DUP4 TIMESTAMP PUSH2 0xD69 JUMP JUMPDEST LT ISZERO PUSH2 0x42F JUMPI POP PUSH1 0x0 SWAP2 SWAP1 POP JUMP JUMPDEST PUSH3 0x93A80 PUSH2 0x43D DUP4 TIMESTAMP PUSH2 0xD69 JUMP JUMPDEST LT ISZERO PUSH2 0x44B JUMPI POP PUSH1 0x1 SWAP2 SWAP1 POP JUMP JUMPDEST PUSH3 0x278D00 PUSH2 0x459 DUP4 TIMESTAMP PUSH2 0xD69 JUMP JUMPDEST LT ISZERO PUSH2 0x467 JUMPI POP PUSH1 0x2 SWAP2 SWAP1 POP JUMP JUMPDEST PUSH3 0x4F1A00 PUSH2 0x475 DUP4 TIMESTAMP PUSH2 0xD69 JUMP JUMPDEST LT ISZERO PUSH2 0x483 JUMPI POP PUSH1 0x3 SWAP2 SWAP1 POP JUMP JUMPDEST PUSH3 0x76A700 PUSH2 0x491 DUP4 TIMESTAMP PUSH2 0xD69 JUMP JUMPDEST LT ISZERO PUSH2 0x49F JUMPI POP PUSH1 0x4 SWAP2 SWAP1 POP JUMP JUMPDEST POP PUSH1 0x5 SWAP2 SWAP1 POP JUMP JUMPDEST PUSH1 0x40 DUP1 MLOAD PUSH1 0x2 DUP1 DUP3 MSTORE PUSH1 0x60 DUP3 ADD DUP4 MSTORE DUP6 SWAP3 PUSH1 0x0 SWAP3 SWAP2 SWAP1 PUSH1 0x20 DUP4 ADD SWAP1 DUP1 CALLDATASIZE DUP4 CALLDATACOPY ADD SWAP1 POP POP SWAP1 POP DUP2 PUSH1 0x1 PUSH1 0x1 PUSH1 0xA0 SHL SUB AND PUSH4 0xAD5C4648 PUSH1 0x40 MLOAD DUP2 PUSH4 0xFFFFFFFF AND PUSH1 0xE0 SHL DUP2 MSTORE PUSH1 0x4 ADD PUSH1 0x20 PUSH1 0x40 MLOAD DUP1 DUP4 SUB DUP2 DUP7 GAS STATICCALL ISZERO DUP1 ISZERO PUSH2 0x50A JUMPI RETURNDATASIZE PUSH1 0x0 DUP1 RETURNDATACOPY RETURNDATASIZE PUSH1 0x0 REVERT JUMPDEST POP POP POP POP PUSH1 0x40 MLOAD RETURNDATASIZE PUSH1 0x1F NOT PUSH1 0x1F DUP3 ADD AND DUP3 ADD DUP1 PUSH1 0x40 MSTORE POP DUP2 ADD SWAP1 PUSH2 0x52E SWAP2 SWAP1 PUSH2 0xDC1 JUMP JUMPDEST DUP2 PUSH1 0x0 DUP2 MLOAD DUP2 LT PUSH2 0x541 JUMPI PUSH2 0x541 PUSH2 0xDAB JUMP JUMPDEST PUSH1 0x20 MUL PUSH1 0x20 ADD ADD SWAP1 PUSH1 0x1 PUSH1 0x1 PUSH1 0xA0 SHL SUB AND SWAP1 DUP2 PUSH1 0x1 PUSH1 0x1 PUSH1 0xA0 SHL SUB AND DUP2 MSTORE POP POP ADDRESS DUP2 PUSH1 0x1 DUP2 MLOAD DUP2 LT PUSH2 0x575 JUMPI PUSH2 0x575 PUSH2 0xDAB JUMP JUMPDEST PUSH1 0x1 PUSH1 0x1 PUSH1 0xA0 SHL SUB SWAP3 DUP4 AND PUSH1 0x20 SWAP2 DUP3 MUL SWAP3 SWAP1 SWAP3 ADD ADD MSTORE DUP3 AND PUSH4 0x5C11D795 DUP5 PUSH1 0x0 DUP5 DUP9 PUSH2 0x5A3 TIMESTAMP PUSH2 0x168 PUSH2 0xD56 JUMP JUMPDEST PUSH1 0x40 MLOAD DUP7 PUSH4 0xFFFFFFFF AND PUSH1 0xE0 SHL DUP2 MSTORE PUSH1 0x4 ADD PUSH2 0x5C3 SWAP6 SWAP5 SWAP4 SWAP3 SWAP2 SWAP1 PUSH2 0xE22 JUMP JUMPDEST PUSH1 0x0 PUSH1 0x40 MLOAD DUP1 DUP4 SUB DUP2 PUSH1 0x0 DUP8 DUP1 EXTCODESIZE ISZERO DUP1 ISZERO PUSH2 0x5DD JUMPI PUSH1 0x0 DUP1 REVERT JUMPDEST POP GAS CALL ISZERO DUP1 ISZERO PUSH2 0x5F1 JUMPI RETURNDATASIZE PUSH1 0x0 DUP1 RETURNDATACOPY RETURNDATASIZE PUSH1 0x0 REVERT JUMPDEST POP POP POP POP POP POP POP POP POP JUMP JUMPDEST PUSH1 0x40 DUP1 MLOAD PUSH1 0x2 DUP1 DUP3 MSTORE PUSH1 0x60 DUP3 ADD DUP4 MSTORE PUSH1 0x0 SWAP3 DUP5 SWAP3 DUP5 SWAP3 SWAP1 SWAP2 PUSH1 0x20 DUP4 ADD SWAP1 DUP1 CALLDATASIZE DUP4 CALLDATACOPY ADD SWAP1 POP POP SWAP1 POP DUP2 PUSH1 0x1 PUSH1 0x1 PUSH1 0xA0 SHL SUB AND PUSH4 0xAD5C4648 PUSH1 0x40 MLOAD DUP2 PUSH4 0xFFFFFFFF AND PUSH1 0xE0 SHL DUP2 MSTORE PUSH1 0x4 ADD PUSH1 0x20 PUSH1 0x40 MLOAD DUP1 DUP4 SUB DUP2 DUP7 GAS STATICCALL ISZERO DUP1 ISZERO PUSH2 0x661 JUMPI RETURNDATASIZE PUSH1 0x0 DUP1 RETURNDATACOPY RETURNDATASIZE PUSH1 0x0 REVERT JUMPDEST POP POP POP POP PUSH1 0x40 MLOAD RETURNDATASIZE PUSH1 0x1F NOT PUSH1 0x1F DUP3 ADD AND DUP3 ADD DUP1 PUSH1 0x40 MSTORE POP DUP2 ADD SWAP1 PUSH2 0x685 SWAP2 SWAP1 PUSH2 0xDC1 JUMP JUMPDEST DUP2 PUSH1 0x0 DUP2 MLOAD DUP2 LT PUSH2 0x698 JUMPI PUSH2 0x698 PUSH2 0xDAB JUMP JUMPDEST PUSH1 0x20 MUL PUSH1 0x20 ADD ADD SWAP1 PUSH1 0x1 PUSH1 0x1 PUSH1 0xA0 SHL SUB AND SWAP1 DUP2 PUSH1 0x1 PUSH1 0x1 PUSH1 0xA0 SHL SUB AND DUP2 MSTORE POP POP ADDRESS DUP2 PUSH1 0x1 DUP2 MLOAD DUP2 LT PUSH2 0x6CC JUMPI PUSH2 0x6CC PUSH2 0xDAB JUMP JUMPDEST PUSH1 0x1 PUSH1 0x1 PUSH1 0xA0 SHL SUB SWAP3 DUP4 AND PUSH1 0x20 SWAP2 DUP3 MUL SWAP3 SWAP1 SWAP3 ADD ADD MSTORE PUSH1 0x40 MLOAD PUSH4 0xD06CA61F PUSH1 0xE0 SHL DUP2 MSTORE PUSH1 0x0 SWAP2 DUP5 AND SWAP1 PUSH4 0xD06CA61F SWAP1 PUSH2 0x70B SWAP1 DUP10 SWAP1 DUP7 SWAP1 PUSH1 0x4 ADD PUSH2 0xE5E JUMP JUMPDEST PUSH1 0x0 PUSH1 0x40 MLOAD DUP1 DUP4 SUB DUP2 DUP7 GAS STATICCALL ISZERO DUP1 ISZERO PUSH2 0x728 JUMPI RETURNDATASIZE PUSH1 0x0 DUP1 RETURNDATACOPY RETURNDATASIZE PUSH1 0x0 REVERT JUMPDEST POP POP POP POP PUSH1 0x40 MLOAD RETURNDATASIZE PUSH1 0x0 DUP3 RETURNDATACOPY PUSH1 0x1F RETURNDATASIZE SWAP1 DUP2 ADD PUSH1 0x1F NOT AND DUP3 ADD PUSH1 0x40 MSTORE PUSH2 0x750 SWAP2 SWAP1 DUP2 ADD SWAP1 PUSH2 0xE77 JUMP JUMPDEST SWAP1 POP DUP1 PUSH1 0x1 DUP2 MLOAD DUP2 LT PUSH2 0x765 JUMPI PUSH2 0x765 PUSH2 0xDAB JUMP JUMPDEST PUSH1 0x20 MUL PUSH1 0x20 ADD ADD MLOAD SWAP4 POP POP POP POP JUMPDEST SWAP3 SWAP2 POP POP JUMP JUMPDEST PUSH1 0x0 DUP1 PUSH2 0x78B DUP7 PUSH2 0x1CA DUP6 PUSH1 0x64 PUSH2 0x9CF JUMP JUMPDEST SWAP1 POP DUP4 DUP2 LT PUSH2 0x7BA JUMPI PUSH1 0x0 PUSH2 0x7A5 PUSH1 0x64 PUSH2 0x1CA DUP9 DUP6 PUSH2 0x9CF JUMP JUMPDEST SWAP1 POP DUP6 DUP2 LT PUSH2 0x7B1 JUMPI POP DUP5 JUMPDEST SWAP2 POP PUSH2 0x1D4 SWAP1 POP JUMP JUMPDEST POP PUSH1 0x0 SWAP6 SWAP5 POP POP POP POP POP JUMP JUMPDEST PUSH1 0x40 DUP1 MLOAD PUSH1 0x2 DUP1 DUP3 MSTORE PUSH1 0x60 DUP3 ADD DUP4 MSTORE DUP6 SWAP3 PUSH1 0x0 SWAP3 SWAP2 SWAP1 PUSH1 0x20 DUP4 ADD SWAP1 DUP1 CALLDATASIZE DUP4 CALLDATACOPY ADD SWAP1 POP POP SWAP1 POP DUP2 PUSH1 0x1 PUSH1 0x1 PUSH1 0xA0 SHL SUB AND PUSH4 0xAD5C4648 PUSH1 0x40 MLOAD DUP2 PUSH4 0xFFFFFFFF AND PUSH1 0xE0 SHL DUP2 MSTORE PUSH1 0x4 ADD PUSH1 0x20 PUSH1 0x40 MLOAD DUP1 DUP4 SUB DUP2 DUP7 GAS STATICCALL ISZERO DUP1 ISZERO PUSH2 0x829 JUMPI RETURNDATASIZE PUSH1 0x0 DUP1 RETURNDATACOPY RETURNDATASIZE PUSH1 0x0 REVERT JUMPDEST POP POP POP POP PUSH1 0x40 MLOAD RETURNDATASIZE PUSH1 0x1F NOT PUSH1 0x1F DUP3 ADD AND DUP3 ADD DUP1 PUSH1 0x40 MSTORE POP DUP2 ADD SWAP1 PUSH2 0x84D SWAP2 SWAP1 PUSH2 0xDC1 JUMP JUMPDEST DUP2 PUSH1 0x0 DUP2 MLOAD DUP2 LT PUSH2 0x860 JUMPI PUSH2 0x860 PUSH2 0xDAB JUMP JUMPDEST PUSH1 0x20 MUL PUSH1 0x20 ADD ADD SWAP1 PUSH1 0x1 PUSH1 0x1 PUSH1 0xA0 SHL SUB AND SWAP1 DUP2 PUSH1 0x1 PUSH1 0x1 PUSH1 0xA0 SHL SUB AND DUP2 MSTORE POP POP ADDRESS DUP2 PUSH1 0x1 DUP2 MLOAD DUP2 LT PUSH2 0x894 JUMPI PUSH2 0x894 PUSH2 0xDAB JUMP JUMPDEST PUSH1 0x1 PUSH1 0x1 PUSH1 0xA0 SHL SUB SWAP3 DUP4 AND PUSH1 0x20 SWAP2 DUP3 MUL SWAP3 SWAP1 SWAP3 ADD ADD MSTORE DUP3 AND PUSH4 0xB6F9DE95 DUP5 PUSH1 0x0 DUP5 DUP9 PUSH2 0x8C2 TIMESTAMP PUSH2 0x168 PUSH2 0xD56 JUMP JUMPDEST PUSH1 0x40 MLOAD DUP7 PUSH4 0xFFFFFFFF AND PUSH1 0xE0 SHL DUP2 MSTORE PUSH1 0x4 ADD PUSH2 0x8E1 SWAP5 SWAP4 SWAP3 SWAP2 SWAP1 PUSH2 0xF35 JUMP JUMPDEST PUSH1 0x0 PUSH1 0x40 MLOAD DUP1 DUP4 SUB DUP2 DUP6 DUP9 DUP1 EXTCODESIZE ISZERO DUP1 ISZERO PUSH2 0x8FA JUMPI PUSH1 0x0 DUP1 REVERT JUMPDEST POP GAS CALL ISZERO DUP1 ISZERO PUSH2 0x90E JUMPI RETURNDATASIZE PUSH1 0x0 DUP1 RETURNDATACOPY RETURNDATASIZE PUSH1 0x0 REVERT JUMPDEST POP POP POP POP POP POP POP POP POP POP JUMP JUMPDEST DUP4 PUSH1 0x1 PUSH1 0x1 PUSH1 0xA0 SHL SUB DUP2 AND PUSH4 0xF305D719 DUP4 ADDRESS DUP7 PUSH1 0x0 DUP1 DUP11 PUSH2 0x93D TIMESTAMP PUSH2 0x168 PUSH2 0xD56 JUMP JUMPDEST PUSH1 0x40 MLOAD PUSH1 0xE0 DUP10 SWAP1 SHL PUSH1 0x1 PUSH1 0x1 PUSH1 0xE0 SHL SUB NOT AND DUP2 MSTORE PUSH1 0x1 PUSH1 0x1 PUSH1 0xA0 SHL SUB SWAP7 DUP8 AND PUSH1 0x4 DUP3 ADD MSTORE PUSH1 0x24 DUP2 ADD SWAP6 SWAP1 SWAP6 MSTORE PUSH1 0x44 DUP6 ADD SWAP4 SWAP1 SWAP4 MSTORE PUSH1 0x64 DUP5 ADD SWAP2 SWAP1 SWAP2 MSTORE SWAP1 SWAP3 AND PUSH1 0x84 DUP3 ADD MSTORE PUSH1 0xA4 DUP2 ADD SWAP2 SWAP1 SWAP2 MSTORE PUSH1 0xC4 ADD PUSH1 0x60 PUSH1 0x40 MLOAD DUP1 DUP4 SUB DUP2 DUP6 DUP9 GAS CALL ISZERO DUP1 ISZERO PUSH2 0x9AA JUMPI RETURNDATASIZE PUSH1 0x0 DUP1 RETURNDATACOPY RETURNDATASIZE PUSH1 0x0 REVERT JUMPDEST POP POP POP POP POP PUSH1 0x40 MLOAD RETURNDATASIZE PUSH1 0x1F NOT PUSH1 0x1F DUP3 ADD AND DUP3 ADD DUP1 PUSH1 0x40 MSTORE POP DUP2 ADD SWAP1 PUSH2 0x407 SWAP2 SWAP1 PUSH2 0xF6A JUMP JUMPDEST PUSH1 0x0 DUP3 PUSH1 0x0 SUB PUSH2 0x9E1 JUMPI POP PUSH1 0x0 PUSH2 0x773 JUMP JUMPDEST PUSH1 0x0 PUSH2 0x9ED DUP4 DUP6 PUSH2 0xD1D JUMP JUMPDEST SWAP1 POP DUP3 PUSH2 0x9FA DUP6 DUP4 PUSH2 0xD34 JUMP JUMPDEST EQ PUSH2 0xA56 JUMPI PUSH1 0x40 MLOAD PUSH3 0x461BCD PUSH1 0xE5 SHL DUP2 MSTORE PUSH1 0x20 PUSH1 0x4 DUP3 ADD MSTORE PUSH1 0x21 PUSH1 0x24 DUP3 ADD MSTORE PUSH32 0x536166654D6174683A206D756C7469706C69636174696F6E206F766572666C6F PUSH1 0x44 DUP3 ADD MSTORE PUSH1 0x77 PUSH1 0xF8 SHL PUSH1 0x64 DUP3 ADD MSTORE PUSH1 0x84 ADD JUMPDEST PUSH1 0x40 MLOAD DUP1 SWAP2 SUB SWAP1 REVERT JUMPDEST SWAP4 SWAP3 POP POP POP JUMP JUMPDEST PUSH1 0x0 PUSH2 0xA56 DUP4 DUP4 PUSH1 0x40 MLOAD DUP1 PUSH1 0x40 ADD PUSH1 0x40 MSTORE DUP1 PUSH1 0x1A DUP2 MSTORE PUSH1 0x20 ADD PUSH32 0x536166654D6174683A206469766973696F6E206279207A65726F000000000000 DUP2 MSTORE POP PUSH1 0x0 DUP2 DUP4 PUSH2 0xABB JUMPI PUSH1 0x40 MLOAD PUSH3 0x461BCD PUSH1 0xE5 SHL DUP2 MSTORE PUSH1 0x4 ADD PUSH2 0xA4D SWAP2 SWAP1 PUSH2 0xF98 JUMP JUMPDEST POP PUSH1 0x0 PUSH2 0xAC8 DUP5 DUP7 PUSH2 0xD34 JUMP JUMPDEST SWAP6 SWAP5 POP POP POP POP POP JUMP JUMPDEST PUSH1 0x0 DUP1 PUSH1 0x0 DUP1 PUSH1 0x80 DUP6 DUP8 SUB SLT ISZERO PUSH2 0xAE7 JUMPI PUSH1 0x0 DUP1 REVERT JUMPDEST POP POP DUP3 CALLDATALOAD SWAP5 PUSH1 0x20 DUP5 ADD CALLDATALOAD SWAP5 POP PUSH1 0x40 DUP5 ADD CALLDATALOAD SWAP4 PUSH1 0x60 ADD CALLDATALOAD SWAP3 POP SWAP1 POP JUMP JUMPDEST PUSH1 0x1 PUSH1 0x1 PUSH1 0xA0 SHL SUB DUP2 AND DUP2 EQ PUSH2 0xB18 JUMPI PUSH1 0x0 DUP1 REVERT JUMPDEST POP JUMP JUMPDEST PUSH1 0x0 DUP1 PUSH1 0x40 DUP4 DUP6 SUB SLT ISZERO PUSH2 0xB2E JUMPI PUSH1 0x0 DUP1 REVERT JUMPDEST DUP3 CALLDATALOAD PUSH2 0xB39 DUP2 PUSH2 0xB03 JUMP JUMPDEST SWAP5 PUSH1 0x20 SWAP4 SWAP1 SWAP4 ADD CALLDATALOAD SWAP4 POP POP POP JUMP JUMPDEST PUSH1 0x0 PUSH1 0x20 DUP3 DUP5 SUB SLT ISZERO PUSH2 0xB59 JUMPI PUSH1 0x0 DUP1 REVERT JUMPDEST POP CALLDATALOAD SWAP2 SWAP1 POP JUMP JUMPDEST PUSH1 0x0 DUP1 PUSH1 0x0 PUSH1 0x60 DUP5 DUP7 SUB SLT ISZERO PUSH2 0xB75 JUMPI PUSH1 0x0 DUP1 REVERT JUMPDEST DUP4 CALLDATALOAD PUSH2 0xB80 DUP2 PUSH2 0xB03 JUMP JUMPDEST SWAP3 POP PUSH1 0x20 DUP5 ADD CALLDATALOAD PUSH2 0xB90 DUP2 PUSH2 0xB03 JUMP JUMPDEST SWAP3 SWAP6 SWAP3 SWAP5 POP POP POP PUSH1 0x40 SWAP2 SWAP1 SWAP2 ADD CALLDATALOAD SWAP1 JUMP JUMPDEST PUSH1 0x0 DUP1 PUSH1 0x40 DUP4 DUP6 SUB SLT ISZERO PUSH2 0xBB4 JUMPI PUSH1 0x0 DUP1 REVERT JUMPDEST DUP3 CALLDATALOAD SWAP2 POP PUSH1 0x20 DUP4 ADD CALLDATALOAD PUSH2 0xBC6 DUP2 PUSH2 0xB03 JUMP JUMPDEST DUP1 SWAP2 POP POP SWAP3 POP SWAP3 SWAP1 POP JUMP JUMPDEST PUSH1 0x0 DUP1 PUSH1 0x0 DUP1 PUSH1 0x80 DUP6 DUP8 SUB SLT ISZERO PUSH2 0xBE7 JUMPI PUSH1 0x0 DUP1 REVERT JUMPDEST DUP5 CALLDATALOAD PUSH2 0xBF2 DUP2 PUSH2 0xB03 JUMP JUMPDEST SWAP4 POP PUSH1 0x20 DUP6 ADD CALLDATALOAD PUSH2 0xC02 DUP2 PUSH2 0xB03 JUMP JUMPDEST SWAP4 SWAP7 SWAP4 SWAP6 POP POP POP POP PUSH1 0x40 DUP3 ADD CALLDATALOAD SWAP2 PUSH1 0x60 ADD CALLDATALOAD SWAP1 JUMP JUMPDEST PUSH4 0x4E487B71 PUSH1 0xE0 SHL PUSH1 0x0 MSTORE PUSH1 0x11 PUSH1 0x4 MSTORE PUSH1 0x24 PUSH1 0x0 REVERT JUMPDEST PUSH1 0x1 DUP2 DUP2 JUMPDEST DUP1 DUP6 GT ISZERO PUSH2 0xC68 JUMPI DUP2 PUSH1 0x0 NOT DIV DUP3 GT ISZERO PUSH2 0xC4E JUMPI PUSH2 0xC4E PUSH2 0xC17 JUMP JUMPDEST DUP1 DUP6 AND ISZERO PUSH2 0xC5B JUMPI SWAP2 DUP2 MUL SWAP2 JUMPDEST SWAP4 DUP5 SHR SWAP4 SWAP1 DUP1 MUL SWAP1 PUSH2 0xC32 JUMP JUMPDEST POP SWAP3 POP SWAP3 SWAP1 POP JUMP JUMPDEST PUSH1 0x0 DUP3 PUSH2 0xC7F JUMPI POP PUSH1 0x1 PUSH2 0x773 JUMP JUMPDEST DUP2 PUSH2 0xC8C JUMPI POP PUSH1 0x0 PUSH2 0x773 JUMP JUMPDEST DUP2 PUSH1 0x1 DUP2 EQ PUSH2 0xCA2 JUMPI PUSH1 0x2 DUP2 EQ PUSH2 0xCAC JUMPI PUSH2 0xCC8 JUMP JUMPDEST PUSH1 0x1 SWAP2 POP POP PUSH2 0x773 JUMP JUMPDEST PUSH1 0xFF DUP5 GT ISZERO PUSH2 0xCBD JUMPI PUSH2 0xCBD PUSH2 0xC17 JUMP JUMPDEST POP POP PUSH1 0x1 DUP3 SHL PUSH2 0x773 JUMP JUMPDEST POP PUSH1 0x20 DUP4 LT PUSH2 0x133 DUP4 LT AND PUSH1 0x4E DUP5 LT PUSH1 0xB DUP5 LT AND OR ISZERO PUSH2 0xCEB JUMPI POP DUP2 DUP2 EXP PUSH2 0x773 JUMP JUMPDEST PUSH2 0xCF5 DUP4 DUP4 PUSH2 0xC2D JUMP JUMPDEST DUP1 PUSH1 0x0 NOT DIV DUP3 GT ISZERO PUSH2 0xD09 JUMPI PUSH2 0xD09 PUSH2 0xC17 JUMP JUMPDEST MUL SWAP4 SWAP3 POP POP POP JUMP JUMPDEST PUSH1 0x0 PUSH2 0xA56 DUP4 DUP4 PUSH2 0xC70 JUMP JUMPDEST DUP1 DUP3 MUL DUP2 ISZERO DUP3 DUP3 DIV DUP5 EQ OR PUSH2 0x773 JUMPI PUSH2 0x773 PUSH2 0xC17 JUMP JUMPDEST PUSH1 0x0 DUP3 PUSH2 0xD51 JUMPI PUSH4 0x4E487B71 PUSH1 0xE0 SHL PUSH1 0x0 MSTORE PUSH1 0x12 PUSH1 0x4 MSTORE PUSH1 0x24 PUSH1 0x0 REVERT JUMPDEST POP DIV SWAP1 JUMP JUMPDEST DUP1 DUP3 ADD DUP1 DUP3 GT ISZERO PUSH2 0x773 JUMPI PUSH2 0x773 PUSH2 0xC17 JUMP JUMPDEST DUP2 DUP2 SUB DUP2 DUP2 GT ISZERO PUSH2 0x773 JUMPI PUSH2 0x773 PUSH2 0xC17 JUMP JUMPDEST PUSH1 0x0 PUSH1 0x1 DUP3 ADD PUSH2 0xD8E JUMPI PUSH2 0xD8E PUSH2 0xC17 JUMP JUMPDEST POP PUSH1 0x1 ADD SWAP1 JUMP JUMPDEST PUSH4 0x4E487B71 PUSH1 0xE0 SHL PUSH1 0x0 MSTORE PUSH1 0x41 PUSH1 0x4 MSTORE PUSH1 0x24 PUSH1 0x0 REVERT JUMPDEST PUSH4 0x4E487B71 PUSH1 0xE0 SHL PUSH1 0x0 MSTORE PUSH1 0x32 PUSH1 0x4 MSTORE PUSH1 0x24 PUSH1 0x0 REVERT JUMPDEST PUSH1 0x0 PUSH1 0x20 DUP3 DUP5 SUB SLT ISZERO PUSH2 0xDD3 JUMPI PUSH1 0x0 DUP1 REVERT JUMPDEST DUP2 MLOAD PUSH2 0xA56 DUP2 PUSH2 0xB03 JUMP JUMPDEST PUSH1 0x0 DUP2 MLOAD DUP1 DUP5 MSTORE PUSH1 0x20 DUP1 DUP6 ADD SWAP5 POP DUP1 DUP5 ADD PUSH1 0x0 JUMPDEST DUP4 DUP2 LT ISZERO PUSH2 0xE17 JUMPI DUP2 MLOAD PUSH1 0x1 PUSH1 0x1 PUSH1 0xA0 SHL SUB AND DUP8 MSTORE SWAP6 DUP3 ADD SWAP6 SWAP1 DUP3 ADD SWAP1 PUSH1 0x1 ADD PUSH2 0xDF2 JUMP JUMPDEST POP SWAP5 SWAP6 SWAP5 POP POP POP POP POP JUMP JUMPDEST DUP6 DUP2 MSTORE DUP5 PUSH1 0x20 DUP3 ADD MSTORE PUSH1 0xA0 PUSH1 0x40 DUP3 ADD MSTORE PUSH1 0x0 PUSH2 0xE41 PUSH1 0xA0 DUP4 ADD DUP7 PUSH2 0xDDE JUMP JUMPDEST PUSH1 0x1 PUSH1 0x1 PUSH1 0xA0 SHL SUB SWAP5 SWAP1 SWAP5 AND PUSH1 0x60 DUP4 ADD MSTORE POP PUSH1 0x80 ADD MSTORE SWAP4 SWAP3 POP POP POP JUMP JUMPDEST DUP3 DUP2 MSTORE PUSH1 0x40 PUSH1 0x20 DUP3 ADD MSTORE PUSH1 0x0 PUSH2 0x1D4 PUSH1 0x40 DUP4 ADD DUP5 PUSH2 0xDDE JUMP JUMPDEST PUSH1 0x0 PUSH1 0x20 DUP1 DUP4 DUP6 SUB SLT ISZERO PUSH2 0xE8A JUMPI PUSH1 0x0 DUP1 REVERT JUMPDEST DUP3 MLOAD PUSH8 0xFFFFFFFFFFFFFFFF DUP1 DUP3 GT ISZERO PUSH2 0xEA2 JUMPI PUSH1 0x0 DUP1 REVERT JUMPDEST DUP2 DUP6 ADD SWAP2 POP DUP6 PUSH1 0x1F DUP4 ADD SLT PUSH2 0xEB6 JUMPI PUSH1 0x0 DUP1 REVERT JUMPDEST DUP2 MLOAD DUP2 DUP2 GT ISZERO PUSH2 0xEC8 JUMPI PUSH2 0xEC8 PUSH2 0xD95 JUMP JUMPDEST DUP1 PUSH1 0x5 SHL PUSH1 0x40 MLOAD PUSH1 0x1F NOT PUSH1 0x3F DUP4 ADD AND DUP2 ADD DUP2 DUP2 LT DUP6 DUP3 GT OR ISZERO PUSH2 0xEED JUMPI PUSH2 0xEED PUSH2 0xD95 JUMP JUMPDEST PUSH1 0x40 MSTORE SWAP2 DUP3 MSTORE DUP5 DUP3 ADD SWAP3 POP DUP4 DUP2 ADD DUP6 ADD SWAP2 DUP9 DUP4 GT ISZERO PUSH2 0xF0B JUMPI PUSH1 0x0 DUP1 REVERT JUMPDEST SWAP4 DUP6 ADD SWAP4 JUMPDEST DUP3 DUP6 LT ISZERO PUSH2 0xF29 JUMPI DUP5 MLOAD DUP5 MSTORE SWAP4 DUP6 ADD SWAP4 SWAP3 DUP6 ADD SWAP3 PUSH2 0xF10 JUMP JUMPDEST SWAP9 SWAP8 POP POP POP POP POP POP POP POP JUMP JUMPDEST DUP5 DUP2 MSTORE PUSH1 0x80 PUSH1 0x20 DUP3 ADD MSTORE PUSH1 0x0 PUSH2 0xF4E PUSH1 0x80 DUP4 ADD DUP7 PUSH2 0xDDE JUMP JUMPDEST PUSH1 0x1 PUSH1 0x1 PUSH1 0xA0 SHL SUB SWAP5 SWAP1 SWAP5 AND PUSH1 0x40 DUP4 ADD MSTORE POP PUSH1 0x60 ADD MSTORE SWAP3 SWAP2 POP POP JUMP JUMPDEST PUSH1 0x0 DUP1 PUSH1 0x0 PUSH1 0x60 DUP5 DUP7 SUB SLT ISZERO PUSH2 0xF7F JUMPI PUSH1 0x0 DUP1 REVERT JUMPDEST DUP4 MLOAD SWAP3 POP PUSH1 0x20 DUP5 ADD MLOAD SWAP2 POP PUSH1 0x40 DUP5 ADD MLOAD SWAP1 POP SWAP3 POP SWAP3 POP SWAP3 JUMP JUMPDEST PUSH1 0x0 PUSH1 0x20 DUP1 DUP4 MSTORE DUP4 MLOAD DUP1 DUP3 DUP6 ADD MSTORE PUSH1 0x0 JUMPDEST DUP2 DUP2 LT ISZERO PUSH2 0xFC5 JUMPI DUP6 DUP2 ADD DUP4 ADD MLOAD DUP6 DUP3 ADD PUSH1 0x40 ADD MSTORE DUP3 ADD PUSH2 0xFA9 JUMP JUMPDEST POP PUSH1 0x0 PUSH1 0x40 DUP3 DUP7 ADD ADD MSTORE PUSH1 0x40 PUSH1 0x1F NOT PUSH1 0x1F DUP4 ADD AND DUP6 ADD ADD SWAP3 POP POP POP SWAP3 SWAP2 POP POP JUMP INVALID LOG2 PUSH5 0x6970667358 0x22 SLT KECCAK256 0xBA LOG0 0xA5 0xEA MULMOD SWAP7 PUSH14 0x24B57B57B01C25A0303874BFB771 CALL 0xD5 PUSH3 0x88EED0 0xB1 0xF7 0xC8 0xB3 0xF7 PUSH5 0x736F6C6343 STOP ADDMOD ISZERO STOP CALLER "},"methodIdentifiers":{"addLiquidity(address,address,uint256,uint256)":"cf6c62ea","calcReward(uint256,uint256,uint256,uint256)":"4432ba7f","calculateBNBReward(uint256,uint256,uint256,uint256)":"33065a3a","calculateTopUpClaim(uint256,uint256,uint256,uint256)":"8958b5a9","getAmountsout(uint256,address)":"7e5bfbed","getAntiFlipTaxNo(uint256)":"6b0f4a74","swapETHForTokens(address,address,uint256)":"c549d3ae","swapTokensForEth(address,uint256)":"56feb11b","swapTokensForTokens(address,address,uint256)":"7b1c1776"}},"storageLayout":{"storage":[],"types":null}}}}