{"contracts/Logic.sol":{"Logic":{"abi":[{"anonymous":false,"inputs":[],"name":"CallSuccess","type":"event"},{"inputs":[],"name":"implementation","outputs":[{"internalType":"address","name":"","type":"address"}],"stateMutability":"view","type":"function"},{"inputs":[],"name":"increment","outputs":[{"internalType":"uint256","name":"","type":"uint256"}],"stateMutability":"nonpayable","type":"function"},{"inputs":[],"name":"x","outputs":[{"internalType":"uint256","name":"","type":"uint256"}],"stateMutability":"view","type":"function"}],"evm":{"bytecode":{"linkReferences":{},"object":"6080604052606360015534801561001557600080fd5b5061011e806100256000396000f3fe6080604052348015600f57600080fd5b5060043610603c5760003560e01c80630c55699c1460415780635c60da1b14605c578063d09de08a146085575b600080fd5b604960015481565b6040519081526020015b60405180910390f35b600054606e906001600160a01b031681565b6040516001600160a01b0390911681526020016053565b60496040516000907fd4c1379b05055358f3fa6e4ccdfedb07a73d2b3698e95c42d8dc5838961737e3908290a16001805460bd9160c2565b905090565b8082018082111560e257634e487b7160e01b600052601160045260246000fd5b9291505056fea26469706673582212205968a151bdd3397e1cc44e90e5367f51cfee9db44ba0a16f6e456706cd668b5e64736f6c63430008150033","opcodes":"PUSH1 0x80 PUSH1 0x40 MSTORE PUSH1 0x63 PUSH1 0x1 SSTORE CALLVALUE DUP1 ISZERO PUSH2 0x15 JUMPI PUSH1 0x0 DUP1 REVERT JUMPDEST POP PUSH2 0x11E DUP1 PUSH2 0x25 PUSH1 0x0 CODECOPY PUSH1 0x0 RETURN INVALID PUSH1 0x80 PUSH1 0x40 MSTORE CALLVALUE DUP1 ISZERO PUSH1 0xF JUMPI PUSH1 0x0 DUP1 REVERT JUMPDEST POP PUSH1 0x4 CALLDATASIZE LT PUSH1 0x3C JUMPI PUSH1 0x0 CALLDATALOAD PUSH1 0xE0 SHR DUP1 PUSH4 0xC55699C EQ PUSH1 0x41 JUMPI DUP1 PUSH4 0x5C60DA1B EQ PUSH1 0x5C JUMPI DUP1 PUSH4 0xD09DE08A EQ PUSH1 0x85 JUMPI JUMPDEST PUSH1 0x0 DUP1 REVERT JUMPDEST PUSH1 0x49 PUSH1 0x1 SLOAD DUP2 JUMP JUMPDEST PUSH1 0x40 MLOAD SWAP1 DUP2 MSTORE PUSH1 0x20 ADD JUMPDEST PUSH1 0x40 MLOAD DUP1 SWAP2 SUB SWAP1 RETURN JUMPDEST PUSH1 0x0 SLOAD PUSH1 0x6E SWAP1 PUSH1 0x1 PUSH1 0x1 PUSH1 0xA0 SHL SUB AND DUP2 JUMP JUMPDEST PUSH1 0x40 MLOAD PUSH1 0x1 PUSH1 0x1 PUSH1 0xA0 SHL SUB SWAP1 SWAP2 AND DUP2 MSTORE PUSH1 0x20 ADD PUSH1 0x53 JUMP JUMPDEST PUSH1 0x49 PUSH1 0x40 MLOAD PUSH1 0x0 SWAP1 PUSH32 0xD4C1379B05055358F3FA6E4CCDFEDB07A73D2B3698E95C42D8DC5838961737E3 SWAP1 DUP3 SWAP1 LOG1 PUSH1 0x1 DUP1 SLOAD PUSH1 0xBD SWAP2 PUSH1 0xC2 JUMP JUMPDEST SWAP1 POP SWAP1 JUMP JUMPDEST DUP1 DUP3 ADD DUP1 DUP3 GT ISZERO PUSH1 0xE2 JUMPI PUSH4 0x4E487B71 PUSH1 0xE0 SHL PUSH1 0x0 MSTORE PUSH1 0x11 PUSH1 0x4 MSTORE PUSH1 0x24 PUSH1 0x0 REVERT JUMPDEST SWAP3 SWAP2 POP POP JUMP INVALID LOG2 PUSH5 0x6970667358 0x22 SLT KECCAK256 MSIZE PUSH9 0xA151BDD3397E1CC44E SWAP1 0xE5 CALLDATASIZE PUSH32 0x51CFEE9DB44BA0A16F6E456706CD668B5E64736F6C6343000815003300000000 "},"methodIdentifiers":{"implementation()":"5c60da1b","increment()":"d09de08a","x()":"0c55699c"}},"storageLayout":{"storage":[{"astId":5846,"contract":"contracts/Logic.sol:Logic","label":"implementation","offset":0,"slot":"0","type":"t_address"},{"astId":5849,"contract":"contracts/Logic.sol:Logic","label":"x","offset":0,"slot":"1","type":"t_uint256"}],"types":{"t_address":{"encoding":"inplace","label":"address","numberOfBytes":"20"},"t_uint256":{"encoding":"inplace","label":"uint256","numberOfBytes":"32"}}}}}}