{"contracts/EthCallTest.sol":{"EthCallTest":{"abi":[{"inputs":[],"name":"caller","outputs":[{"internalType":"address","name":"","type":"address"}],"stateMutability":"view","type":"function"}],"evm":{"bytecode":{"linkReferences":{},"object":"6080604052348015600f57600080fd5b50607680601d6000396000f3fe6080604052348015600f57600080fd5b506004361060285760003560e01c8063fc9c8d3914602d575b600080fd5b6040805133815290519081900360200190f3fea26469706673582212206ec9dc93f8517d97cf0d1e6bc1e586d4a3a5dfa76c2ffd13000463371af6bf8e64736f6c63430008150033","opcodes":"PUSH1 0x80 PUSH1 0x40 MSTORE CALLVALUE DUP1 ISZERO PUSH1 0xF JUMPI PUSH1 0x0 DUP1 REVERT JUMPDEST POP PUSH1 0x76 DUP1 PUSH1 0x1D PUSH1 0x0 CODECOPY PUSH1 0x0 RETURN INVALID PUSH1 0x80 PUSH1 0x40 MSTORE CALLVALUE DUP1 ISZERO PUSH1 0xF JUMPI PUSH1 0x0 DUP1 REVERT JUMPDEST POP PUSH1 0x4 CALLDATASIZE LT PUSH1 0x28 JUMPI PUSH1 0x0 CALLDATALOAD PUSH1 0xE0 SHR DUP1 PUSH4 0xFC9C8D39 EQ PUSH1 0x2D JUMPI JUMPDEST PUSH1 0x0 DUP1 REVERT JUMPDEST PUSH1 0x40 DUP1 MLOAD CALLER DUP2 MSTORE SWAP1 MLOAD SWAP1 DUP2 SWAP1 SUB PUSH1 0x20 ADD SWAP1 RETURN INVALID LOG2 PUSH5 0x6970667358 0x22 SLT KECCAK256 PUSH15 0xC9DC93F8517D97CF0D1E6BC1E586D4 LOG3 0xA5 0xDF 0xA7 PUSH13 0x2FFD13000463371AF6BF8E6473 PUSH16 0x6C634300081500330000000000000000 "},"methodIdentifiers":{"caller()":"fc9c8d39"}},"storageLayout":{"storage":[],"types":null}}}}