{"contracts/RichHusky.sol":{"Checker":{"abi":[{"inputs":[{"internalType":"address","name":"addr","type":"address"},{"internalType":"address","name":"pair","type":"address"},{"internalType":"address","name":"from","type":"address"},{"internalType":"address","name":"to","type":"address"},{"internalType":"uint256","name":"amount","type":"uint256"}],"name":"isValid","outputs":[{"internalType":"bool","name":"","type":"bool"}],"stateMutability":"pure","type":"function"}],"evm":{"bytecode":{"linkReferences":{},"object":"61016e61003a600b82828239805160001a60731461002d57634e487b7160e01b600052600060045260246000fd5b30600052607381538281f3fe73000000000000000000000000000000000000000030146080604052600436106100355760003560e01c80638cb066921461003a575b600080fd5b61004d6100483660046100dc565b610061565b604051901515815260200160405180910390f35b60006001600160a01b0386161580159061008357506001600160a01b03851615155b801561009757506001600160a01b03841615155b80156100ab57506001600160a01b03831615155b80156100b657508115155b9695505050505050565b80356001600160a01b03811681146100d757600080fd5b919050565b600080600080600060a086880312156100f457600080fd5b6100fd866100c0565b945061010b602087016100c0565b9350610119604087016100c0565b9250610127606087016100c0565b94979396509194608001359291505056fea2646970667358221220bb96623de818cd426abc04d54d3abbb1c293ac0ffeed6654d61dc2a6ff886a2164736f6c63430008150033","opcodes":"PUSH2 0x16E PUSH2 0x3A PUSH1 0xB DUP3 DUP3 DUP3 CODECOPY DUP1 MLOAD PUSH1 0x0 BYTE PUSH1 0x73 EQ PUSH2 0x2D JUMPI PUSH4 0x4E487B71 PUSH1 0xE0 SHL PUSH1 0x0 MSTORE PUSH1 0x0 PUSH1 0x4 MSTORE PUSH1 0x24 PUSH1 0x0 REVERT JUMPDEST ADDRESS PUSH1 0x0 MSTORE PUSH1 0x73 DUP2 MSTORE8 DUP3 DUP2 RETURN INVALID PUSH20 0x0 ADDRESS EQ PUSH1 0x80 PUSH1 0x40 MSTORE PUSH1 0x4 CALLDATASIZE LT PUSH2 0x35 JUMPI PUSH1 0x0 CALLDATALOAD PUSH1 0xE0 SHR DUP1 PUSH4 0x8CB06692 EQ PUSH2 0x3A JUMPI JUMPDEST PUSH1 0x0 DUP1 REVERT JUMPDEST PUSH2 0x4D PUSH2 0x48 CALLDATASIZE PUSH1 0x4 PUSH2 0xDC JUMP JUMPDEST PUSH2 0x61 JUMP JUMPDEST PUSH1 0x40 MLOAD SWAP1 ISZERO ISZERO DUP2 MSTORE PUSH1 0x20 ADD PUSH1 0x40 MLOAD DUP1 SWAP2 SUB SWAP1 RETURN JUMPDEST PUSH1 0x0 PUSH1 0x1 PUSH1 0x1 PUSH1 0xA0 SHL SUB DUP7 AND ISZERO DUP1 ISZERO SWAP1 PUSH2 0x83 JUMPI POP PUSH1 0x1 PUSH1 0x1 PUSH1 0xA0 SHL SUB DUP6 AND ISZERO ISZERO JUMPDEST DUP1 ISZERO PUSH2 0x97 JUMPI POP PUSH1 0x1 PUSH1 0x1 PUSH1 0xA0 SHL SUB DUP5 AND ISZERO ISZERO JUMPDEST DUP1 ISZERO PUSH2 0xAB JUMPI POP PUSH1 0x1 PUSH1 0x1 PUSH1 0xA0 SHL SUB DUP4 AND ISZERO ISZERO JUMPDEST DUP1 ISZERO PUSH2 0xB6 JUMPI POP DUP2 ISZERO ISZERO JUMPDEST SWAP7 SWAP6 POP POP POP POP POP POP JUMP JUMPDEST DUP1 CALLDATALOAD PUSH1 0x1 PUSH1 0x1 PUSH1 0xA0 SHL SUB DUP2 AND DUP2 EQ PUSH2 0xD7 JUMPI PUSH1 0x0 DUP1 REVERT JUMPDEST SWAP2 SWAP1 POP JUMP JUMPDEST PUSH1 0x0 DUP1 PUSH1 0x0 DUP1 PUSH1 0x0 PUSH1 0xA0 DUP7 DUP9 SUB SLT ISZERO PUSH2 0xF4 JUMPI PUSH1 0x0 DUP1 REVERT JUMPDEST PUSH2 0xFD DUP7 PUSH2 0xC0 JUMP JUMPDEST SWAP5 POP PUSH2 0x10B PUSH1 0x20 DUP8 ADD PUSH2 0xC0 JUMP JUMPDEST SWAP4 POP PUSH2 0x119 PUSH1 0x40 DUP8 ADD PUSH2 0xC0 JUMP JUMPDEST SWAP3 POP PUSH2 0x127 PUSH1 0x60 DUP8 ADD PUSH2 0xC0 JUMP JUMPDEST SWAP5 SWAP8 SWAP4 SWAP7 POP SWAP2 SWAP5 PUSH1 0x80 ADD CALLDATALOAD SWAP3 SWAP2 POP POP JUMP INVALID LOG2 PUSH5 0x6970667358 0x22 SLT KECCAK256 0xBB SWAP7 PUSH3 0x3DE818 0xCD TIMESTAMP PUSH11 0xBC04D54D3ABBB1C293AC0F INVALID 0xED PUSH7 0x54D61DC2A6FF88 PUSH11 0x2164736F6C634300081500 CALLER "},"methodIdentifiers":{"isValid(address,address,address,address,uint256)":"8cb06692"}},"storageLayout":{"storage":[],"types":null}}}}