{"contracts/Proxy.sol":{"Proxy":{"abi":[{"stateMutability":"payable","type":"fallback"},{"inputs":[],"name":"implementation","outputs":[{"internalType":"address","name":"","type":"address"}],"stateMutability":"view","type":"function"},{"stateMutability":"payable","type":"receive"}],"evm":{"bytecode":{"linkReferences":{},"object":"6080604052600080546001600160a01b03191673a0d707c3fc25c4e0fe47dbfee888a558e7354fef17905534801561003657600080fd5b5060c4806100456000396000f3fe608060405260043610601f5760003560e01c80635c60da1b14603157602b565b36602b576029606b565b005b6029606b565b348015603c57600080fd5b50600054604f906001600160a01b031681565b6040516001600160a01b03909116815260200160405180910390f35b600080543682833781823684845af490503d82833e808015608a573d83f35b3d83fdfea2646970667358221220f28b51b6f23f2633cab8298616c57ea7f6599853d7b4378686635195888a602364736f6c63430008150033","opcodes":"PUSH1 0x80 PUSH1 0x40 MSTORE PUSH1 0x0 DUP1 SLOAD PUSH1 0x1 PUSH1 0x1 PUSH1 0xA0 SHL SUB NOT AND PUSH20 0xA0D707C3FC25C4E0FE47DBFEE888A558E7354FEF OR SWAP1 SSTORE CALLVALUE DUP1 ISZERO PUSH2 0x36 JUMPI PUSH1 0x0 DUP1 REVERT JUMPDEST POP PUSH1 0xC4 DUP1 PUSH2 0x45 PUSH1 0x0 CODECOPY PUSH1 0x0 RETURN INVALID PUSH1 0x80 PUSH1 0x40 MSTORE PUSH1 0x4 CALLDATASIZE LT PUSH1 0x1F JUMPI PUSH1 0x0 CALLDATALOAD PUSH1 0xE0 SHR DUP1 PUSH4 0x5C60DA1B EQ PUSH1 0x31 JUMPI PUSH1 0x2B JUMP JUMPDEST CALLDATASIZE PUSH1 0x2B JUMPI PUSH1 0x29 PUSH1 0x6B JUMP JUMPDEST STOP JUMPDEST PUSH1 0x29 PUSH1 0x6B JUMP JUMPDEST CALLVALUE DUP1 ISZERO PUSH1 0x3C JUMPI PUSH1 0x0 DUP1 REVERT JUMPDEST POP PUSH1 0x0 SLOAD PUSH1 0x4F SWAP1 PUSH1 0x1 PUSH1 0x1 PUSH1 0xA0 SHL SUB AND DUP2 JUMP JUMPDEST PUSH1 0x40 MLOAD PUSH1 0x1 PUSH1 0x1 PUSH1 0xA0 SHL SUB SWAP1 SWAP2 AND DUP2 MSTORE PUSH1 0x20 ADD PUSH1 0x40 MLOAD DUP1 SWAP2 SUB SWAP1 RETURN JUMPDEST PUSH1 0x0 DUP1 SLOAD CALLDATASIZE DUP3 DUP4 CALLDATACOPY DUP2 DUP3 CALLDATASIZE DUP5 DUP5 GAS DELEGATECALL SWAP1 POP RETURNDATASIZE DUP3 DUP4 RETURNDATACOPY DUP1 DUP1 ISZERO PUSH1 0x8A JUMPI RETURNDATASIZE DUP4 RETURN JUMPDEST RETURNDATASIZE DUP4 REVERT INVALID LOG2 PUSH5 0x6970667358 0x22 SLT KECCAK256 CALLCODE DUP12 MLOAD 0xB6 CALLCODE EXTCODEHASH 0x26 CALLER 0xCA 0xB8 0x29 DUP7 AND 0xC5 PUSH31 0xA7F6599853D7B4378686635195888A602364736F6C63430008150033000000 "},"methodIdentifiers":{"implementation()":"5c60da1b"}},"storageLayout":{"storage":[{"astId":6509,"contract":"contracts/Proxy.sol:Proxy","label":"implementation","offset":0,"slot":"0","type":"t_address"}],"types":{"t_address":{"encoding":"inplace","label":"address","numberOfBytes":"20"}}}}}}