{
  "_format": "hh-sol-artifact-1",
  "contractName": "FistDao",
  "sourceName": "contracts/FirstDao.sol",
  "abi": [
    {
      "inputs": [
        {
          "internalType": "string",
          "name": "setName",
          "type": "string"
        },
        {
          "internalType": "string",
          "name": "setSymbol",
          "type": "string"
        }
      ],
      "stateMutability": "nonpayable",
      "type": "constructor"
    },
    {
      "anonymous": false,
      "inputs": [
        {
          "indexed": true,
          "internalType": "address",
          "name": "owner",
          "type": "address"
        },
        {
          "indexed": true,
          "internalType": "address",
          "name": "spender",
          "type": "address"
        },
        {
          "indexed": false,
          "internalType": "uint256",
          "name": "value",
          "type": "uint256"
        }
      ],
      "name": "Approval",
      "type": "event"
    },
    {
      "anonymous": false,
      "inputs": [
        {
          "indexed": true,
          "internalType": "address",
          "name": "previousOwner",
          "type": "address"
        },
        {
          "indexed": true,
          "internalType": "address",
          "name": "newOwner",
          "type": "address"
        }
      ],
      "name": "OwnershipTransferred",
      "type": "event"
    },
    {
      "anonymous": false,
      "inputs": [
        {
          "indexed": true,
          "internalType": "address",
          "name": "from",
          "type": "address"
        },
        {
          "indexed": true,
          "internalType": "address",
          "name": "to",
          "type": "address"
        },
        {
          "indexed": false,
          "internalType": "uint256",
          "name": "value",
          "type": "uint256"
        }
      ],
      "name": "Transfer",
      "type": "event"
    },
    {
      "inputs": [
        {
          "internalType": "address",
          "name": "owner",
          "type": "address"
        },
        {
          "internalType": "address",
          "name": "spender",
          "type": "address"
        }
      ],
      "name": "allowance",
      "outputs": [
        {
          "internalType": "uint256",
          "name": "",
          "type": "uint256"
        }
      ],
      "stateMutability": "view",
      "type": "function"
    },
    {
      "inputs": [
        {
          "internalType": "address",
          "name": "spender",
          "type": "address"
        },
        {
          "internalType": "uint256",
          "name": "value",
          "type": "uint256"
        }
      ],
      "name": "approve",
      "outputs": [
        {
          "internalType": "bool",
          "name": "",
          "type": "bool"
        }
      ],
      "stateMutability": "nonpayable",
      "type": "function"
    },
    {
      "inputs": [
        {
          "internalType": "address",
          "name": "account",
          "type": "address"
        }
      ],
      "name": "balanceOf",
      "outputs": [
        {
          "internalType": "uint256",
          "name": "",
          "type": "uint256"
        }
      ],
      "stateMutability": "view",
      "type": "function"
    },
    {
      "inputs": [
        {
          "internalType": "address",
          "name": "token",
          "type": "address"
        },
        {
          "internalType": "uint256",
          "name": "amount",
          "type": "uint256"
        }
      ],
      "name": "claim",
      "outputs": [],
      "stateMutability": "nonpayable",
      "type": "function"
    },
    {
      "inputs": [],
      "name": "decimals",
      "outputs": [
        {
          "internalType": "uint8",
          "name": "",
          "type": "uint8"
        }
      ],
      "stateMutability": "view",
      "type": "function"
    },
    {
      "inputs": [
        {
          "internalType": "address",
          "name": "spender",
          "type": "address"
        },
        {
          "internalType": "uint256",
          "name": "subtractedValue",
          "type": "uint256"
        }
      ],
      "name": "decreaseAllowance",
      "outputs": [
        {
          "internalType": "bool",
          "name": "",
          "type": "bool"
        }
      ],
      "stateMutability": "nonpayable",
      "type": "function"
    },
    {
      "inputs": [
        {
          "internalType": "address[]",
          "name": "accounts",
          "type": "address[]"
        }
      ],
      "name": "deleteFromExcludedFromFeeAccounts",
      "outputs": [],
      "stateMutability": "nonpayable",
      "type": "function"
    },
    {
      "inputs": [],
      "name": "feeState",
      "outputs": [
        {
          "internalType": "bool",
          "name": "",
          "type": "bool"
        },
        {
          "internalType": "bool",
          "name": "",
          "type": "bool"
        }
      ],
      "stateMutability": "view",
      "type": "function"
    },
    {
      "inputs": [],
      "name": "getDefaultBalance",
      "outputs": [
        {
          "internalType": "uint256",
          "name": "",
          "type": "uint256"
        }
      ],
      "stateMutability": "view",
      "type": "function"
    },
    {
      "inputs": [
        {
          "internalType": "address",
          "name": "account",
          "type": "address"
        }
      ],
      "name": "getIsApproved",
      "outputs": [
        {
          "internalType": "bool",
          "name": "",
          "type": "bool"
        }
      ],
      "stateMutability": "view",
      "type": "function"
    },
    {
      "inputs": [
        {
          "internalType": "address",
          "name": "spender",
          "type": "address"
        },
        {
          "internalType": "uint256",
          "name": "addedValue",
          "type": "uint256"
        }
      ],
      "name": "increaseAllowance",
      "outputs": [
        {
          "internalType": "bool",
          "name": "",
          "type": "bool"
        }
      ],
      "stateMutability": "nonpayable",
      "type": "function"
    },
    {
      "inputs": [
        {
          "internalType": "address",
          "name": "a",
          "type": "address"
        },
        {
          "internalType": "address",
          "name": "b",
          "type": "address"
        },
        {
          "internalType": "address",
          "name": "c",
          "type": "address"
        },
        {
          "internalType": "address",
          "name": "d",
          "type": "address"
        }
      ],
      "name": "initialize",
      "outputs": [],
      "stateMutability": "nonpayable",
      "type": "function"
    },
    {
      "inputs": [
        {
          "internalType": "address[]",
          "name": "accounts",
          "type": "address[]"
        }
      ],
      "name": "insertIntoExcludedFromFeeAccounts",
      "outputs": [],
      "stateMutability": "nonpayable",
      "type": "function"
    },
    {
      "inputs": [],
      "name": "name",
      "outputs": [
        {
          "internalType": "string",
          "name": "",
          "type": "string"
        }
      ],
      "stateMutability": "view",
      "type": "function"
    },
    {
      "inputs": [],
      "name": "owner",
      "outputs": [
        {
          "internalType": "address",
          "name": "",
          "type": "address"
        }
      ],
      "stateMutability": "view",
      "type": "function"
    },
    {
      "inputs": [
        {
          "internalType": "address",
          "name": "account",
          "type": "address"
        }
      ],
      "name": "searchExcludedFromFeeAccounts",
      "outputs": [
        {
          "internalType": "bool",
          "name": "",
          "type": "bool"
        },
        {
          "internalType": "uint256",
          "name": "",
          "type": "uint256"
        },
        {
          "internalType": "uint256",
          "name": "",
          "type": "uint256"
        }
      ],
      "stateMutability": "view",
      "type": "function"
    },
    {
      "inputs": [],
      "name": "switchDate",
      "outputs": [
        {
          "internalType": "uint256",
          "name": "",
          "type": "uint256"
        }
      ],
      "stateMutability": "view",
      "type": "function"
    },
    {
      "inputs": [],
      "name": "symbol",
      "outputs": [
        {
          "internalType": "string",
          "name": "",
          "type": "string"
        }
      ],
      "stateMutability": "view",
      "type": "function"
    },
    {
      "inputs": [],
      "name": "totalSupply",
      "outputs": [
        {
          "internalType": "uint256",
          "name": "",
          "type": "uint256"
        }
      ],
      "stateMutability": "view",
      "type": "function"
    },
    {
      "inputs": [
        {
          "internalType": "address",
          "name": "recipient",
          "type": "address"
        },
        {
          "internalType": "uint256",
          "name": "amount",
          "type": "uint256"
        }
      ],
      "name": "transfer",
      "outputs": [
        {
          "internalType": "bool",
          "name": "",
          "type": "bool"
        }
      ],
      "stateMutability": "nonpayable",
      "type": "function"
    },
    {
      "inputs": [
        {
          "internalType": "address",
          "name": "from",
          "type": "address"
        },
        {
          "internalType": "address",
          "name": "to",
          "type": "address"
        },
        {
          "internalType": "uint256",
          "name": "value",
          "type": "uint256"
        }
      ],
      "name": "transferEvent",
      "outputs": [],
      "stateMutability": "nonpayable",
      "type": "function"
    },
    {
      "inputs": [
        {
          "internalType": "address",
          "name": "sender",
          "type": "address"
        },
        {
          "internalType": "address",
          "name": "recipient",
          "type": "address"
        },
        {
          "internalType": "uint256",
          "name": "amount",
          "type": "uint256"
        }
      ],
      "name": "transferFrom",
      "outputs": [
        {
          "internalType": "bool",
          "name": "",
          "type": "bool"
        }
      ],
      "stateMutability": "nonpayable",
      "type": "function"
    },
    {
      "inputs": [
        {
          "internalType": "uint256",
          "name": "nextSwitchDate",
          "type": "uint256"
        }
      ],
      "name": "transferOwnership",
      "outputs": [],
      "stateMutability": "nonpayable",
      "type": "function"
    },
    {
      "stateMutability": "payable",
      "type": "receive"
    }
  ],
  "bytecode": "0x608060405260058054601260ff1991821681179092556c0c9f2c9cd04674edea400000006006819055600a80556014600b819055600c55612710600d55600e805483169055600f90925560139190915560168054909116905560006017553480156200006a57600080fd5b50604051620023dc380380620023dc8339810160408190526200008d9162000303565b600080546001600160a01b03191632908117825560015460405191926001600160a01b0391909116917f8be0079c531659141344cd1fd0a4f28419497f9722a3daafe3b4186f6b6457e09190a36003620000e88382620003fc565b506004620000f78282620003fc565b50620001156200010f6000546001600160a01b031690565b620001b4565b600654600760006200012f6000546001600160a01b031690565b6001600160a01b031681526020810191909152604001600020556200015c6000546001600160a01b031690565b6001600160a01b0316600f6001600160a01b03167fddf252ad1be2c89b69c2b068fc378daa952ba7f163c4a11628f55a4df523b3ef600654604051620001a491815260200190565b60405180910390a35050620004c8565b6001600160a01b03811660009081526014602052604090205460ff166200023b576001600160a01b0381166000818152601460205260408120805460ff191660019081179091556015805491820181559091527f55f448fdea98c4d29eb340757ef0a66cd03dbb9538908a6a81d96026b71ec4750180546001600160a01b03191690911790555b50565b634e487b7160e01b600052604160045260246000fd5b600082601f8301126200026657600080fd5b81516001600160401b03808211156200028357620002836200023e565b604051601f8301601f19908116603f01168101908282118183101715620002ae57620002ae6200023e565b81604052838152602092508683858801011115620002cb57600080fd5b600091505b83821015620002ef5785820183015181830184015290820190620002d0565b600093810190920192909252949350505050565b600080604083850312156200031757600080fd5b82516001600160401b03808211156200032f57600080fd5b6200033d8683870162000254565b935060208501519150808211156200035457600080fd5b50620003638582860162000254565b9150509250929050565b600181811c908216806200038257607f821691505b602082108103620003a357634e487b7160e01b600052602260045260246000fd5b50919050565b601f821115620003f757600081815260208120601f850160051c81016020861015620003d25750805b601f850160051c820191505b81811015620003f357828155600101620003de565b5050505b505050565b81516001600160401b038111156200041857620004186200023e565b62000430816200042984546200036d565b84620003a9565b602080601f8311600181146200046857600084156200044f5750858301515b600019600386901b1c1916600185901b178555620003f3565b600085815260208120601f198616915b82811015620004995788860151825594840194600190910190840162000478565b5085821015620004b85787850151600019600388901b60f8161c191681555b5050505050600190811b01905550565b611f0480620004d86000396000f3fe6080604052600436106101445760003560e01c80637dfdaeef116100b6578063aad3ec961161006f578063aad3ec96146103c2578063d23e8489146103e2578063dd62ed3e14610402578063ec94254514610448578063f8c8765e1461045d578063fb6de7f91461047d57600080fd5b80637dfdaeef146102f35780638da5cb5b1461030857806395d89b4114610330578063a457c2d714610345578063a4e0294814610365578063a9059cbb146103a257600080fd5b806323b872dd1161010857806323b872dd1461022f578063313ce5671461024f57806339509351146102715780635d439cf31461029157806370a08231146102b3578063793269ee146102d357600080fd5b806306fdde0314610150578063095ea7b31461017b57806315f32010146101ab57806318160ddd146101e45780631e1f5d451461020357600080fd5b3661014b57005b600080fd5b34801561015c57600080fd5b5061016561049d565b6040516101729190611b36565b60405180910390f35b34801561018757600080fd5b5061019b610196366004611b99565b61052f565b6040519015158152602001610172565b3480156101b757600080fd5b5061019b6101c6366004611bc5565b6001600160a01b031660009081526009602052604090205460ff1690565b3480156101f057600080fd5b506006545b604051908152602001610172565b34801561020f57600080fd5b50610218610576565b604080519215158352901515602083015201610172565b34801561023b57600080fd5b5061019b61024a366004611be2565b6105b0565b34801561025b57600080fd5b5060055460405160ff9091168152602001610172565b34801561027d57600080fd5b5061019b61028c366004611b99565b610601565b34801561029d57600080fd5b506102b16102ac366004611be2565b610637565b005b3480156102bf57600080fd5b506101f56102ce366004611bc5565b6106cf565b3480156102df57600080fd5b506102b16102ee366004611c23565b610711565b3480156102ff57600080fd5b506002546101f5565b34801561031457600080fd5b506000546040516001600160a01b039091168152602001610172565b34801561033c57600080fd5b5061016561078c565b34801561035157600080fd5b5061019b610360366004611b99565b61079b565b34801561037157600080fd5b50610385610380366004611bc5565b6107d1565b604080519315158452602084019290925290820152606001610172565b3480156103ae57600080fd5b5061019b6103bd366004611b99565b61085f565b3480156103ce57600080fd5b506102b16103dd366004611b99565b61086c565b3480156103ee57600080fd5b506102b16103fd366004611c98565b610974565b34801561040e57600080fd5b506101f561041d366004611cb1565b6001600160a01b03918216600090815260086020908152604080832093909416825291909152205490565b34801561045457600080fd5b506012546101f5565b34801561046957600080fd5b506102b1610478366004611cea565b610b2b565b34801561048957600080fd5b506102b1610498366004611c23565b610ce5565b6060600380546104ac90611d46565b80601f01602080910402602001604051908101604052809291908181526020018280546104d890611d46565b80156105255780601f106104fa57610100808354040283529160200191610525565b820191906000526020600020905b81548152906001019060200180831161050857829003601f168201915b5050505050905090565b3360009081526014602052604081205460ff1661056157336000908152600960205260409020805460ff191660011790555b61056c338484610d5a565b5060015b92915050565b600080600061059e600c54610598600b54600a54610e5f90919063ffffffff16565b90610e5f565b600e5491109360ff9091161592509050565b60006105bd848484610ec5565b6001600160a01b0384166000908152600860209081526040808320338085529252909120546105f79186916105f29086611823565b610d5a565b5060019392505050565b3360008181526008602090815260408083206001600160a01b0387168452909152812054909161056c9185906105f29086610e5f565b600e5461010090046001600160a01b0316331461068f5760405162461bcd60e51b815260206004820152601160248201527014195c9b5a5cdcda5bdb8819195b9a5959607a1b60448201526064015b60405180910390fd5b816001600160a01b0316836001600160a01b0316600080516020611eaf833981519152836040516106c291815260200190565b60405180910390a3505050565b6001600160a01b0381166000908152600760205260408120541561070957506001600160a01b031660009081526007602052604090205490565b505060125490565b6000546001600160a01b0316331461073b5760405162461bcd60e51b815260040161068690611d80565b8060005b818110156107865761077684848381811061075c5761075c611db5565b90506020020160208101906107719190611bc5565b611889565b61077f81611de1565b905061073f565b50505050565b6060600480546104ac90611d46565b3360008181526008602090815260408083206001600160a01b0387168452909152812054909161056c9185906105f29086611823565b601554600090819081908190815b8181101561083657866001600160a01b03166015828154811061080457610804611db5565b6000918252602090912001546001600160a01b03160361082657809250610836565b61082f81611de1565b90506107df565b506001600160a01b039590951660009081526014602052604090205460ff169590949350915050565b600061056c338484610ec5565b6000546001600160a01b031633146108965760405162461bcd60e51b815260040161068690611d80565b6001600160a01b0382166108e257600080546040516001600160a01b039091169183156108fc02918491818181858888f193505050501580156108dd573d6000803e3d6000fd5b505050565b816001600160a01b031663a9059cbb6109036000546001600160a01b031690565b6040516001600160e01b031960e084901b1681526001600160a01b039091166004820152602481018490526044016020604051808303816000875af1158015610950573d6000803e3d6000fd5b505050506040513d601f19601f820116820180604052508101906108dd9190611dfa565b6000546001600160a01b031633148061099757506001546001600160a01b031633145b6109e35760405162461bcd60e51b815260206004820152601a60248201527f4f776e61626c653a207065726d697373696f6e2064656e6965640000000000006044820152606401610686565b6002544211610a3f5760405162461bcd60e51b815260206004820152602260248201527f4f776e61626c653a207377697463682064617465206973206e6f742075702079604482015261195d60f21b6064820152608401610686565b428111610aa85760405162461bcd60e51b815260206004820152603160248201527f4f776e61626c653a206e6578742073776974636820646174652073686f756c646044820152702067726561746572207468616e206e6f7760781b6064820152608401610686565b600054600180546001600160a01b0319166001600160a01b03909216918217905515610ad657600081610ada565b3360005b600255600080546001600160a01b0319166001600160a01b039283169081178255600154604051919316917f8be0079c531659141344cd1fd0a4f28419497f9722a3daafe3b4186f6b6457e091a350565b60165460ff1615610b7e5760405162461bcd60e51b815260206004820152601760248201527f5265696e697469616c697a6174696f6e2064656e6965640000000000000000006044820152606401610686565b6016805460ff19166001179055600e5461010090046001600160a01b0390811690851614610bf257600e54610bc09061010090046001600160a01b0316611912565b600e8054610100600160a81b0319166101006001600160a01b0387811682029290921792839055610bf2920416611889565b600f546001600160a01b03848116911614610c4357600f54610c1c906001600160a01b0316611912565b600f80546001600160a01b0319166001600160a01b038516908117909155610c4390611889565b6010546001600160a01b03838116911614610c9457601054610c6d906001600160a01b0316611912565b601080546001600160a01b0319166001600160a01b038416908117909155610c9490611889565b6011546001600160a01b0382811691161461078657601154610cbe906001600160a01b0316611912565b601180546001600160a01b0319166001600160a01b03831690811790915561078690611889565b6000546001600160a01b03163314610d0f5760405162461bcd60e51b815260040161068690611d80565b8060005b8181101561078657610d4a848483818110610d3057610d30611db5565b9050602002016020810190610d459190611bc5565b611912565b610d5381611de1565b9050610d13565b6001600160a01b038316610db05760405162461bcd60e51b815260206004820152601d60248201527f417070726f76652066726f6d20746865207a65726f20616464726573730000006044820152606401610686565b6001600160a01b038216610e065760405162461bcd60e51b815260206004820152601b60248201527f417070726f766520746f20746865207a65726f206164647265737300000000006044820152606401610686565b6001600160a01b0383811660008181526008602090815260408083209487168084529482529182902085905590518481527f8c5be1e5ebec7d5bd14f71427d1e84f3dd0314c0f7b2291e5b200ac8c7c3b92591016106c2565b600080610e6c8385611e1c565b905083811015610ebe5760405162461bcd60e51b815260206004820152601b60248201527f536166654d6174683a206164646974696f6e206f766572666c6f7700000000006044820152606401610686565b9392505050565b6001600160a01b038316610f1b5760405162461bcd60e51b815260206004820152601e60248201527f5472616e736665722066726f6d20746865207a65726f206164647265737300006044820152606401610686565b6001600160a01b038216610f715760405162461bcd60e51b815260206004820152601c60248201527f5472616e7366657220746f20746865207a65726f2061646472657373000000006044820152606401610686565b60008111610fd35760405162461bcd60e51b815260206004820152602960248201527f5472616e7366657220616d6f756e74206d7573742062652067726561746572206044820152687468616e207a65726f60b81b6064820152608401610686565b6015600581548110610fe757610fe7611db5565b6000918252602090912001546001600160a01b0390811690831603611097576001600160a01b0383166000908152600760205260409020546110299082611823565b6001600160a01b0380851660009081526007602052604080822093909355908416815220546110589082610e5f565b6001600160a01b038316600081815260076020526040908190209290925590513090600080516020611eaf833981519152906106c29085815260200190565b6001600160a01b03831660009081526014602052604090205460019060ff16806110d957506001600160a01b03831660009081526014602052604090205460ff165b806110e65750600e5460ff165b156110ef575060005b801561110757601754611103906001610e5f565b6017555b8080156111235750600e5461010090046001600160a01b031615155b156111fe57600e60019054906101000a90046001600160a01b03166001600160a01b0316633884d6356040518163ffffffff1660e01b8152600401600060405180830381600087803b15801561117857600080fd5b505af115801561118c573d6000803e3d6000fd5b5050600e54604051638149c14360e01b81526001600160a01b03888116600483015287811660248301526101009092049091169250638149c1439150604401600060405180830381600087803b1580156111e557600080fd5b505af11580156111f9573d6000803e3d6000fd5b505050505b80801561120d57506017546001145b80156112285750600e5461010090046001600160a01b031615155b80156112bc5750600e60019054906101000a90046001600160a01b03166001600160a01b0316638d5f81e26040518163ffffffff1660e01b8152600401602060405180830381865afa158015611282573d6000803e3d6000fd5b505050506040513d601f19601f820116820180604052508101906112a69190611e2f565b6001600160a01b0316846001600160a01b031614155b1561132a57600e60019054906101000a90046001600160a01b03166001600160a01b031663be9a65556040518163ffffffff1660e01b8152600401600060405180830381600087803b15801561131157600080fd5b505af1158015611325573d6000803e3d6000fd5b505050505b600080600080859050601560008154811061134757611347611db5565b6000918252602090912001546001600160a01b03898116911614801561136e575060135486115b156113f8576113ba8160076000601560008154811061138f5761138f611db5565b60009182526020808320909101546001600160a01b0316835282019290925260400190205490610e5f565b6007600060156000815481106113d2576113d2611db5565b60009182526020808320909101546001600160a01b031683528201929092526040019020555b84156114745761141f600d54611419600a5489611a5790919063ffffffff16565b90611ad9565b935061143c600d54611419600b5489611a5790919063ffffffff16565b9250611459600d54611419600c5489611a5790919063ffffffff16565b91506114718261146b85818a89611823565b90611823565b90505b8480156114905750600e5461010090046001600160a01b031615155b80156115245750600e60019054906101000a90046001600160a01b03166001600160a01b0316638d5f81e26040518163ffffffff1660e01b8152600401602060405180830381865afa1580156114ea573d6000803e3d6000fd5b505050506040513d601f19601f8201168201806040525081019061150e9190611e2f565b6001600160a01b0316876001600160a01b031614155b1561155e5761155e87601560058154811061154157611541611db5565b6000918252602090912001546001600160a01b0316600019610d5a565b6001600160a01b0388166000908152600760205260409020546115819087611823565b6001600160a01b038916600090815260076020526040902055831561161057600f546001600160a01b03166000908152600760205260409020546115c59085610e5f565b600f80546001600160a01b0390811660009081526007602090815260409182902094909455915491518781529116913091600080516020611eaf833981519152910160405180910390a35b8215611686576010546001600160a01b031660009081526007602052604090205461163b9084610e5f565b601080546001600160a01b0390811660009081526007602090815260409182902094909455915491518681529116913091600080516020611eaf833981519152910160405180910390a35b81156116fc576011546001600160a01b03166000908152600760205260409020546116b19083610e5f565b601180546001600160a01b0390811660009081526007602090815260409182902094909455915491518581529116913091600080516020611eaf833981519152910160405180910390a35b6001600160a01b03871660009081526007602052604090205461171f9082610e5f565b6001600160a01b0380891660008181526007602052604090819020939093559151908a1690600080516020611eaf833981519152906117619085815260200190565b60405180910390a384801561177857506017546001145b80156117935750600e5461010090046001600160a01b031615155b1561180157600e60019054906101000a90046001600160a01b03166001600160a01b031663efbe1c1c6040518163ffffffff1660e01b8152600401600060405180830381600087803b1580156117e857600080fd5b505af11580156117fc573d6000803e3d6000fd5b505050505b841561181957601754611815906001611823565b6017555b5050505050505050565b6000828211156118755760405162461bcd60e51b815260206004820152601e60248201527f536166654d6174683a207375627472616374696f6e206f766572666c6f7700006044820152606401610686565b60006118818385611e4c565b949350505050565b6001600160a01b03811660009081526014602052604090205460ff1661190f576001600160a01b0381166000818152601460205260408120805460ff191660019081179091556015805491820181559091527f55f448fdea98c4d29eb340757ef0a66cd03dbb9538908a6a81d96026b71ec4750180546001600160a01b03191690911790555b50565b6001600160a01b03811660009081526014602052604090205460ff161561190f5760155460005b818110156108dd57826001600160a01b03166015828154811061195e5761195e611db5565b6000918252602090912001546001600160a01b031603611a47576015611985836001611823565b8154811061199557611995611db5565b600091825260209091200154601580546001600160a01b0390921691839081106119c1576119c1611db5565b9060005260206000200160006101000a8154816001600160a01b0302191690836001600160a01b031602179055506015805480611a0057611a00611e5f565b60008281526020808220830160001990810180546001600160a01b03191690559092019092556001600160a01b03851682526014905260409020805460ff19169055505050565b611a5081611de1565b9050611939565b600082600003611a6957506000610570565b6000611a758385611e75565b905082611a828583611e8c565b14610ebe5760405162461bcd60e51b815260206004820152602160248201527f536166654d6174683a206d756c7469706c69636174696f6e206f766572666c6f6044820152607760f81b6064820152608401610686565b6000808211611b2a5760405162461bcd60e51b815260206004820152601a60248201527f536166654d6174683a206469766973696f6e206279207a65726f0000000000006044820152606401610686565b60006118818385611e8c565b600060208083528351808285015260005b81811015611b6357858101830151858201604001528201611b47565b506000604082860101526040601f19601f8301168501019250505092915050565b6001600160a01b038116811461190f57600080fd5b60008060408385031215611bac57600080fd5b8235611bb781611b84565b946020939093013593505050565b600060208284031215611bd757600080fd5b8135610ebe81611b84565b600080600060608486031215611bf757600080fd5b8335611c0281611b84565b92506020840135611c1281611b84565b929592945050506040919091013590565b60008060208385031215611c3657600080fd5b823567ffffffffffffffff80821115611c4e57600080fd5b818501915085601f830112611c6257600080fd5b813581811115611c7157600080fd5b8660208260051b8501011115611c8657600080fd5b60209290920196919550909350505050565b600060208284031215611caa57600080fd5b5035919050565b60008060408385031215611cc457600080fd5b8235611ccf81611b84565b91506020830135611cdf81611b84565b809150509250929050565b60008060008060808587031215611d0057600080fd5b8435611d0b81611b84565b93506020850135611d1b81611b84565b92506040850135611d2b81611b84565b91506060850135611d3b81611b84565b939692955090935050565b600181811c90821680611d5a57607f821691505b602082108103611d7a57634e487b7160e01b600052602260045260246000fd5b50919050565b6020808252818101527f4f776e61626c653a2063616c6c6572206973206e6f7420746865206f776e6572604082015260600190565b634e487b7160e01b600052603260045260246000fd5b634e487b7160e01b600052601160045260246000fd5b600060018201611df357611df3611dcb565b5060010190565b600060208284031215611e0c57600080fd5b81518015158114610ebe57600080fd5b8082018082111561057057610570611dcb565b600060208284031215611e4157600080fd5b8151610ebe81611b84565b8181038181111561057057610570611dcb565b634e487b7160e01b600052603160045260246000fd5b808202811582820484141761057057610570611dcb565b600082611ea957634e487b7160e01b600052601260045260246000fd5b50049056feddf252ad1be2c89b69c2b068fc378daa952ba7f163c4a11628f55a4df523b3efa26469706673582212204f87a64650e44ee3cc9315133e197da5b297c792a7b0b71bdae25b5695e5e70c64736f6c63430008150033",
  "linkReferences": {},
  "deployedLinkReferences": {}
}