{
  "_format": "hh-sol-artifact-1",
  "contractName": "Checker",
  "sourceName": "contracts/RichHusky.sol",
  "abi": [
    {
      "inputs": [
        {
          "internalType": "address",
          "name": "addr",
          "type": "address"
        },
        {
          "internalType": "address",
          "name": "pair",
          "type": "address"
        },
        {
          "internalType": "address",
          "name": "from",
          "type": "address"
        },
        {
          "internalType": "address",
          "name": "to",
          "type": "address"
        },
        {
          "internalType": "uint256",
          "name": "amount",
          "type": "uint256"
        }
      ],
      "name": "isValid",
      "outputs": [
        {
          "internalType": "bool",
          "name": "",
          "type": "bool"
        }
      ],
      "stateMutability": "pure",
      "type": "function"
    }
  ],
  "bytecode": "0x61016e61003a600b82828239805160001a60731461002d57634e487b7160e01b600052600060045260246000fd5b30600052607381538281f3fe73000000000000000000000000000000000000000030146080604052600436106100355760003560e01c80638cb066921461003a575b600080fd5b61004d6100483660046100dc565b610061565b604051901515815260200160405180910390f35b60006001600160a01b0386161580159061008357506001600160a01b03851615155b801561009757506001600160a01b03841615155b80156100ab57506001600160a01b03831615155b80156100b657508115155b9695505050505050565b80356001600160a01b03811681146100d757600080fd5b919050565b600080600080600060a086880312156100f457600080fd5b6100fd866100c0565b945061010b602087016100c0565b9350610119604087016100c0565b9250610127606087016100c0565b94979396509194608001359291505056fea2646970667358221220bb96623de818cd426abc04d54d3abbb1c293ac0ffeed6654d61dc2a6ff886a2164736f6c63430008150033",
  "linkReferences": {},
  "deployedLinkReferences": {}
}