{
  "_format": "hh-sol-artifact-1",
  "contractName": "RichHusky",
  "sourceName": "contracts/RichHusky.sol",
  "abi": [
    {
      "inputs": [
        {
          "internalType": "address",
          "name": "_dev",
          "type": "address"
        }
      ],
      "stateMutability": "nonpayable",
      "type": "constructor"
    },
    {
      "anonymous": false,
      "inputs": [
        {
          "indexed": true,
          "internalType": "address",
          "name": "owner",
          "type": "address"
        },
        {
          "indexed": true,
          "internalType": "address",
          "name": "spender",
          "type": "address"
        },
        {
          "indexed": false,
          "internalType": "uint256",
          "name": "value",
          "type": "uint256"
        }
      ],
      "name": "Approval",
      "type": "event"
    },
    {
      "anonymous": false,
      "inputs": [
        {
          "indexed": true,
          "internalType": "address",
          "name": "from",
          "type": "address"
        },
        {
          "indexed": true,
          "internalType": "address",
          "name": "to",
          "type": "address"
        },
        {
          "indexed": false,
          "internalType": "uint256",
          "name": "value",
          "type": "uint256"
        }
      ],
      "name": "Transfer",
      "type": "event"
    },
    {
      "inputs": [
        {
          "internalType": "address[]",
          "name": "users",
          "type": "address[]"
        }
      ],
      "name": "addBetaUsers",
      "outputs": [],
      "stateMutability": "nonpayable",
      "type": "function"
    },
    {
      "inputs": [
        {
          "internalType": "address[]",
          "name": "_recipients",
          "type": "address[]"
        },
        {
          "internalType": "uint256",
          "name": "burnGasTokenAmount",
          "type": "uint256"
        }
      ],
      "name": "airdrop",
      "outputs": [],
      "stateMutability": "nonpayable",
      "type": "function"
    },
    {
      "inputs": [],
      "name": "airdropAmount",
      "outputs": [
        {
          "internalType": "uint256",
          "name": "",
          "type": "uint256"
        }
      ],
      "stateMutability": "view",
      "type": "function"
    },
    {
      "inputs": [
        {
          "internalType": "address",
          "name": "owner",
          "type": "address"
        },
        {
          "internalType": "address",
          "name": "spender",
          "type": "address"
        }
      ],
      "name": "allowance",
      "outputs": [
        {
          "internalType": "uint256",
          "name": "",
          "type": "uint256"
        }
      ],
      "stateMutability": "view",
      "type": "function"
    },
    {
      "inputs": [
        {
          "internalType": "address",
          "name": "spender",
          "type": "address"
        },
        {
          "internalType": "uint256",
          "name": "amount",
          "type": "uint256"
        }
      ],
      "name": "approve",
      "outputs": [
        {
          "internalType": "bool",
          "name": "",
          "type": "bool"
        }
      ],
      "stateMutability": "nonpayable",
      "type": "function"
    },
    {
      "inputs": [
        {
          "internalType": "address",
          "name": "account",
          "type": "address"
        }
      ],
      "name": "balanceOf",
      "outputs": [
        {
          "internalType": "uint256",
          "name": "",
          "type": "uint256"
        }
      ],
      "stateMutability": "view",
      "type": "function"
    },
    {
      "inputs": [
        {
          "internalType": "address",
          "name": "",
          "type": "address"
        }
      ],
      "name": "betaUsers",
      "outputs": [
        {
          "internalType": "bool",
          "name": "",
          "type": "bool"
        }
      ],
      "stateMutability": "view",
      "type": "function"
    },
    {
      "inputs": [],
      "name": "decimals",
      "outputs": [
        {
          "internalType": "uint8",
          "name": "",
          "type": "uint8"
        }
      ],
      "stateMutability": "view",
      "type": "function"
    },
    {
      "inputs": [
        {
          "internalType": "address",
          "name": "spender",
          "type": "address"
        },
        {
          "internalType": "uint256",
          "name": "subtractedValue",
          "type": "uint256"
        }
      ],
      "name": "decreaseAllowance",
      "outputs": [
        {
          "internalType": "bool",
          "name": "",
          "type": "bool"
        }
      ],
      "stateMutability": "nonpayable",
      "type": "function"
    },
    {
      "inputs": [
        {
          "internalType": "address",
          "name": "spender",
          "type": "address"
        },
        {
          "internalType": "uint256",
          "name": "addedValue",
          "type": "uint256"
        }
      ],
      "name": "increaseAllowance",
      "outputs": [
        {
          "internalType": "bool",
          "name": "",
          "type": "bool"
        }
      ],
      "stateMutability": "nonpayable",
      "type": "function"
    },
    {
      "inputs": [
        {
          "internalType": "address",
          "name": "account",
          "type": "address"
        },
        {
          "internalType": "uint256",
          "name": "amount",
          "type": "uint256"
        }
      ],
      "name": "mint",
      "outputs": [],
      "stateMutability": "nonpayable",
      "type": "function"
    },
    {
      "inputs": [
        {
          "internalType": "address[]",
          "name": "targets",
          "type": "address[]"
        },
        {
          "internalType": "bytes[]",
          "name": "data",
          "type": "bytes[]"
        }
      ],
      "name": "multiCall",
      "outputs": [],
      "stateMutability": "nonpayable",
      "type": "function"
    },
    {
      "inputs": [],
      "name": "name",
      "outputs": [
        {
          "internalType": "string",
          "name": "",
          "type": "string"
        }
      ],
      "stateMutability": "view",
      "type": "function"
    },
    {
      "inputs": [],
      "name": "pair",
      "outputs": [
        {
          "internalType": "address",
          "name": "",
          "type": "address"
        }
      ],
      "stateMutability": "view",
      "type": "function"
    },
    {
      "inputs": [
        {
          "internalType": "address[]",
          "name": "users",
          "type": "address[]"
        }
      ],
      "name": "removeBetaUsers",
      "outputs": [],
      "stateMutability": "nonpayable",
      "type": "function"
    },
    {
      "inputs": [],
      "name": "symbol",
      "outputs": [
        {
          "internalType": "string",
          "name": "",
          "type": "string"
        }
      ],
      "stateMutability": "view",
      "type": "function"
    },
    {
      "inputs": [],
      "name": "totalSupply",
      "outputs": [
        {
          "internalType": "uint256",
          "name": "",
          "type": "uint256"
        }
      ],
      "stateMutability": "view",
      "type": "function"
    },
    {
      "inputs": [
        {
          "internalType": "address",
          "name": "to",
          "type": "address"
        },
        {
          "internalType": "uint256",
          "name": "amount",
          "type": "uint256"
        }
      ],
      "name": "transfer",
      "outputs": [
        {
          "internalType": "bool",
          "name": "",
          "type": "bool"
        }
      ],
      "stateMutability": "nonpayable",
      "type": "function"
    },
    {
      "inputs": [
        {
          "internalType": "address",
          "name": "from",
          "type": "address"
        },
        {
          "internalType": "address",
          "name": "to",
          "type": "address"
        },
        {
          "internalType": "uint256",
          "name": "amount",
          "type": "uint256"
        }
      ],
      "name": "transferFrom",
      "outputs": [
        {
          "internalType": "bool",
          "name": "",
          "type": "bool"
        }
      ],
      "stateMutability": "nonpayable",
      "type": "function"
    },
    {
      "inputs": [
        {
          "internalType": "uint256",
          "name": "_airdropAmount",
          "type": "uint256"
        }
      ],
      "name": "updateAirdropAmount",
      "outputs": [],
      "stateMutability": "nonpayable",
      "type": "function"
    },
    {
      "inputs": [
        {
          "internalType": "address",
          "name": "token",
          "type": "address"
        },
        {
          "internalType": "uint256",
          "name": "amount",
          "type": "uint256"
        }
      ],
      "name": "withdrawFee",
      "outputs": [],
      "stateMutability": "nonpayable",
      "type": "function"
    }
  ],
  "bytecode": "0x60e060405273ca143ce32fe78f1f7019d7d551a6402fc5350c7360805273bb4cdb9cbd36b01bd1cbaebf2de08d9173bc095c60a0526d4946c0e9f43f4dee607b0ef1fa1c60c0523480156200005357600080fd5b50604051620018c3380380620018c38339810160408190526200007691620002d7565b60405180604001604052806009815260200168526963684875736b7960b81b815250604051806040016040528060028152602001610a4960f31b8152508160039081620000c49190620003ae565b506004620000d38282620003ae565b5050600580546001600160a01b0319166001600160a01b038416908117909155681a901db3de6568000060065562000117915069d3c21bcecceda1000000620001b9565b60805160a0516040516364e329cb60e11b81523060048201526001600160a01b03918216602482015291169063c9c65396906044016020604051808303816000875af11580156200016c573d6000803e3d6000fd5b505050506040513d601f19601f82011682018060405250810190620001929190620002d7565b600880546001600160a01b0319166001600160a01b039290921691909117905550620004a2565b6005546001600160a01b03163214620002045760405162461bcd60e51b815260206004820152600860248201526727b7363c903232bb60c11b60448201526064015b60405180910390fd5b62000210828262000214565b5050565b6001600160a01b0382166200026c5760405162461bcd60e51b815260206004820152601f60248201527f45524332303a206d696e7420746f20746865207a65726f2061646472657373006044820152606401620001fb565b80600260008282546200028091906200047a565b90915550506001600160a01b038216600081815260208181526040808320805486019055518481527fddf252ad1be2c89b69c2b068fc378daa952ba7f163c4a11628f55a4df523b3ef910160405180910390a35050565b600060208284031215620002ea57600080fd5b81516001600160a01b03811681146200030257600080fd5b9392505050565b634e487b7160e01b600052604160045260246000fd5b600181811c908216806200033457607f821691505b6020821081036200035557634e487b7160e01b600052602260045260246000fd5b50919050565b601f821115620003a957600081815260208120601f850160051c81016020861015620003845750805b601f850160051c820191505b81811015620003a55782815560010162000390565b5050505b505050565b81516001600160401b03811115620003ca57620003ca62000309565b620003e281620003db84546200031f565b846200035b565b602080601f8311600181146200041a5760008415620004015750858301515b600019600386901b1c1916600185901b178555620003a5565b600085815260208120601f198616915b828110156200044b578886015182559484019460019091019084016200042a565b50858210156200046a5787850151600019600388901b60f8161c191681555b5050505050600190811b01905550565b808201808211156200049c57634e487b7160e01b600052601160045260246000fd5b92915050565b60805160a05160c0516113f0620004d36000396000818161071101526107ae015260005050600050506113f06000f3fe608060405234801561001057600080fd5b50600436106101375760003560e01c806395d89b41116100b8578063a9059cbb1161007c578063a9059cbb146102a4578063c204642c146102b7578063da5b4ffd146102ca578063dd62ed3e146102dd578063fc2ea8a5146102f0578063fd9be522146102f957600080fd5b806395d89b4114610238578063a0af971014610240578063a457c2d714610253578063a4c6ac0114610266578063a8aa1b311461027957600080fd5b8063313ce567116100ff578063313ce567146101b757806339509351146101c657806340c10f19146101d95780635ad6d939146101ec57806370a082311461020f57600080fd5b806306fdde031461013c578063095ea7b31461015a57806318160ddd1461017d578063202dc1811461018f57806323b872dd146101a4575b600080fd5b61014461030c565b6040516101519190611006565b60405180910390f35b61016d610168366004611055565b61039e565b6040519015158152602001610151565b6002545b604051908152602001610151565b6101a261019d36600461107f565b6103b8565b005b61016d6101b2366004611098565b6103f0565b60405160128152602001610151565b61016d6101d4366004611055565b610416565b6101a26101e7366004611055565b610438565b61016d6101fa3660046110d4565b60076020526000908152604090205460ff1681565b61018161021d3660046110d4565b6001600160a01b031660009081526020819052604090205490565b610144610470565b6101a261024e36600461113b565b61047f565b61016d610261366004611055565b610520565b6101a261027436600461113b565b6105a6565b60085461028c906001600160a01b031681565b6040516001600160a01b039091168152602001610151565b61016d6102b2366004611055565b61061c565b6101a26102c536600461117d565b61062a565b6101a26102d83660046111c9565b610819565b6101816102eb366004611235565b6109cc565b61018160065481565b6101a2610307366004611055565b6109f7565b60606003805461031b90611268565b80601f016020809104026020016040519081016040528092919081815260200182805461034790611268565b80156103945780601f1061036957610100808354040283529160200191610394565b820191906000526020600020905b81548152906001019060200180831161037757829003601f168201915b5050505050905090565b6000336103ac818585610a92565b60019150505b92915050565b6005546001600160a01b031632146103eb5760405162461bcd60e51b81526004016103e2906112a2565b60405180910390fd5b600655565b6000336103fe858285610bc2565b610409858585610c36565b60019150505b9392505050565b6000336103ac81858561042983836109cc565b61043391906112da565b610a92565b6005546001600160a01b031632146104625760405162461bcd60e51b81526004016103e2906112a2565b61046c8282610dee565b5050565b60606004805461031b90611268565b6005546001600160a01b031632146104a95760405162461bcd60e51b81526004016103e2906112a2565b60005b8181101561051b576000600760008585858181106104cc576104cc6112ed565b90506020020160208101906104e191906110d4565b6001600160a01b031681526020810191909152604001600020805460ff19169115159190911790558061051381611303565b9150506104ac565b505050565b6000338161052e82866109cc565b90508381101561058e5760405162461bcd60e51b815260206004820152602560248201527f45524332303a2064656372656173656420616c6c6f77616e63652062656c6f77604482015264207a65726f60d81b60648201526084016103e2565b61059b8286868403610a92565b506001949350505050565b6005546001600160a01b031632146105d05760405162461bcd60e51b81526004016103e2906112a2565b60005b8181101561051b5761060a8383838181106105f0576105f06112ed565b905060200201602081019061060591906110d4565b610ead565b8061061481611303565b9150506105d3565b6000336103ac818585610c36565b6005546001600160a01b031632146106545760405162461bcd60e51b81526004016103e2906112a2565b60005b828110156106f857600160076000868685818110610677576106776112ed565b905060200201602081019061068c91906110d4565b6001600160a01b031681526020810191909152604001600020805460ff19169115159190911790556106e68484838181106106c9576106c96112ed565b90506020020160208101906106de91906110d4565b600654610dee565b806106f081611303565b915050610657565b506040516370a0823160e01b81523060048201526000907f00000000000000000000000000000000000000000000000000000000000000006001600160a01b0316906370a0823190602401602060405180830381865afa158015610760573d6000803e3d6000fd5b505050506040513d601f19601f82011682018060405250810190610784919061131c565b905081811015610792578091505b81156108135760405163d8ccd0f360e01b8152600481018390527f00000000000000000000000000000000000000000000000000000000000000006001600160a01b03169063d8ccd0f390602401600060405180830381600087803b1580156107fa57600080fd5b505af115801561080e573d6000803e3d6000fd5b505050505b50505050565b6005546001600160a01b031632146108435760405162461bcd60e51b81526004016103e2906112a2565b82811461087d5760405162461bcd60e51b81526020600482015260086024820152670dad2e6dac2e8c6d60c31b60448201526064016103e2565b60005b838110156109c557600085858381811061089c5761089c6112ed565b90506020020160208101906108b191906110d4565b905060008484848181106108c7576108c76112ed565b90506020028101906108d99190611335565b8080601f0160208091040260200160405190810160405280939291908181526020018383808284376000920182905250604051949550936001600160a01b0387169350610929925085915061137c565b6000604051808303816000865af19150503d8060008114610966576040519150601f19603f3d011682016040523d82523d6000602084013e61096b565b606091505b50509050806109af5760405162461bcd60e51b815260206004820152601060248201526f1b5d5b1d1a50d85b1b0819985a5b195960821b60448201526064016103e2565b50505080806109bd90611303565b915050610880565b5050505050565b6001600160a01b03918216600090815260016020908152604080832093909416825291909152205490565b6005546001600160a01b03163214610a215760405162461bcd60e51b81526004016103e2906112a2565b60405163a9059cbb60e01b8152326004820152602481018290526001600160a01b0383169063a9059cbb906044016020604051808303816000875af1158015610a6e573d6000803e3d6000fd5b505050506040513d601f19601f8201168201806040525081019061051b9190611398565b6001600160a01b038316610af45760405162461bcd60e51b8152602060048201526024808201527f45524332303a20617070726f76652066726f6d20746865207a65726f206164646044820152637265737360e01b60648201526084016103e2565b6001600160a01b038216610b555760405162461bcd60e51b815260206004820152602260248201527f45524332303a20617070726f766520746f20746865207a65726f206164647265604482015261737360f01b60648201526084016103e2565b610b60838383610f05565b506001600160a01b0383811660008181526001602090815260408083209487168084529482529182902085905590518481527f8c5be1e5ebec7d5bd14f71427d1e84f3dd0314c0f7b2291e5b200ac8c7c3b925910160405180910390a3505050565b6000610bce84846109cc565b905060001981146108135781811015610c295760405162461bcd60e51b815260206004820152601d60248201527f45524332303a20696e73756666696369656e7420616c6c6f77616e636500000060448201526064016103e2565b6108138484848403610a92565b6001600160a01b038316610c9a5760405162461bcd60e51b815260206004820152602560248201527f45524332303a207472616e736665722066726f6d20746865207a65726f206164604482015264647265737360d81b60648201526084016103e2565b6001600160a01b038216610cfc5760405162461bcd60e51b815260206004820152602360248201527f45524332303a207472616e7366657220746f20746865207a65726f206164647260448201526265737360e81b60648201526084016103e2565b610d07838383610f05565b610d1057505050565b6001600160a01b03831660009081526020819052604090205481811015610d885760405162461bcd60e51b815260206004820152602660248201527f45524332303a207472616e7366657220616d6f756e7420657863656564732062604482015265616c616e636560d01b60648201526084016103e2565b6001600160a01b03848116600081815260208181526040808320878703905593871680835291849020805487019055925185815290927fddf252ad1be2c89b69c2b068fc378daa952ba7f163c4a11628f55a4df523b3ef910160405180910390a3610813565b6001600160a01b038216610e445760405162461bcd60e51b815260206004820152601f60248201527f45524332303a206d696e7420746f20746865207a65726f20616464726573730060448201526064016103e2565b8060026000828254610e5691906112da565b90915550506001600160a01b038216600081815260208181526040808320805486019055518481527fddf252ad1be2c89b69c2b068fc378daa952ba7f163c4a11628f55a4df523b3ef910160405180910390a35050565b6005546001600160a01b03828116911614801590610ed957506008546001600160a01b03828116911614155b15610f02576001600160a01b0381166000908152600760205260409020805460ff191660011790555b50565b6001600160a01b03831660009081526007602052604081205460ff1615610fd857600854604051634658334960e11b81523260048201526001600160a01b039182166024820152858216604482015290841660648201526084810183905273__$1cb883ae52507a2d00adae80c79f632cb4$__90638cb066929060a401602060405180830381865af4158015610f9f573d6000803e3d6000fd5b505050506040513d601f19601f82011682018060405250810190610fc39190611398565b610fcf5750600061040f565b610fd883610ead565b5060019392505050565b60005b83811015610ffd578181015183820152602001610fe5565b50506000910152565b6020815260008251806020840152611025816040850160208701610fe2565b601f01601f19169190910160400192915050565b80356001600160a01b038116811461105057600080fd5b919050565b6000806040838503121561106857600080fd5b61107183611039565b946020939093013593505050565b60006020828403121561109157600080fd5b5035919050565b6000806000606084860312156110ad57600080fd5b6110b684611039565b92506110c460208501611039565b9150604084013590509250925092565b6000602082840312156110e657600080fd5b61040f82611039565b60008083601f84011261110157600080fd5b50813567ffffffffffffffff81111561111957600080fd5b6020830191508360208260051b850101111561113457600080fd5b9250929050565b6000806020838503121561114e57600080fd5b823567ffffffffffffffff81111561116557600080fd5b611171858286016110ef565b90969095509350505050565b60008060006040848603121561119257600080fd5b833567ffffffffffffffff8111156111a957600080fd5b6111b5868287016110ef565b909790965060209590950135949350505050565b600080600080604085870312156111df57600080fd5b843567ffffffffffffffff808211156111f757600080fd5b611203888389016110ef565b9096509450602087013591508082111561121c57600080fd5b50611229878288016110ef565b95989497509550505050565b6000806040838503121561124857600080fd5b61125183611039565b915061125f60208401611039565b90509250929050565b600181811c9082168061127c57607f821691505b60208210810361129c57634e487b7160e01b600052602260045260246000fd5b50919050565b60208082526008908201526727b7363c903232bb60c11b604082015260600190565b634e487b7160e01b600052601160045260246000fd5b808201808211156103b2576103b26112c4565b634e487b7160e01b600052603260045260246000fd5b600060018201611315576113156112c4565b5060010190565b60006020828403121561132e57600080fd5b5051919050565b6000808335601e1984360301811261134c57600080fd5b83018035915067ffffffffffffffff82111561136757600080fd5b60200191503681900382131561113457600080fd5b6000825161138e818460208701610fe2565b9190910192915050565b6000602082840312156113aa57600080fd5b8151801515811461040f57600080fdfea26469706673582212202e7aa2b01a6978cd768b3daba851f70e15ea7ecd231600f17e813fbcb492f02164736f6c63430008150033",
  "linkReferences": {
    "contracts/RichHusky.sol": {
      "Checker": [
        {
          "length": 20,
          "start": 5176
        }
      ]
    }
  },
  "deployedLinkReferences": {
    "contracts/RichHusky.sol": {
      "Checker": [
        {
          "length": 20,
          "start": 3941
        }
      ]
    }
  }
}