{
  "_format": "hh-sol-artifact-1",
  "contractName": "Staking",
  "sourceName": "contracts/Staking.sol",
  "abi": [
    {
      "inputs": [],
      "stateMutability": "nonpayable",
      "type": "constructor"
    },
    {
      "anonymous": false,
      "inputs": [
        {
          "indexed": true,
          "internalType": "address",
          "name": "previousOwner",
          "type": "address"
        },
        {
          "indexed": true,
          "internalType": "address",
          "name": "newOwner",
          "type": "address"
        }
      ],
      "name": "OwnershipTransferred",
      "type": "event"
    },
    {
      "anonymous": false,
      "inputs": [
        {
          "indexed": false,
          "internalType": "address",
          "name": "wallet",
          "type": "address"
        },
        {
          "indexed": false,
          "internalType": "uint256",
          "name": "amount",
          "type": "uint256"
        },
        {
          "indexed": false,
          "internalType": "uint256",
          "name": "staked",
          "type": "uint256"
        }
      ],
      "name": "Stake",
      "type": "event"
    },
    {
      "anonymous": false,
      "inputs": [
        {
          "indexed": false,
          "internalType": "address",
          "name": "wallet",
          "type": "address"
        },
        {
          "indexed": false,
          "internalType": "uint256",
          "name": "amount",
          "type": "uint256"
        },
        {
          "indexed": false,
          "internalType": "uint256",
          "name": "staked",
          "type": "uint256"
        }
      ],
      "name": "Unstake",
      "type": "event"
    },
    {
      "inputs": [
        {
          "internalType": "uint256",
          "name": "rewardRate_",
          "type": "uint256"
        }
      ],
      "name": "changeRewardsPerBlock",
      "outputs": [],
      "stateMutability": "nonpayable",
      "type": "function"
    },
    {
      "inputs": [],
      "name": "claimRewards",
      "outputs": [],
      "stateMutability": "payable",
      "type": "function"
    },
    {
      "inputs": [
        {
          "internalType": "uint256",
          "name": "",
          "type": "uint256"
        }
      ],
      "name": "data",
      "outputs": [
        {
          "internalType": "uint256",
          "name": "block",
          "type": "uint256"
        },
        {
          "internalType": "uint256",
          "name": "staked",
          "type": "uint256"
        }
      ],
      "stateMutability": "view",
      "type": "function"
    },
    {
      "inputs": [
        {
          "internalType": "address",
          "name": "wallet_",
          "type": "address"
        }
      ],
      "name": "earned",
      "outputs": [
        {
          "internalType": "uint256",
          "name": "",
          "type": "uint256"
        }
      ],
      "stateMutability": "view",
      "type": "function"
    },
    {
      "inputs": [
        {
          "internalType": "address",
          "name": "token_",
          "type": "address"
        }
      ],
      "name": "inCaseTokensGetStuck",
      "outputs": [],
      "stateMutability": "nonpayable",
      "type": "function"
    },
    {
      "inputs": [],
      "name": "owner",
      "outputs": [
        {
          "internalType": "address",
          "name": "",
          "type": "address"
        }
      ],
      "stateMutability": "view",
      "type": "function"
    },
    {
      "inputs": [],
      "name": "pause",
      "outputs": [],
      "stateMutability": "nonpayable",
      "type": "function"
    },
    {
      "inputs": [],
      "name": "paused",
      "outputs": [
        {
          "internalType": "bool",
          "name": "",
          "type": "bool"
        }
      ],
      "stateMutability": "view",
      "type": "function"
    },
    {
      "inputs": [],
      "name": "renounceOwnership",
      "outputs": [],
      "stateMutability": "nonpayable",
      "type": "function"
    },
    {
      "inputs": [],
      "name": "rewardPerToken",
      "outputs": [
        {
          "internalType": "uint256",
          "name": "",
          "type": "uint256"
        }
      ],
      "stateMutability": "view",
      "type": "function"
    },
    {
      "inputs": [],
      "name": "rewardRate",
      "outputs": [
        {
          "internalType": "uint256",
          "name": "",
          "type": "uint256"
        }
      ],
      "stateMutability": "view",
      "type": "function"
    },
    {
      "inputs": [
        {
          "internalType": "uint256",
          "name": "amount_",
          "type": "uint256"
        }
      ],
      "name": "stake",
      "outputs": [],
      "stateMutability": "payable",
      "type": "function"
    },
    {
      "inputs": [],
      "name": "token",
      "outputs": [
        {
          "internalType": "address",
          "name": "",
          "type": "address"
        }
      ],
      "stateMutability": "view",
      "type": "function"
    },
    {
      "inputs": [],
      "name": "totalStaked",
      "outputs": [
        {
          "internalType": "uint256",
          "name": "",
          "type": "uint256"
        }
      ],
      "stateMutability": "view",
      "type": "function"
    },
    {
      "inputs": [
        {
          "internalType": "address",
          "name": "newOwner",
          "type": "address"
        }
      ],
      "name": "transferOwnership",
      "outputs": [],
      "stateMutability": "nonpayable",
      "type": "function"
    },
    {
      "inputs": [],
      "name": "unpause",
      "outputs": [],
      "stateMutability": "nonpayable",
      "type": "function"
    },
    {
      "inputs": [
        {
          "internalType": "uint256",
          "name": "amount_",
          "type": "uint256"
        }
      ],
      "name": "unstake",
      "outputs": [],
      "stateMutability": "payable",
      "type": "function"
    }
  ],
  "bytecode": "0x608060405234801561001057600080fd5b5061001a336100f3565b6001808055600380546001600160a01b031916732b60bd0d80495dd27ce3f8610b4980e94056b30c17905566470de4df8200006004556002805474fb08de74d3dc381d2130e8885bdad4e558b24145006001600160a81b0319909116178155604080518082019091524381526000602082018181526007805495860181559091529051929091027fa66cc928b5edb82af9bd49922954155ab7b0942694bea4ce44661d9a8736c688810192909255517fa66cc928b5edb82af9bd49922954155ab7b0942694bea4ce44661d9a8736c68990910155610143565b600080546001600160a01b038381166001600160a01b0319831681178455604051919092169283917f8be0079c531659141344cd1fd0a4f28419497f9722a3daafe3b4186f6b6457e09190a35050565b610d6c806101526000396000f3fe6080604052600436106100fd5760003560e01c8063817b1cd211610095578063cd3daf9d11610064578063cd3daf9d1461024c578063def68a9c14610261578063f0ba844014610281578063f2fde38b146102b6578063fc0c546a146102d657600080fd5b8063817b1cd2146101dc5780638456cb59146101f25780638da5cb5b14610207578063a694fc3a1461023957600080fd5b80633f4ba83a116100d15780633f4ba83a146101725780635c975abb14610187578063715018a6146101b15780637b0a47ee146101c657600080fd5b80628cc26214610102578063204cbed2146101355780632e17de7814610157578063372500ab1461016a575b600080fd5b34801561010e57600080fd5b5061012261011d366004610c06565b6102f6565b6040519081526020015b60405180910390f35b34801561014157600080fd5b50610155610150366004610c36565b610373565b005b610155610165366004610c36565b610380565b6101556105ca565b34801561017e57600080fd5b506101556106a3565b34801561019357600080fd5b506002546101a19060ff1681565b604051901515815260200161012c565b3480156101bd57600080fd5b506101556106b7565b3480156101d257600080fd5b5061012260045481565b3480156101e857600080fd5b50610122600a5481565b3480156101fe57600080fd5b506101556106cb565b34801561021357600080fd5b506000546001600160a01b03165b6040516001600160a01b03909116815260200161012c565b610155610247366004610c36565b6106e2565b34801561025857600080fd5b506101226108cf565b34801561026d57600080fd5b5061015561027c366004610c06565b61092c565b34801561028d57600080fd5b506102a161029c366004610c36565b610a5f565b6040805192835260208301919091520161012c565b3480156102c257600080fd5b506101556102d1366004610c06565b610a8d565b3480156102e257600080fd5b50600354610221906001600160a01b031681565b6001600160a01b0381166000908152600960209081526040808320546008909252822054670de0b6b3a76400009061032c6108cf565b6103369190610c65565b6001600160a01b0385166000908152600b60205260409020546103599190610c78565b6103639190610c8f565b61036d9190610cb1565b92915050565b61037b610b03565b600455565b610388610b5d565b60025460ff16156103b45760405162461bcd60e51b81526004016103ab90610cc4565b60405180910390fd5b336103bd6108cf565b600655436005556103cd816102f6565b6001600160a01b0382166000908152600960209081526040808320939093556006546008825283832055338252600b905220548211156104445760405162461bcd60e51b8152602060048201526012602482015271139bdd08195b9bdd59da1d081cdd185ad95960721b60448201526064016103ab565b81600a60008282546104569190610c65565b9091555050336000908152600b60205260408120805484929061047a908490610c65565b9091555050604080518082018252438152600a54602082019081526007805460018101825560009190915291517fa66cc928b5edb82af9bd49922954155ab7b0942694bea4ce44661d9a8736c688600290930292830155517fa66cc928b5edb82af9bd49922954155ab7b0942694bea4ce44661d9a8736c68990910155600354905163a9059cbb60e01b8152336004820152602481018490526001600160a01b039091169063a9059cbb906044016020604051808303816000875af1158015610547573d6000803e3d6000fd5b505050506040513d601f19601f8201168201806040525081019061056b9190610cfb565b50336000818152600b6020908152604091829020548251938452908301859052908201527ff960dbf9e5d0682f7a298ed974e33a28b4464914b7a2bfac12ae419a9afeb280906060015b60405180910390a1506105c760018055565b50565b60025460ff16156105ed5760405162461bcd60e51b81526004016103ab90610cc4565b336105f66108cf565b60065543600555610606816102f6565b6001600160a01b03828116600090815260096020818152604080842095909555600654600882528584205533808452919052838220805492905560035493516340c10f1960e01b81526004810191909152602481018290529092909116906340c10f1990604401600060405180830381600087803b15801561068757600080fd5b505af115801561069b573d6000803e3d6000fd5b505050505050565b6106ab610b03565b6002805460ff19169055565b6106bf610b03565b6106c96000610bb6565b565b6106d3610b03565b6002805460ff19166001179055565b6106ea610b5d565b60025460ff161561070d5760405162461bcd60e51b81526004016103ab90610cc4565b336107166108cf565b60065543600555610726816102f6565b6001600160a01b038216600090815260096020908152604080832093909355600654600890915291812091909155600a8054849290610766908490610cb1565b9091555050336000908152600b60205260408120805484929061078a908490610cb1565b9091555050604080518082018252438152600a54602082019081526007805460018101825560009190915291517fa66cc928b5edb82af9bd49922954155ab7b0942694bea4ce44661d9a8736c688600290930292830155517fa66cc928b5edb82af9bd49922954155ab7b0942694bea4ce44661d9a8736c6899091015560035490516323b872dd60e01b8152336004820152306024820152604481018490526001600160a01b03909116906323b872dd906064016020604051808303816000875af115801561085d573d6000803e3d6000fd5b505050506040513d601f19601f820116820180604052508101906108819190610cfb565b50336000818152600b6020908152604091829020548251938452908301859052908201527f5af417134f72a9d41143ace85b0a26dce6f550f894f2cbc1eeee8810603d91b6906060016105b5565b6000600a546000036108e15750600090565b600a546005546108f19043610c65565b6004546108fe9190610c78565b61091090670de0b6b3a7640000610c78565b61091a9190610c8f565b6006546109279190610cb1565b905090565b610934610b03565b6003546001600160a01b039081169082160361097b5760405162461bcd60e51b815260206004820152600660248201526510ba37b5b2b760d11b60448201526064016103ab565b6040516370a0823160e01b81523060048201526000906001600160a01b038316906370a0823190602401602060405180830381865afa1580156109c2573d6000803e3d6000fd5b505050506040513d601f19601f820116820180604052508101906109e69190610d1d565b60405163a9059cbb60e01b8152336004820152602481018290529091506001600160a01b0383169063a9059cbb906044016020604051808303816000875af1158015610a36573d6000803e3d6000fd5b505050506040513d601f19601f82011682018060405250810190610a5a9190610cfb565b505050565b60078181548110610a6f57600080fd5b60009182526020909120600290910201805460019091015490915082565b610a95610b03565b6001600160a01b038116610afa5760405162461bcd60e51b815260206004820152602660248201527f4f776e61626c653a206e6577206f776e657220697320746865207a65726f206160448201526564647265737360d01b60648201526084016103ab565b6105c781610bb6565b6000546001600160a01b031633146106c95760405162461bcd60e51b815260206004820181905260248201527f4f776e61626c653a2063616c6c6572206973206e6f7420746865206f776e657260448201526064016103ab565b600260015403610baf5760405162461bcd60e51b815260206004820152601f60248201527f5265656e7472616e637947756172643a207265656e7472616e742063616c6c0060448201526064016103ab565b6002600155565b600080546001600160a01b038381166001600160a01b0319831681178455604051919092169283917f8be0079c531659141344cd1fd0a4f28419497f9722a3daafe3b4186f6b6457e09190a35050565b600060208284031215610c1857600080fd5b81356001600160a01b0381168114610c2f57600080fd5b9392505050565b600060208284031215610c4857600080fd5b5035919050565b634e487b7160e01b600052601160045260246000fd5b8181038181111561036d5761036d610c4f565b808202811582820484141761036d5761036d610c4f565b600082610cac57634e487b7160e01b600052601260045260246000fd5b500490565b8082018082111561036d5761036d610c4f565b6020808252601d908201527f436f6e74726163742069732063757272656e746c792050617573656421000000604082015260600190565b600060208284031215610d0d57600080fd5b81518015158114610c2f57600080fd5b600060208284031215610d2f57600080fd5b505191905056fea264697066735822122066f94734a44532b4363ad0792c52fe437b43a603ab7196557e9995f16ed9619a64736f6c63430008150033",
  "linkReferences": {},
  "deployedLinkReferences": {}
}