{
  "_format": "hh-sol-artifact-1",
  "contractName": "RecruitCoinTest",
  "sourceName": "contracts/linkcode.sol",
  "abi": [
    {
      "inputs": [],
      "stateMutability": "nonpayable",
      "type": "constructor"
    },
    {
      "anonymous": false,
      "inputs": [
        {
          "indexed": true,
          "internalType": "address",
          "name": "owner",
          "type": "address"
        },
        {
          "indexed": true,
          "internalType": "address",
          "name": "spender",
          "type": "address"
        },
        {
          "indexed": false,
          "internalType": "uint256",
          "name": "value",
          "type": "uint256"
        }
      ],
      "name": "Approval",
      "type": "event"
    },
    {
      "anonymous": false,
      "inputs": [
        {
          "indexed": false,
          "internalType": "uint256",
          "name": "amount",
          "type": "uint256"
        }
      ],
      "name": "Claimed",
      "type": "event"
    },
    {
      "anonymous": false,
      "inputs": [
        {
          "indexed": false,
          "internalType": "address",
          "name": "depositor",
          "type": "address"
        },
        {
          "indexed": false,
          "internalType": "uint256",
          "name": "paymentAmount",
          "type": "uint256"
        },
        {
          "indexed": false,
          "internalType": "uint256",
          "name": "purchasedTokens",
          "type": "uint256"
        }
      ],
      "name": "Deposits",
      "type": "event"
    },
    {
      "anonymous": false,
      "inputs": [
        {
          "indexed": true,
          "internalType": "address",
          "name": "previousOwner",
          "type": "address"
        },
        {
          "indexed": true,
          "internalType": "address",
          "name": "newOwner",
          "type": "address"
        }
      ],
      "name": "OwnershipTransferred",
      "type": "event"
    },
    {
      "anonymous": false,
      "inputs": [
        {
          "indexed": true,
          "internalType": "address",
          "name": "from",
          "type": "address"
        },
        {
          "indexed": true,
          "internalType": "address",
          "name": "to",
          "type": "address"
        },
        {
          "indexed": false,
          "internalType": "uint256",
          "name": "value",
          "type": "uint256"
        }
      ],
      "name": "Transfer",
      "type": "event"
    },
    {
      "inputs": [
        {
          "internalType": "address",
          "name": "owner",
          "type": "address"
        },
        {
          "internalType": "address",
          "name": "spender",
          "type": "address"
        }
      ],
      "name": "allowance",
      "outputs": [
        {
          "internalType": "uint256",
          "name": "",
          "type": "uint256"
        }
      ],
      "stateMutability": "view",
      "type": "function"
    },
    {
      "inputs": [
        {
          "internalType": "address",
          "name": "spender",
          "type": "address"
        },
        {
          "internalType": "uint256",
          "name": "amount",
          "type": "uint256"
        }
      ],
      "name": "approve",
      "outputs": [
        {
          "internalType": "bool",
          "name": "",
          "type": "bool"
        }
      ],
      "stateMutability": "nonpayable",
      "type": "function"
    },
    {
      "inputs": [
        {
          "internalType": "address",
          "name": "account",
          "type": "address"
        }
      ],
      "name": "balanceOf",
      "outputs": [
        {
          "internalType": "uint256",
          "name": "",
          "type": "uint256"
        }
      ],
      "stateMutability": "view",
      "type": "function"
    },
    {
      "inputs": [
        {
          "internalType": "uint256",
          "name": "",
          "type": "uint256"
        }
      ],
      "name": "bonus",
      "outputs": [
        {
          "internalType": "uint256",
          "name": "",
          "type": "uint256"
        }
      ],
      "stateMutability": "view",
      "type": "function"
    },
    {
      "inputs": [
        {
          "internalType": "bytes32",
          "name": "vestingScheduleId",
          "type": "bytes32"
        },
        {
          "internalType": "uint256",
          "name": "amount",
          "type": "uint256"
        }
      ],
      "name": "claim",
      "outputs": [],
      "stateMutability": "nonpayable",
      "type": "function"
    },
    {
      "inputs": [
        {
          "internalType": "address",
          "name": "holder",
          "type": "address"
        }
      ],
      "name": "computeNextVestingScheduleIdForHolder",
      "outputs": [
        {
          "internalType": "bytes32",
          "name": "",
          "type": "bytes32"
        }
      ],
      "stateMutability": "view",
      "type": "function"
    },
    {
      "inputs": [
        {
          "internalType": "address",
          "name": "holder",
          "type": "address"
        },
        {
          "internalType": "uint256",
          "name": "index",
          "type": "uint256"
        }
      ],
      "name": "computeVestingScheduleIdForAddressAndIndex",
      "outputs": [
        {
          "internalType": "bytes32",
          "name": "",
          "type": "bytes32"
        }
      ],
      "stateMutability": "pure",
      "type": "function"
    },
    {
      "inputs": [
        {
          "internalType": "uint256",
          "name": "",
          "type": "uint256"
        }
      ],
      "name": "dates",
      "outputs": [
        {
          "internalType": "uint256",
          "name": "",
          "type": "uint256"
        }
      ],
      "stateMutability": "view",
      "type": "function"
    },
    {
      "inputs": [],
      "name": "decimals",
      "outputs": [
        {
          "internalType": "uint8",
          "name": "",
          "type": "uint8"
        }
      ],
      "stateMutability": "view",
      "type": "function"
    },
    {
      "inputs": [
        {
          "internalType": "address",
          "name": "spender",
          "type": "address"
        },
        {
          "internalType": "uint256",
          "name": "subtractedValue",
          "type": "uint256"
        }
      ],
      "name": "decreaseAllowance",
      "outputs": [
        {
          "internalType": "bool",
          "name": "",
          "type": "bool"
        }
      ],
      "stateMutability": "nonpayable",
      "type": "function"
    },
    {
      "inputs": [
        {
          "internalType": "uint256",
          "name": "paymentAmount",
          "type": "uint256"
        },
        {
          "internalType": "uint8",
          "name": "pTIndex",
          "type": "uint8"
        }
      ],
      "name": "deposit",
      "outputs": [],
      "stateMutability": "nonpayable",
      "type": "function"
    },
    {
      "inputs": [
        {
          "internalType": "address[]",
          "name": "_recipients",
          "type": "address[]"
        },
        {
          "internalType": "uint256[]",
          "name": "_amount",
          "type": "uint256[]"
        }
      ],
      "name": "earlyMint",
      "outputs": [],
      "stateMutability": "nonpayable",
      "type": "function"
    },
    {
      "inputs": [
        {
          "internalType": "bytes32",
          "name": "vestingScheduleId",
          "type": "bytes32"
        }
      ],
      "name": "getVestingSchedule",
      "outputs": [
        {
          "components": [
            {
              "internalType": "bool",
              "name": "initialized",
              "type": "bool"
            },
            {
              "internalType": "address",
              "name": "beneficiary",
              "type": "address"
            },
            {
              "internalType": "uint256",
              "name": "cliff",
              "type": "uint256"
            },
            {
              "internalType": "uint256",
              "name": "start",
              "type": "uint256"
            },
            {
              "internalType": "uint256",
              "name": "duration",
              "type": "uint256"
            },
            {
              "internalType": "uint256",
              "name": "slicePeriodSeconds",
              "type": "uint256"
            },
            {
              "internalType": "bool",
              "name": "revocable",
              "type": "bool"
            },
            {
              "internalType": "uint256",
              "name": "amountTotal",
              "type": "uint256"
            },
            {
              "internalType": "uint256",
              "name": "released",
              "type": "uint256"
            },
            {
              "internalType": "bool",
              "name": "revoked",
              "type": "bool"
            }
          ],
          "internalType": "struct RecruitCoinTest.VestingSchedule",
          "name": "",
          "type": "tuple"
        }
      ],
      "stateMutability": "view",
      "type": "function"
    },
    {
      "inputs": [
        {
          "internalType": "address",
          "name": "holder",
          "type": "address"
        },
        {
          "internalType": "uint256",
          "name": "index",
          "type": "uint256"
        }
      ],
      "name": "getVestingScheduleByAddressAndIndex",
      "outputs": [
        {
          "components": [
            {
              "internalType": "bool",
              "name": "initialized",
              "type": "bool"
            },
            {
              "internalType": "address",
              "name": "beneficiary",
              "type": "address"
            },
            {
              "internalType": "uint256",
              "name": "cliff",
              "type": "uint256"
            },
            {
              "internalType": "uint256",
              "name": "start",
              "type": "uint256"
            },
            {
              "internalType": "uint256",
              "name": "duration",
              "type": "uint256"
            },
            {
              "internalType": "uint256",
              "name": "slicePeriodSeconds",
              "type": "uint256"
            },
            {
              "internalType": "bool",
              "name": "revocable",
              "type": "bool"
            },
            {
              "internalType": "uint256",
              "name": "amountTotal",
              "type": "uint256"
            },
            {
              "internalType": "uint256",
              "name": "released",
              "type": "uint256"
            },
            {
              "internalType": "bool",
              "name": "revoked",
              "type": "bool"
            }
          ],
          "internalType": "struct RecruitCoinTest.VestingSchedule",
          "name": "",
          "type": "tuple"
        }
      ],
      "stateMutability": "view",
      "type": "function"
    },
    {
      "inputs": [
        {
          "internalType": "address",
          "name": "spender",
          "type": "address"
        },
        {
          "internalType": "uint256",
          "name": "addedValue",
          "type": "uint256"
        }
      ],
      "name": "increaseAllowance",
      "outputs": [
        {
          "internalType": "bool",
          "name": "",
          "type": "bool"
        }
      ],
      "stateMutability": "nonpayable",
      "type": "function"
    },
    {
      "inputs": [
        {
          "internalType": "address[]",
          "name": "_recipients",
          "type": "address[]"
        },
        {
          "internalType": "uint256[]",
          "name": "_amount",
          "type": "uint256[]"
        }
      ],
      "name": "mint",
      "outputs": [],
      "stateMutability": "nonpayable",
      "type": "function"
    },
    {
      "inputs": [],
      "name": "name",
      "outputs": [
        {
          "internalType": "string",
          "name": "",
          "type": "string"
        }
      ],
      "stateMutability": "view",
      "type": "function"
    },
    {
      "inputs": [],
      "name": "owner",
      "outputs": [
        {
          "internalType": "address",
          "name": "",
          "type": "address"
        }
      ],
      "stateMutability": "view",
      "type": "function"
    },
    {
      "inputs": [
        {
          "internalType": "uint256",
          "name": "",
          "type": "uint256"
        }
      ],
      "name": "paymentTokens",
      "outputs": [
        {
          "internalType": "contract IERC20",
          "name": "",
          "type": "address"
        }
      ],
      "stateMutability": "view",
      "type": "function"
    },
    {
      "inputs": [
        {
          "internalType": "uint256",
          "name": "",
          "type": "uint256"
        }
      ],
      "name": "prices",
      "outputs": [
        {
          "internalType": "uint256",
          "name": "",
          "type": "uint256"
        }
      ],
      "stateMutability": "view",
      "type": "function"
    },
    {
      "inputs": [],
      "name": "renounceOwnership",
      "outputs": [],
      "stateMutability": "nonpayable",
      "type": "function"
    },
    {
      "inputs": [
        {
          "internalType": "bytes32",
          "name": "vestingScheduleId",
          "type": "bytes32"
        }
      ],
      "name": "revoke",
      "outputs": [],
      "stateMutability": "nonpayable",
      "type": "function"
    },
    {
      "inputs": [
        {
          "internalType": "uint256[4]",
          "name": "_bonus",
          "type": "uint256[4]"
        }
      ],
      "name": "setBonus",
      "outputs": [],
      "stateMutability": "nonpayable",
      "type": "function"
    },
    {
      "inputs": [
        {
          "internalType": "uint256[4]",
          "name": "_dates",
          "type": "uint256[4]"
        }
      ],
      "name": "setDates",
      "outputs": [],
      "stateMutability": "nonpayable",
      "type": "function"
    },
    {
      "inputs": [
        {
          "internalType": "contract IERC20[]",
          "name": "_paymentTokens",
          "type": "address[]"
        }
      ],
      "name": "setPaymentTokens",
      "outputs": [],
      "stateMutability": "nonpayable",
      "type": "function"
    },
    {
      "inputs": [
        {
          "internalType": "uint256[2]",
          "name": "_prices",
          "type": "uint256[2]"
        }
      ],
      "name": "setPrices",
      "outputs": [],
      "stateMutability": "nonpayable",
      "type": "function"
    },
    {
      "inputs": [
        {
          "internalType": "uint256",
          "name": "",
          "type": "uint256"
        }
      ],
      "name": "supplies",
      "outputs": [
        {
          "internalType": "uint256",
          "name": "",
          "type": "uint256"
        }
      ],
      "stateMutability": "view",
      "type": "function"
    },
    {
      "inputs": [],
      "name": "symbol",
      "outputs": [
        {
          "internalType": "string",
          "name": "",
          "type": "string"
        }
      ],
      "stateMutability": "view",
      "type": "function"
    },
    {
      "inputs": [],
      "name": "totalSupply",
      "outputs": [
        {
          "internalType": "uint256",
          "name": "",
          "type": "uint256"
        }
      ],
      "stateMutability": "view",
      "type": "function"
    },
    {
      "inputs": [
        {
          "internalType": "address",
          "name": "to",
          "type": "address"
        },
        {
          "internalType": "uint256",
          "name": "amount",
          "type": "uint256"
        }
      ],
      "name": "transfer",
      "outputs": [
        {
          "internalType": "bool",
          "name": "",
          "type": "bool"
        }
      ],
      "stateMutability": "nonpayable",
      "type": "function"
    },
    {
      "inputs": [
        {
          "internalType": "address",
          "name": "from",
          "type": "address"
        },
        {
          "internalType": "address",
          "name": "to",
          "type": "address"
        },
        {
          "internalType": "uint256",
          "name": "amount",
          "type": "uint256"
        }
      ],
      "name": "transferFrom",
      "outputs": [
        {
          "internalType": "bool",
          "name": "",
          "type": "bool"
        }
      ],
      "stateMutability": "nonpayable",
      "type": "function"
    },
    {
      "inputs": [
        {
          "internalType": "address",
          "name": "newOwner",
          "type": "address"
        }
      ],
      "name": "transferOwnership",
      "outputs": [],
      "stateMutability": "nonpayable",
      "type": "function"
    },
    {
      "inputs": [
        {
          "internalType": "uint8",
          "name": "pTIndex",
          "type": "uint8"
        },
        {
          "internalType": "uint256",
          "name": "amount",
          "type": "uint256"
        }
      ],
      "name": "withdrawTokens",
      "outputs": [],
      "stateMutability": "nonpayable",
      "type": "function"
    }
  ],
  "bytecode": "0x610180604052630ee6b28060809081526203d09060a052621312d060c05262bebc2060e05263017d7840610100526303b9aca0610120526308f0d18061014052600061016052620000549060089081620002c5565b5060408051808201909152670186cc6acd4b00008152664a9b638448800060208201526200008790601090600262000310565b506040518060800160405280620000a36200025660201b60201c565b8152602001620000c662278d00425b6200025a60201b620012291790919060201c565b8152602001620000da62278d0042620000b2565b8152602001620000ee624f1a0042620000b2565b9052620001009060129060046200034c565b5060408051608081018252600f8152600a602082015260079181019190915260056060820152620001369060169060046200037d565b503480156200014457600080fd5b50604080518082018252600c81526b2932b1b93ab4ba1021b7b4b760a11b602080830191825283518085019094526005845264149150d55560da1b9084015281519192916200019691600391620003b3565b508051620001ac906004906020840190620003b3565b505050620001c9620001c36200026f60201b60201c565b62000273565b60016006556040805160808101825273534399090da190a2e1cf868299a448907f1b2a27815273a11c8d9dc9b66e209ef60f0c8d969d3cd988782c6020820152738301f2213c0eed49a7e28ae4c3e91722919b8b479181019190915273f976a4dc07201f4e0f9fc8f85766344d7a93c45660608201526200024f9060079060046200042f565b5062000502565b4290565b60006200026882846200049e565b9392505050565b3390565b600580546001600160a01b038381166001600160a01b0319831681179093556040519116919082907f8be0079c531659141344cd1fd0a4f28419497f9722a3daafe3b4186f6b6457e090600090a35050565b8260088101928215620002fe579160200282015b82811115620002fe578251829063ffffffff16905591602001919060010190620002d9565b506200030c92915062000487565b5090565b8260028101928215620002fe579160200282015b82811115620002fe57825182906001600160401b031690559160200191906001019062000324565b8260048101928215620002fe579160200282015b82811115620002fe57825182559160200191906001019062000360565b8260048101928215620002fe579160200282015b82811115620002fe578251829060ff1690559160200191906001019062000391565b828054620003c190620004c5565b90600052602060002090601f016020900481019282620003e55760008555620002fe565b82601f106200040057805160ff1916838001178555620002fe565b82800160010185558215620002fe5791820182811115620002fe57825182559160200191906001019062000360565b828054828255906000526020600020908101928215620002fe579160200282015b82811115620002fe57825182546001600160a01b0319166001600160a01b0390911617825560209092019160019091019062000450565b5b808211156200030c576000815560010162000488565b60008219821115620004c057634e487b7160e01b600052601160045260246000fd5b500190565b600181811c90821680620004da57607f821691505b60208210811415620004fc57634e487b7160e01b600052602260045260246000fd5b50919050565b6124c080620005126000396000f3fe608060405234801561001057600080fd5b50600436106101fb5760003560e01c80638af104da1161011a578063b88dccac116100ad578063de6608411161007c578063de6608411461044b578063e467f7e01461045e578063f2fde38b14610471578063f51321d714610484578063f7c469f01461049757600080fd5b8063b88dccac146103ff578063bc31c1c114610412578063db7a1f5f14610425578063dd62ed3e1461043857600080fd5b8063a457c2d7116100e9578063a457c2d7146103b3578063a9059cbb146103c6578063ac9b8a89146103d9578063b75c7dc6146103ec57600080fd5b80638af104da146103535780638da5cb5b1461036657806395d89b411461038b5780639ef346b41461039357600080fd5b8063313ce5671161019257806363f449681161016157806363f44968146102fc578063654cfdff1461030f57806370a0823114610322578063715018a61461034b57600080fd5b8063313ce567146102b457806336afb788146102c357806339509351146102d65780635133ae24146102e957600080fd5b806323b872dd116101ce57806323b872dd1461026857806324749b591461027b57806326f1a1fd1461028e578063298a35e8146102a157600080fd5b806306fdde0314610200578063095ea7b31461021e5780631655aea31461024157806318160ddd14610256575b600080fd5b6102086104aa565b6040516102159190611fea565b60405180910390f35b61023161022c36600461205b565b61053c565b6040519015158152602001610215565b61025461024f366004612085565b610554565b005b6002545b604051908152602001610215565b6102316102763660046120a7565b61056d565b61025a6102893660046120e3565b610591565b61025a61029c3660046120e3565b6105a8565b6102546102af3660046120fc565b6105b8565b60405160128152602001610215565b6102546102d136600461212f565b6105cd565b6102316102e436600461205b565b610789565b61025a6102f73660046120e3565b6107ab565b61025461030a36600461214b565b6107bb565b61025461031d36600461216d565b610a1c565b61025a610330366004612199565b6001600160a01b031660009081526020819052604090205490565b610254610a27565b61025a61036136600461205b565b610a3b565b6005546001600160a01b03165b6040516001600160a01b039091168152602001610215565b610208610a82565b6103a66103a13660046120e3565b610a91565b60405161021591906121b4565b6102316103c136600461205b565b610b35565b6102316103d436600461205b565b610bb0565b6102546103e73660046120fc565b610bbe565b6102546103fa3660046120e3565b610bd3565b61025461040d36600461228b565b610dd9565b61025a6104203660046120e3565b610ded565b6102546104333660046122cd565b610dfd565b61025a610446366004612339565b610fda565b6103736104593660046120e3565b611005565b61025461046c3660046122cd565b61102f565b61025461047f366004612199565b61116a565b6103a661049236600461205b565b6111e3565b61025a6104a5366004612199565b6111ff565b6060600380546104b990612363565b80601f01602080910402602001604051908101604052809291908181526020018280546104e590612363565b80156105325780601f1061050757610100808354040283529160200191610532565b820191906000526020600020905b81548152906001019060200180831161051557829003601f168201915b5050505050905090565b60003361054a818585611235565b5060019392505050565b61055c611359565b6105696010826002611eb5565b5050565b60003361057b8582856113b3565b61058685858561142d565b506001949350505050565b601681600481106105a157600080fd5b0154905081565b600881600881106105a157600080fd5b6105c0611359565b6105696012826004611ef3565b6105d5611359565b8060078360ff16815481106105ec576105ec612398565b6000918252602090912001546040516370a0823160e01b81523060048201526001600160a01b03909116906370a082319060240160206040518083038186803b15801561063857600080fd5b505afa15801561064c573d6000803e3d6000fd5b505050506040513d601f19601f8201168201806040525081019061067091906123ae565b10156106ba5760405162461bcd60e51b8152602060048201526014602482015273494e53554646494349454e542042414c414e434560601b60448201526064015b60405180910390fd5b60078260ff16815481106106d0576106d0612398565b6000918252602090912001546001600160a01b03166323b872dd306106fd6005546001600160a01b031690565b6040516001600160e01b031960e085901b1681526001600160a01b0392831660048201529116602482015260448101849052606401602060405180830381600087803b15801561074c57600080fd5b505af1158015610760573d6000803e3d6000fd5b505050506040513d601f19601f8201168201806040525081019061078491906123c7565b505050565b60003361054a81858561079c8383610fda565b6107a691906123ff565b611235565b601281600481106105a157600080fd5b6107c36115d1565b6000828152601b6020526040902054829060ff16151560011461081b5760405162461bcd60e51b815260206004820152601060248201526f139bc815995cdd1a5b99c8199bdd5b9960821b60448201526064016106b1565b6000818152601b602052604090206008015460ff16156108725760405162461bcd60e51b815260206004820152601260248201527114995d9bdad9481b9bdd08185b1b1bddd95960721b60448201526064016106b1565b6000838152601b602052604090208054600554336001600160a01b0361010090930483168114929091161481806108a65750805b6108f25760405162461bcd60e51b815260206004820152601a60248201527f4f6e6c792062656e65666963696172792063616e20636c61696d00000000000060448201526064016106b1565b6040805161014081018252845460ff808216151583526001600160a01b03610100928390041660208401526001870154938301939093526002860154606083015260038601546080830152600486015460a083015260058601548316151560c0830152600686015460e0830152600786015490820152600885015490911615156101208201526000906109849061162b565b9050858110156109cc5760405162461bcd60e51b8152602060048201526013602482015272546f6b656e73206e6f74206176616c69626c6560681b60448201526064016106b1565b60078401546109db9087611229565b60078501558354601c546101009091046001600160a01b0316906109ff9088611714565b601c55610a0c8188611720565b5050505050506105696001600655565b6105693383836117df565b610a2f611359565b610a396000611b05565b565b6040516bffffffffffffffffffffffff19606084901b1660208201526034810182905260009060540160405160208183030381529060405280519060200120905092915050565b6060600480546104b990612363565b610a99611f20565b506000908152601b6020908152604091829020825161014081018452815460ff808216151583526001600160a01b036101009283900416948301949094526001830154948201949094526002820154606082015260038201546080820152600482015460a082015260058201548316151560c0820152600682015460e08201526007820154938101939093526008015416151561012082015290565b60003381610b438286610fda565b905083811015610ba35760405162461bcd60e51b815260206004820152602560248201527f45524332303a2064656372656173656420616c6c6f77616e63652062656c6f77604482015264207a65726f60d81b60648201526084016106b1565b6105868286868403611235565b60003361054a81858561142d565b610bc6611359565b6105696016826004611ef3565b610bdb611359565b6000818152601b6020526040902054819060ff161515600114610c335760405162461bcd60e51b815260206004820152601060248201526f139bc815995cdd1a5b99c8199bdd5b9960821b60448201526064016106b1565b6000818152601b602052604090206008015460ff1615610c8a5760405162461bcd60e51b815260206004820152601260248201527114995d9bdad9481b9bdd08185b1b1bddd95960721b60448201526064016106b1565b6000828152601b60205260409020600581015460ff161515600114610cf15760405162461bcd60e51b815260206004820152601860248201527f76657374696e67206973206e6f74207265766f6361626c65000000000000000060448201526064016106b1565b6040805161014081018252825460ff808216151583526001600160a01b03610100928390041660208401526001850154938301939093526002840154606083015260038401546080830152600484015460a083015260058401548316151560c0830152600684015460e083015260078401549082015260088301549091161515610120820152600090610d839061162b565b90508015610d9557610d9584826107bb565b6000610db28360070154846006015461171490919063ffffffff16565b601c54909150610dc29082611714565b601c555050600801805460ff191660011790555050565b610de1611359565b61078460078383611f82565b601081600281106105a157600080fd5b610e05611359565b60005b83811015610fd357600d54838383818110610e2557610e25612398565b905060200201351115610e705760405162461bcd60e51b815260206004820152601360248201527227ab22a9232627ab9020a62627a1a0aa24a7a760691b60448201526064016106b1565b6000858583818110610e8457610e84612398565b9050602002016020810190610e999190612199565b6001600160a01b03161415610ee35760405162461bcd60e51b815260206004820152601060248201526f105111149154d4c8149154555254915160821b60448201526064016106b1565b6000838383818110610ef757610ef7612398565b905060200201351115610f3e5760405162461bcd60e51b815260206004820152600f60248201526e105353d55395081491545552549151608a1b60448201526064016106b1565b610f76838383818110610f5357610f53612398565b905060200201356008600560088110610f6e57610f6e612398565b015490611714565b600d55610fc1858583818110610f8e57610f8e612398565b9050602002016020810190610fa39190612199565b848484818110610fb557610fb5612398565b90506020020135611720565b80610fcb81612417565b915050610e08565b5050505050565b6001600160a01b03918216600090815260016020908152604080832093909416825291909152205490565b6007818154811061101557600080fd5b6000918252602090912001546001600160a01b0316905081565b611037611359565b60005b83811015610fd357600085858381811061105657611056612398565b905060200201602081019061106b9190612199565b6001600160a01b031614156110b55760405162461bcd60e51b815260206004820152601060248201526f105111149154d4c8149154555254915160821b60448201526064016106b1565b60008383838181106110c9576110c9612398565b9050602002013511156111105760405162461bcd60e51b815260206004820152600f60248201526e105353d55395081491545552549151608a1b60448201526064016106b1565b61114083838381811061112557611125612398565b905060200201356008600660088110610f6e57610f6e612398565b600e55611158858583818110610f8e57610f8e612398565b8061116281612417565b91505061103a565b611172611359565b6001600160a01b0381166111d75760405162461bcd60e51b815260206004820152602660248201527f4f776e61626c653a206e6577206f776e657220697320746865207a65726f206160448201526564647265737360d01b60648201526084016106b1565b6111e081611b05565b50565b6111eb611f20565b6111f86103a18484610a3b565b9392505050565b6001600160a01b0381166000908152601d6020526040812054611223908390610a3b565b92915050565b60006111f882846123ff565b6001600160a01b0383166112975760405162461bcd60e51b8152602060048201526024808201527f45524332303a20617070726f76652066726f6d20746865207a65726f206164646044820152637265737360e01b60648201526084016106b1565b6001600160a01b0382166112f85760405162461bcd60e51b815260206004820152602260248201527f45524332303a20617070726f766520746f20746865207a65726f206164647265604482015261737360f01b60648201526084016106b1565b6001600160a01b0383811660008181526001602090815260408083209487168084529482529182902085905590518481527f8c5be1e5ebec7d5bd14f71427d1e84f3dd0314c0f7b2291e5b200ac8c7c3b925910160405180910390a3505050565b6005546001600160a01b03163314610a395760405162461bcd60e51b815260206004820181905260248201527f4f776e61626c653a2063616c6c6572206973206e6f7420746865206f776e657260448201526064016106b1565b60006113bf8484610fda565b90506000198114611427578181101561141a5760405162461bcd60e51b815260206004820152601d60248201527f45524332303a20696e73756666696369656e7420616c6c6f77616e636500000060448201526064016106b1565b6114278484848403611235565b50505050565b6001600160a01b0383166114915760405162461bcd60e51b815260206004820152602560248201527f45524332303a207472616e736665722066726f6d20746865207a65726f206164604482015264647265737360d81b60648201526084016106b1565b6001600160a01b0382166114f35760405162461bcd60e51b815260206004820152602360248201527f45524332303a207472616e7366657220746f20746865207a65726f206164647260448201526265737360e81b60648201526084016106b1565b6001600160a01b0383166000908152602081905260409020548181101561156b5760405162461bcd60e51b815260206004820152602660248201527f45524332303a207472616e7366657220616d6f756e7420657863656564732062604482015265616c616e636560d01b60648201526084016106b1565b6001600160a01b03848116600081815260208181526040808320878703905593871680835291849020805487019055925185815290927fddf252ad1be2c89b69c2b068fc378daa952ba7f163c4a11628f55a4df523b3ef910160405180910390a3611427565b600260065414156116245760405162461bcd60e51b815260206004820152601f60248201527f5265656e7472616e637947756172643a207265656e7472616e742063616c6c0060448201526064016106b1565b6002600655565b60408101516000904290811080611649575061012083015115156001145b156116575750600092915050565b6080830151606084015161166a91611229565b81106116845761010083015160e08401516111f891611714565b600061169d84606001518361171490919063ffffffff16565b60a085015190915060006116b18383611b57565b905060006116bf8284611b63565b905060006116e888608001516116e2848b60e00151611b6390919063ffffffff16565b90611b57565b90506117028861010001518261171490919063ffffffff16565b98975050505050505050565b50919050565b60006111f88284612432565b6001600160a01b0382166117765760405162461bcd60e51b815260206004820152601f60248201527f45524332303a206d696e7420746f20746865207a65726f20616464726573730060448201526064016106b1565b806002600082825461178891906123ff565b90915550506001600160a01b038216600081815260208181526040808320805486019055518481527fddf252ad1be2c89b69c2b068fc378daa952ba7f163c4a11628f55a4df523b3ef910160405180910390a35050565b60125460009042101580156117f5575060135442105b156118ac5761180b601060005b01548490611b57565b90508060086004015410156118565760405162461bcd60e51b81526020600482015260116024820152704f564552464c4f5720505552434841534560781b60448201526064016106b1565b6118638160086004610f6e565b600c5561187781600860075b015490611229565b600f55600061188c6301e13380425b90611229565b90506118a6858262278d006301e133806001600088611b6f565b50611a09565b60145442101580156118bf575060155442105b156119ca576118d060106000611802565b9050600061190a60646116e260166118f160016118eb611e95565b90611714565b6004811061190157611901612398565b01548590611b63565b90506119168282611229565b600b54101561195b5760405162461bcd60e51b81526020600482015260116024820152704f564552464c4f5720505552434841534560781b60448201526064016106b1565b6119688260086003610f6e565b600b55611978826008600761186f565b600f55600061198a62ed4e0042611886565b90506002611996611e95565b116119ab576119a86276a70042611886565b90505b6119c3868262278d006301e133806001600089611b6f565b5050611a09565b60405162461bcd60e51b815260206004820152601460248201527353414c45204953204e4f54204156414c49424c4560601b60448201526064016106b1565b60078260ff1681548110611a1f57611a1f612398565b6000918252602090912001546040516323b872dd60e01b81526001600160a01b03868116600483015230602483015260448201869052909116906323b872dd90606401602060405180830381600087803b158015611a7c57600080fd5b505af1158015611a90573d6000803e3d6000fd5b505050506040513d601f19601f82011682018060405250810190611ab491906123c7565b50604080516001600160a01b0386168152602081018590529081018290527fbff8b013f0c9459bd241c61149d0bb074ab29b460aacc13fd503bc7188c8bccd9060600160405180910390a150505050565b600580546001600160a01b038381166001600160a01b0319831681179093556040519116919082907f8be0079c531659141344cd1fd0a4f28419497f9722a3daafe3b4186f6b6457e090600090a35050565b60006111f88284612449565b60006111f8828461246b565b60008411611bae5760405162461bcd60e51b815260206004820152600c60248201526b06475726174696f6e203e20360a41b60448201526064016106b1565b60008111611beb5760405162461bcd60e51b815260206004820152600a6024820152690616d6f756e74203e20360b41b60448201526064016106b1565b6001831015611c3c5760405162461bcd60e51b815260206004820152601760248201527f536c696365506572696f645365636f6e6473203e3d203100000000000000000060448201526064016106b1565b604051630f7c469f60e41b81526001600160a01b0388166004820152600090309063f7c469f09060240160206040518083038186803b158015611c7e57600080fd5b505afa158015611c92573d6000803e3d6000fd5b505050506040513d601f19601f82011682018060405250810190611cb691906123ae565b90506000611cc48888611229565b90506040518061014001604052806001151581526020018a6001600160a01b0316815260200182815260200189815260200187815260200186815260200185151581526020018481526020016000815260200160001515815250601b600084815260200190815260200160002060008201518160000160006101000a81548160ff02191690831515021790555060208201518160000160016101000a8154816001600160a01b0302191690836001600160a01b0316021790555060408201518160010155606082015181600201556080820151816003015560a0820151816004015560c08201518160050160006101000a81548160ff02191690831515021790555060e0820151816006015561010082015181600701556101208201518160080160006101000a81548160ff021916908315150217905550905050611e1483601c5461122990919063ffffffff16565b601c55601a805460018181019092557f057c384a7d1c54f3a1b2e5e67b2617b8224fdfd1ea7234eea573a6ff665ff63e018390556001600160a01b038a166000908152601d602052604090205490611e6d908290611229565b6001600160a01b03909a166000908152601d6020526040902099909955505050505050505050565b6000611eb0600161188662093a806014546116e290426118eb565b905090565b8260028101928215611ee3579160200282015b82811115611ee3578235825591602001919060010190611ec8565b50611eef929150611fd5565b5090565b8260048101928215611ee35791602002820182811115611ee3578235825591602001919060010190611ec8565b60405180610140016040528060001515815260200160006001600160a01b031681526020016000815260200160008152602001600081526020016000815260200160001515815260200160008152602001600081526020016000151581525090565b828054828255906000526020600020908101928215611ee3579160200282015b82811115611ee35781546001600160a01b0319166001600160a01b03843516178255602090920191600190910190611fa2565b5b80821115611eef5760008155600101611fd6565b600060208083528351808285015260005b8181101561201757858101830151858201604001528201611ffb565b81811115612029576000604083870101525b50601f01601f1916929092016040019392505050565b80356001600160a01b038116811461205657600080fd5b919050565b6000806040838503121561206e57600080fd5b6120778361203f565b946020939093013593505050565b60006040828403121561209757600080fd5b8260408301111561170e57600080fd5b6000806000606084860312156120bc57600080fd5b6120c58461203f565b92506120d36020850161203f565b9150604084013590509250925092565b6000602082840312156120f557600080fd5b5035919050565b60006080828403121561210e57600080fd5b8260808301111561170e57600080fd5b803560ff8116811461205657600080fd5b6000806040838503121561214257600080fd5b6120778361211e565b6000806040838503121561215e57600080fd5b50508035926020909101359150565b6000806040838503121561218057600080fd5b823591506121906020840161211e565b90509250929050565b6000602082840312156121ab57600080fd5b6111f88261203f565b815115158152610140810160208301516121d960208401826001600160a01b03169052565b5060408301516040830152606083015160608301526080830151608083015260a083015160a083015260c083015161221560c084018215159052565b5060e083810151908301526101008084015190830152610120928301511515929091019190915290565b60008083601f84011261225157600080fd5b50813567ffffffffffffffff81111561226957600080fd5b6020830191508360208260051b850101111561228457600080fd5b9250929050565b6000806020838503121561229e57600080fd5b823567ffffffffffffffff8111156122b557600080fd5b6122c18582860161223f565b90969095509350505050565b600080600080604085870312156122e357600080fd5b843567ffffffffffffffff808211156122fb57600080fd5b6123078883890161223f565b9096509450602087013591508082111561232057600080fd5b5061232d8782880161223f565b95989497509550505050565b6000806040838503121561234c57600080fd5b6123558361203f565b91506121906020840161203f565b600181811c9082168061237757607f821691505b6020821081141561170e57634e487b7160e01b600052602260045260246000fd5b634e487b7160e01b600052603260045260246000fd5b6000602082840312156123c057600080fd5b5051919050565b6000602082840312156123d957600080fd5b815180151581146111f857600080fd5b634e487b7160e01b600052601160045260246000fd5b60008219821115612412576124126123e9565b500190565b600060001982141561242b5761242b6123e9565b5060010190565b600082821015612444576124446123e9565b500390565b60008261246657634e487b7160e01b600052601260045260246000fd5b500490565b6000816000190483118215151615612485576124856123e9565b50029056fea26469706673582212202479ff8c3000b94ff83a665ffa6daf61f966dcbb861c559f285cac6eb531deaf64736f6c63430008090033",
  "linkReferences": {},
  "deployedLinkReferences": {}
}