{
  "_format": "hh-sol-artifact-1",
  "contractName": "DividendPayingToken",
  "sourceName": "contracts/ETR.sol",
  "abi": [
    {
      "inputs": [
        {
          "internalType": "string",
          "name": "_name",
          "type": "string"
        },
        {
          "internalType": "string",
          "name": "_symbol",
          "type": "string"
        }
      ],
      "stateMutability": "nonpayable",
      "type": "constructor"
    },
    {
      "anonymous": false,
      "inputs": [
        {
          "indexed": true,
          "internalType": "address",
          "name": "owner",
          "type": "address"
        },
        {
          "indexed": true,
          "internalType": "address",
          "name": "spender",
          "type": "address"
        },
        {
          "indexed": false,
          "internalType": "uint256",
          "name": "value",
          "type": "uint256"
        }
      ],
      "name": "Approval",
      "type": "event"
    },
    {
      "anonymous": false,
      "inputs": [
        {
          "indexed": true,
          "internalType": "address",
          "name": "to",
          "type": "address"
        },
        {
          "indexed": false,
          "internalType": "uint256",
          "name": "weiAmount",
          "type": "uint256"
        }
      ],
      "name": "DividendWithdrawn",
      "type": "event"
    },
    {
      "anonymous": false,
      "inputs": [
        {
          "indexed": true,
          "internalType": "address",
          "name": "from",
          "type": "address"
        },
        {
          "indexed": false,
          "internalType": "uint256",
          "name": "weiAmount",
          "type": "uint256"
        }
      ],
      "name": "DividendsDistributed",
      "type": "event"
    },
    {
      "anonymous": false,
      "inputs": [
        {
          "indexed": true,
          "internalType": "address",
          "name": "previousOwner",
          "type": "address"
        },
        {
          "indexed": true,
          "internalType": "address",
          "name": "newOwner",
          "type": "address"
        }
      ],
      "name": "OwnershipTransferred",
      "type": "event"
    },
    {
      "anonymous": false,
      "inputs": [
        {
          "indexed": true,
          "internalType": "address",
          "name": "from",
          "type": "address"
        },
        {
          "indexed": true,
          "internalType": "address",
          "name": "to",
          "type": "address"
        },
        {
          "indexed": false,
          "internalType": "uint256",
          "name": "value",
          "type": "uint256"
        }
      ],
      "name": "Transfer",
      "type": "event"
    },
    {
      "inputs": [],
      "name": "ETH",
      "outputs": [
        {
          "internalType": "address",
          "name": "",
          "type": "address"
        }
      ],
      "stateMutability": "view",
      "type": "function"
    },
    {
      "inputs": [
        {
          "internalType": "address",
          "name": "_owner",
          "type": "address"
        }
      ],
      "name": "accumulativeDividendOf",
      "outputs": [
        {
          "internalType": "uint256",
          "name": "",
          "type": "uint256"
        }
      ],
      "stateMutability": "view",
      "type": "function"
    },
    {
      "inputs": [
        {
          "internalType": "address",
          "name": "owner",
          "type": "address"
        },
        {
          "internalType": "address",
          "name": "spender",
          "type": "address"
        }
      ],
      "name": "allowance",
      "outputs": [
        {
          "internalType": "uint256",
          "name": "",
          "type": "uint256"
        }
      ],
      "stateMutability": "view",
      "type": "function"
    },
    {
      "inputs": [
        {
          "internalType": "address",
          "name": "spender",
          "type": "address"
        },
        {
          "internalType": "uint256",
          "name": "amount",
          "type": "uint256"
        }
      ],
      "name": "approve",
      "outputs": [
        {
          "internalType": "bool",
          "name": "",
          "type": "bool"
        }
      ],
      "stateMutability": "nonpayable",
      "type": "function"
    },
    {
      "inputs": [
        {
          "internalType": "address",
          "name": "account",
          "type": "address"
        }
      ],
      "name": "balanceOf",
      "outputs": [
        {
          "internalType": "uint256",
          "name": "",
          "type": "uint256"
        }
      ],
      "stateMutability": "view",
      "type": "function"
    },
    {
      "inputs": [],
      "name": "decimals",
      "outputs": [
        {
          "internalType": "uint8",
          "name": "",
          "type": "uint8"
        }
      ],
      "stateMutability": "view",
      "type": "function"
    },
    {
      "inputs": [
        {
          "internalType": "address",
          "name": "spender",
          "type": "address"
        },
        {
          "internalType": "uint256",
          "name": "subtractedValue",
          "type": "uint256"
        }
      ],
      "name": "decreaseAllowance",
      "outputs": [
        {
          "internalType": "bool",
          "name": "",
          "type": "bool"
        }
      ],
      "stateMutability": "nonpayable",
      "type": "function"
    },
    {
      "inputs": [
        {
          "internalType": "uint256",
          "name": "amount",
          "type": "uint256"
        }
      ],
      "name": "distributeETHDividends",
      "outputs": [],
      "stateMutability": "nonpayable",
      "type": "function"
    },
    {
      "inputs": [
        {
          "internalType": "address",
          "name": "_owner",
          "type": "address"
        }
      ],
      "name": "dividendOf",
      "outputs": [
        {
          "internalType": "uint256",
          "name": "",
          "type": "uint256"
        }
      ],
      "stateMutability": "view",
      "type": "function"
    },
    {
      "inputs": [
        {
          "internalType": "address",
          "name": "spender",
          "type": "address"
        },
        {
          "internalType": "uint256",
          "name": "addedValue",
          "type": "uint256"
        }
      ],
      "name": "increaseAllowance",
      "outputs": [
        {
          "internalType": "bool",
          "name": "",
          "type": "bool"
        }
      ],
      "stateMutability": "nonpayable",
      "type": "function"
    },
    {
      "inputs": [],
      "name": "name",
      "outputs": [
        {
          "internalType": "string",
          "name": "",
          "type": "string"
        }
      ],
      "stateMutability": "view",
      "type": "function"
    },
    {
      "inputs": [],
      "name": "owner",
      "outputs": [
        {
          "internalType": "address",
          "name": "",
          "type": "address"
        }
      ],
      "stateMutability": "view",
      "type": "function"
    },
    {
      "inputs": [],
      "name": "renounceOwnership",
      "outputs": [],
      "stateMutability": "nonpayable",
      "type": "function"
    },
    {
      "inputs": [],
      "name": "symbol",
      "outputs": [
        {
          "internalType": "string",
          "name": "",
          "type": "string"
        }
      ],
      "stateMutability": "view",
      "type": "function"
    },
    {
      "inputs": [],
      "name": "totalDividendsDistributed",
      "outputs": [
        {
          "internalType": "uint256",
          "name": "",
          "type": "uint256"
        }
      ],
      "stateMutability": "view",
      "type": "function"
    },
    {
      "inputs": [],
      "name": "totalSupply",
      "outputs": [
        {
          "internalType": "uint256",
          "name": "",
          "type": "uint256"
        }
      ],
      "stateMutability": "view",
      "type": "function"
    },
    {
      "inputs": [
        {
          "internalType": "address",
          "name": "recipient",
          "type": "address"
        },
        {
          "internalType": "uint256",
          "name": "amount",
          "type": "uint256"
        }
      ],
      "name": "transfer",
      "outputs": [
        {
          "internalType": "bool",
          "name": "",
          "type": "bool"
        }
      ],
      "stateMutability": "nonpayable",
      "type": "function"
    },
    {
      "inputs": [
        {
          "internalType": "address",
          "name": "sender",
          "type": "address"
        },
        {
          "internalType": "address",
          "name": "recipient",
          "type": "address"
        },
        {
          "internalType": "uint256",
          "name": "amount",
          "type": "uint256"
        }
      ],
      "name": "transferFrom",
      "outputs": [
        {
          "internalType": "bool",
          "name": "",
          "type": "bool"
        }
      ],
      "stateMutability": "nonpayable",
      "type": "function"
    },
    {
      "inputs": [
        {
          "internalType": "address",
          "name": "newOwner",
          "type": "address"
        }
      ],
      "name": "transferOwnership",
      "outputs": [],
      "stateMutability": "nonpayable",
      "type": "function"
    },
    {
      "inputs": [],
      "name": "withdrawDividend",
      "outputs": [],
      "stateMutability": "nonpayable",
      "type": "function"
    },
    {
      "inputs": [
        {
          "internalType": "address",
          "name": "_owner",
          "type": "address"
        }
      ],
      "name": "withdrawableDividendOf",
      "outputs": [
        {
          "internalType": "uint256",
          "name": "",
          "type": "uint256"
        }
      ],
      "stateMutability": "view",
      "type": "function"
    },
    {
      "inputs": [
        {
          "internalType": "address",
          "name": "_owner",
          "type": "address"
        }
      ],
      "name": "withdrawnDividendOf",
      "outputs": [
        {
          "internalType": "uint256",
          "name": "",
          "type": "uint256"
        }
      ],
      "stateMutability": "view",
      "type": "function"
    }
  ],
  "bytecode": "0x60a06040527f2170ed0880ac9a755fd29b2688956bd959f933f80000000000000000000000006080523480156200003557600080fd5b506040516200126f3803806200126f833981016040819052620000589162000231565b81518290829062000071906003906020850190620000d4565b50805162000087906004906020840190620000d4565b5050600580546001600160a01b031916339081179091556040519091506000907f8be0079c531659141344cd1fd0a4f28419497f9722a3daafe3b4186f6b6457e0908290a35050620002ee565b828054620000e2906200029b565b90600052602060002090601f01602090048101928262000106576000855562000151565b82601f106200012157805160ff191683800117855562000151565b8280016001018555821562000151579182015b828111156200015157825182559160200191906001019062000134565b506200015f92915062000163565b5090565b5b808211156200015f576000815560010162000164565b600082601f8301126200018c57600080fd5b81516001600160401b0380821115620001a957620001a9620002d8565b604051601f8301601f19908116603f01168101908282118183101715620001d457620001d4620002d8565b81604052838152602092508683858801011115620001f157600080fd5b600091505b83821015620002155785820183015181830184015290820190620001f6565b83821115620002275760008385830101525b9695505050505050565b600080604083850312156200024557600080fd5b82516001600160401b03808211156200025d57600080fd5b6200026b868387016200017a565b935060208501519150808211156200028257600080fd5b5062000291858286016200017a565b9150509250929050565b600181811c90821680620002b057607f821691505b60208210811415620002d257634e487b7160e01b600052602260045260246000fd5b50919050565b634e487b7160e01b600052604160045260246000fd5b60805160601c610f5b62000314600039600081816102350152610b220152610f5b6000f3fe608060405234801561001057600080fd5b50600436106101425760003560e01c80638322fff2116100b8578063a457c2d71161007c578063a457c2d7146102a4578063a8b9d240146102b7578063a9059cbb146102ca578063aafd847a146102dd578063dd62ed3e14610306578063f2fde38b1461033f57600080fd5b80638322fff21461023057806385a6b3ae1461026f5780638da5cb5b1461027857806391b89fba1461028957806395d89b411461029c57600080fd5b8063313ce5671161010a578063313ce567146101c057806339509351146101cf57806351c2a0e3146101e25780636a474002146101f757806370a08231146101ff578063715018a61461022857600080fd5b806306fdde0314610147578063095ea7b31461016557806318160ddd1461018857806323b872dd1461019a57806327ce0147146101ad575b600080fd5b61014f610352565b60405161015c9190610d4c565b60405180910390f35b610178610173366004610ce7565b6103e4565b604051901515815260200161015c565b6002545b60405190815260200161015c565b6101786101a8366004610cab565b6103fb565b61018c6101bb366004610c5d565b610464565b6040516012815260200161015c565b6101786101dd366004610ce7565b6104c0565b6101f56101f0366004610d33565b6104f6565b005b6101f56105bd565b61018c61020d366004610c5d565b6001600160a01b031660009081526020819052604090205490565b6101f56105c6565b6102577f000000000000000000000000000000000000000000000000000000000000000081565b6040516001600160a01b03909116815260200161015c565b61018c60095481565b6005546001600160a01b0316610257565b61018c610297366004610c5d565b61063a565b61014f610645565b6101786102b2366004610ce7565b610654565b61018c6102c5366004610c5d565b6106a3565b6101786102d8366004610ce7565b6106cf565b61018c6102eb366004610c5d565b6001600160a01b031660009081526008602052604090205490565b61018c610314366004610c78565b6001600160a01b03918216600090815260016020908152604080832093909416825291909152205490565b6101f561034d366004610c5d565b6106dc565b60606003805461036190610e87565b80601f016020809104026020016040519081016040528092919081815260200182805461038d90610e87565b80156103da5780601f106103af576101008083540402835291602001916103da565b820191906000526020600020905b8154815290600101906020018083116103bd57829003601f168201915b5050505050905090565b60006103f13384846107c7565b5060015b92915050565b6000610408848484600080fd5b61045a843361045585604051806060016040528060288152602001610ed9602891396001600160a01b038a16600090815260016020908152604080832033845290915290205491906108eb565b6107c7565b5060019392505050565b6001600160a01b03811660009081526007602090815260408083205491839052822054600654600160801b926104b6926104b1926104ab916104a69190610925565b6109ab565b906109bb565b6109f9565b6103f59190610e2f565b3360008181526001602090815260408083206001600160a01b038716845290915281205490916103f19185906104559086610a0c565b6005546001600160a01b031633146105295760405162461bcd60e51b815260040161052090610da1565b60405180910390fd5b600061053460025490565b1161053e57600080fd5b80156105ba5761057161055060025490565b61055e83600160801b610925565b6105689190610e2f565b60065490610a0c565b60065560405181815233907fa493a9229478c3fcd73f66d2cdeb7f94fd0f341da924d1054236d784541165119060200160405180910390a26009546105b69082610a0c565b6009555b50565b6105ba33610a6b565b6005546001600160a01b031633146105f05760405162461bcd60e51b815260040161052090610da1565b6005546040516000916001600160a01b0316907f8be0079c531659141344cd1fd0a4f28419497f9722a3daafe3b4186f6b6457e0908390a3600580546001600160a01b0319169055565b60006103f5826106a3565b60606004805461036190610e87565b60006103f1338461045585604051806060016040528060258152602001610f01602591393360009081526001602090815260408083206001600160a01b038d16845290915290205491906108eb565b6001600160a01b0381166000908152600860205260408120546103f5906106c984610464565b90610bff565b60006103f1338484600080fd5b6005546001600160a01b031633146107065760405162461bcd60e51b815260040161052090610da1565b6001600160a01b03811661076b5760405162461bcd60e51b815260206004820152602660248201527f4f776e61626c653a206e6577206f776e657220697320746865207a65726f206160448201526564647265737360d01b6064820152608401610520565b6005546040516001600160a01b038084169216907f8be0079c531659141344cd1fd0a4f28419497f9722a3daafe3b4186f6b6457e090600090a3600580546001600160a01b0319166001600160a01b0392909216919091179055565b6001600160a01b0383166108295760405162461bcd60e51b8152602060048201526024808201527f45524332303a20617070726f76652066726f6d20746865207a65726f206164646044820152637265737360e01b6064820152608401610520565b6001600160a01b03821661088a5760405162461bcd60e51b815260206004820152602260248201527f45524332303a20617070726f766520746f20746865207a65726f206164647265604482015261737360f01b6064820152608401610520565b6001600160a01b0383811660008181526001602090815260408083209487168084529482529182902085905590518481527f8c5be1e5ebec7d5bd14f71427d1e84f3dd0314c0f7b2291e5b200ac8c7c3b925910160405180910390a3505050565b6000818484111561090f5760405162461bcd60e51b81526004016105209190610d4c565b50600061091c8486610e70565b95945050505050565b600082610934575060006103f5565b60006109408385610e51565b90508261094d8583610e2f565b146109a45760405162461bcd60e51b815260206004820152602160248201527f536166654d6174683a206d756c7469706c69636174696f6e206f766572666c6f6044820152607760f81b6064820152608401610520565b9392505050565b600081818112156103f557600080fd5b6000806109c88385610dd6565b9050600083121580156109db5750838112155b806109f057506000831280156109f057508381125b6109a457600080fd5b600080821215610a0857600080fd5b5090565b600080610a198385610e17565b9050838110156109a45760405162461bcd60e51b815260206004820152601b60248201527f536166654d6174683a206164646974696f6e206f766572666c6f7700000000006044820152606401610520565b600080610a77836106a3565b90508015610bf6576001600160a01b038316600090815260086020526040902054610aa29082610a0c565b6001600160a01b038416600081815260086020526040908190209290925590517fee503bee2bb6a87e57bc57db795f98137327401a0e7b7ce42e37926cc1a9ca4d90610af19084815260200190565b60405180910390a260405163a9059cbb60e01b81526001600160a01b038481166004830152602482018390526000917f00000000000000000000000000000000000000000000000000000000000000009091169063a9059cbb90604401602060405180830381600087803b158015610b6857600080fd5b505af1158015610b7c573d6000803e3d6000fd5b505050506040513d601f19601f82011682018060405250810190610ba09190610d11565b905080610bef576001600160a01b038416600090815260086020526040902054610bca9083610bff565b6001600160a01b03909416600090815260086020526040812094909455509192915050565b5092915050565b50600092915050565b60006109a483836040518060400160405280601e81526020017f536166654d6174683a207375627472616374696f6e206f766572666c6f7700008152506108eb565b80356001600160a01b0381168114610c5857600080fd5b919050565b600060208284031215610c6f57600080fd5b6109a482610c41565b60008060408385031215610c8b57600080fd5b610c9483610c41565b9150610ca260208401610c41565b90509250929050565b600080600060608486031215610cc057600080fd5b610cc984610c41565b9250610cd760208501610c41565b9150604084013590509250925092565b60008060408385031215610cfa57600080fd5b610d0383610c41565b946020939093013593505050565b600060208284031215610d2357600080fd5b815180151581146109a457600080fd5b600060208284031215610d4557600080fd5b5035919050565b600060208083528351808285015260005b81811015610d7957858101830151858201604001528201610d5d565b81811115610d8b576000604083870101525b50601f01601f1916929092016040019392505050565b6020808252818101527f4f776e61626c653a2063616c6c6572206973206e6f7420746865206f776e6572604082015260600190565b600080821280156001600160ff1b0384900385131615610df857610df8610ec2565b600160ff1b8390038412811615610e1157610e11610ec2565b50500190565b60008219821115610e2a57610e2a610ec2565b500190565b600082610e4c57634e487b7160e01b600052601260045260246000fd5b500490565b6000816000190483118215151615610e6b57610e6b610ec2565b500290565b600082821015610e8257610e82610ec2565b500390565b600181811c90821680610e9b57607f821691505b60208210811415610ebc57634e487b7160e01b600052602260045260246000fd5b50919050565b634e487b7160e01b600052601160045260246000fdfe45524332303a207472616e7366657220616d6f756e74206578636565647320616c6c6f77616e636545524332303a2064656372656173656420616c6c6f77616e63652062656c6f77207a65726fa264697066735822122006e2f90b28d8078a0ec8ac50098bd2f7877bbb42c0369b3549f92240561a558664736f6c63430008070033",
  "linkReferences": {},
  "deployedLinkReferences": {}
}