{
  "_format": "hh-sol-artifact-1",
  "contractName": "ETR",
  "sourceName": "contracts/ETR.sol",
  "abi": [
    {
      "inputs": [],
      "stateMutability": "nonpayable",
      "type": "constructor"
    },
    {
      "anonymous": false,
      "inputs": [
        {
          "indexed": true,
          "internalType": "address",
          "name": "owner",
          "type": "address"
        },
        {
          "indexed": true,
          "internalType": "address",
          "name": "spender",
          "type": "address"
        },
        {
          "indexed": false,
          "internalType": "uint256",
          "name": "value",
          "type": "uint256"
        }
      ],
      "name": "Approval",
      "type": "event"
    },
    {
      "anonymous": false,
      "inputs": [
        {
          "indexed": true,
          "internalType": "address",
          "name": "account",
          "type": "address"
        },
        {
          "indexed": false,
          "internalType": "bool",
          "name": "isExcluded",
          "type": "bool"
        }
      ],
      "name": "ExcludeFromFees",
      "type": "event"
    },
    {
      "anonymous": false,
      "inputs": [
        {
          "indexed": true,
          "internalType": "address",
          "name": "account",
          "type": "address"
        },
        {
          "indexed": false,
          "internalType": "bool",
          "name": "isExcluded",
          "type": "bool"
        }
      ],
      "name": "ExcludeFromMaxTx",
      "type": "event"
    },
    {
      "anonymous": false,
      "inputs": [
        {
          "indexed": true,
          "internalType": "address",
          "name": "account",
          "type": "address"
        },
        {
          "indexed": false,
          "internalType": "bool",
          "name": "isExcluded",
          "type": "bool"
        }
      ],
      "name": "ExcludeFromMaxWallet",
      "type": "event"
    },
    {
      "anonymous": false,
      "inputs": [
        {
          "indexed": false,
          "internalType": "address[]",
          "name": "accounts",
          "type": "address[]"
        },
        {
          "indexed": false,
          "internalType": "bool",
          "name": "isExcluded",
          "type": "bool"
        }
      ],
      "name": "ExcludeMultipleAccountsFromFees",
      "type": "event"
    },
    {
      "anonymous": false,
      "inputs": [
        {
          "indexed": true,
          "internalType": "uint256",
          "name": "newValue",
          "type": "uint256"
        },
        {
          "indexed": true,
          "internalType": "uint256",
          "name": "oldValue",
          "type": "uint256"
        }
      ],
      "name": "GasForProcessingUpdated",
      "type": "event"
    },
    {
      "anonymous": false,
      "inputs": [
        {
          "indexed": true,
          "internalType": "address",
          "name": "newLiquidityWallet",
          "type": "address"
        },
        {
          "indexed": true,
          "internalType": "address",
          "name": "oldLiquidityWallet",
          "type": "address"
        }
      ],
      "name": "LiquidityWalletUpdated",
      "type": "event"
    },
    {
      "anonymous": false,
      "inputs": [
        {
          "indexed": true,
          "internalType": "address",
          "name": "previousOwner",
          "type": "address"
        },
        {
          "indexed": true,
          "internalType": "address",
          "name": "newOwner",
          "type": "address"
        }
      ],
      "name": "OwnershipTransferred",
      "type": "event"
    },
    {
      "anonymous": false,
      "inputs": [
        {
          "indexed": false,
          "internalType": "uint256",
          "name": "iterations",
          "type": "uint256"
        },
        {
          "indexed": false,
          "internalType": "uint256",
          "name": "claims",
          "type": "uint256"
        },
        {
          "indexed": false,
          "internalType": "uint256",
          "name": "lastProcessedIndex",
          "type": "uint256"
        },
        {
          "indexed": true,
          "internalType": "bool",
          "name": "automatic",
          "type": "bool"
        },
        {
          "indexed": false,
          "internalType": "uint256",
          "name": "gas",
          "type": "uint256"
        },
        {
          "indexed": true,
          "internalType": "address",
          "name": "processor",
          "type": "address"
        }
      ],
      "name": "ProcessedDividendTracker",
      "type": "event"
    },
    {
      "anonymous": false,
      "inputs": [
        {
          "indexed": false,
          "internalType": "uint256",
          "name": "tokensSwapped",
          "type": "uint256"
        },
        {
          "indexed": false,
          "internalType": "uint256",
          "name": "amount",
          "type": "uint256"
        }
      ],
      "name": "SendDividends",
      "type": "event"
    },
    {
      "anonymous": false,
      "inputs": [
        {
          "indexed": true,
          "internalType": "address",
          "name": "pair",
          "type": "address"
        },
        {
          "indexed": true,
          "internalType": "bool",
          "name": "value",
          "type": "bool"
        }
      ],
      "name": "SetAutomatedMarketMakerPair",
      "type": "event"
    },
    {
      "anonymous": false,
      "inputs": [
        {
          "indexed": false,
          "internalType": "uint256",
          "name": "tokensSwapped",
          "type": "uint256"
        },
        {
          "indexed": false,
          "internalType": "uint256",
          "name": "ethReceived",
          "type": "uint256"
        },
        {
          "indexed": false,
          "internalType": "uint256",
          "name": "tokensIntoLiqudity",
          "type": "uint256"
        }
      ],
      "name": "SwapAndLiquify",
      "type": "event"
    },
    {
      "anonymous": false,
      "inputs": [
        {
          "indexed": false,
          "internalType": "uint256",
          "name": "amountIn",
          "type": "uint256"
        },
        {
          "indexed": false,
          "internalType": "address[]",
          "name": "path",
          "type": "address[]"
        }
      ],
      "name": "SwapBNBForTokens",
      "type": "event"
    },
    {
      "anonymous": false,
      "inputs": [
        {
          "indexed": true,
          "internalType": "address",
          "name": "from",
          "type": "address"
        },
        {
          "indexed": true,
          "internalType": "address",
          "name": "to",
          "type": "address"
        },
        {
          "indexed": false,
          "internalType": "uint256",
          "name": "value",
          "type": "uint256"
        }
      ],
      "name": "Transfer",
      "type": "event"
    },
    {
      "anonymous": false,
      "inputs": [
        {
          "indexed": true,
          "internalType": "address",
          "name": "newAddress",
          "type": "address"
        },
        {
          "indexed": true,
          "internalType": "address",
          "name": "oldAddress",
          "type": "address"
        }
      ],
      "name": "UpdateDividendTracker",
      "type": "event"
    },
    {
      "anonymous": false,
      "inputs": [
        {
          "indexed": true,
          "internalType": "address",
          "name": "newAddress",
          "type": "address"
        },
        {
          "indexed": true,
          "internalType": "address",
          "name": "oldAddress",
          "type": "address"
        }
      ],
      "name": "UpdateUniswapV2Router",
      "type": "event"
    },
    {
      "anonymous": false,
      "inputs": [
        {
          "indexed": false,
          "internalType": "string",
          "name": "error",
          "type": "string"
        }
      ],
      "name": "log",
      "type": "event"
    },
    {
      "inputs": [],
      "name": "ETH",
      "outputs": [
        {
          "internalType": "address",
          "name": "",
          "type": "address"
        }
      ],
      "stateMutability": "view",
      "type": "function"
    },
    {
      "inputs": [],
      "name": "_BuyBackETRFee",
      "outputs": [
        {
          "internalType": "uint256",
          "name": "",
          "type": "uint256"
        }
      ],
      "stateMutability": "view",
      "type": "function"
    },
    {
      "inputs": [],
      "name": "_BuyETHRewardsFee",
      "outputs": [
        {
          "internalType": "uint256",
          "name": "",
          "type": "uint256"
        }
      ],
      "stateMutability": "view",
      "type": "function"
    },
    {
      "inputs": [],
      "name": "_BuyLiquidityFee",
      "outputs": [
        {
          "internalType": "uint256",
          "name": "",
          "type": "uint256"
        }
      ],
      "stateMutability": "view",
      "type": "function"
    },
    {
      "inputs": [],
      "name": "_BuyMarketingFee",
      "outputs": [
        {
          "internalType": "uint256",
          "name": "",
          "type": "uint256"
        }
      ],
      "stateMutability": "view",
      "type": "function"
    },
    {
      "inputs": [],
      "name": "_BuyTotalFees",
      "outputs": [
        {
          "internalType": "uint256",
          "name": "",
          "type": "uint256"
        }
      ],
      "stateMutability": "view",
      "type": "function"
    },
    {
      "inputs": [],
      "name": "_ETRWalletAddress",
      "outputs": [
        {
          "internalType": "address",
          "name": "",
          "type": "address"
        }
      ],
      "stateMutability": "view",
      "type": "function"
    },
    {
      "inputs": [],
      "name": "_SellBackETRFee",
      "outputs": [
        {
          "internalType": "uint256",
          "name": "",
          "type": "uint256"
        }
      ],
      "stateMutability": "view",
      "type": "function"
    },
    {
      "inputs": [],
      "name": "_SellETHRewardsFee",
      "outputs": [
        {
          "internalType": "uint256",
          "name": "",
          "type": "uint256"
        }
      ],
      "stateMutability": "view",
      "type": "function"
    },
    {
      "inputs": [],
      "name": "_SellLiquidityFee",
      "outputs": [
        {
          "internalType": "uint256",
          "name": "",
          "type": "uint256"
        }
      ],
      "stateMutability": "view",
      "type": "function"
    },
    {
      "inputs": [],
      "name": "_SellMarketingFee",
      "outputs": [
        {
          "internalType": "uint256",
          "name": "",
          "type": "uint256"
        }
      ],
      "stateMutability": "view",
      "type": "function"
    },
    {
      "inputs": [],
      "name": "_SellTotalFees",
      "outputs": [
        {
          "internalType": "uint256",
          "name": "",
          "type": "uint256"
        }
      ],
      "stateMutability": "view",
      "type": "function"
    },
    {
      "inputs": [],
      "name": "_marketingWalletAddress",
      "outputs": [
        {
          "internalType": "address",
          "name": "",
          "type": "address"
        }
      ],
      "stateMutability": "view",
      "type": "function"
    },
    {
      "inputs": [
        {
          "internalType": "address",
          "name": "_add",
          "type": "address"
        }
      ],
      "name": "addToBlackList",
      "outputs": [],
      "stateMutability": "nonpayable",
      "type": "function"
    },
    {
      "inputs": [
        {
          "internalType": "address",
          "name": "_add",
          "type": "address"
        }
      ],
      "name": "addToWhitelist",
      "outputs": [],
      "stateMutability": "nonpayable",
      "type": "function"
    },
    {
      "inputs": [
        {
          "internalType": "address",
          "name": "owner",
          "type": "address"
        },
        {
          "internalType": "address",
          "name": "spender",
          "type": "address"
        }
      ],
      "name": "allowance",
      "outputs": [
        {
          "internalType": "uint256",
          "name": "",
          "type": "uint256"
        }
      ],
      "stateMutability": "view",
      "type": "function"
    },
    {
      "inputs": [
        {
          "internalType": "address",
          "name": "spender",
          "type": "address"
        },
        {
          "internalType": "uint256",
          "name": "amount",
          "type": "uint256"
        }
      ],
      "name": "approve",
      "outputs": [
        {
          "internalType": "bool",
          "name": "",
          "type": "bool"
        }
      ],
      "stateMutability": "nonpayable",
      "type": "function"
    },
    {
      "inputs": [
        {
          "internalType": "address",
          "name": "",
          "type": "address"
        }
      ],
      "name": "automatedMarketMakerPairs",
      "outputs": [
        {
          "internalType": "bool",
          "name": "",
          "type": "bool"
        }
      ],
      "stateMutability": "view",
      "type": "function"
    },
    {
      "inputs": [
        {
          "internalType": "address",
          "name": "account",
          "type": "address"
        }
      ],
      "name": "balanceOf",
      "outputs": [
        {
          "internalType": "uint256",
          "name": "",
          "type": "uint256"
        }
      ],
      "stateMutability": "view",
      "type": "function"
    },
    {
      "inputs": [
        {
          "internalType": "uint256",
          "name": "swapAmount",
          "type": "uint256"
        }
      ],
      "name": "changeSwapTokensAtAmount",
      "outputs": [],
      "stateMutability": "nonpayable",
      "type": "function"
    },
    {
      "inputs": [],
      "name": "claim",
      "outputs": [],
      "stateMutability": "nonpayable",
      "type": "function"
    },
    {
      "inputs": [],
      "name": "deadWallet",
      "outputs": [
        {
          "internalType": "address",
          "name": "",
          "type": "address"
        }
      ],
      "stateMutability": "view",
      "type": "function"
    },
    {
      "inputs": [],
      "name": "decimals",
      "outputs": [
        {
          "internalType": "uint8",
          "name": "",
          "type": "uint8"
        }
      ],
      "stateMutability": "view",
      "type": "function"
    },
    {
      "inputs": [
        {
          "internalType": "address",
          "name": "spender",
          "type": "address"
        },
        {
          "internalType": "uint256",
          "name": "subtractedValue",
          "type": "uint256"
        }
      ],
      "name": "decreaseAllowance",
      "outputs": [
        {
          "internalType": "bool",
          "name": "",
          "type": "bool"
        }
      ],
      "stateMutability": "nonpayable",
      "type": "function"
    },
    {
      "inputs": [
        {
          "internalType": "address",
          "name": "account",
          "type": "address"
        }
      ],
      "name": "dividendTokenBalanceOf",
      "outputs": [
        {
          "internalType": "uint256",
          "name": "",
          "type": "uint256"
        }
      ],
      "stateMutability": "view",
      "type": "function"
    },
    {
      "inputs": [],
      "name": "dividendTracker",
      "outputs": [
        {
          "internalType": "contract ETRDividendTracker",
          "name": "",
          "type": "address"
        }
      ],
      "stateMutability": "view",
      "type": "function"
    },
    {
      "inputs": [
        {
          "internalType": "address",
          "name": "account",
          "type": "address"
        }
      ],
      "name": "excludeFromDividends",
      "outputs": [],
      "stateMutability": "nonpayable",
      "type": "function"
    },
    {
      "inputs": [
        {
          "internalType": "address",
          "name": "account",
          "type": "address"
        },
        {
          "internalType": "bool",
          "name": "excluded",
          "type": "bool"
        }
      ],
      "name": "excludeOrIncludeFromFees",
      "outputs": [],
      "stateMutability": "nonpayable",
      "type": "function"
    },
    {
      "inputs": [
        {
          "internalType": "address",
          "name": "account",
          "type": "address"
        },
        {
          "internalType": "bool",
          "name": "excluded",
          "type": "bool"
        }
      ],
      "name": "excludeOrIncludeFromMaxTx",
      "outputs": [],
      "stateMutability": "nonpayable",
      "type": "function"
    },
    {
      "inputs": [
        {
          "internalType": "address",
          "name": "account",
          "type": "address"
        },
        {
          "internalType": "bool",
          "name": "excluded",
          "type": "bool"
        }
      ],
      "name": "excludeOrIncludeFromMaxWallet",
      "outputs": [],
      "stateMutability": "nonpayable",
      "type": "function"
    },
    {
      "inputs": [
        {
          "internalType": "address[]",
          "name": "accounts",
          "type": "address[]"
        },
        {
          "internalType": "bool",
          "name": "excluded",
          "type": "bool"
        }
      ],
      "name": "excludeOrIncludeMultipleAccountsFromFees",
      "outputs": [],
      "stateMutability": "nonpayable",
      "type": "function"
    },
    {
      "inputs": [],
      "name": "gasForProcessing",
      "outputs": [
        {
          "internalType": "uint256",
          "name": "",
          "type": "uint256"
        }
      ],
      "stateMutability": "view",
      "type": "function"
    },
    {
      "inputs": [
        {
          "internalType": "address",
          "name": "account",
          "type": "address"
        }
      ],
      "name": "getAccountDividendsInfo",
      "outputs": [
        {
          "internalType": "address",
          "name": "",
          "type": "address"
        },
        {
          "internalType": "int256",
          "name": "",
          "type": "int256"
        },
        {
          "internalType": "int256",
          "name": "",
          "type": "int256"
        },
        {
          "internalType": "uint256",
          "name": "",
          "type": "uint256"
        },
        {
          "internalType": "uint256",
          "name": "",
          "type": "uint256"
        },
        {
          "internalType": "uint256",
          "name": "",
          "type": "uint256"
        },
        {
          "internalType": "uint256",
          "name": "",
          "type": "uint256"
        },
        {
          "internalType": "uint256",
          "name": "",
          "type": "uint256"
        }
      ],
      "stateMutability": "view",
      "type": "function"
    },
    {
      "inputs": [
        {
          "internalType": "uint256",
          "name": "index",
          "type": "uint256"
        }
      ],
      "name": "getAccountDividendsInfoAtIndex",
      "outputs": [
        {
          "internalType": "address",
          "name": "",
          "type": "address"
        },
        {
          "internalType": "int256",
          "name": "",
          "type": "int256"
        },
        {
          "internalType": "int256",
          "name": "",
          "type": "int256"
        },
        {
          "internalType": "uint256",
          "name": "",
          "type": "uint256"
        },
        {
          "internalType": "uint256",
          "name": "",
          "type": "uint256"
        },
        {
          "internalType": "uint256",
          "name": "",
          "type": "uint256"
        },
        {
          "internalType": "uint256",
          "name": "",
          "type": "uint256"
        },
        {
          "internalType": "uint256",
          "name": "",
          "type": "uint256"
        }
      ],
      "stateMutability": "view",
      "type": "function"
    },
    {
      "inputs": [],
      "name": "getClaimWait",
      "outputs": [
        {
          "internalType": "uint256",
          "name": "",
          "type": "uint256"
        }
      ],
      "stateMutability": "view",
      "type": "function"
    },
    {
      "inputs": [],
      "name": "getLastProcessedIndex",
      "outputs": [
        {
          "internalType": "uint256",
          "name": "",
          "type": "uint256"
        }
      ],
      "stateMutability": "view",
      "type": "function"
    },
    {
      "inputs": [],
      "name": "getNumberOfDividendTokenHolders",
      "outputs": [
        {
          "internalType": "uint256",
          "name": "",
          "type": "uint256"
        }
      ],
      "stateMutability": "view",
      "type": "function"
    },
    {
      "inputs": [],
      "name": "getTotalDividendsDistributed",
      "outputs": [
        {
          "internalType": "uint256",
          "name": "",
          "type": "uint256"
        }
      ],
      "stateMutability": "view",
      "type": "function"
    },
    {
      "inputs": [
        {
          "internalType": "address",
          "name": "spender",
          "type": "address"
        },
        {
          "internalType": "uint256",
          "name": "addedValue",
          "type": "uint256"
        }
      ],
      "name": "increaseAllowance",
      "outputs": [
        {
          "internalType": "bool",
          "name": "",
          "type": "bool"
        }
      ],
      "stateMutability": "nonpayable",
      "type": "function"
    },
    {
      "inputs": [
        {
          "internalType": "address",
          "name": "_add",
          "type": "address"
        }
      ],
      "name": "isBlacklisted",
      "outputs": [
        {
          "internalType": "bool",
          "name": "",
          "type": "bool"
        }
      ],
      "stateMutability": "view",
      "type": "function"
    },
    {
      "inputs": [
        {
          "internalType": "address",
          "name": "account",
          "type": "address"
        }
      ],
      "name": "isExcludedFromFees",
      "outputs": [
        {
          "internalType": "bool",
          "name": "",
          "type": "bool"
        }
      ],
      "stateMutability": "view",
      "type": "function"
    },
    {
      "inputs": [
        {
          "internalType": "address",
          "name": "account",
          "type": "address"
        }
      ],
      "name": "isExcludedFromMaxTx",
      "outputs": [
        {
          "internalType": "bool",
          "name": "",
          "type": "bool"
        }
      ],
      "stateMutability": "view",
      "type": "function"
    },
    {
      "inputs": [
        {
          "internalType": "address",
          "name": "account",
          "type": "address"
        }
      ],
      "name": "isExcludedFromMaxWallet",
      "outputs": [
        {
          "internalType": "bool",
          "name": "",
          "type": "bool"
        }
      ],
      "stateMutability": "view",
      "type": "function"
    },
    {
      "inputs": [
        {
          "internalType": "uint256",
          "name": "tokenAmount",
          "type": "uint256"
        }
      ],
      "name": "manualSwapTokensForEth",
      "outputs": [],
      "stateMutability": "nonpayable",
      "type": "function"
    },
    {
      "inputs": [],
      "name": "maxTransactionAmount",
      "outputs": [
        {
          "internalType": "uint256",
          "name": "",
          "type": "uint256"
        }
      ],
      "stateMutability": "view",
      "type": "function"
    },
    {
      "inputs": [],
      "name": "maxWalletToken",
      "outputs": [
        {
          "internalType": "uint256",
          "name": "",
          "type": "uint256"
        }
      ],
      "stateMutability": "view",
      "type": "function"
    },
    {
      "inputs": [],
      "name": "name",
      "outputs": [
        {
          "internalType": "string",
          "name": "",
          "type": "string"
        }
      ],
      "stateMutability": "view",
      "type": "function"
    },
    {
      "inputs": [],
      "name": "owner",
      "outputs": [
        {
          "internalType": "address",
          "name": "",
          "type": "address"
        }
      ],
      "stateMutability": "view",
      "type": "function"
    },
    {
      "inputs": [
        {
          "internalType": "uint256",
          "name": "gas",
          "type": "uint256"
        }
      ],
      "name": "processDividendTracker",
      "outputs": [],
      "stateMutability": "nonpayable",
      "type": "function"
    },
    {
      "inputs": [
        {
          "internalType": "address",
          "name": "_add",
          "type": "address"
        }
      ],
      "name": "removeFromBlackList",
      "outputs": [],
      "stateMutability": "nonpayable",
      "type": "function"
    },
    {
      "inputs": [
        {
          "internalType": "address",
          "name": "_address",
          "type": "address"
        }
      ],
      "name": "removeStuckToken",
      "outputs": [],
      "stateMutability": "nonpayable",
      "type": "function"
    },
    {
      "inputs": [],
      "name": "renounceOwnership",
      "outputs": [],
      "stateMutability": "nonpayable",
      "type": "function"
    },
    {
      "inputs": [
        {
          "internalType": "address",
          "name": "pair",
          "type": "address"
        },
        {
          "internalType": "bool",
          "name": "value",
          "type": "bool"
        }
      ],
      "name": "setAutomatedMarketMakerPair",
      "outputs": [],
      "stateMutability": "nonpayable",
      "type": "function"
    },
    {
      "inputs": [
        {
          "internalType": "uint256",
          "name": "buyEthRewardFee",
          "type": "uint256"
        },
        {
          "internalType": "uint256",
          "name": "buyLiquidityFee",
          "type": "uint256"
        },
        {
          "internalType": "uint256",
          "name": "buyMarketingFee",
          "type": "uint256"
        },
        {
          "internalType": "uint256",
          "name": "buyBackETRFee",
          "type": "uint256"
        }
      ],
      "name": "setBuyFees",
      "outputs": [],
      "stateMutability": "nonpayable",
      "type": "function"
    },
    {
      "inputs": [
        {
          "internalType": "address payable",
          "name": "wallet",
          "type": "address"
        }
      ],
      "name": "setETRWallet",
      "outputs": [],
      "stateMutability": "nonpayable",
      "type": "function"
    },
    {
      "inputs": [
        {
          "internalType": "address payable",
          "name": "wallet",
          "type": "address"
        }
      ],
      "name": "setMarketingWallet",
      "outputs": [],
      "stateMutability": "nonpayable",
      "type": "function"
    },
    {
      "inputs": [
        {
          "internalType": "uint256",
          "name": "_maxToken",
          "type": "uint256"
        }
      ],
      "name": "setMaxWalletToken",
      "outputs": [],
      "stateMutability": "nonpayable",
      "type": "function"
    },
    {
      "inputs": [
        {
          "internalType": "uint256",
          "name": "_maxTxAmount",
          "type": "uint256"
        }
      ],
      "name": "setMaxtx",
      "outputs": [],
      "stateMutability": "nonpayable",
      "type": "function"
    },
    {
      "inputs": [
        {
          "internalType": "uint256",
          "name": "sellEthRewardFee",
          "type": "uint256"
        },
        {
          "internalType": "uint256",
          "name": "sellLiquidityFee",
          "type": "uint256"
        },
        {
          "internalType": "uint256",
          "name": "sellMarketingFee",
          "type": "uint256"
        },
        {
          "internalType": "uint256",
          "name": "sellBackETRFee",
          "type": "uint256"
        }
      ],
      "name": "setSellFees",
      "outputs": [],
      "stateMutability": "nonpayable",
      "type": "function"
    },
    {
      "inputs": [
        {
          "internalType": "bool",
          "name": "_enabled",
          "type": "bool"
        }
      ],
      "name": "setTradingEnabled",
      "outputs": [],
      "stateMutability": "nonpayable",
      "type": "function"
    },
    {
      "inputs": [],
      "name": "swapTokensAtAmount",
      "outputs": [
        {
          "internalType": "uint256",
          "name": "",
          "type": "uint256"
        }
      ],
      "stateMutability": "view",
      "type": "function"
    },
    {
      "inputs": [],
      "name": "symbol",
      "outputs": [
        {
          "internalType": "string",
          "name": "",
          "type": "string"
        }
      ],
      "stateMutability": "view",
      "type": "function"
    },
    {
      "inputs": [],
      "name": "totalSupply",
      "outputs": [
        {
          "internalType": "uint256",
          "name": "",
          "type": "uint256"
        }
      ],
      "stateMutability": "view",
      "type": "function"
    },
    {
      "inputs": [],
      "name": "tradingEnabled",
      "outputs": [
        {
          "internalType": "bool",
          "name": "",
          "type": "bool"
        }
      ],
      "stateMutability": "view",
      "type": "function"
    },
    {
      "inputs": [
        {
          "internalType": "address",
          "name": "recipient",
          "type": "address"
        },
        {
          "internalType": "uint256",
          "name": "amount",
          "type": "uint256"
        }
      ],
      "name": "transfer",
      "outputs": [
        {
          "internalType": "bool",
          "name": "",
          "type": "bool"
        }
      ],
      "stateMutability": "nonpayable",
      "type": "function"
    },
    {
      "inputs": [
        {
          "internalType": "address",
          "name": "sender",
          "type": "address"
        },
        {
          "internalType": "address",
          "name": "recipient",
          "type": "address"
        },
        {
          "internalType": "uint256",
          "name": "amount",
          "type": "uint256"
        }
      ],
      "name": "transferFrom",
      "outputs": [
        {
          "internalType": "bool",
          "name": "",
          "type": "bool"
        }
      ],
      "stateMutability": "nonpayable",
      "type": "function"
    },
    {
      "inputs": [
        {
          "internalType": "address",
          "name": "newOwner",
          "type": "address"
        }
      ],
      "name": "transferOwnership",
      "outputs": [],
      "stateMutability": "nonpayable",
      "type": "function"
    },
    {
      "inputs": [],
      "name": "uniswapV2Pair",
      "outputs": [
        {
          "internalType": "address",
          "name": "",
          "type": "address"
        }
      ],
      "stateMutability": "view",
      "type": "function"
    },
    {
      "inputs": [],
      "name": "uniswapV2Router",
      "outputs": [
        {
          "internalType": "contract IUniswapV2Router02",
          "name": "",
          "type": "address"
        }
      ],
      "stateMutability": "view",
      "type": "function"
    },
    {
      "inputs": [
        {
          "internalType": "uint256",
          "name": "claimWait",
          "type": "uint256"
        }
      ],
      "name": "updateClaimWait",
      "outputs": [],
      "stateMutability": "nonpayable",
      "type": "function"
    },
    {
      "inputs": [
        {
          "internalType": "address",
          "name": "newAddress",
          "type": "address"
        }
      ],
      "name": "updateDividendTracker",
      "outputs": [],
      "stateMutability": "nonpayable",
      "type": "function"
    },
    {
      "inputs": [
        {
          "internalType": "uint256",
          "name": "newValue",
          "type": "uint256"
        }
      ],
      "name": "updateGasForProcessing",
      "outputs": [],
      "stateMutability": "nonpayable",
      "type": "function"
    },
    {
      "inputs": [
        {
          "internalType": "address",
          "name": "newAddress",
          "type": "address"
        }
      ],
      "name": "updateUniswapV2Router",
      "outputs": [],
      "stateMutability": "nonpayable",
      "type": "function"
    },
    {
      "inputs": [],
      "name": "withdrawStuckBNB",
      "outputs": [],
      "stateMutability": "nonpayable",
      "type": "function"
    },
    {
      "inputs": [
        {
          "internalType": "address",
          "name": "account",
          "type": "address"
        }
      ],
      "name": "withdrawableDividendOf",
      "outputs": [
        {
          "internalType": "uint256",
          "name": "",
          "type": "uint256"
        }
      ],
      "stateMutability": "view",
      "type": "function"
    },
    {
      "stateMutability": "payable",
      "type": "receive"
    }
  ],
  "bytecode": "0x60a06040527f2170ed0880ac9a755fd29b2688956bd959f933f80000000000000000000000006080526969e10de76676d08000006009556a0422ca8b0a00a425000000600a556004600b8190556001600c819055600d829055600e829055620000949190620000809082908290829062000868602090811b62002b3317901c565b6200086860201b62002b331790919060201c565b600f556006601055600160115560046012556004601355620000d760135462000080601254620000806011546010546200086860201b62002b331790919060201c565b6014556a0422ca8b0a00a425000000601555601680546001600160a01b031990811673d12fd8a49a2b9bf625e296ae9df9d8e4046d5d13179091556017805490911673528cf9f06596b83665e114b06e5ba157883fc87d179055620493e06018553480156200014557600080fd5b506040805180820182526008815267115d1a195c99585b60c21b6020808301918252835180850190945260048452631222aa2960e11b908401528151919291620001929160039162000e9f565b508051620001a890600490602084019062000e9f565b5050600580546001600160a01b031916339081179091556040519091506000907f8be0079c531659141344cd1fd0a4f28419497f9722a3daafe3b4186f6b6457e0908290a3604051620001fb9062000f2e565b604051809103906000f08015801562000218573d6000803e3d6000fd5b50600860006101000a8154816001600160a01b0302191690836001600160a01b0316021790555060007310ed43c718714eb63d5aa57b78b54704e256024e90506000816001600160a01b031663c45a01556040518163ffffffff1660e01b815260040160206040518083038186803b1580156200029457600080fd5b505afa158015620002a9573d6000803e3d6000fd5b505050506040513d601f19601f82011682018060405250810190620002cf919062000f53565b6001600160a01b031663c9c6539630846001600160a01b031663ad5c46486040518163ffffffff1660e01b815260040160206040518083038186803b1580156200031857600080fd5b505afa1580156200032d573d6000803e3d6000fd5b505050506040513d601f19601f8201168201806040525081019062000353919062000f53565b6040516001600160e01b031960e085901b1681526001600160a01b03928316600482015291166024820152604401602060405180830381600087803b1580156200039c57600080fd5b505af1158015620003b1573d6000803e3d6000fd5b505050506040513d601f19601f82011682018060405250810190620003d7919062000f53565b600680546001600160a01b038086166001600160a01b0319928316179092556007805492841692909116919091179055905062000416816001620008d6565b60085460405163031e79db60e41b81526001600160a01b0390911660048201819052906331e79db090602401600060405180830381600087803b1580156200045d57600080fd5b505af115801562000472573d6000803e3d6000fd5b505060085460405163031e79db60e41b81523060048201526001600160a01b0390911692506331e79db09150602401600060405180830381600087803b158015620004bc57600080fd5b505af1158015620004d1573d6000803e3d6000fd5b50506008546001600160a01b031691506331e79db09050620004fb6005546001600160a01b031690565b6040516001600160e01b031960e084901b1681526001600160a01b039091166004820152602401600060405180830381600087803b1580156200053d57600080fd5b505af115801562000552573d6000803e3d6000fd5b505060085460405163031e79db60e41b815261dead60048201526001600160a01b0390911692506331e79db09150602401600060405180830381600087803b1580156200059e57600080fd5b505af1158015620005b3573d6000803e3d6000fd5b505060085460405163031e79db60e41b81526001600160a01b03868116600483015290911692506331e79db09150602401600060405180830381600087803b158015620005ff57600080fd5b505af115801562000614573d6000803e3d6000fd5b505060085460165460405163031e79db60e41b81526001600160a01b039182166004820152911692506331e79db09150602401600060405180830381600087803b1580156200066257600080fd5b505af115801562000677573d6000803e3d6000fd5b505060085460175460405163031e79db60e41b81526001600160a01b039182166004820152911692506331e79db09150602401600060405180830381600087803b158015620006c557600080fd5b505af1158015620006da573d6000803e3d6000fd5b50505050620006fa620006f262000a3960201b60201c565b600162000a48565b60165462000713906001600160a01b0316600162000a48565b6017546200072c906001600160a01b0316600162000a48565b6200073930600162000a48565b62000758620007506005546001600160a01b031690565b600162000b6b565b60165462000771906001600160a01b0316600162000b6b565b6017546200078a906001600160a01b0316600162000b6b565b6200079730600162000b6b565b620007b6620007ae6005546001600160a01b031690565b600162000c87565b601654620007cf906001600160a01b0316600162000c87565b601754620007e8906001600160a01b0316600162000c87565b620007f530600162000c87565b6001601d60006200080e6005546001600160a01b031690565b6001600160a01b031681526020810191909152604001600020805460ff1916911515919091179055620008606200084d6005546001600160a01b031690565b6b019d971e4fe8401e7400000062000da3565b505062000fe2565b60008062000877838562000f7e565b905083811015620008cf5760405162461bcd60e51b815260206004820152601b60248201527f536166654d6174683a206164646974696f6e206f766572666c6f77000000000060448201526064015b60405180910390fd5b9392505050565b6001600160a01b0382166000908152601e602052604090205460ff16151581151514156200096d5760405162461bcd60e51b815260206004820152603d60248201527f4554523a204175746f6d61746564206d61726b6574206d616b6572207061697260448201527f20697320616c72656164792073657420746f20746861742076616c75650000006064820152608401620008c6565b6001600160a01b0382166000908152601e60205260409020805460ff19168215801591909117909155620009fd5760085460405163031e79db60e41b81526001600160a01b038481166004830152909116906331e79db090602401600060405180830381600087803b158015620009e357600080fd5b505af1158015620009f8573d6000803e3d6000fd5b505050505b604051811515906001600160a01b038416907fffa9187bf1f18bf477bd0ea1bcbb64e93b6a98132473929edfce215cd9b16fab90600090a35050565b6005546001600160a01b031690565b6005546001600160a01b0316331462000a935760405162461bcd60e51b81526020600482018190526024820152600080516020620077928339815191526044820152606401620008c6565b6001600160a01b03821660009081526019602052604090205460ff161515811515141562000b0b5760405162461bcd60e51b815260206004820152602f60248201526000805160206200777283398151915260448201526e65206f6620276578636c756465642760881b6064820152608401620008c6565b6001600160a01b038216600081815260196020908152604091829020805460ff191685151590811790915591519182527f9d8f7706ea1113d1a167b526eca956215946dd36cc7df39eb16180222d8b5df791015b60405180910390a25050565b6005546001600160a01b0316331462000bb65760405162461bcd60e51b81526020600482018190526024820152600080516020620077928339815191526044820152606401620008c6565b6001600160a01b0382166000908152601b602052604090205460ff161515811515141562000c2e5760405162461bcd60e51b815260206004820152602f60248201526000805160206200777283398151915260448201526e65206f6620276578636c756465642760881b6064820152608401620008c6565b6001600160a01b0382166000818152601b6020908152604091829020805460ff191685151590811790915591519182527fc5e00cfc9494c002f5a5ecb735339bf61c88d0e9340bbe76d10bb5f0e48e6f85910162000b5f565b6005546001600160a01b0316331462000cd25760405162461bcd60e51b81526020600482018190526024820152600080516020620077928339815191526044820152606401620008c6565b6001600160a01b0382166000908152601a602052604090205460ff161515811515141562000d4a5760405162461bcd60e51b815260206004820152602f60248201526000805160206200777283398151915260448201526e65206f6620276578636c756465642760881b6064820152608401620008c6565b6001600160a01b0382166000818152601a6020908152604091829020805460ff191685151590811790915591519182527f4a8452f723db48bf05f301f94d62a2cf7a72976cde77d83e3646584858b8f4b2910162000b5f565b6001600160a01b03821662000dfb5760405162461bcd60e51b815260206004820152601f60248201527f45524332303a206d696e7420746f20746865207a65726f2061646472657373006044820152606401620008c6565b62000e17816002546200086860201b62002b331790919060201c565b6002556001600160a01b0382166000908152602081815260409091205462000e4a91839062002b3362000868821b17901c565b6001600160a01b038316600081815260208181526040808320949094559251848152919290917fddf252ad1be2c89b69c2b068fc378daa952ba7f163c4a11628f55a4df523b3ef910160405180910390a35050565b82805462000ead9062000fa5565b90600052602060002090601f01602090048101928262000ed1576000855562000f1c565b82601f1062000eec57805160ff191683800117855562000f1c565b8280016001018555821562000f1c579182015b8281111562000f1c57825182559160200191906001019062000eff565b5062000f2a92915062000f3c565b5090565b6121e4806200558e83390190565b5b8082111562000f2a576000815560010162000f3d565b60006020828403121562000f6657600080fd5b81516001600160a01b0381168114620008cf57600080fd5b6000821982111562000fa057634e487b7160e01b600052601160045260246000fd5b500190565b600181811c9082168062000fba57607f821691505b6020821081141562000fdc57634e487b7160e01b600052602260045260246000fd5b50919050565b60805160601c614578620010166000396000818161095101528181613a2c01528181613add0152613e1401526145786000f3fe6080604052600436106104405760003560e01c80637d08748511610234578063c8c8ebe41161012e578063e6c75f71116100b6578063f2fde38b1161007a578063f2fde38b14610d3d578063fa89340d14610d5d578063fd3289f814610d7d578063fd50460214610d9d578063fe575a8714610dbd57600080fd5b8063e6c75f7114610cbc578063e7841ec014610cd2578063e98030c714610ce7578063ec1a8e4214610d07578063f27fd25414610d1d57600080fd5b8063dd62ed3e116100fd578063dd62ed3e14610c0a578063e083e92214610c50578063e2f4560514610c70578063e3297d8b14610c86578063e43252d714610c9c57600080fd5b8063c8c8ebe414610bb2578063cf8f105514610bc8578063d0b4e12b14610bde578063d7a56aeb14610bf457600080fd5b80639c1b8af5116101bc578063a8b9d24011610180578063a8b9d24014610abd578063a9059cbb14610add578063ad56c13c14610afd578063b62496f514610b62578063c2e5ec0414610b9257600080fd5b80639c1b8af514610a3c578063a10fd7be14610a52578063a17b928614610a72578063a26579ad14610a88578063a457c2d714610a9d57600080fd5b806388bdd9be1161020357806388bdd9be146109a95780638da5cb5b146109c957806391d55f41146109e757806395d89b4114610a075780639a7a23d614610a1c57600080fd5b80637d087485146109295780638322fff21461093f57806385141a7714610973578063871c128d1461098957600080fd5b806349bd5a5e1161034557806364b0f653116102cd5780636c5b2855116102915780636c5b2855146108655780636dd3d39f14610885578063700bb191146108be57806370a08231146108de578063715018a61461091457600080fd5b806364b0f653146107b7578063658c27a9146107cc57806365b8dbc0146108055780636843cd84146108255780636b402f7c1461084557600080fd5b80634f0e5372116103145780634f0e5372146107085780634fbee193146107285780635407484f14610761578063586378fa146107815780635d098b381461079757600080fd5b806349bd5a5e146106925780634a49ac4c146106b25780634ada218b146106d25780634e71d92d146106f357600080fd5b806330bb4cff116103c8578063395093511161039757806339509351146105fd5780633a740de61461061d5780634144d9e41461063d578063417c73a71461065d578063484ed3341461067d57600080fd5b806330bb4cff14610596578063311c9fb1146105ab578063313ce567146105c157806331e79db0146105dd57600080fd5b8063178d9b8e1161040f578063178d9b8e1461050157806318160ddd1461052157806323b872dd1461054057806326fa9cdf146105605780632c1f52161461057657600080fd5b806306fdde031461044c578063095ea7b31461047757806309d6bf0a146104a75780631694505e146104c957600080fd5b3661044757005b600080fd5b34801561045857600080fd5b50610461610df6565b60405161046e91906141c8565b60405180910390f35b34801561048357600080fd5b50610497610492366004613ff1565b610e88565b604051901515815260200161046e565b3480156104b357600080fd5b506104c76104c23660046140dd565b610e9f565b005b3480156104d557600080fd5b506006546104e9906001600160a01b031681565b6040516001600160a01b03909116815260200161046e565b34801561050d57600080fd5b506104c761051c36600461413d565b610ed7565b34801561052d57600080fd5b506002545b60405190815260200161046e565b34801561054c57600080fd5b5061049761055b366004613f18565b610f34565b34801561056c57600080fd5b5061053260145481565b34801561058257600080fd5b506008546104e9906001600160a01b031681565b3480156105a257600080fd5b50610532610f9d565b3480156105b757600080fd5b50610532600f5481565b3480156105cd57600080fd5b506040516012815260200161046e565b3480156105e957600080fd5b506104c76105f8366004613ea5565b61101f565b34801561060957600080fd5b50610497610618366004613ff1565b6110ac565b34801561062957600080fd5b506104c7610638366004613f59565b6110e2565b34801561064957600080fd5b506016546104e9906001600160a01b031681565b34801561066957600080fd5b506104c7610678366004613ea5565b6111ab565b34801561068957600080fd5b506104c76111f9565b34801561069e57600080fd5b506007546104e9906001600160a01b031681565b3480156106be57600080fd5b506104c76106cd366004613ea5565b6112af565b3480156106de57600080fd5b5060175461049790600160a01b900460ff1681565b3480156106ff57600080fd5b506104c76112fa565b34801561071457600080fd5b506104c761072336600461401d565b61137e565b34801561073457600080fd5b50610497610743366004613ea5565b6001600160a01b031660009081526019602052604090205460ff1690565b34801561076d57600080fd5b506104c761077c366004613f59565b61145a565b34801561078d57600080fd5b50610532600b5481565b3480156107a357600080fd5b506104c76107b2366004613ea5565b61151b565b3480156107c357600080fd5b506105326115af565b3480156107d857600080fd5b506104976107e7366004613ea5565b6001600160a01b03166000908152601b602052604090205460ff1690565b34801561081157600080fd5b506104c7610820366004613ea5565b6115f4565b34801561083157600080fd5b50610532610840366004613ea5565b611890565b34801561085157600080fd5b506017546104e9906001600160a01b031681565b34801561087157600080fd5b506104c761088036600461413d565b61190f565b34801561089157600080fd5b506104976108a0366004613ea5565b6001600160a01b03166000908152601a602052604090205460ff1690565b3480156108ca57600080fd5b506104c76108d93660046140dd565b611966565b3480156108ea57600080fd5b506105326108f9366004613ea5565b6001600160a01b031660009081526020819052604090205490565b34801561092057600080fd5b506104c7611a47565b34801561093557600080fd5b50610532600c5481565b34801561094b57600080fd5b506104e97f000000000000000000000000000000000000000000000000000000000000000081565b34801561097f57600080fd5b506104e961dead81565b34801561099557600080fd5b506104c76109a43660046140dd565b611abb565b3480156109b557600080fd5b506104c76109c4366004613ea5565b611c0c565b3480156109d557600080fd5b506005546001600160a01b03166104e9565b3480156109f357600080fd5b506104c7610a023660046140dd565b6120c5565b348015610a1357600080fd5b506104616120f4565b348015610a2857600080fd5b506104c7610a37366004613f59565b612103565b348015610a4857600080fd5b5061053260185481565b348015610a5e57600080fd5b506104c7610a6d3660046140dd565b6121d3565b348015610a7e57600080fd5b50610532600e5481565b348015610a9457600080fd5b50610532612366565b348015610aa957600080fd5b50610497610ab8366004613ff1565b6123ab565b348015610ac957600080fd5b50610532610ad8366004613ea5565b6123fa565b348015610ae957600080fd5b50610497610af8366004613ff1565b61242d565b348015610b0957600080fd5b50610b1d610b18366004613ea5565b61243a565b604080516001600160a01b0390991689526020890197909752958701949094526060860192909252608085015260a084015260c083015260e08201526101000161046e565b348015610b6e57600080fd5b50610497610b7d366004613ea5565b601e6020526000908152604090205460ff1681565b348015610b9e57600080fd5b506104c7610bad3660046140a3565b6124e4565b348015610bbe57600080fd5b50610532600a5481565b348015610bd457600080fd5b5061053260115481565b348015610bea57600080fd5b50610532600d5481565b348015610c0057600080fd5b5061053260135481565b348015610c1657600080fd5b50610532610c25366004613edf565b6001600160a01b03918216600090815260016020908152604080832093909416825291909152205490565b348015610c5c57600080fd5b506104c7610c6b366004613ea5565b61252c565b348015610c7c57600080fd5b5061053260095481565b348015610c9257600080fd5b5061053260125481565b348015610ca857600080fd5b506104c7610cb7366004613ea5565b612794565b348015610cc857600080fd5b5061053260155481565b348015610cde57600080fd5b506105326127e2565b348015610cf357600080fd5b506104c7610d023660046140dd565b612827565b348015610d1357600080fd5b5061053260105481565b348015610d2957600080fd5b50610b1d610d383660046140dd565b612882565b348015610d4957600080fd5b506104c7610d58366004613ea5565b6128c4565b348015610d6957600080fd5b506104c7610d78366004613f59565b6129af565b348015610d8957600080fd5b506104c7610d983660046140dd565b612a70565b348015610da957600080fd5b506104c7610db8366004613ea5565b612a9f565b348015610dc957600080fd5b50610497610dd8366004613ea5565b6001600160a01b03166000908152601c602052604090205460ff1690565b606060038054610e059061442a565b80601f0160208091040260200160405190810160405280929190818152602001828054610e319061442a565b8015610e7e5780601f10610e5357610100808354040283529160200191610e7e565b820191906000526020600020905b815481529060010190602001808311610e6157829003601f168201915b5050505050905090565b6000610e95338484612b99565b5060015b92915050565b6005546001600160a01b03163314610ed25760405162461bcd60e51b8152600401610ec990614280565b60405180910390fd5b600955565b6005546001600160a01b03163314610f015760405162461bcd60e51b8152600401610ec990614280565b600b849055600c839055600d829055600e819055610f2b81610f2584818888612b33565b90612b33565b600f5550505050565b6000610f41848484612cbe565b610f938433610f8e856040518060600160405280602881526020016144f6602891396001600160a01b038a16600090815260016020908152604080832033845290915290205491906135e0565b612b99565b5060019392505050565b600854604080516342d359d760e11b815290516000926001600160a01b0316916385a6b3ae916004808301926020929190829003018186803b158015610fe257600080fd5b505afa158015610ff6573d6000803e3d6000fd5b505050506040513d601f19601f8201168201806040525081019061101a91906140f6565b905090565b6005546001600160a01b031633146110495760405162461bcd60e51b8152600401610ec990614280565b60085460405163031e79db60e41b81526001600160a01b038381166004830152909116906331e79db0906024015b600060405180830381600087803b15801561109157600080fd5b505af11580156110a5573d6000803e3d6000fd5b5050505050565b3360008181526001602090815260408083206001600160a01b03871684529091528120549091610e95918590610f8e9086612b33565b6005546001600160a01b0316331461110c5760405162461bcd60e51b8152600401610ec990614280565b6001600160a01b0382166000908152601b602052604090205460ff161515811515141561114b5760405162461bcd60e51b8152600401610ec9906142fa565b6001600160a01b0382166000818152601b6020908152604091829020805460ff191685151590811790915591519182527fc5e00cfc9494c002f5a5ecb735339bf61c88d0e9340bbe76d10bb5f0e48e6f8591015b60405180910390a25050565b6005546001600160a01b031633146111d55760405162461bcd60e51b8152600401610ec990614280565b6001600160a01b03166000908152601c60205260409020805460ff19166001179055565b6005546001600160a01b031633146112235760405162461bcd60e51b8152600401610ec990614280565b600047116112735760405162461bcd60e51b815260206004820152601f60248201527f43616e2774207769746864726177206e65676174697665206f72207a65726f006044820152606401610ec9565b6005546040516001600160a01b03909116904780156108fc02916000818181858888f193505050501580156112ac573d6000803e3d6000fd5b50565b6005546001600160a01b031633146112d95760405162461bcd60e51b8152600401610ec990614280565b6001600160a01b03166000908152601c60205260409020805460ff19169055565b60085460405163bc4c4b3760e01b8152336004820152600060248201526001600160a01b039091169063bc4c4b3790604401602060405180830381600087803b15801561134657600080fd5b505af115801561135a573d6000803e3d6000fd5b505050506040513d601f19601f820116820180604052508101906112ac91906140c0565b6005546001600160a01b031633146113a85760405162461bcd60e51b8152600401610ec990614280565b60005b828110156114195781601960008686858181106113ca576113ca614496565b90506020020160208101906113df9190613ea5565b6001600160a01b031681526020810191909152604001600020805460ff19169115159190911790558061141181614465565b9150506113ab565b507f7fdaf542373fa84f4ee8d662c642f44e4c2276a217d7d29e548b6eb29a233b3583838360405161144d9392919061416f565b60405180910390a1505050565b6005546001600160a01b031633146114845760405162461bcd60e51b8152600401610ec990614280565b6001600160a01b0382166000908152601a602052604090205460ff16151581151514156114c35760405162461bcd60e51b8152600401610ec9906142fa565b6001600160a01b0382166000818152601a6020908152604091829020805460ff191685151590811790915591519182527f4a8452f723db48bf05f301f94d62a2cf7a72976cde77d83e3646584858b8f4b2910161119f565b6005546001600160a01b031633146115455760405162461bcd60e51b8152600401610ec990614280565b6001600160a01b03811661158d5760405162461bcd60e51b815260206004820152600f60248201526e496e76616c6964206164647265737360881b6044820152606401610ec9565b601680546001600160a01b0319166001600160a01b0392909216919091179055565b600854604080516304ddf6ef60e11b815290516000926001600160a01b0316916309bbedde916004808301926020929190829003018186803b158015610fe257600080fd5b6005546001600160a01b0316331461161e5760405162461bcd60e51b8152600401610ec990614280565b6006546001600160a01b038281169116141561168d5760405162461bcd60e51b815260206004820152602860248201527f4554523a2054686520726f7574657220616c7265616479206861732074686174604482015267206164647265737360c01b6064820152608401610ec9565b6006546040516001600160a01b03918216918316907f8fc842bbd331dfa973645f4ed48b11683d501ebf1352708d77a5da2ab49a576e90600090a3600680546001600160a01b0319166001600160a01b0383169081179091556040805163c45a015560e01b815290516000929163c45a0155916004808301926020929190829003018186803b15801561171f57600080fd5b505afa158015611733573d6000803e3d6000fd5b505050506040513d601f19601f820116820180604052508101906117579190613ec2565b6001600160a01b031663c9c6539630600660009054906101000a90046001600160a01b03166001600160a01b031663ad5c46486040518163ffffffff1660e01b815260040160206040518083038186803b1580156117b457600080fd5b505afa1580156117c8573d6000803e3d6000fd5b505050506040513d601f19601f820116820180604052508101906117ec9190613ec2565b6040516001600160e01b031960e085901b1681526001600160a01b03928316600482015291166024820152604401602060405180830381600087803b15801561183457600080fd5b505af1158015611848573d6000803e3d6000fd5b505050506040513d601f19601f8201168201806040525081019061186c9190613ec2565b600780546001600160a01b0319166001600160a01b03929092169190911790555050565b6008546040516370a0823160e01b81526001600160a01b03838116600483015260009216906370a08231906024015b60206040518083038186803b1580156118d757600080fd5b505afa1580156118eb573d6000803e3d6000fd5b505050506040513d601f19601f82011682018060405250810190610e9991906140f6565b6005546001600160a01b031633146119395760405162461bcd60e51b8152600401610ec990614280565b601084905560118390556012829055601381905561195d81610f2584818888612b33565b60145550505050565b6008546040516001624d3b8760e01b0319815260048101839052600091829182916001600160a01b03169063ffb2c47990602401606060405180830381600087803b1580156119b457600080fd5b505af11580156119c8573d6000803e3d6000fd5b505050506040513d601f19601f820116820180604052508101906119ec919061410f565b604080518481526020810184905290810182905260608101889052929550909350915032906000907fc864333d6121033635ab41b29ae52f10a22cf4438c3e4f1c4c68518feb2f8a989060800160405180910390a350505050565b6005546001600160a01b03163314611a715760405162461bcd60e51b8152600401610ec990614280565b6005546040516000916001600160a01b0316907f8be0079c531659141344cd1fd0a4f28419497f9722a3daafe3b4186f6b6457e0908390a3600580546001600160a01b0319169055565b6005546001600160a01b03163314611ae55760405162461bcd60e51b8152600401610ec990614280565b62030d408110158015611afb5750620c35008111155b611b6d5760405162461bcd60e51b815260206004820152603960248201527f4554523a20676173466f7250726f63657373696e67206d75737420626520626560448201527f747765656e203230302c30303020616e64203830302c303030000000000000006064820152608401610ec9565b601854811415611bd95760405162461bcd60e51b815260206004820152603160248201527f4554523a2043616e6e6f742075706461746520676173466f7250726f63657373604482015270696e6720746f2073616d652076616c756560781b6064820152608401610ec9565b60185460405182907f40d7e40e79af4e8e5a9b3c57030d8ea93f13d669c06d448c4d631d4ae7d23db790600090a3601855565b6005546001600160a01b03163314611c365760405162461bcd60e51b8152600401610ec990614280565b6008546001600160a01b0382811691161415611caf5760405162461bcd60e51b815260206004820152603260248201527f4554523a20546865206469766964656e6420747261636b657220616c7265616460448201527179206861732074686174206164647265737360701b6064820152608401610ec9565b6000819050306001600160a01b0316816001600160a01b0316638da5cb5b6040518163ffffffff1660e01b815260040160206040518083038186803b158015611cf757600080fd5b505afa158015611d0b573d6000803e3d6000fd5b505050506040513d601f19601f82011682018060405250810190611d2f9190613ec2565b6001600160a01b031614611db95760405162461bcd60e51b815260206004820152604560248201527f4554523a20546865206e6577206469766964656e6420747261636b6572206d7560448201527f7374206265206f776e6564206279207468652045545220746f6b656e20636f6e6064820152641d1c9858dd60da1b608482015260a401610ec9565b60405163031e79db60e41b81526001600160a01b03821660048201819052906331e79db090602401600060405180830381600087803b158015611dfb57600080fd5b505af1158015611e0f573d6000803e3d6000fd5b505060405163031e79db60e41b81523060048201526001600160a01b03841692506331e79db09150602401600060405180830381600087803b158015611e5457600080fd5b505af1158015611e68573d6000803e3d6000fd5b50505050806001600160a01b03166331e79db0611e8d6005546001600160a01b031690565b6040516001600160e01b031960e084901b1681526001600160a01b039091166004820152602401600060405180830381600087803b158015611ece57600080fd5b505af1158015611ee2573d6000803e3d6000fd5b505060065460405163031e79db60e41b81526001600160a01b03918216600482015290841692506331e79db09150602401600060405180830381600087803b158015611f2d57600080fd5b505af1158015611f41573d6000803e3d6000fd5b505060085460165460405163031e79db60e41b81526001600160a01b039182166004820152911692506331e79db09150602401600060405180830381600087803b158015611f8e57600080fd5b505af1158015611fa2573d6000803e3d6000fd5b505060085460175460405163031e79db60e41b81526001600160a01b039182166004820152911692506331e79db09150602401600060405180830381600087803b158015611fef57600080fd5b505af1158015612003573d6000803e3d6000fd5b505060085460405163031e79db60e41b815261dead60048201526001600160a01b0390911692506331e79db09150602401600060405180830381600087803b15801561204e57600080fd5b505af1158015612062573d6000803e3d6000fd5b50506008546040516001600160a01b03918216935090851691507f90c7d74461c613da5efa97d90740869367d74ab3aa5837aa4ae9a975f954b7a890600090a3600880546001600160a01b0319166001600160a01b039290921691909117905550565b6005546001600160a01b031633146120ef5760405162461bcd60e51b8152600401610ec990614280565b601555565b606060048054610e059061442a565b6005546001600160a01b0316331461212d5760405162461bcd60e51b8152600401610ec990614280565b6007546001600160a01b03838116911614156121c55760405162461bcd60e51b815260206004820152604b60248201527f544553543a205468652050616e63616b655377617020706169722063616e6e6f60448201527f742062652072656d6f7665642066726f6d206175746f6d617465644d61726b6560648201526a744d616b6572506169727360a81b608482015260a401610ec9565b6121cf828261361a565b5050565b6005546001600160a01b031633146121fd5760405162461bcd60e51b8152600401610ec990614280565b604080516002808252606082018352600092602083019080368337019050509050308160008151811061223257612232614496565b6001600160a01b03928316602091820292909201810191909152600654604080516315ab88c960e31b81529051919093169263ad5c4648926004808301939192829003018186803b15801561228657600080fd5b505afa15801561229a573d6000803e3d6000fd5b505050506040513d601f19601f820116820180604052508101906122be9190613ec2565b816001815181106122d1576122d1614496565b6001600160a01b0392831660209182029290920101526006546122f79130911684612b99565b60065460405163791ac94760e01b81526001600160a01b039091169063791ac94790612330908590600090869030904290600401614349565b600060405180830381600087803b15801561234a57600080fd5b505af115801561235e573d6000803e3d6000fd5b505050505050565b60085460408051631bc9e27b60e21b815290516000926001600160a01b031691636f2789ec916004808301926020929190829003018186803b158015610fe257600080fd5b6000610e953384610f8e8560405180606001604052806025815260200161451e602591393360009081526001602090815260408083206001600160a01b038d16845290915290205491906135e0565b6008546040516302a2e74960e61b81526001600160a01b038381166004830152600092169063a8b9d240906024016118bf565b6000610e95338484612cbe565b60085460405163fbcbc0f160e01b81526001600160a01b038381166004830152600092839283928392839283928392839291169063fbcbc0f1906024015b6101006040518083038186803b15801561249157600080fd5b505afa1580156124a5573d6000803e3d6000fd5b505050506040513d601f19601f820116820180604052508101906124c99190613f87565b97509750975097509750975097509750919395975091939597565b6005546001600160a01b0316331461250e5760405162461bcd60e51b8152600401610ec990614280565b60178054911515600160a01b0260ff60a01b19909216919091179055565b6005546001600160a01b031633146125565760405162461bcd60e51b8152600401610ec990614280565b6001600160a01b0381163014156125c45760405162461bcd60e51b815260206004820152602c60248201527f43616e277420776974686472617720746f6b656e732064657374696e6564206660448201526b6f72206c697175696469747960a01b6064820152608401610ec9565b6040516370a0823160e01b81523060048201526000906001600160a01b038316906370a082319060240160206040518083038186803b15801561260657600080fd5b505afa15801561261a573d6000803e3d6000fd5b505050506040513d601f19601f8201168201806040525081019061263e91906140f6565b1161267e5760405162461bcd60e51b815260206004820152601060248201526f043616e277420776974686472617720360841b6044820152606401610ec9565b806001600160a01b031663a9059cbb61269f6005546001600160a01b031690565b6040516370a0823160e01b81523060048201526001600160a01b038516906370a082319060240160206040518083038186803b1580156126de57600080fd5b505afa1580156126f2573d6000803e3d6000fd5b505050506040513d601f19601f8201168201806040525081019061271691906140f6565b6040516001600160e01b031960e085901b1681526001600160a01b0390921660048301526024820152604401602060405180830381600087803b15801561275c57600080fd5b505af1158015612770573d6000803e3d6000fd5b505050506040513d601f19601f820116820180604052508101906121cf91906140c0565b6005546001600160a01b031633146127be5760405162461bcd60e51b8152600401610ec990614280565b6001600160a01b03166000908152601d60205260409020805460ff19166001179055565b6008546040805163039e107b60e61b815290516000926001600160a01b03169163e7841ec0916004808301926020929190829003018186803b158015610fe257600080fd5b6005546001600160a01b031633146128515760405162461bcd60e51b8152600401610ec990614280565b60085460405163e98030c760e01b8152600481018390526001600160a01b039091169063e98030c790602401611077565b600854604051635183d6fd60e01b81526004810183905260009182918291829182918291829182916001600160a01b0390911690635183d6fd90602401612478565b6005546001600160a01b031633146128ee5760405162461bcd60e51b8152600401610ec990614280565b6001600160a01b0381166129535760405162461bcd60e51b815260206004820152602660248201527f4f776e61626c653a206e6577206f776e657220697320746865207a65726f206160448201526564647265737360d01b6064820152608401610ec9565b6005546040516001600160a01b038084169216907f8be0079c531659141344cd1fd0a4f28419497f9722a3daafe3b4186f6b6457e090600090a3600580546001600160a01b0319166001600160a01b0392909216919091179055565b6005546001600160a01b031633146129d95760405162461bcd60e51b8152600401610ec990614280565b6001600160a01b03821660009081526019602052604090205460ff1615158115151415612a185760405162461bcd60e51b8152600401610ec9906142fa565b6001600160a01b038216600081815260196020908152604091829020805460ff191685151590811790915591519182527f9d8f7706ea1113d1a167b526eca956215946dd36cc7df39eb16180222d8b5df7910161119f565b6005546001600160a01b03163314612a9a5760405162461bcd60e51b8152600401610ec990614280565b600a55565b6005546001600160a01b03163314612ac95760405162461bcd60e51b8152600401610ec990614280565b6001600160a01b038116612b115760405162461bcd60e51b815260206004820152600f60248201526e496e76616c6964206164647265737360881b6044820152606401610ec9565b601780546001600160a01b0319166001600160a01b0392909216919091179055565b600080612b4083856143ba565b905083811015612b925760405162461bcd60e51b815260206004820152601b60248201527f536166654d6174683a206164646974696f6e206f766572666c6f7700000000006044820152606401610ec9565b9392505050565b6001600160a01b038316612bfb5760405162461bcd60e51b8152602060048201526024808201527f45524332303a20617070726f76652066726f6d20746865207a65726f206164646044820152637265737360e01b6064820152608401610ec9565b6001600160a01b038216612c5c5760405162461bcd60e51b815260206004820152602260248201527f45524332303a20617070726f766520746f20746865207a65726f206164647265604482015261737360f01b6064820152608401610ec9565b6001600160a01b0383811660008181526001602090815260408083209487168084529482529182902085905590518481527f8c5be1e5ebec7d5bd14f71427d1e84f3dd0314c0f7b2291e5b200ac8c7c3b92591015b60405180910390a3505050565b6001600160a01b038316612ce45760405162461bcd60e51b8152600401610ec9906142b5565b6001600160a01b038216612d0a5760405162461bcd60e51b8152600401610ec99061421d565b6001600160a01b0382166000908152601c602052604090205460ff16158015612d4c57506001600160a01b0383166000908152601c602052604090205460ff16155b612d915760405162461bcd60e51b81526020600482015260166024820152751859191c995cdcc81a5cc8189b1858dadb1a5cdd195960521b6044820152606401610ec9565b6001600160a01b0383166000908152601d602052604090205460ff16612e0a57601754600160a01b900460ff16612e0a5760405162461bcd60e51b815260206004820152601a60248201527f54726164696e67206973206e6f7420656e61626c6564207965740000000000006044820152606401610ec9565b6005546001600160a01b03848116911614801590612e3657506005546001600160a01b03838116911614155b8015612e4a57506001600160a01b03821615155b8015612e6157506001600160a01b03821661dead14155b8015612e7b57506007546001600160a01b03838116911614155b15612f13576001600160a01b03821660009081526020818152604080832054601a9092529091205460ff16612f1157601554612eb783836143ba565b1115612f115760405162461bcd60e51b8152602060048201526024808201527f45786365656473206d6178696d756d2077616c6c657420746f6b656e20616d6f6044820152633ab73a1760e11b6064820152608401610ec9565b505b80612f2957612f2483836000613778565b505050565b6001600160a01b03831660009081526019602052604090205460ff16158015612f6b57506001600160a01b03821660009081526019602052604090205460ff16155b15613027576001600160a01b0383166000908152601b602052604090205460ff16158015612fb257506001600160a01b0383166000908152601b602052604090205460ff16155b1561302757600a548111156130275760405162461bcd60e51b815260206004820152603560248201527f7472616e7366657220616d6f756e74206578636565647320746865206d61785360448201527432b6362a3930b739b0b1ba34b7b720b6b7bab73a1760591b6064820152608401610ec9565b30600090815260208190526040902054600954811080159081906130555750600754600160a01b900460ff16155b801561306f57506007546001600160a01b03868116911614155b801561308957506005546001600160a01b03868116911614155b80156130a357506005546001600160a01b03858116911614155b15613207576007805460ff60a01b1916600160a01b1790556014546013546012546000926130e89290916130e2916130db9190612b33565b8690613881565b90613900565b9050476130f4826121fd565b60006131004783613942565b9050600061312c61311e601254601354612b3390919063ffffffff16565b6012546130e2908590613881565b9050600061313a8383613942565b6016546040519192506001600160a01b03169083156108fc029084906000818181858888f19350505050158015613175573d6000803e3d6000fd5b506017546040516001600160a01b039091169082156108fc029083906000818181858888f193505050501580156131b0573d6000803e3d6000fd5b5060006131ce6014546130e26011548b61388190919063ffffffff16565b90506131d981613984565b306000908152602081905260409020546131f281613a0b565b50506007805460ff60a01b1916905550505050505b6007546001600160a01b03861660009081526019602052604090205460ff600160a01b90920482161591168061325557506001600160a01b03851660009081526019602052604090205460ff165b1561325e575060005b6001600160a01b0385166000908152601e602052604090205460ff161580156132a057506001600160a01b0386166000908152601e602052604090205460ff16155b156132a9575060005b801561332c5760006132cb60646130e2600f548861388190919063ffffffff16565b6001600160a01b0387166000908152601e602052604090205490915060ff16156133135761330660646130e26132ff613bf8565b8890613881565b61331090826143ba565b90505b61331d8582613942565b945061332a873083613778565b505b613337868686613778565b6008546001600160a01b031663e30443bc87613368816001600160a01b031660009081526020819052604090205490565b6040516001600160e01b031960e085901b1681526001600160a01b0390921660048301526024820152604401600060405180830381600087803b1580156133ae57600080fd5b505af19250505080156133bf575060015b6133f9577f41304facd9323d75b11bcdd609cb38effffdb05710f7caf0e9b16c6d9d709f506040516133f090614260565b60405180910390a15b6008546001600160a01b031663e30443bc8661342a816001600160a01b031660009081526020819052604090205490565b6040516001600160e01b031960e085901b1681526001600160a01b0390921660048301526024820152604401600060405180830381600087803b15801561347057600080fd5b505af1925050508015613481575060015b6134bb577f41304facd9323d75b11bcdd609cb38effffdb05710f7caf0e9b16c6d9d709f506040516134b290614260565b60405180910390a15b600754600160a01b900460ff1661235e576018546008546040516001624d3b8760e01b03198152600481018390526001600160a01b039091169063ffb2c47990602401606060405180830381600087803b15801561351857600080fd5b505af1925050508015613548575060408051601f3d908101601f191682019092526135459181019061410f565b60015b613586577f41304facd9323d75b11bcdd609cb38effffdb05710f7caf0e9b16c6d9d709f5060405161357990614260565b60405180910390a16135d7565b60408051848152602081018490529081018290526060810185905232906001907fc864333d6121033635ab41b29ae52f10a22cf4438c3e4f1c4c68518feb2f8a989060800160405180910390a35050505b50505050505050565b600081848411156136045760405162461bcd60e51b8152600401610ec991906141c8565b5060006136118486614413565b95945050505050565b6001600160a01b0382166000908152601e602052604090205460ff16151581151514156136af5760405162461bcd60e51b815260206004820152603d60248201527f4554523a204175746f6d61746564206d61726b6574206d616b6572207061697260448201527f20697320616c72656164792073657420746f20746861742076616c75650000006064820152608401610ec9565b6001600160a01b0382166000908152601e60205260409020805460ff1916821580159190911790915561373c5760085460405163031e79db60e41b81526001600160a01b038481166004830152909116906331e79db090602401600060405180830381600087803b15801561372357600080fd5b505af1158015613737573d6000803e3d6000fd5b505050505b604051811515906001600160a01b038416907fffa9187bf1f18bf477bd0ea1bcbb64e93b6a98132473929edfce215cd9b16fab90600090a35050565b6001600160a01b03831661379e5760405162461bcd60e51b8152600401610ec9906142b5565b6001600160a01b0382166137c45760405162461bcd60e51b8152600401610ec99061421d565b613801816040518060600160405280602681526020016144d0602691396001600160a01b03861660009081526020819052604090205491906135e0565b6001600160a01b0380851660009081526020819052604080822093909355908416815220546138309082612b33565b6001600160a01b038381166000818152602081815260409182902094909455518481529092918616917fddf252ad1be2c89b69c2b068fc378daa952ba7f163c4a11628f55a4df523b3ef9101612cb1565b60008261389057506000610e99565b600061389c83856143f4565b9050826138a985836143d2565b14612b925760405162461bcd60e51b815260206004820152602160248201527f536166654d6174683a206d756c7469706c69636174696f6e206f766572666c6f6044820152607760f81b6064820152608401610ec9565b6000612b9283836040518060400160405280601a81526020017f536166654d6174683a206469766973696f6e206279207a65726f000000000000815250613c11565b6000612b9283836040518060400160405280601e81526020017f536166654d6174683a207375627472616374696f6e206f766572666c6f7700008152506135e0565b6000613991826002613900565b9050600061399f8383613942565b9050476139ab836121fd565b60006139b74783613942565b90506139c38382613c3f565b60408051858152602081018390529081018490527f17bbfb9a6069321b6ded73bd96327c9e6b7212a5cd51ff219cd61370acafb5619060600160405180910390a15050505050565b613a1481613d1c565b6040516370a0823160e01b81523060048201526000907f00000000000000000000000000000000000000000000000000000000000000006001600160a01b0316906370a082319060240160206040518083038186803b158015613a7657600080fd5b505afa158015613a8a573d6000803e3d6000fd5b505050506040513d601f19601f82011682018060405250810190613aae91906140f6565b60085460405163a9059cbb60e01b81526001600160a01b039182166004820152602481018390529192506000917f00000000000000000000000000000000000000000000000000000000000000009091169063a9059cbb90604401602060405180830381600087803b158015613b2357600080fd5b505af1158015613b37573d6000803e3d6000fd5b505050506040513d601f19601f82011682018060405250810190613b5b91906140c0565b90508015612f24576008546040516351c2a0e360e01b8152600481018490526001600160a01b03909116906351c2a0e390602401600060405180830381600087803b158015613ba957600080fd5b505af1158015613bbd573d6000803e3d6000fd5b505060408051868152602081018690527f80195cc573b02cc48460cbca6e6e4cc85ddb91959d946e1c3025ea3d87942dc3935001905061144d565b600061101a600f5460145461394290919063ffffffff16565b60008183613c325760405162461bcd60e51b8152600401610ec991906141c8565b50600061361184866143d2565b600654613c579030906001600160a01b031684612b99565b6006546001600160a01b031663f305d719823085600080613c806005546001600160a01b031690565b60405160e088901b6001600160e01b03191681526001600160a01b03958616600482015260248101949094526044840192909252606483015290911660848201524260a482015260c4016060604051808303818588803b158015613ce357600080fd5b505af1158015613cf7573d6000803e3d6000fd5b50505050506040513d601f19601f820116820180604052508101906110a5919061410f565b60408051600380825260808201909252600091602082016060803683370190505090503081600081518110613d5357613d53614496565b6001600160a01b03928316602091820292909201810191909152600654604080516315ab88c960e31b81529051919093169263ad5c4648926004808301939192829003018186803b158015613da757600080fd5b505afa158015613dbb573d6000803e3d6000fd5b505050506040513d601f19601f82011682018060405250810190613ddf9190613ec2565b81600181518110613df257613df2614496565b60200260200101906001600160a01b031690816001600160a01b0316815250507f000000000000000000000000000000000000000000000000000000000000000081600281518110613e4657613e46614496565b6001600160a01b039283166020918202929092010152600654613e6c9130911684612b99565b600654604051635c11d79560e01b81526001600160a01b0390911690635c11d79590612330908590600090869030904290600401614349565b600060208284031215613eb757600080fd5b8135612b92816144ac565b600060208284031215613ed457600080fd5b8151612b92816144ac565b60008060408385031215613ef257600080fd5b8235613efd816144ac565b91506020830135613f0d816144ac565b809150509250929050565b600080600060608486031215613f2d57600080fd5b8335613f38816144ac565b92506020840135613f48816144ac565b929592945050506040919091013590565b60008060408385031215613f6c57600080fd5b8235613f77816144ac565b91506020830135613f0d816144c1565b600080600080600080600080610100898b031215613fa457600080fd5b8851613faf816144ac565b809850506020890151965060408901519550606089015194506080890151935060a0890151925060c0890151915060e089015190509295985092959890939650565b6000806040838503121561400457600080fd5b823561400f816144ac565b946020939093013593505050565b60008060006040848603121561403257600080fd5b833567ffffffffffffffff8082111561404a57600080fd5b818601915086601f83011261405e57600080fd5b81358181111561406d57600080fd5b8760208260051b850101111561408257600080fd5b60209283019550935050840135614098816144c1565b809150509250925092565b6000602082840312156140b557600080fd5b8135612b92816144c1565b6000602082840312156140d257600080fd5b8151612b92816144c1565b6000602082840312156140ef57600080fd5b5035919050565b60006020828403121561410857600080fd5b5051919050565b60008060006060848603121561412457600080fd5b8351925060208401519150604084015190509250925092565b6000806000806080858703121561415357600080fd5b5050823594602084013594506040840135936060013592509050565b6040808252810183905260008460608301825b868110156141b2578235614195816144ac565b6001600160a01b0316825260209283019290910190600101614182565b5080925050508215156020830152949350505050565b600060208083528351808285015260005b818110156141f5578581018301518582016040015282016141d9565b81811115614207576000604083870101525b50601f01601f1916929092016040019392505050565b60208082526023908201527f45524332303a207472616e7366657220746f20746865207a65726f206164647260408201526265737360e81b606082015260800190565b60208082526006908201526519985a5b195960d21b604082015260600190565b6020808252818101527f4f776e61626c653a2063616c6c6572206973206e6f7420746865206f776e6572604082015260600190565b60208082526025908201527f45524332303a207472616e736665722066726f6d20746865207a65726f206164604082015264647265737360d81b606082015260800190565b6020808252602f908201527f4554523a204163636f756e7420697320616c7265616479207468652076616c7560408201526e65206f6620276578636c756465642760881b606082015260800190565b600060a082018783526020878185015260a0604085015281875180845260c086019150828901935060005b818110156143995784516001600160a01b031683529383019391830191600101614374565b50506001600160a01b03969096166060850152505050608001529392505050565b600082198211156143cd576143cd614480565b500190565b6000826143ef57634e487b7160e01b600052601260045260246000fd5b500490565b600081600019048311821515161561440e5761440e614480565b500290565b60008282101561442557614425614480565b500390565b600181811c9082168061443e57607f821691505b6020821081141561445f57634e487b7160e01b600052602260045260246000fd5b50919050565b600060001982141561447957614479614480565b5060010190565b634e487b7160e01b600052601160045260246000fd5b634e487b7160e01b600052603260045260246000fd5b6001600160a01b03811681146112ac57600080fd5b80151581146112ac57600080fdfe45524332303a207472616e7366657220616d6f756e7420657863656564732062616c616e636545524332303a207472616e7366657220616d6f756e74206578636565647320616c6c6f77616e636545524332303a2064656372656173656420616c6c6f77616e63652062656c6f77207a65726fa26469706673582212206bb40dc720b04bf729dc2140d15b28be1d97aba14a4204601fe9b6cf345e7c9564736f6c6343000807003360c06040527f2170ed0880ac9a755fd29b2688956bd959f933f80000000000000000000000006080523480156200003557600080fd5b5060408051808201825260148082527f4554525f4469766964656e645f547261636b657200000000000000000000000060208084018281528551808701909652928552840152815191929183918391620000929160039162000109565b508051620000a890600490602084019062000109565b5050600580546001600160a01b031916339081179091556040519091506000907f8be0079c531659141344cd1fd0a4f28419497f9722a3daafe3b4186f6b6457e0908290a35050610e10601155692a5a058fc295ed00000060a052620001ec565b8280546200011790620001af565b90600052602060002090601f0160209004810192826200013b576000855562000186565b82601f106200015657805160ff191683800117855562000186565b8280016001018555821562000186579182015b828111156200018657825182559160200191906001019062000169565b506200019492915062000198565b5090565b5b8082111562000194576000815560010162000199565b600181811c90821680620001c457607f821691505b60208210811415620001e657634e487b7160e01b600052602260045260246000fd5b50919050565b60805160601c60a051611fc162000223600039600081816104c00152610d560152600081816103d701526117d40152611fc16000f3fe608060405234801561001057600080fd5b506004361061021c5760003560e01c80638322fff211610125578063bc4c4b37116100ad578063e7841ec01161007c578063e7841ec01461052e578063e98030c714610536578063f2fde38b14610549578063fbcbc0f11461055c578063ffb2c4791461056f57600080fd5b8063bc4c4b37146104a8578063be10b614146104bb578063dd62ed3e146104e2578063e30443bc1461051b57600080fd5b806395d89b41116100f457806395d89b411461043e578063a457c2d714610446578063a8b9d24014610459578063a9059cbb1461046c578063aafd847a1461047f57600080fd5b80638322fff2146103d257806385a6b3ae146104115780638da5cb5b1461041a57806391b89fba1461042b57600080fd5b806331e79db0116101a857806351c2a0e31161017757806351c2a0e31461037d5780636a474002146103905780636f2789ec1461039857806370a08231146103a1578063715018a6146103ca57600080fd5b806331e79db0146102da57806339509351146102ef5780634e7b827f146103025780635183d6fd1461032557600080fd5b8063226cfa3d116101ef578063226cfa3d1461027c57806323b872dd1461029c57806327ce0147146102af5780633009a609146102c2578063313ce567146102cb57600080fd5b806306fdde0314610221578063095ea7b31461023f57806309bbedde1461026257806318160ddd14610274575b600080fd5b61022961059d565b6040516102369190611cfd565b60405180910390f35b61025261024d366004611c13565b61062f565b6040519015158152602001610236565b600a545b604051908152602001610236565b600254610266565b61026661028a366004611ba0565b60106020526000908152604090205481565b6102526102aa366004611c6d565b610646565b6102666102bd366004611ba0565b6106af565b610266600e5481565b60405160128152602001610236565b6102ed6102e8366004611ba0565b61070b565b005b6102526102fd366004611c13565b61083b565b610252610310366004611ba0565b600f6020526000908152604090205460ff1681565b610338610333366004611ce4565b610871565b604080516001600160a01b0390991689526020890197909752958701949094526060860192909252608085015260a084015260c083015260e082015261010001610236565b6102ed61038b366004611ce4565b6109e3565b6102ed610aa1565b61026660115481565b6102666103af366004611ba0565b6001600160a01b031660009081526020819052604090205490565b6102ed610b41565b6103f97f000000000000000000000000000000000000000000000000000000000000000081565b6040516001600160a01b039091168152602001610236565b61026660095481565b6005546001600160a01b03166103f9565b610266610439366004611ba0565b610bb5565b610229610bc0565b610252610454366004611c13565b610bcf565b610266610467366004611ba0565b610c1e565b61025261047a366004611c13565b610c4a565b61026661048d366004611ba0565b6001600160a01b031660009081526008602052604090205490565b6102526104b6366004611bda565b610c57565b6102667f000000000000000000000000000000000000000000000000000000000000000081565b6102666104f0366004611c3f565b6001600160a01b03918216600090815260016020908152604080832093909416825291909152205490565b6102ed610529366004611c13565b610d05565b600e54610266565b6102ed610544366004611ce4565b610e91565b6102ed610557366004611ba0565b610fff565b61033861056a366004611ba0565b6110ea565b61058261057d366004611ce4565b611262565b60408051938452602084019290925290820152606001610236565b6060600380546105ac90611e77565b80601f01602080910402602001604051908101604052809291908181526020018280546105d890611e77565b80156106255780601f106105fa57610100808354040283529160200191610625565b820191906000526020600020905b81548152906001019060200180831161060857829003601f168201915b5050505050905090565b600061063c33848461137d565b5060015b92915050565b60006106538484846114a1565b6106a584336106a085604051806060016040528060288152602001611f3f602891396001600160a01b038a16600090815260016020908152604080832033845290915290205491906114fc565b61137d565b5060019392505050565b6001600160a01b03811660009081526007602090815260408083205491839052822054600654600160801b92610701926106fc926106f6916106f19190611536565b6115bc565b906115cc565b61160a565b6106409190611de0565b6005546001600160a01b0316331461073e5760405162461bcd60e51b815260040161073590611d52565b60405180910390fd5b6001600160a01b0381166000908152600f602052604090205460ff161561076457600080fd5b6001600160a01b0381166000908152600f60205260408120805460ff1916600117905561079290829061161d565b60405163131836e760e21b8152600a60048201526001600160a01b038216602482015273__$9b82b52d3d4feb469761ee097260b6c83b$__90634c60db9c9060440160006040518083038186803b1580156107ec57600080fd5b505af4158015610800573d6000803e3d6000fd5b50506040516001600160a01b03841692507fa878b31040b2e6d0a9a3d3361209db3908ba62014b0dca52adbaee451d128b259150600090a250565b3360008181526001602090815260408083206001600160a01b0387168452909152812054909161063c9185906106a0908661167c565b600080600080600080600080600a73__$9b82b52d3d4feb469761ee097260b6c83b$__63deb3d89690916040518263ffffffff1660e01b81526004016108b991815260200190565b60206040518083038186803b1580156108d157600080fd5b505af41580156108e5573d6000803e3d6000fd5b505050506040513d601f19601f820116820180604052508101906109099190611ccb565b891061092e5750600096506000199550859450869350839250829150819050806109d8565b6040516368d54f3f60e11b8152600a6004820152602481018a905260009073__$9b82b52d3d4feb469761ee097260b6c83b$__9063d1aa9e7e9060440160206040518083038186803b15801561098357600080fd5b505af4158015610997573d6000803e3d6000fd5b505050506040513d601f19601f820116820180604052508101906109bb9190611bbd565b90506109c6816110ea565b98509850985098509850985098509850505b919395975091939597565b6005546001600160a01b03163314610a0d5760405162461bcd60e51b815260040161073590611d52565b6000610a1860025490565b11610a2257600080fd5b8015610a9e57610a55610a3460025490565b610a4283600160801b611536565b610a4c9190611de0565b6006549061167c565b60065560405181815233907fa493a9229478c3fcd73f66d2cdeb7f94fd0f341da924d1054236d784541165119060200160405180910390a2600954610a9a908261167c565b6009555b50565b60405162461bcd60e51b815260206004820152606360248201527f4554525f4469766964656e645f547261636b65723a207769746864726177446960448201527f766964656e642064697361626c65642e20557365207468652027636c61696d2760648201527f2066756e6374696f6e206f6e20746865206d61696e2045545220636f6e74726160848201526231ba1760e91b60a482015260c401610735565b6005546001600160a01b03163314610b6b5760405162461bcd60e51b815260040161073590611d52565b6005546040516000916001600160a01b0316907f8be0079c531659141344cd1fd0a4f28419497f9722a3daafe3b4186f6b6457e0908390a3600580546001600160a01b0319169055565b600061064082610c1e565b6060600480546105ac90611e77565b600061063c33846106a085604051806060016040528060258152602001611f67602591393360009081526001602090815260408083206001600160a01b038d16845290915290205491906114fc565b6001600160a01b03811660009081526008602052604081205461064090610c44846106af565b906116db565b600061063c3384846114a1565b6005546000906001600160a01b03163314610c845760405162461bcd60e51b815260040161073590611d52565b6000610c8f8461171d565b90508015610cfb576001600160a01b038416600081815260106020526040908190204290555184151591907fa2c38e2d2fb7e3e1912d937fd1ca11ed6d51864dee4cfa7a7bf02becd7acf09290610ce99085815260200190565b60405180910390a36001915050610640565b5060009392505050565b6005546001600160a01b03163314610d2f5760405162461bcd60e51b815260040161073590611d52565b6001600160a01b0382166000908152600f602052604090205460ff1615610d54575050565b7f00000000000000000000000000000000000000000000000000000000000000008110610e0357610d85828261161d565b604051632f0ad01760e21b8152600a60048201526001600160a01b03831660248201526044810182905273__$9b82b52d3d4feb469761ee097260b6c83b$__9063bc2b405c9060640160006040518083038186803b158015610de657600080fd5b505af4158015610dfa573d6000803e3d6000fd5b50505050610e81565b610e0e82600061161d565b60405163131836e760e21b8152600a60048201526001600160a01b038316602482015273__$9b82b52d3d4feb469761ee097260b6c83b$__90634c60db9c9060440160006040518083038186803b158015610e6857600080fd5b505af4158015610e7c573d6000803e3d6000fd5b505050505b610e8c826001610c57565b505050565b6005546001600160a01b03163314610ebb5760405162461bcd60e51b815260040161073590611d52565b610e108110158015610ed05750620151808111155b610f545760405162461bcd60e51b815260206004820152604960248201527f4554525f4469766964656e645f547261636b65723a20636c61696d576169742060448201527f6d757374206265207570646174656420746f206265747765656e203120616e6460648201526820323420686f75727360b81b608482015260a401610735565b601154811415610fcc5760405162461bcd60e51b815260206004820152603b60248201527f4554525f4469766964656e645f547261636b65723a2043616e6e6f742075706460448201527f61746520636c61696d5761697420746f2073616d652076616c756500000000006064820152608401610735565b60115460405182907f474ea64804364a1e29a4487ddb63c3342a2dd826ccd8acf48825e680a0e6f20f90600090a3601155565b6005546001600160a01b031633146110295760405162461bcd60e51b815260040161073590611d52565b6001600160a01b03811661108e5760405162461bcd60e51b815260206004820152602660248201527f4f776e61626c653a206e6577206f776e657220697320746865207a65726f206160448201526564647265737360d01b6064820152608401610735565b6005546040516001600160a01b038084169216907f8be0079c531659141344cd1fd0a4f28419497f9722a3daafe3b4186f6b6457e090600090a3600580546001600160a01b0319166001600160a01b0392909216919091179055565b6040516317e142d160e01b8152600a60048201526001600160a01b0382166024820152819060009081908190819081908190819073__$9b82b52d3d4feb469761ee097260b6c83b$__906317e142d19060440160206040518083038186803b15801561115557600080fd5b505af4158015611169573d6000803e3d6000fd5b505050506040513d601f19601f8201168201806040525081019061118d9190611ccb565b96506000199550600087126111ef57600e548711156111bb57600e546111b49088906118b1565b95506111ef565b600e54600a54600091106111d05760006111df565b600e54600a546111df916116db565b90506111eb88826115cc565b9650505b6111f888610c1e565b9450611203886106af565b6001600160a01b03891660009081526010602052604090205490945092508261122d57600061123b565b60115461123b90849061167c565b915042821161124b576000611255565b61125582426116db565b9050919395975091939597565b600a546000908190819080611282575050600e5460009250829150611376565b600e546000805a90506000805b898410801561129d57508582105b1561136557846112ac81611eb2565b600a54909650861090506112bf57600094505b6000600a60000186815481106112d7576112d7611ee3565b60009182526020808320909101546001600160a01b03168083526010909152604090912054909150611308906118ee565b1561132b57611318816001610c57565b1561132b578161132781611eb2565b9250505b8261133581611eb2565b93505060005a90508085111561135c5761135961135286836116db565b879061167c565b95505b935061128f9050565b600e85905590975095509193505050505b9193909250565b6001600160a01b0383166113df5760405162461bcd60e51b8152602060048201526024808201527f45524332303a20617070726f76652066726f6d20746865207a65726f206164646044820152637265737360e01b6064820152608401610735565b6001600160a01b0382166114405760405162461bcd60e51b815260206004820152602260248201527f45524332303a20617070726f766520746f20746865207a65726f206164647265604482015261737360f01b6064820152608401610735565b6001600160a01b0383811660008181526001602090815260408083209487168084529482529182902085905590518481527f8c5be1e5ebec7d5bd14f71427d1e84f3dd0314c0f7b2291e5b200ac8c7c3b925910160405180910390a3505050565b60405162461bcd60e51b815260206004820152602a60248201527f4554525f4469766964656e645f547261636b65723a204e6f207472616e7366656044820152691c9cc8185b1b1bddd95960b21b6064820152608401610735565b600081848411156115205760405162461bcd60e51b81526004016107359190611cfd565b50600061152d8486611e60565b95945050505050565b60008261154557506000610640565b60006115518385611e02565b90508261155e8583611de0565b146115b55760405162461bcd60e51b815260206004820152602160248201527f536166654d6174683a206d756c7469706c69636174696f6e206f766572666c6f6044820152607760f81b6064820152608401610735565b9392505050565b6000818181121561064057600080fd5b6000806115d98385611d87565b9050600083121580156115ec5750838112155b80611601575060008312801561160157508381125b6115b557600080fd5b60008082121561161957600080fd5b5090565b6001600160a01b0382166000908152602081905260409020548082111561165c57600061164a83836116db565b90506116568482611915565b50505050565b80821015610e8c57600061167082846116db565b90506116568482611979565b6000806116898385611dc8565b9050838110156115b55760405162461bcd60e51b815260206004820152601b60248201527f536166654d6174683a206164646974696f6e206f766572666c6f7700000000006044820152606401610735565b60006115b583836040518060400160405280601e81526020017f536166654d6174683a207375627472616374696f6e206f766572666c6f7700008152506114fc565b60008061172983610c1e565b905080156118a8576001600160a01b038316600090815260086020526040902054611754908261167c565b6001600160a01b038416600081815260086020526040908190209290925590517fee503bee2bb6a87e57bc57db795f98137327401a0e7b7ce42e37926cc1a9ca4d906117a39084815260200190565b60405180910390a260405163a9059cbb60e01b81526001600160a01b038481166004830152602482018390526000917f00000000000000000000000000000000000000000000000000000000000000009091169063a9059cbb90604401602060405180830381600087803b15801561181a57600080fd5b505af115801561182e573d6000803e3d6000fd5b505050506040513d601f19601f820116820180604052508101906118529190611cae565b9050806118a1576001600160a01b03841660009081526008602052604090205461187c90836116db565b6001600160a01b03909416600090815260086020526040812094909455509192915050565b5092915050565b50600092915050565b6000806118be8385611e21565b9050600083121580156118d15750838113155b80611601575060008312801561160157508381136115b557600080fd5b60004282111561190057506000919050565b60115461190d42846116db565b101592915050565b61191f82826119bd565b61195961193a6106f18360065461153690919063ffffffff16565b6001600160a01b038416600090815260076020526040902054906118b1565b6001600160a01b0390921660009081526007602052604090209190915550565b6119838282611a9c565b61195961199e6106f18360065461153690919063ffffffff16565b6001600160a01b038416600090815260076020526040902054906115cc565b6001600160a01b038216611a135760405162461bcd60e51b815260206004820152601f60248201527f45524332303a206d696e7420746f20746865207a65726f2061646472657373006044820152606401610735565b600254611a20908261167c565b6002556001600160a01b038216600090815260208190526040902054611a46908261167c565b6001600160a01b038316600081815260208181526040808320949094559251848152919290917fddf252ad1be2c89b69c2b068fc378daa952ba7f163c4a11628f55a4df523b3ef91015b60405180910390a35050565b6001600160a01b038216611afc5760405162461bcd60e51b815260206004820152602160248201527f45524332303a206275726e2066726f6d20746865207a65726f206164647265736044820152607360f81b6064820152608401610735565b611b3981604051806060016040528060228152602001611f1d602291396001600160a01b03851660009081526020819052604090205491906114fc565b6001600160a01b038316600090815260208190526040902055600254611b5f90826116db565b6002556040518181526000906001600160a01b038416907fddf252ad1be2c89b69c2b068fc378daa952ba7f163c4a11628f55a4df523b3ef90602001611a90565b600060208284031215611bb257600080fd5b81356115b581611ef9565b600060208284031215611bcf57600080fd5b81516115b581611ef9565b60008060408385031215611bed57600080fd5b8235611bf881611ef9565b91506020830135611c0881611f0e565b809150509250929050565b60008060408385031215611c2657600080fd5b8235611c3181611ef9565b946020939093013593505050565b60008060408385031215611c5257600080fd5b8235611c5d81611ef9565b91506020830135611c0881611ef9565b600080600060608486031215611c8257600080fd5b8335611c8d81611ef9565b92506020840135611c9d81611ef9565b929592945050506040919091013590565b600060208284031215611cc057600080fd5b81516115b581611f0e565b600060208284031215611cdd57600080fd5b5051919050565b600060208284031215611cf657600080fd5b5035919050565b600060208083528351808285015260005b81811015611d2a57858101830151858201604001528201611d0e565b81811115611d3c576000604083870101525b50601f01601f1916929092016040019392505050565b6020808252818101527f4f776e61626c653a2063616c6c6572206973206e6f7420746865206f776e6572604082015260600190565b600080821280156001600160ff1b0384900385131615611da957611da9611ecd565b600160ff1b8390038412811615611dc257611dc2611ecd565b50500190565b60008219821115611ddb57611ddb611ecd565b500190565b600082611dfd57634e487b7160e01b600052601260045260246000fd5b500490565b6000816000190483118215151615611e1c57611e1c611ecd565b500290565b60008083128015600160ff1b850184121615611e3f57611e3f611ecd565b6001600160ff1b0384018313811615611e5a57611e5a611ecd565b50500390565b600082821015611e7257611e72611ecd565b500390565b600181811c90821680611e8b57607f821691505b60208210811415611eac57634e487b7160e01b600052602260045260246000fd5b50919050565b6000600019821415611ec657611ec6611ecd565b5060010190565b634e487b7160e01b600052601160045260246000fd5b634e487b7160e01b600052603260045260246000fd5b6001600160a01b0381168114610a9e57600080fd5b8015158114610a9e57600080fdfe45524332303a206275726e20616d6f756e7420657863656564732062616c616e636545524332303a207472616e7366657220616d6f756e74206578636565647320616c6c6f77616e636545524332303a2064656372656173656420616c6c6f77616e63652062656c6f77207a65726fa26469706673582212203aaef528805b5bcad3be20ac45c4d76d7a1ac27d828ac1536deb9d35b8538fec64736f6c634300080700334554523a204163636f756e7420697320616c7265616479207468652076616c754f776e61626c653a2063616c6c6572206973206e6f7420746865206f776e6572",
  "linkReferences": {
    "contracts/ETR.sol": {
      "IterableMapping": [
        {
          "length": 20,
          "start": 24424
        },
        {
          "length": 20,
          "start": 24626
        },
        {
          "length": 20,
          "start": 24831
        },
        {
          "length": 20,
          "start": 25954
        },
        {
          "length": 20,
          "start": 26084
        },
        {
          "length": 20,
          "start": 26833
        }
      ]
    }
  },
  "deployedLinkReferences": {}
}