{
  "_format": "hh-sol-artifact-1",
  "contractName": "ETRDividendTracker",
  "sourceName": "contracts/ETR.sol",
  "abi": [
    {
      "inputs": [],
      "stateMutability": "nonpayable",
      "type": "constructor"
    },
    {
      "anonymous": false,
      "inputs": [
        {
          "indexed": true,
          "internalType": "address",
          "name": "owner",
          "type": "address"
        },
        {
          "indexed": true,
          "internalType": "address",
          "name": "spender",
          "type": "address"
        },
        {
          "indexed": false,
          "internalType": "uint256",
          "name": "value",
          "type": "uint256"
        }
      ],
      "name": "Approval",
      "type": "event"
    },
    {
      "anonymous": false,
      "inputs": [
        {
          "indexed": true,
          "internalType": "address",
          "name": "account",
          "type": "address"
        },
        {
          "indexed": false,
          "internalType": "uint256",
          "name": "amount",
          "type": "uint256"
        },
        {
          "indexed": true,
          "internalType": "bool",
          "name": "automatic",
          "type": "bool"
        }
      ],
      "name": "Claim",
      "type": "event"
    },
    {
      "anonymous": false,
      "inputs": [
        {
          "indexed": true,
          "internalType": "uint256",
          "name": "newValue",
          "type": "uint256"
        },
        {
          "indexed": true,
          "internalType": "uint256",
          "name": "oldValue",
          "type": "uint256"
        }
      ],
      "name": "ClaimWaitUpdated",
      "type": "event"
    },
    {
      "anonymous": false,
      "inputs": [
        {
          "indexed": true,
          "internalType": "address",
          "name": "to",
          "type": "address"
        },
        {
          "indexed": false,
          "internalType": "uint256",
          "name": "weiAmount",
          "type": "uint256"
        }
      ],
      "name": "DividendWithdrawn",
      "type": "event"
    },
    {
      "anonymous": false,
      "inputs": [
        {
          "indexed": true,
          "internalType": "address",
          "name": "from",
          "type": "address"
        },
        {
          "indexed": false,
          "internalType": "uint256",
          "name": "weiAmount",
          "type": "uint256"
        }
      ],
      "name": "DividendsDistributed",
      "type": "event"
    },
    {
      "anonymous": false,
      "inputs": [
        {
          "indexed": true,
          "internalType": "address",
          "name": "account",
          "type": "address"
        }
      ],
      "name": "ExcludeFromDividends",
      "type": "event"
    },
    {
      "anonymous": false,
      "inputs": [
        {
          "indexed": true,
          "internalType": "address",
          "name": "previousOwner",
          "type": "address"
        },
        {
          "indexed": true,
          "internalType": "address",
          "name": "newOwner",
          "type": "address"
        }
      ],
      "name": "OwnershipTransferred",
      "type": "event"
    },
    {
      "anonymous": false,
      "inputs": [
        {
          "indexed": true,
          "internalType": "address",
          "name": "from",
          "type": "address"
        },
        {
          "indexed": true,
          "internalType": "address",
          "name": "to",
          "type": "address"
        },
        {
          "indexed": false,
          "internalType": "uint256",
          "name": "value",
          "type": "uint256"
        }
      ],
      "name": "Transfer",
      "type": "event"
    },
    {
      "inputs": [],
      "name": "ETH",
      "outputs": [
        {
          "internalType": "address",
          "name": "",
          "type": "address"
        }
      ],
      "stateMutability": "view",
      "type": "function"
    },
    {
      "inputs": [
        {
          "internalType": "address",
          "name": "_owner",
          "type": "address"
        }
      ],
      "name": "accumulativeDividendOf",
      "outputs": [
        {
          "internalType": "uint256",
          "name": "",
          "type": "uint256"
        }
      ],
      "stateMutability": "view",
      "type": "function"
    },
    {
      "inputs": [
        {
          "internalType": "address",
          "name": "owner",
          "type": "address"
        },
        {
          "internalType": "address",
          "name": "spender",
          "type": "address"
        }
      ],
      "name": "allowance",
      "outputs": [
        {
          "internalType": "uint256",
          "name": "",
          "type": "uint256"
        }
      ],
      "stateMutability": "view",
      "type": "function"
    },
    {
      "inputs": [
        {
          "internalType": "address",
          "name": "spender",
          "type": "address"
        },
        {
          "internalType": "uint256",
          "name": "amount",
          "type": "uint256"
        }
      ],
      "name": "approve",
      "outputs": [
        {
          "internalType": "bool",
          "name": "",
          "type": "bool"
        }
      ],
      "stateMutability": "nonpayable",
      "type": "function"
    },
    {
      "inputs": [
        {
          "internalType": "address",
          "name": "account",
          "type": "address"
        }
      ],
      "name": "balanceOf",
      "outputs": [
        {
          "internalType": "uint256",
          "name": "",
          "type": "uint256"
        }
      ],
      "stateMutability": "view",
      "type": "function"
    },
    {
      "inputs": [],
      "name": "claimWait",
      "outputs": [
        {
          "internalType": "uint256",
          "name": "",
          "type": "uint256"
        }
      ],
      "stateMutability": "view",
      "type": "function"
    },
    {
      "inputs": [],
      "name": "decimals",
      "outputs": [
        {
          "internalType": "uint8",
          "name": "",
          "type": "uint8"
        }
      ],
      "stateMutability": "view",
      "type": "function"
    },
    {
      "inputs": [
        {
          "internalType": "address",
          "name": "spender",
          "type": "address"
        },
        {
          "internalType": "uint256",
          "name": "subtractedValue",
          "type": "uint256"
        }
      ],
      "name": "decreaseAllowance",
      "outputs": [
        {
          "internalType": "bool",
          "name": "",
          "type": "bool"
        }
      ],
      "stateMutability": "nonpayable",
      "type": "function"
    },
    {
      "inputs": [
        {
          "internalType": "uint256",
          "name": "amount",
          "type": "uint256"
        }
      ],
      "name": "distributeETHDividends",
      "outputs": [],
      "stateMutability": "nonpayable",
      "type": "function"
    },
    {
      "inputs": [
        {
          "internalType": "address",
          "name": "_owner",
          "type": "address"
        }
      ],
      "name": "dividendOf",
      "outputs": [
        {
          "internalType": "uint256",
          "name": "",
          "type": "uint256"
        }
      ],
      "stateMutability": "view",
      "type": "function"
    },
    {
      "inputs": [
        {
          "internalType": "address",
          "name": "account",
          "type": "address"
        }
      ],
      "name": "excludeFromDividends",
      "outputs": [],
      "stateMutability": "nonpayable",
      "type": "function"
    },
    {
      "inputs": [
        {
          "internalType": "address",
          "name": "",
          "type": "address"
        }
      ],
      "name": "excludedFromDividends",
      "outputs": [
        {
          "internalType": "bool",
          "name": "",
          "type": "bool"
        }
      ],
      "stateMutability": "view",
      "type": "function"
    },
    {
      "inputs": [
        {
          "internalType": "address",
          "name": "_account",
          "type": "address"
        }
      ],
      "name": "getAccount",
      "outputs": [
        {
          "internalType": "address",
          "name": "account",
          "type": "address"
        },
        {
          "internalType": "int256",
          "name": "index",
          "type": "int256"
        },
        {
          "internalType": "int256",
          "name": "iterationsUntilProcessed",
          "type": "int256"
        },
        {
          "internalType": "uint256",
          "name": "withdrawableDividends",
          "type": "uint256"
        },
        {
          "internalType": "uint256",
          "name": "totalDividends",
          "type": "uint256"
        },
        {
          "internalType": "uint256",
          "name": "lastClaimTime",
          "type": "uint256"
        },
        {
          "internalType": "uint256",
          "name": "nextClaimTime",
          "type": "uint256"
        },
        {
          "internalType": "uint256",
          "name": "secondsUntilAutoClaimAvailable",
          "type": "uint256"
        }
      ],
      "stateMutability": "view",
      "type": "function"
    },
    {
      "inputs": [
        {
          "internalType": "uint256",
          "name": "index",
          "type": "uint256"
        }
      ],
      "name": "getAccountAtIndex",
      "outputs": [
        {
          "internalType": "address",
          "name": "",
          "type": "address"
        },
        {
          "internalType": "int256",
          "name": "",
          "type": "int256"
        },
        {
          "internalType": "int256",
          "name": "",
          "type": "int256"
        },
        {
          "internalType": "uint256",
          "name": "",
          "type": "uint256"
        },
        {
          "internalType": "uint256",
          "name": "",
          "type": "uint256"
        },
        {
          "internalType": "uint256",
          "name": "",
          "type": "uint256"
        },
        {
          "internalType": "uint256",
          "name": "",
          "type": "uint256"
        },
        {
          "internalType": "uint256",
          "name": "",
          "type": "uint256"
        }
      ],
      "stateMutability": "view",
      "type": "function"
    },
    {
      "inputs": [],
      "name": "getLastProcessedIndex",
      "outputs": [
        {
          "internalType": "uint256",
          "name": "",
          "type": "uint256"
        }
      ],
      "stateMutability": "view",
      "type": "function"
    },
    {
      "inputs": [],
      "name": "getNumberOfTokenHolders",
      "outputs": [
        {
          "internalType": "uint256",
          "name": "",
          "type": "uint256"
        }
      ],
      "stateMutability": "view",
      "type": "function"
    },
    {
      "inputs": [
        {
          "internalType": "address",
          "name": "spender",
          "type": "address"
        },
        {
          "internalType": "uint256",
          "name": "addedValue",
          "type": "uint256"
        }
      ],
      "name": "increaseAllowance",
      "outputs": [
        {
          "internalType": "bool",
          "name": "",
          "type": "bool"
        }
      ],
      "stateMutability": "nonpayable",
      "type": "function"
    },
    {
      "inputs": [
        {
          "internalType": "address",
          "name": "",
          "type": "address"
        }
      ],
      "name": "lastClaimTimes",
      "outputs": [
        {
          "internalType": "uint256",
          "name": "",
          "type": "uint256"
        }
      ],
      "stateMutability": "view",
      "type": "function"
    },
    {
      "inputs": [],
      "name": "lastProcessedIndex",
      "outputs": [
        {
          "internalType": "uint256",
          "name": "",
          "type": "uint256"
        }
      ],
      "stateMutability": "view",
      "type": "function"
    },
    {
      "inputs": [],
      "name": "minimumTokenBalanceForDividends",
      "outputs": [
        {
          "internalType": "uint256",
          "name": "",
          "type": "uint256"
        }
      ],
      "stateMutability": "view",
      "type": "function"
    },
    {
      "inputs": [],
      "name": "name",
      "outputs": [
        {
          "internalType": "string",
          "name": "",
          "type": "string"
        }
      ],
      "stateMutability": "view",
      "type": "function"
    },
    {
      "inputs": [],
      "name": "owner",
      "outputs": [
        {
          "internalType": "address",
          "name": "",
          "type": "address"
        }
      ],
      "stateMutability": "view",
      "type": "function"
    },
    {
      "inputs": [
        {
          "internalType": "uint256",
          "name": "gas",
          "type": "uint256"
        }
      ],
      "name": "process",
      "outputs": [
        {
          "internalType": "uint256",
          "name": "",
          "type": "uint256"
        },
        {
          "internalType": "uint256",
          "name": "",
          "type": "uint256"
        },
        {
          "internalType": "uint256",
          "name": "",
          "type": "uint256"
        }
      ],
      "stateMutability": "nonpayable",
      "type": "function"
    },
    {
      "inputs": [
        {
          "internalType": "address payable",
          "name": "account",
          "type": "address"
        },
        {
          "internalType": "bool",
          "name": "automatic",
          "type": "bool"
        }
      ],
      "name": "processAccount",
      "outputs": [
        {
          "internalType": "bool",
          "name": "",
          "type": "bool"
        }
      ],
      "stateMutability": "nonpayable",
      "type": "function"
    },
    {
      "inputs": [],
      "name": "renounceOwnership",
      "outputs": [],
      "stateMutability": "nonpayable",
      "type": "function"
    },
    {
      "inputs": [
        {
          "internalType": "address payable",
          "name": "account",
          "type": "address"
        },
        {
          "internalType": "uint256",
          "name": "newBalance",
          "type": "uint256"
        }
      ],
      "name": "setBalance",
      "outputs": [],
      "stateMutability": "nonpayable",
      "type": "function"
    },
    {
      "inputs": [],
      "name": "symbol",
      "outputs": [
        {
          "internalType": "string",
          "name": "",
          "type": "string"
        }
      ],
      "stateMutability": "view",
      "type": "function"
    },
    {
      "inputs": [],
      "name": "totalDividendsDistributed",
      "outputs": [
        {
          "internalType": "uint256",
          "name": "",
          "type": "uint256"
        }
      ],
      "stateMutability": "view",
      "type": "function"
    },
    {
      "inputs": [],
      "name": "totalSupply",
      "outputs": [
        {
          "internalType": "uint256",
          "name": "",
          "type": "uint256"
        }
      ],
      "stateMutability": "view",
      "type": "function"
    },
    {
      "inputs": [
        {
          "internalType": "address",
          "name": "recipient",
          "type": "address"
        },
        {
          "internalType": "uint256",
          "name": "amount",
          "type": "uint256"
        }
      ],
      "name": "transfer",
      "outputs": [
        {
          "internalType": "bool",
          "name": "",
          "type": "bool"
        }
      ],
      "stateMutability": "nonpayable",
      "type": "function"
    },
    {
      "inputs": [
        {
          "internalType": "address",
          "name": "sender",
          "type": "address"
        },
        {
          "internalType": "address",
          "name": "recipient",
          "type": "address"
        },
        {
          "internalType": "uint256",
          "name": "amount",
          "type": "uint256"
        }
      ],
      "name": "transferFrom",
      "outputs": [
        {
          "internalType": "bool",
          "name": "",
          "type": "bool"
        }
      ],
      "stateMutability": "nonpayable",
      "type": "function"
    },
    {
      "inputs": [
        {
          "internalType": "address",
          "name": "newOwner",
          "type": "address"
        }
      ],
      "name": "transferOwnership",
      "outputs": [],
      "stateMutability": "nonpayable",
      "type": "function"
    },
    {
      "inputs": [
        {
          "internalType": "uint256",
          "name": "newClaimWait",
          "type": "uint256"
        }
      ],
      "name": "updateClaimWait",
      "outputs": [],
      "stateMutability": "nonpayable",
      "type": "function"
    },
    {
      "inputs": [],
      "name": "withdrawDividend",
      "outputs": [],
      "stateMutability": "pure",
      "type": "function"
    },
    {
      "inputs": [
        {
          "internalType": "address",
          "name": "_owner",
          "type": "address"
        }
      ],
      "name": "withdrawableDividendOf",
      "outputs": [
        {
          "internalType": "uint256",
          "name": "",
          "type": "uint256"
        }
      ],
      "stateMutability": "view",
      "type": "function"
    },
    {
      "inputs": [
        {
          "internalType": "address",
          "name": "_owner",
          "type": "address"
        }
      ],
      "name": "withdrawnDividendOf",
      "outputs": [
        {
          "internalType": "uint256",
          "name": "",
          "type": "uint256"
        }
      ],
      "stateMutability": "view",
      "type": "function"
    }
  ],
  "bytecode": "0x60c06040527f2170ed0880ac9a755fd29b2688956bd959f933f80000000000000000000000006080523480156200003557600080fd5b5060408051808201825260148082527f4554525f4469766964656e645f547261636b657200000000000000000000000060208084018281528551808701909652928552840152815191929183918391620000929160039162000109565b508051620000a890600490602084019062000109565b5050600580546001600160a01b031916339081179091556040519091506000907f8be0079c531659141344cd1fd0a4f28419497f9722a3daafe3b4186f6b6457e0908290a35050610e10601155692a5a058fc295ed00000060a052620001ec565b8280546200011790620001af565b90600052602060002090601f0160209004810192826200013b576000855562000186565b82601f106200015657805160ff191683800117855562000186565b8280016001018555821562000186579182015b828111156200018657825182559160200191906001019062000169565b506200019492915062000198565b5090565b5b8082111562000194576000815560010162000199565b600181811c90821680620001c457607f821691505b60208210811415620001e657634e487b7160e01b600052602260045260246000fd5b50919050565b60805160601c60a051611fc162000223600039600081816104c00152610d560152600081816103d701526117d40152611fc16000f3fe608060405234801561001057600080fd5b506004361061021c5760003560e01c80638322fff211610125578063bc4c4b37116100ad578063e7841ec01161007c578063e7841ec01461052e578063e98030c714610536578063f2fde38b14610549578063fbcbc0f11461055c578063ffb2c4791461056f57600080fd5b8063bc4c4b37146104a8578063be10b614146104bb578063dd62ed3e146104e2578063e30443bc1461051b57600080fd5b806395d89b41116100f457806395d89b411461043e578063a457c2d714610446578063a8b9d24014610459578063a9059cbb1461046c578063aafd847a1461047f57600080fd5b80638322fff2146103d257806385a6b3ae146104115780638da5cb5b1461041a57806391b89fba1461042b57600080fd5b806331e79db0116101a857806351c2a0e31161017757806351c2a0e31461037d5780636a474002146103905780636f2789ec1461039857806370a08231146103a1578063715018a6146103ca57600080fd5b806331e79db0146102da57806339509351146102ef5780634e7b827f146103025780635183d6fd1461032557600080fd5b8063226cfa3d116101ef578063226cfa3d1461027c57806323b872dd1461029c57806327ce0147146102af5780633009a609146102c2578063313ce567146102cb57600080fd5b806306fdde0314610221578063095ea7b31461023f57806309bbedde1461026257806318160ddd14610274575b600080fd5b61022961059d565b6040516102369190611cfd565b60405180910390f35b61025261024d366004611c13565b61062f565b6040519015158152602001610236565b600a545b604051908152602001610236565b600254610266565b61026661028a366004611ba0565b60106020526000908152604090205481565b6102526102aa366004611c6d565b610646565b6102666102bd366004611ba0565b6106af565b610266600e5481565b60405160128152602001610236565b6102ed6102e8366004611ba0565b61070b565b005b6102526102fd366004611c13565b61083b565b610252610310366004611ba0565b600f6020526000908152604090205460ff1681565b610338610333366004611ce4565b610871565b604080516001600160a01b0390991689526020890197909752958701949094526060860192909252608085015260a084015260c083015260e082015261010001610236565b6102ed61038b366004611ce4565b6109e3565b6102ed610aa1565b61026660115481565b6102666103af366004611ba0565b6001600160a01b031660009081526020819052604090205490565b6102ed610b41565b6103f97f000000000000000000000000000000000000000000000000000000000000000081565b6040516001600160a01b039091168152602001610236565b61026660095481565b6005546001600160a01b03166103f9565b610266610439366004611ba0565b610bb5565b610229610bc0565b610252610454366004611c13565b610bcf565b610266610467366004611ba0565b610c1e565b61025261047a366004611c13565b610c4a565b61026661048d366004611ba0565b6001600160a01b031660009081526008602052604090205490565b6102526104b6366004611bda565b610c57565b6102667f000000000000000000000000000000000000000000000000000000000000000081565b6102666104f0366004611c3f565b6001600160a01b03918216600090815260016020908152604080832093909416825291909152205490565b6102ed610529366004611c13565b610d05565b600e54610266565b6102ed610544366004611ce4565b610e91565b6102ed610557366004611ba0565b610fff565b61033861056a366004611ba0565b6110ea565b61058261057d366004611ce4565b611262565b60408051938452602084019290925290820152606001610236565b6060600380546105ac90611e77565b80601f01602080910402602001604051908101604052809291908181526020018280546105d890611e77565b80156106255780601f106105fa57610100808354040283529160200191610625565b820191906000526020600020905b81548152906001019060200180831161060857829003601f168201915b5050505050905090565b600061063c33848461137d565b5060015b92915050565b60006106538484846114a1565b6106a584336106a085604051806060016040528060288152602001611f3f602891396001600160a01b038a16600090815260016020908152604080832033845290915290205491906114fc565b61137d565b5060019392505050565b6001600160a01b03811660009081526007602090815260408083205491839052822054600654600160801b92610701926106fc926106f6916106f19190611536565b6115bc565b906115cc565b61160a565b6106409190611de0565b6005546001600160a01b0316331461073e5760405162461bcd60e51b815260040161073590611d52565b60405180910390fd5b6001600160a01b0381166000908152600f602052604090205460ff161561076457600080fd5b6001600160a01b0381166000908152600f60205260408120805460ff1916600117905561079290829061161d565b60405163131836e760e21b8152600a60048201526001600160a01b038216602482015273__$9b82b52d3d4feb469761ee097260b6c83b$__90634c60db9c9060440160006040518083038186803b1580156107ec57600080fd5b505af4158015610800573d6000803e3d6000fd5b50506040516001600160a01b03841692507fa878b31040b2e6d0a9a3d3361209db3908ba62014b0dca52adbaee451d128b259150600090a250565b3360008181526001602090815260408083206001600160a01b0387168452909152812054909161063c9185906106a0908661167c565b600080600080600080600080600a73__$9b82b52d3d4feb469761ee097260b6c83b$__63deb3d89690916040518263ffffffff1660e01b81526004016108b991815260200190565b60206040518083038186803b1580156108d157600080fd5b505af41580156108e5573d6000803e3d6000fd5b505050506040513d601f19601f820116820180604052508101906109099190611ccb565b891061092e5750600096506000199550859450869350839250829150819050806109d8565b6040516368d54f3f60e11b8152600a6004820152602481018a905260009073__$9b82b52d3d4feb469761ee097260b6c83b$__9063d1aa9e7e9060440160206040518083038186803b15801561098357600080fd5b505af4158015610997573d6000803e3d6000fd5b505050506040513d601f19601f820116820180604052508101906109bb9190611bbd565b90506109c6816110ea565b98509850985098509850985098509850505b919395975091939597565b6005546001600160a01b03163314610a0d5760405162461bcd60e51b815260040161073590611d52565b6000610a1860025490565b11610a2257600080fd5b8015610a9e57610a55610a3460025490565b610a4283600160801b611536565b610a4c9190611de0565b6006549061167c565b60065560405181815233907fa493a9229478c3fcd73f66d2cdeb7f94fd0f341da924d1054236d784541165119060200160405180910390a2600954610a9a908261167c565b6009555b50565b60405162461bcd60e51b815260206004820152606360248201527f4554525f4469766964656e645f547261636b65723a207769746864726177446960448201527f766964656e642064697361626c65642e20557365207468652027636c61696d2760648201527f2066756e6374696f6e206f6e20746865206d61696e2045545220636f6e74726160848201526231ba1760e91b60a482015260c401610735565b6005546001600160a01b03163314610b6b5760405162461bcd60e51b815260040161073590611d52565b6005546040516000916001600160a01b0316907f8be0079c531659141344cd1fd0a4f28419497f9722a3daafe3b4186f6b6457e0908390a3600580546001600160a01b0319169055565b600061064082610c1e565b6060600480546105ac90611e77565b600061063c33846106a085604051806060016040528060258152602001611f67602591393360009081526001602090815260408083206001600160a01b038d16845290915290205491906114fc565b6001600160a01b03811660009081526008602052604081205461064090610c44846106af565b906116db565b600061063c3384846114a1565b6005546000906001600160a01b03163314610c845760405162461bcd60e51b815260040161073590611d52565b6000610c8f8461171d565b90508015610cfb576001600160a01b038416600081815260106020526040908190204290555184151591907fa2c38e2d2fb7e3e1912d937fd1ca11ed6d51864dee4cfa7a7bf02becd7acf09290610ce99085815260200190565b60405180910390a36001915050610640565b5060009392505050565b6005546001600160a01b03163314610d2f5760405162461bcd60e51b815260040161073590611d52565b6001600160a01b0382166000908152600f602052604090205460ff1615610d54575050565b7f00000000000000000000000000000000000000000000000000000000000000008110610e0357610d85828261161d565b604051632f0ad01760e21b8152600a60048201526001600160a01b03831660248201526044810182905273__$9b82b52d3d4feb469761ee097260b6c83b$__9063bc2b405c9060640160006040518083038186803b158015610de657600080fd5b505af4158015610dfa573d6000803e3d6000fd5b50505050610e81565b610e0e82600061161d565b60405163131836e760e21b8152600a60048201526001600160a01b038316602482015273__$9b82b52d3d4feb469761ee097260b6c83b$__90634c60db9c9060440160006040518083038186803b158015610e6857600080fd5b505af4158015610e7c573d6000803e3d6000fd5b505050505b610e8c826001610c57565b505050565b6005546001600160a01b03163314610ebb5760405162461bcd60e51b815260040161073590611d52565b610e108110158015610ed05750620151808111155b610f545760405162461bcd60e51b815260206004820152604960248201527f4554525f4469766964656e645f547261636b65723a20636c61696d576169742060448201527f6d757374206265207570646174656420746f206265747765656e203120616e6460648201526820323420686f75727360b81b608482015260a401610735565b601154811415610fcc5760405162461bcd60e51b815260206004820152603b60248201527f4554525f4469766964656e645f547261636b65723a2043616e6e6f742075706460448201527f61746520636c61696d5761697420746f2073616d652076616c756500000000006064820152608401610735565b60115460405182907f474ea64804364a1e29a4487ddb63c3342a2dd826ccd8acf48825e680a0e6f20f90600090a3601155565b6005546001600160a01b031633146110295760405162461bcd60e51b815260040161073590611d52565b6001600160a01b03811661108e5760405162461bcd60e51b815260206004820152602660248201527f4f776e61626c653a206e6577206f776e657220697320746865207a65726f206160448201526564647265737360d01b6064820152608401610735565b6005546040516001600160a01b038084169216907f8be0079c531659141344cd1fd0a4f28419497f9722a3daafe3b4186f6b6457e090600090a3600580546001600160a01b0319166001600160a01b0392909216919091179055565b6040516317e142d160e01b8152600a60048201526001600160a01b0382166024820152819060009081908190819081908190819073__$9b82b52d3d4feb469761ee097260b6c83b$__906317e142d19060440160206040518083038186803b15801561115557600080fd5b505af4158015611169573d6000803e3d6000fd5b505050506040513d601f19601f8201168201806040525081019061118d9190611ccb565b96506000199550600087126111ef57600e548711156111bb57600e546111b49088906118b1565b95506111ef565b600e54600a54600091106111d05760006111df565b600e54600a546111df916116db565b90506111eb88826115cc565b9650505b6111f888610c1e565b9450611203886106af565b6001600160a01b03891660009081526010602052604090205490945092508261122d57600061123b565b60115461123b90849061167c565b915042821161124b576000611255565b61125582426116db565b9050919395975091939597565b600a546000908190819080611282575050600e5460009250829150611376565b600e546000805a90506000805b898410801561129d57508582105b1561136557846112ac81611eb2565b600a54909650861090506112bf57600094505b6000600a60000186815481106112d7576112d7611ee3565b60009182526020808320909101546001600160a01b03168083526010909152604090912054909150611308906118ee565b1561132b57611318816001610c57565b1561132b578161132781611eb2565b9250505b8261133581611eb2565b93505060005a90508085111561135c5761135961135286836116db565b879061167c565b95505b935061128f9050565b600e85905590975095509193505050505b9193909250565b6001600160a01b0383166113df5760405162461bcd60e51b8152602060048201526024808201527f45524332303a20617070726f76652066726f6d20746865207a65726f206164646044820152637265737360e01b6064820152608401610735565b6001600160a01b0382166114405760405162461bcd60e51b815260206004820152602260248201527f45524332303a20617070726f766520746f20746865207a65726f206164647265604482015261737360f01b6064820152608401610735565b6001600160a01b0383811660008181526001602090815260408083209487168084529482529182902085905590518481527f8c5be1e5ebec7d5bd14f71427d1e84f3dd0314c0f7b2291e5b200ac8c7c3b925910160405180910390a3505050565b60405162461bcd60e51b815260206004820152602a60248201527f4554525f4469766964656e645f547261636b65723a204e6f207472616e7366656044820152691c9cc8185b1b1bddd95960b21b6064820152608401610735565b600081848411156115205760405162461bcd60e51b81526004016107359190611cfd565b50600061152d8486611e60565b95945050505050565b60008261154557506000610640565b60006115518385611e02565b90508261155e8583611de0565b146115b55760405162461bcd60e51b815260206004820152602160248201527f536166654d6174683a206d756c7469706c69636174696f6e206f766572666c6f6044820152607760f81b6064820152608401610735565b9392505050565b6000818181121561064057600080fd5b6000806115d98385611d87565b9050600083121580156115ec5750838112155b80611601575060008312801561160157508381125b6115b557600080fd5b60008082121561161957600080fd5b5090565b6001600160a01b0382166000908152602081905260409020548082111561165c57600061164a83836116db565b90506116568482611915565b50505050565b80821015610e8c57600061167082846116db565b90506116568482611979565b6000806116898385611dc8565b9050838110156115b55760405162461bcd60e51b815260206004820152601b60248201527f536166654d6174683a206164646974696f6e206f766572666c6f7700000000006044820152606401610735565b60006115b583836040518060400160405280601e81526020017f536166654d6174683a207375627472616374696f6e206f766572666c6f7700008152506114fc565b60008061172983610c1e565b905080156118a8576001600160a01b038316600090815260086020526040902054611754908261167c565b6001600160a01b038416600081815260086020526040908190209290925590517fee503bee2bb6a87e57bc57db795f98137327401a0e7b7ce42e37926cc1a9ca4d906117a39084815260200190565b60405180910390a260405163a9059cbb60e01b81526001600160a01b038481166004830152602482018390526000917f00000000000000000000000000000000000000000000000000000000000000009091169063a9059cbb90604401602060405180830381600087803b15801561181a57600080fd5b505af115801561182e573d6000803e3d6000fd5b505050506040513d601f19601f820116820180604052508101906118529190611cae565b9050806118a1576001600160a01b03841660009081526008602052604090205461187c90836116db565b6001600160a01b03909416600090815260086020526040812094909455509192915050565b5092915050565b50600092915050565b6000806118be8385611e21565b9050600083121580156118d15750838113155b80611601575060008312801561160157508381136115b557600080fd5b60004282111561190057506000919050565b60115461190d42846116db565b101592915050565b61191f82826119bd565b61195961193a6106f18360065461153690919063ffffffff16565b6001600160a01b038416600090815260076020526040902054906118b1565b6001600160a01b0390921660009081526007602052604090209190915550565b6119838282611a9c565b61195961199e6106f18360065461153690919063ffffffff16565b6001600160a01b038416600090815260076020526040902054906115cc565b6001600160a01b038216611a135760405162461bcd60e51b815260206004820152601f60248201527f45524332303a206d696e7420746f20746865207a65726f2061646472657373006044820152606401610735565b600254611a20908261167c565b6002556001600160a01b038216600090815260208190526040902054611a46908261167c565b6001600160a01b038316600081815260208181526040808320949094559251848152919290917fddf252ad1be2c89b69c2b068fc378daa952ba7f163c4a11628f55a4df523b3ef91015b60405180910390a35050565b6001600160a01b038216611afc5760405162461bcd60e51b815260206004820152602160248201527f45524332303a206275726e2066726f6d20746865207a65726f206164647265736044820152607360f81b6064820152608401610735565b611b3981604051806060016040528060228152602001611f1d602291396001600160a01b03851660009081526020819052604090205491906114fc565b6001600160a01b038316600090815260208190526040902055600254611b5f90826116db565b6002556040518181526000906001600160a01b038416907fddf252ad1be2c89b69c2b068fc378daa952ba7f163c4a11628f55a4df523b3ef90602001611a90565b600060208284031215611bb257600080fd5b81356115b581611ef9565b600060208284031215611bcf57600080fd5b81516115b581611ef9565b60008060408385031215611bed57600080fd5b8235611bf881611ef9565b91506020830135611c0881611f0e565b809150509250929050565b60008060408385031215611c2657600080fd5b8235611c3181611ef9565b946020939093013593505050565b60008060408385031215611c5257600080fd5b8235611c5d81611ef9565b91506020830135611c0881611ef9565b600080600060608486031215611c8257600080fd5b8335611c8d81611ef9565b92506020840135611c9d81611ef9565b929592945050506040919091013590565b600060208284031215611cc057600080fd5b81516115b581611f0e565b600060208284031215611cdd57600080fd5b5051919050565b600060208284031215611cf657600080fd5b5035919050565b600060208083528351808285015260005b81811015611d2a57858101830151858201604001528201611d0e565b81811115611d3c576000604083870101525b50601f01601f1916929092016040019392505050565b6020808252818101527f4f776e61626c653a2063616c6c6572206973206e6f7420746865206f776e6572604082015260600190565b600080821280156001600160ff1b0384900385131615611da957611da9611ecd565b600160ff1b8390038412811615611dc257611dc2611ecd565b50500190565b60008219821115611ddb57611ddb611ecd565b500190565b600082611dfd57634e487b7160e01b600052601260045260246000fd5b500490565b6000816000190483118215151615611e1c57611e1c611ecd565b500290565b60008083128015600160ff1b850184121615611e3f57611e3f611ecd565b6001600160ff1b0384018313811615611e5a57611e5a611ecd565b50500390565b600082821015611e7257611e72611ecd565b500390565b600181811c90821680611e8b57607f821691505b60208210811415611eac57634e487b7160e01b600052602260045260246000fd5b50919050565b6000600019821415611ec657611ec6611ecd565b5060010190565b634e487b7160e01b600052601160045260246000fd5b634e487b7160e01b600052603260045260246000fd5b6001600160a01b0381168114610a9e57600080fd5b8015158114610a9e57600080fdfe45524332303a206275726e20616d6f756e7420657863656564732062616c616e636545524332303a207472616e7366657220616d6f756e74206578636565647320616c6c6f77616e636545524332303a2064656372656173656420616c6c6f77616e63652062656c6f77207a65726fa26469706673582212203aaef528805b5bcad3be20ac45c4d76d7a1ac27d828ac1536deb9d35b8538fec64736f6c63430008070033",
  "linkReferences": {
    "contracts/ETR.sol": {
      "IterableMapping": [
        {
          "length": 20,
          "start": 2522
        },
        {
          "length": 20,
          "start": 2724
        },
        {
          "length": 20,
          "start": 2929
        },
        {
          "length": 20,
          "start": 4052
        },
        {
          "length": 20,
          "start": 4182
        },
        {
          "length": 20,
          "start": 4931
        }
      ]
    }
  },
  "deployedLinkReferences": {
    "contracts/ETR.sol": {
      "IterableMapping": [
        {
          "length": 20,
          "start": 1975
        },
        {
          "length": 20,
          "start": 2177
        },
        {
          "length": 20,
          "start": 2382
        },
        {
          "length": 20,
          "start": 3505
        },
        {
          "length": 20,
          "start": 3635
        },
        {
          "length": 20,
          "start": 4384
        }
      ]
    }
  }
}