{
  "_format": "hh-sol-artifact-1",
  "contractName": "Presale",
  "sourceName": "contracts/Presale.sol",
  "abi": [
    {
      "inputs": [
        {
          "internalType": "address",
          "name": "_saleToken",
          "type": "address"
        },
        {
          "internalType": "address",
          "name": "_usdtToken",
          "type": "address"
        },
        {
          "internalType": "address",
          "name": "_goldTokenAddress",
          "type": "address"
        },
        {
          "internalType": "uint256",
          "name": "_userWithdrawTime",
          "type": "uint256"
        }
      ],
      "stateMutability": "nonpayable",
      "type": "constructor"
    },
    {
      "anonymous": false,
      "inputs": [
        {
          "indexed": true,
          "internalType": "address",
          "name": "previousOwner",
          "type": "address"
        },
        {
          "indexed": true,
          "internalType": "address",
          "name": "newOwner",
          "type": "address"
        }
      ],
      "name": "OwnershipTransferred",
      "type": "event"
    },
    {
      "inputs": [
        {
          "internalType": "address",
          "name": "",
          "type": "address"
        }
      ],
      "name": "balances",
      "outputs": [
        {
          "internalType": "uint256",
          "name": "",
          "type": "uint256"
        }
      ],
      "stateMutability": "view",
      "type": "function"
    },
    {
      "inputs": [
        {
          "internalType": "address",
          "name": "parent",
          "type": "address"
        }
      ],
      "name": "bindReffer",
      "outputs": [],
      "stateMutability": "nonpayable",
      "type": "function"
    },
    {
      "inputs": [
        {
          "components": [
            {
              "internalType": "uint256",
              "name": "startTime",
              "type": "uint256"
            },
            {
              "internalType": "uint256",
              "name": "endTime",
              "type": "uint256"
            },
            {
              "internalType": "uint256",
              "name": "price",
              "type": "uint256"
            }
          ],
          "internalType": "struct Presale.PresaleInfo",
          "name": "_presaleInfo",
          "type": "tuple"
        }
      ],
      "name": "createPreSale",
      "outputs": [],
      "stateMutability": "nonpayable",
      "type": "function"
    },
    {
      "inputs": [
        {
          "internalType": "address",
          "name": "",
          "type": "address"
        }
      ],
      "name": "firstIdo",
      "outputs": [
        {
          "internalType": "bool",
          "name": "",
          "type": "bool"
        }
      ],
      "stateMutability": "view",
      "type": "function"
    },
    {
      "inputs": [
        {
          "internalType": "address",
          "name": "owner",
          "type": "address"
        }
      ],
      "name": "getCanIdoAmount",
      "outputs": [
        {
          "internalType": "uint256",
          "name": "",
          "type": "uint256"
        }
      ],
      "stateMutability": "view",
      "type": "function"
    },
    {
      "inputs": [],
      "name": "goldTokenAddress",
      "outputs": [
        {
          "internalType": "address",
          "name": "",
          "type": "address"
        }
      ],
      "stateMutability": "view",
      "type": "function"
    },
    {
      "inputs": [],
      "name": "inviteMin",
      "outputs": [
        {
          "internalType": "uint256",
          "name": "",
          "type": "uint256"
        }
      ],
      "stateMutability": "view",
      "type": "function"
    },
    {
      "inputs": [],
      "name": "isCloseSale",
      "outputs": [
        {
          "internalType": "bool",
          "name": "",
          "type": "bool"
        }
      ],
      "stateMutability": "view",
      "type": "function"
    },
    {
      "inputs": [],
      "name": "maxSale",
      "outputs": [
        {
          "internalType": "uint256",
          "name": "",
          "type": "uint256"
        }
      ],
      "stateMutability": "view",
      "type": "function"
    },
    {
      "inputs": [],
      "name": "owner",
      "outputs": [
        {
          "internalType": "address",
          "name": "",
          "type": "address"
        }
      ],
      "stateMutability": "view",
      "type": "function"
    },
    {
      "inputs": [],
      "name": "perMaxBuyUsdt",
      "outputs": [
        {
          "internalType": "uint256",
          "name": "",
          "type": "uint256"
        }
      ],
      "stateMutability": "view",
      "type": "function"
    },
    {
      "inputs": [],
      "name": "presaleInfo",
      "outputs": [
        {
          "internalType": "uint256",
          "name": "startTime",
          "type": "uint256"
        },
        {
          "internalType": "uint256",
          "name": "endTime",
          "type": "uint256"
        },
        {
          "internalType": "uint256",
          "name": "price",
          "type": "uint256"
        }
      ],
      "stateMutability": "view",
      "type": "function"
    },
    {
      "inputs": [
        {
          "internalType": "address",
          "name": "",
          "type": "address"
        }
      ],
      "name": "refferNumber",
      "outputs": [
        {
          "internalType": "uint256",
          "name": "",
          "type": "uint256"
        }
      ],
      "stateMutability": "view",
      "type": "function"
    },
    {
      "inputs": [
        {
          "internalType": "address",
          "name": "",
          "type": "address"
        }
      ],
      "name": "reffers",
      "outputs": [
        {
          "internalType": "address",
          "name": "",
          "type": "address"
        }
      ],
      "stateMutability": "view",
      "type": "function"
    },
    {
      "inputs": [],
      "name": "renounceOwnership",
      "outputs": [],
      "stateMutability": "nonpayable",
      "type": "function"
    },
    {
      "inputs": [
        {
          "internalType": "address",
          "name": "",
          "type": "address"
        }
      ],
      "name": "rewardBalances",
      "outputs": [
        {
          "internalType": "uint256",
          "name": "",
          "type": "uint256"
        }
      ],
      "stateMutability": "view",
      "type": "function"
    },
    {
      "inputs": [
        {
          "internalType": "uint256",
          "name": "",
          "type": "uint256"
        }
      ],
      "name": "rewardLevel",
      "outputs": [
        {
          "internalType": "uint256",
          "name": "",
          "type": "uint256"
        }
      ],
      "stateMutability": "view",
      "type": "function"
    },
    {
      "inputs": [],
      "name": "sale",
      "outputs": [],
      "stateMutability": "nonpayable",
      "type": "function"
    },
    {
      "inputs": [],
      "name": "saleToken",
      "outputs": [
        {
          "internalType": "address",
          "name": "",
          "type": "address"
        }
      ],
      "stateMutability": "view",
      "type": "function"
    },
    {
      "inputs": [
        {
          "internalType": "uint256",
          "name": "_inviteMin",
          "type": "uint256"
        }
      ],
      "name": "setInviteMin",
      "outputs": [],
      "stateMutability": "nonpayable",
      "type": "function"
    },
    {
      "inputs": [
        {
          "internalType": "uint256",
          "name": "_perMaxBuyUsdt",
          "type": "uint256"
        }
      ],
      "name": "setPerMaxBuyUsdt",
      "outputs": [],
      "stateMutability": "nonpayable",
      "type": "function"
    },
    {
      "inputs": [
        {
          "internalType": "uint256",
          "name": "_userWithdrawTime",
          "type": "uint256"
        }
      ],
      "name": "setUserWithdrawTime",
      "outputs": [],
      "stateMutability": "nonpayable",
      "type": "function"
    },
    {
      "inputs": [
        {
          "internalType": "address",
          "name": "",
          "type": "address"
        }
      ],
      "name": "teamRefferNumber",
      "outputs": [
        {
          "internalType": "uint256",
          "name": "",
          "type": "uint256"
        }
      ],
      "stateMutability": "view",
      "type": "function"
    },
    {
      "inputs": [
        {
          "internalType": "address",
          "name": "addr",
          "type": "address"
        }
      ],
      "name": "teamWithdraw",
      "outputs": [],
      "stateMutability": "nonpayable",
      "type": "function"
    },
    {
      "inputs": [],
      "name": "totalIdoUSDT",
      "outputs": [
        {
          "internalType": "uint256",
          "name": "",
          "type": "uint256"
        }
      ],
      "stateMutability": "view",
      "type": "function"
    },
    {
      "inputs": [],
      "name": "totalIdoUser",
      "outputs": [
        {
          "internalType": "uint256",
          "name": "",
          "type": "uint256"
        }
      ],
      "stateMutability": "view",
      "type": "function"
    },
    {
      "inputs": [],
      "name": "totalSale",
      "outputs": [
        {
          "internalType": "uint256",
          "name": "",
          "type": "uint256"
        }
      ],
      "stateMutability": "view",
      "type": "function"
    },
    {
      "inputs": [
        {
          "internalType": "address",
          "name": "newOwner",
          "type": "address"
        }
      ],
      "name": "transferOwnership",
      "outputs": [],
      "stateMutability": "nonpayable",
      "type": "function"
    },
    {
      "inputs": [],
      "name": "usdtToken",
      "outputs": [
        {
          "internalType": "address",
          "name": "",
          "type": "address"
        }
      ],
      "stateMutability": "view",
      "type": "function"
    },
    {
      "inputs": [
        {
          "internalType": "address",
          "name": "userAddress",
          "type": "address"
        }
      ],
      "name": "userBalance",
      "outputs": [
        {
          "internalType": "uint256",
          "name": "",
          "type": "uint256"
        }
      ],
      "stateMutability": "view",
      "type": "function"
    },
    {
      "inputs": [
        {
          "internalType": "address",
          "name": "",
          "type": "address"
        }
      ],
      "name": "userBuyTotalUsdt",
      "outputs": [
        {
          "internalType": "uint256",
          "name": "",
          "type": "uint256"
        }
      ],
      "stateMutability": "view",
      "type": "function"
    },
    {
      "inputs": [
        {
          "internalType": "address",
          "name": "userAddress",
          "type": "address"
        }
      ],
      "name": "userRewardBalance",
      "outputs": [
        {
          "internalType": "uint256",
          "name": "",
          "type": "uint256"
        }
      ],
      "stateMutability": "view",
      "type": "function"
    },
    {
      "inputs": [],
      "name": "userWithdraw",
      "outputs": [],
      "stateMutability": "nonpayable",
      "type": "function"
    },
    {
      "inputs": [],
      "name": "userWithdrawTime",
      "outputs": [
        {
          "internalType": "uint256",
          "name": "",
          "type": "uint256"
        }
      ],
      "stateMutability": "view",
      "type": "function"
    }
  ],
  "bytecode": "0x67016345785d8a000060035560056012556910f0cf064dd5920000006013556101c060405261012c608090815260c860a052606460c052603260e081905261010052601e61012081905261014052601461016081905261018052600a6101a08190526200006f9160159162000158565b503480156200007d57600080fd5b50604051620013c6380380620013c6833981016040819052620000a091620001e2565b620000ab3362000108565b60018055600580546001600160a01b039586166001600160a01b0319918216179091556006805494861694821694909417909355600780549290941691831691909117909255600291909155600480549091163317905562000234565b600080546001600160a01b038381166001600160a01b0319831681178455604051919092169283917f8be0079c531659141344cd1fd0a4f28419497f9722a3daafe3b4186f6b6457e09190a35050565b8280548282559060005260206000209081019282156200019c579160200282015b828111156200019c578251829061ffff1690559160200191906001019062000179565b50620001aa929150620001ae565b5090565b5b80821115620001aa5760008155600101620001af565b80516001600160a01b0381168114620001dd57600080fd5b919050565b60008060008060808587031215620001f957600080fd5b6200020485620001c5565b93506200021460208601620001c5565b92506200022460408601620001c5565b6060959095015193969295505050565b61118280620002446000396000f3fe608060405234801561001057600080fd5b50600436106102065760003560e01c80637a693c181161011a578063ba6ab555116100ad578063ea4ce2391161007c578063ea4ce239146104cb578063eb7d7a9e146104d4578063f1c1d412146104dd578063f2fde38b146104e6578063ffc42782146104f957600080fd5b8063ba6ab5551461046f578063bc16aac514610492578063d1a2ab37146104a5578063e985e367146104b857600080fd5b80639f96fcfe116100e95780639f96fcfe14610417578063a646f9ad14610437578063a86707111461043f578063a98ad46c1461045c57600080fd5b80637a693c18146103aa5780638787bb15146103bd5780638da5cb5b146103e657806393c8dc6d146103f757600080fd5b80633afda0851161019d5780636ad1fe021161016c5780636ad1fe02146103755780636b4f9b7e1461037d5780636b95dd5e146103865780636c3ccdcf1461038f578063715018a6146103a257600080fd5b80633afda085146103035780633c896052146103185780633e30046a1461032b5780634d2e791d1461033457600080fd5b80632d926091116101d95780632d9260911461029a5780632edf0869146102ba57806331678c38146102e75780633914735f146102f057600080fd5b80630103c92b1461020b5780630845e71b1461024757806327e235e31461025a5780632ac909401461027a575b600080fd5b61023461021936600461100d565b6001600160a01b031660009081526008602052604090205490565b6040519081526020015b60405180910390f35b61023461025536600461100d565b61050c565b61023461026836600461100d565b60086020526000908152604090205481565b61023461028836600461100d565b600c6020526000908152604090205481565b6102346102a836600461100d565b60096020526000908152604090205481565b6016546017546018546102cc92919083565b6040805193845260208401929092529082015260600161023e565b61023460025481565b6102346102fe366004611036565b61056a565b610316610311366004611036565b61058b565b005b61031661032636600461100d565b610598565b61023460135481565b61035d61034236600461100d565b600b602052600090815260409020546001600160a01b031681565b6040516001600160a01b03909116815260200161023e565b6103166106a3565b61023460125481565b61023460035481565b61031661039d36600461104f565b610c36565b610316610c59565b6103166103b8366004611036565b610c6b565b6102346103cb36600461100d565b6001600160a01b03166000908152600a602052604090205490565b6000546001600160a01b031661035d565b61023461040536600461100d565b600a6020526000908152604090205481565b61023461042536600461100d565b600d6020526000908152604090205481565b610316610c78565b60145461044c9060ff1681565b604051901515815260200161023e565b60065461035d906001600160a01b031681565b61044c61047d36600461100d565b600e6020526000908152604090205460ff1681565b6103166104a036600461100d565b610d94565b6103166104b3366004611036565b610e84565b60055461035d906001600160a01b031681565b61023460115481565b610234600f5481565b61023460105481565b6103166104f436600461100d565b610e91565b60075461035d906001600160a01b031681565b6001600160a01b038116600090815260096020908152604080832054601254600c9093529083205490911161055c5780600354600361054b919061107d565b610555919061109a565b9392505050565b80600354610555919061109a565b6015818154811061057a57600080fd5b600091825260209091200154905081565b610593610f0a565b600255565b336000908152600b60205260409020546001600160a01b0316156105f55760405162461bcd60e51b815260206004820152600f60248201526e4861732062696e6420696e7669746560881b60448201526064015b60405180910390fd5b6004546001600160a01b038281169116148061062857506001600160a01b03811660009081526009602052604090205415155b6106745760405162461bcd60e51b815260206004820152601e60248201527f42696e642061646472657373206e6f7420697320612069646f2075736572000060448201526064016105ec565b336000908152600b6020526040902080546001600160a01b0319166001600160a01b0392909216919091179055565b6106ab610f64565b60145460ff16156106ee5760405162461bcd60e51b815260206004820152600d60248201526c50726573616c6520636c6f736560981b60448201526064016105ec565b336000908152600b60205260409020546001600160a01b03166107535760405162461bcd60e51b815260206004820152601760248201527f4e6f742062696e6420706172656e7420696e766974657200000000000000000060448201526064016105ec565b60165442101561076257600080fd5b60175442111561077157600080fd5b601254336000908152600c6020526040902054106107ee57600380546107969161107d565b33600090815260096020526040902054106107e95760405162461bcd60e51b815260206004820152601360248201527213dd995c881b585e08189d5e48185b5bdd5b9d606a1b60448201526064016105ec565b610844565b60035433600090815260096020526040902054106108445760405162461bcd60e51b815260206004820152601360248201527213dd995c881b585e08189d5e48185b5bdd5b9d606a1b60448201526064016105ec565b6018546003546000919061086090670de0b6b3a764000061107d565b61086a91906110ad565b6006546003546040516323b872dd60e01b815233600482015230602482015260448101919091529192506001600160a01b0316906323b872dd906064016020604051808303816000875af11580156108c6573d6000803e3d6000fd5b505050506040513d601f19601f820116820180604052508101906108ea91906110cf565b50336000908152600860205260408120805483929061090a9084906110f1565b909155505060035433600090815260096020526040812080549091906109319084906110f1565b92505081905550806011600082825461094a91906110f1565b9091555050600354600f80546000906109649084906110f1565b9091555050336000908152600b60205260408120546001600160a01b0316905b601554811015610aa5576001600160a01b03821615610aa5576000612710601583815481106109b5576109b5611104565b9060005260206000200154856109cb919061107d565b6109d591906110ad565b6001600160a01b0384166000908152600a6020526040812080549293508392909190610a029084906110f1565b925050819055508060116000828254610a1b91906110f1565b9091555050336000908152600e602052604090205460ff16158015610a405750600082115b15610a74576001600160a01b0383166000908152600d60205260408120805460019290610a6e9084906110f1565b90915550505b506001600160a01b039182166000908152600b60205260409020549091169080610a9d8161111a565b915050610984565b50336000908152600e602052604090205460ff16610c105760108054906000610acd8361111a565b9091555050336000908152600e60209081526040808320805460ff19166001179055600b9091529020546001600160a01b031690508015610ba4576001600160a01b0381166000908152600c60205260408120805460019290610b319084906110f1565b90915550506007546040516340c10f1960e01b81526001600160a01b038381166004830152678ac7230489e800006024830152909116906340c10f1990604401600060405180830381600087803b158015610b8b57600080fd5b505af1158015610b9f573d6000803e3d6000fd5b505050505b6007546040516340c10f1960e01b8152336004820152678ac7230489e8000060248201526001600160a01b03909116906340c10f1990604401600060405180830381600087803b158015610bf757600080fd5b505af1158015610c0b573d6000803e3d6000fd5b505050505b50506013546011546014805460ff19169290911015919091179055610c3460018055565b565b610c3e610f0a565b8035601655602081013560175560400135601855565b505050565b610c61610f0a565b610c346000610fbd565b610c73610f0a565b601255565b610c80610f64565b6002544211610c8e57600080fd5b336000908152600a60209081526040808320546008909252822054610cb391906110f1565b905060008111610cf45760405162461bcd60e51b815260206004820152600c60248201526b062616c616e636520697320360a41b60448201526064016105ec565b336000818152600860209081526040808320839055600a90915280822091909155600554905163a9059cbb60e01b81526004810192909252602482018390526001600160a01b03169063a9059cbb906044016020604051808303816000875af1158015610d65573d6000803e3d6000fd5b505050506040513d601f19601f82011682018060405250810190610d8991906110cf565b5050610c3460018055565b610d9c610f0a565b6040516370a0823160e01b81523060048201526000906001600160a01b038316906370a0823190602401602060405180830381865afa158015610de3573d6000803e3d6000fd5b505050506040513d601f19601f82011682018060405250810190610e079190611133565b6004805460405163a9059cbb60e01b81526001600160a01b0391821692810192909252602482018390529192509083169063a9059cbb906044016020604051808303816000875af1158015610e60573d6000803e3d6000fd5b505050506040513d601f19601f82011682018060405250810190610c5491906110cf565b610e8c610f0a565b600355565b610e99610f0a565b6001600160a01b038116610efe5760405162461bcd60e51b815260206004820152602660248201527f4f776e61626c653a206e6577206f776e657220697320746865207a65726f206160448201526564647265737360d01b60648201526084016105ec565b610f0781610fbd565b50565b6000546001600160a01b03163314610c345760405162461bcd60e51b815260206004820181905260248201527f4f776e61626c653a2063616c6c6572206973206e6f7420746865206f776e657260448201526064016105ec565b600260015403610fb65760405162461bcd60e51b815260206004820152601f60248201527f5265656e7472616e637947756172643a207265656e7472616e742063616c6c0060448201526064016105ec565b6002600155565b600080546001600160a01b038381166001600160a01b0319831681178455604051919092169283917f8be0079c531659141344cd1fd0a4f28419497f9722a3daafe3b4186f6b6457e09190a35050565b60006020828403121561101f57600080fd5b81356001600160a01b038116811461055557600080fd5b60006020828403121561104857600080fd5b5035919050565b60006060828403121561106157600080fd5b50919050565b634e487b7160e01b600052601160045260246000fd5b808202811582820484141761109457611094611067565b92915050565b8181038181111561109457611094611067565b6000826110ca57634e487b7160e01b600052601260045260246000fd5b500490565b6000602082840312156110e157600080fd5b8151801515811461055557600080fd5b8082018082111561109457611094611067565b634e487b7160e01b600052603260045260246000fd5b60006001820161112c5761112c611067565b5060010190565b60006020828403121561114557600080fd5b505191905056fea2646970667358221220c1eefb7278ecec12979cebcacbc47806284b96332457fc9cff8fc30b84c13ef264736f6c63430008150033",
  "linkReferences": {},
  "deployedLinkReferences": {}
}