{
  "_format": "hh-sol-artifact-1",
  "contractName": "Utils",
  "sourceName": "contracts/Utils.sol",
  "abi": [
    {
      "inputs": [
        {
          "internalType": "uint256",
          "name": "k",
          "type": "uint256"
        },
        {
          "internalType": "uint256",
          "name": "q",
          "type": "uint256"
        },
        {
          "internalType": "uint256",
          "name": "n",
          "type": "uint256"
        },
        {
          "internalType": "uint256",
          "name": "p",
          "type": "uint256"
        }
      ],
      "name": "calcReward",
      "outputs": [
        {
          "internalType": "uint256",
          "name": "",
          "type": "uint256"
        }
      ],
      "stateMutability": "pure",
      "type": "function"
    },
    {
      "inputs": [
        {
          "internalType": "uint256",
          "name": "currentBalance",
          "type": "uint256"
        },
        {
          "internalType": "uint256",
          "name": "currentBNBPool",
          "type": "uint256"
        },
        {
          "internalType": "uint256",
          "name": "totalSupply",
          "type": "uint256"
        },
        {
          "internalType": "uint256",
          "name": "rewardHardcap",
          "type": "uint256"
        }
      ],
      "name": "calculateBNBReward",
      "outputs": [
        {
          "internalType": "uint256",
          "name": "",
          "type": "uint256"
        }
      ],
      "stateMutability": "pure",
      "type": "function"
    },
    {
      "inputs": [
        {
          "internalType": "uint256",
          "name": "currentRecipientBalance",
          "type": "uint256"
        },
        {
          "internalType": "uint256",
          "name": "basedRewardCycleBlock",
          "type": "uint256"
        },
        {
          "internalType": "uint256",
          "name": "threshHoldTopUpRate",
          "type": "uint256"
        },
        {
          "internalType": "uint256",
          "name": "amount",
          "type": "uint256"
        }
      ],
      "name": "calculateTopUpClaim",
      "outputs": [
        {
          "internalType": "uint256",
          "name": "",
          "type": "uint256"
        }
      ],
      "stateMutability": "pure",
      "type": "function"
    },
    {
      "inputs": [
        {
          "internalType": "uint256",
          "name": "amount",
          "type": "uint256"
        },
        {
          "internalType": "address",
          "name": "routerAddress",
          "type": "address"
        }
      ],
      "name": "getAmountsout",
      "outputs": [
        {
          "internalType": "uint256",
          "name": "_amount",
          "type": "uint256"
        }
      ],
      "stateMutability": "view",
      "type": "function"
    },
    {
      "inputs": [
        {
          "internalType": "uint256",
          "name": "firstBuy",
          "type": "uint256"
        }
      ],
      "name": "getAntiFlipTaxNo",
      "outputs": [
        {
          "internalType": "uint8",
          "name": "taxNo",
          "type": "uint8"
        }
      ],
      "stateMutability": "view",
      "type": "function"
    }
  ],
  "bytecode": "0x61101c61003a600b82828239805160001a60731461002d57634e487b7160e01b600052600060045260246000fd5b30600052607381538281f3fe730000000000000000000000000000000000000000301460806040526004361061009d5760003560e01c80637b1c1776116100705780637b1c1776146101225780637e5bfbed146101425780638958b5a914610155578063c549d3ae14610168578063cf6c62ea1461018857600080fd5b806333065a3a146100a25780634432ba7f146100c857806356feb11b146100db5780636b0f4a74146100fd575b600080fd5b6100b56100b0366004610ad1565b6101a8565b6040519081526020015b60405180910390f35b6100b56100d6366004610ad1565b6101dc565b8180156100e757600080fd5b506100fb6100f6366004610b1b565b6102c7565b005b61011061010b366004610b47565b610411565b60405160ff90911681526020016100bf565b81801561012e57600080fd5b506100fb61013d366004610b60565b6104a7565b6100b5610150366004610ba1565b6105fc565b6100b5610163366004610ad1565b610779565b81801561017457600080fd5b506100fb610183366004610b60565b6107c6565b81801561019457600080fd5b506100fb6101a3366004610bd1565b61091a565b6000808285116101b857846101ba565b825b90506101d0846101ca83896109cf565b90610a5d565b9150505b949350505050565b600084836001838583106101f057856101f2565b865b955060015b8681116102b95781156102425761020e818a610d11565b83610219868d610d1d565b6102239190610d34565b61022d9190610d34565b6102379086610d56565b94506000915061027c565b61024c818a610d11565b83610257868d610d1d565b6102619190610d34565b61026b9190610d34565b6102759086610d69565b9450600191505b6102868189610d69565b6102909085610d1d565b935061029d816001610d56565b6102a79084610d1d565b92506102b281610d7c565b90506101f7565b509298975050505050505050565b60408051600280825260608201835284926000929190602083019080368337019050509050308160008151811061030057610300610dab565b60200260200101906001600160a01b031690816001600160a01b031681525050816001600160a01b031663ad5c46486040518163ffffffff1660e01b8152600401602060405180830381865afa15801561035e573d6000803e3d6000fd5b505050506040513d601f19601f820116820180604052508101906103829190610dc1565b8160018151811061039557610395610dab565b6001600160a01b03928316602091820292909201015260405163791ac94760e01b81529083169063791ac947906103d9908690600090869030904290600401610e22565b600060405180830381600087803b1580156103f357600080fd5b505af1158015610407573d6000803e3d6000fd5b5050505050505050565b6000620151806104218342610d69565b101561042f57506000919050565b62093a8061043d8342610d69565b101561044b57506001919050565b62278d006104598342610d69565b101561046757506002919050565b624f1a006104758342610d69565b101561048357506003919050565b6276a7006104918342610d69565b101561049f57506004919050565b506005919050565b60408051600280825260608201835285926000929190602083019080368337019050509050816001600160a01b031663ad5c46486040518163ffffffff1660e01b8152600401602060405180830381865afa15801561050a573d6000803e3d6000fd5b505050506040513d601f19601f8201168201806040525081019061052e9190610dc1565b8160008151811061054157610541610dab565b60200260200101906001600160a01b031690816001600160a01b031681525050308160018151811061057557610575610dab565b6001600160a01b0392831660209182029290920101528216635c11d79584600084886105a342610168610d56565b6040518663ffffffff1660e01b81526004016105c3959493929190610e22565b600060405180830381600087803b1580156105dd57600080fd5b505af11580156105f1573d6000803e3d6000fd5b505050505050505050565b604080516002808252606082018352600092849284929091602083019080368337019050509050816001600160a01b031663ad5c46486040518163ffffffff1660e01b8152600401602060405180830381865afa158015610661573d6000803e3d6000fd5b505050506040513d601f19601f820116820180604052508101906106859190610dc1565b8160008151811061069857610698610dab565b60200260200101906001600160a01b031690816001600160a01b03168152505030816001815181106106cc576106cc610dab565b6001600160a01b03928316602091820292909201015260405163d06ca61f60e01b815260009184169063d06ca61f9061070b9089908690600401610e5e565b600060405180830381865afa158015610728573d6000803e3d6000fd5b505050506040513d6000823e601f3d908101601f191682016040526107509190810190610e77565b90508060018151811061076557610765610dab565b602002602001015193505050505b92915050565b60008061078b866101ca8560646109cf565b90508381106107ba5760006107a560646101ca88856109cf565b90508581106107b15750845b91506101d49050565b50600095945050505050565b60408051600280825260608201835285926000929190602083019080368337019050509050816001600160a01b031663ad5c46486040518163ffffffff1660e01b8152600401602060405180830381865afa158015610829573d6000803e3d6000fd5b505050506040513d601f19601f8201168201806040525081019061084d9190610dc1565b8160008151811061086057610860610dab565b60200260200101906001600160a01b031690816001600160a01b031681525050308160018151811061089457610894610dab565b6001600160a01b039283166020918202929092010152821663b6f9de9584600084886108c242610168610d56565b6040518663ffffffff1660e01b81526004016108e19493929190610f35565b6000604051808303818588803b1580156108fa57600080fd5b505af115801561090e573d6000803e3d6000fd5b50505050505050505050565b836001600160a01b03811663f305d7198330866000808a61093d42610168610d56565b60405160e089901b6001600160e01b03191681526001600160a01b039687166004820152602481019590955260448501939093526064840191909152909216608482015260a481019190915260c40160606040518083038185885af11580156109aa573d6000803e3d6000fd5b50505050506040513d601f19601f820116820180604052508101906104079190610f6a565b6000826000036109e157506000610773565b60006109ed8385610d1d565b9050826109fa8583610d34565b14610a565760405162461bcd60e51b815260206004820152602160248201527f536166654d6174683a206d756c7469706c69636174696f6e206f766572666c6f6044820152607760f81b60648201526084015b60405180910390fd5b9392505050565b6000610a5683836040518060400160405280601a81526020017f536166654d6174683a206469766973696f6e206279207a65726f00000000000081525060008183610abb5760405162461bcd60e51b8152600401610a4d9190610f98565b506000610ac88486610d34565b95945050505050565b60008060008060808587031215610ae757600080fd5b5050823594602084013594506040840135936060013592509050565b6001600160a01b0381168114610b1857600080fd5b50565b60008060408385031215610b2e57600080fd5b8235610b3981610b03565b946020939093013593505050565b600060208284031215610b5957600080fd5b5035919050565b600080600060608486031215610b7557600080fd5b8335610b8081610b03565b92506020840135610b9081610b03565b929592945050506040919091013590565b60008060408385031215610bb457600080fd5b823591506020830135610bc681610b03565b809150509250929050565b60008060008060808587031215610be757600080fd5b8435610bf281610b03565b93506020850135610c0281610b03565b93969395505050506040820135916060013590565b634e487b7160e01b600052601160045260246000fd5b600181815b80851115610c68578160001904821115610c4e57610c4e610c17565b80851615610c5b57918102915b93841c9390800290610c32565b509250929050565b600082610c7f57506001610773565b81610c8c57506000610773565b8160018114610ca25760028114610cac57610cc8565b6001915050610773565b60ff841115610cbd57610cbd610c17565b50506001821b610773565b5060208310610133831016604e8410600b8410161715610ceb575081810a610773565b610cf58383610c2d565b8060001904821115610d0957610d09610c17565b029392505050565b6000610a568383610c70565b808202811582820484141761077357610773610c17565b600082610d5157634e487b7160e01b600052601260045260246000fd5b500490565b8082018082111561077357610773610c17565b8181038181111561077357610773610c17565b600060018201610d8e57610d8e610c17565b5060010190565b634e487b7160e01b600052604160045260246000fd5b634e487b7160e01b600052603260045260246000fd5b600060208284031215610dd357600080fd5b8151610a5681610b03565b600081518084526020808501945080840160005b83811015610e175781516001600160a01b031687529582019590820190600101610df2565b509495945050505050565b85815284602082015260a060408201526000610e4160a0830186610dde565b6001600160a01b0394909416606083015250608001529392505050565b8281526040602082015260006101d46040830184610dde565b60006020808385031215610e8a57600080fd5b825167ffffffffffffffff80821115610ea257600080fd5b818501915085601f830112610eb657600080fd5b815181811115610ec857610ec8610d95565b8060051b604051601f19603f83011681018181108582111715610eed57610eed610d95565b604052918252848201925083810185019188831115610f0b57600080fd5b938501935b82851015610f2957845184529385019392850192610f10565b98975050505050505050565b848152608060208201526000610f4e6080830186610dde565b6001600160a01b03949094166040830152506060015292915050565b600080600060608486031215610f7f57600080fd5b8351925060208401519150604084015190509250925092565b600060208083528351808285015260005b81811015610fc557858101830151858201604001528201610fa9565b506000604082860101526040601f19601f830116850101925050509291505056fea2646970667358221220baa0a5ea09966d24b57b57b01c25a0303874bfb771f1d56288eed0b1f7c8b3f764736f6c63430008150033",
  "linkReferences": {},
  "deployedLinkReferences": {}
}